:100000000C945A230C948B230C948B230C948B23E9
:100010000C948B230C948B230C948B230C948B23A8
:100020000C948B230C949EF20C949EF20C949EF2F2
:100030000C948B230D947E2E0C948B230C948B2389
:100040000C948B230D9487030C948B230C948B239B
:100050000C948B230C948B230D9453400D94342ECD
:100060000C948B230C9402440C94F8430C948B2333
:100070000C948B230C948B230C948B230C948B2348
:100080000C948B230C948B230C948B230C948B2338
:100090000C948B230C948B230C948B230C948B2328
:1000A0000C948B230C948B230C948B230C948B2318
:1000B0000C948B230C948B230C948B230C948B2308
:1000C0000C948B230C948B230C948B230C948B23F8
:1000D0000C948B230C948B230C948B230C948B23E8
:1000E0000C948B237789618A7D89878991899B8983
:1000F000B189BE89618ACB89618A618A618A618A94
:10010000618AD989618AE189EB89FF89118A208A0C
:10011000618A2A8A348A3E8A4D8A618A578A808A0D
:10012000A68B898A968AA38AB08AC98AD98AA68B1D
:10013000E98AA68BA68BA68BA68BA68BFA8AA68BA2
:10014000058B158B2C8B448B568BA68B638B708BFE
:100150007D8B8F8BA68B9C8BC58BEB8CCE8BDB8B9F
:10016000E88BF58B0E8C1E8CEB8C2E8CEB8CEB8C39
:10017000EB8CEB8CEB8C3F8CEB8C4A8C5A8C718C1F
:10018000898C9B8CEB8CA88CB58CC28CD48CEB8C22
:10019000E18C0A8DE48D108D188D208D288D3E8D7B
:1001A000498DE48D548DE48DE48DE48DE48DE48DF2
:1001B000608DE48D688D738D868D988DAA8DE48D0C
:1001C000B48DBC8DC48DD38DE48DDD8D09E30DE33D
:1001D00022E32DE35BE337E35BE351E344E35DE4D8
:1001E00063E468E476E47CE47EE484E489E4A5E402
:1001F000A5E490E4A5E495E49BE4A0E4C5E4CBE4A5
:10020000D0E4DEE4E4E4E6E4ECE4F1E40DE50DE55D
:10021000F8E40DE5FDE403E508E52DE533E538E513
:1002200046E54CE54EE554E559E575E575E560E5CF
:1002300075E565E56BE570E594E59AE59FE5ADE567
:10024000B3E5B5E5BBE5C0E5DCE5DCE5C7E5DCE548
:10025000CCE5D2E5D7E51AE620E62AE635E640E623
:100260004BE656E661E695E695E695E695E66CE69C
:10027000B4E6C0E6D0E6E1E6F2E603E714E725E7F8
:100280005CE75CE75CE75CE733E77BE787E797E7FA
:10029000A8E7B9E7CAE7DBE7ECE723E823E823E8C8
:1002A00023E8FAE742E84BE859E864E86FE87AE8BF
:1002B00085E88FE8BFE8BFE8BFE8BFE899E8C5F187
:1002C000C8F1B7F1BBF1C1F1FFF1CCF1D0F1D6F13A
:1002D000DAF1DEF1E4F1E8F1ECF1FFF1F2F1F6F13F
:1002E000FAF114F419F41EF428F432F4ABF43CF4EB
:1002F00044F44CF456F460F46AF479F483F4ABF407
:100300008DF497F4A1F4084AD73B3BCE016E84BC30
:10031000BFFDC12F3D6C74319ABD56833DDA3D005F
:10032000C77F11BED9E4BB4C3E916BAAAABE0000A8
:1003300000803F05A84CCDB2D44EB93836A9020C86
:1003400050B9918688083CA6AAAA2ABE000000805F
:100350003F000C94D0F10C942DBF0C945E950C943E
:1003600097F40C9451E30C94B3E50C94D2E50C94FF
:10037000F6F10C9442E80C94DEE40C9407840C949F
:100380007D890C94E1890C9401C10C94448B0C94EC
:1003900076E40C9414E70C94D48C0C94C7470C941A
:1003A000988D0C94708B0C94CB890C94DAF10C948E
:1003B00032810C94F8BC0C946CEE0C94CE8B0C94A3
:1003C0009BF70C942A510C94FA810C9459830C9449
:1003D00001820D94BB480C9454830C9425E70C9433
:1003E00072C30C945CE70D94AB3C0C94C48D0C94DC
:1003F00060F40C9462920C942C8B0C94616B0C94B2
:10040000ECE70C945DE40D94EE470C94498D0C944C
:10041000E4E40C944BE60C9433E70C94A3F70C94AF
:100420009AE50C94E88B0C94F1E40C94AA8D0C944E
:1004300084BD0C9476EE0C94B48D0C94E97D0C94F0
:1004400088EB0C9471BD0C9435950C94CF7D0C9475
:10045000578A0C94B9E70C94DBE70C9483F40C9462
:10046000CCF10C9451BF0C9413840C9443830C94E2
:10047000ECE40C941E8C0C9435E60C9460850C9482
:1004800097E70C94108D0C9455440C94638B0C944A
:10049000118A0C9433BF0C94738D0C94E6E40C9485
:1004A000FF890D94A2480C943D830C94DB8B0C9433
:1004B000D17D0C94608D0C94DFBC0C9490E40C9472
:1004C00028920C9489E40C94CBE40C94F2E60C94FE
:1004D00020E60C94F8560C9487890D949E2D0C946C
:1004E0001AE60C9444E30C94E5BE0C9453990C94D6
:1004F000968A0C941BBF0C940E8C0C94B8870C94A9
:1005000064E80C9445830C9438E50C945EEE0C94EE
:10051000C1F10C949C8B0C9459E80C9459EE0C94FA
:100520007AC30C946A950C942DE30C94A68B0C94CE
:1005300056F40C94ADE50C9459E50C9494E50D94A7
:10054000D32D0C9486F70C94C0E50C94F3810D9494
:10055000EC470C9475E50C94188D0C949DBD0C948F
:100560006FE80C9414780C94548D0C94BBF10C949B
:10057000CAE70C94D98A0C947BE70C94F4E80C94A9
:10058000C98A0C944EE90C9419F40C944A830C9487
:10059000D6F10C943B920C9454920C9491890C9447
:1005A0004F830C94898C0C94618A0C949FF70C9463
:1005B0008F8B0C947AE80C9495E40C9474C30C948F
:1005C000FAF10C94D0E60C944EE50C940DE50C94E5
:1005D000718C0C9476C30C9431970C94FFF10C94AD
:1005E00056E60C9464950C94E37D0C947CE40C9496
:1005F000D7E90C9427BF0C9495E60C9453C30C9444
:10060000FDE40D94AB480C9478C30D942F480C94E2
:10061000C5F10C9485E80C94E4F10C949B890C943E
:1006200043BD0C940A8D0C943D970C9454E50C94A6
:100630004C440D94FD7D0C94ECF10C9437830C9498
:100640001B830D94052E0C946BE50C9440780C9450
:10065000DEF10C94C8F10C9461E60C94D1E80C9492
:10066000B08A0C944BBF0D94D52D0C9487E70C9455
:100670009FE50C942E510C944CE50C940D840C9435
:1006800063840D94E92D0C94DCE50C941EF40C9419
:10069000C28C0C9439950C94B6BD0C9444F40C9413
:1006A0000B830C9474920C945BE30C948FE80C9481
:1006B00002C50C949BE40C94208D0C9435F70C949B
:1006C000D7810C943CF40C9408E50C9408820C94AB
:1006D000C7E50C9489F10C94EA810C94BBE50C9469
:1006E0000DE30C9423830C940F820C946AF40C9405
:1006F0007D8B0C9463EE0C945C840C94E18C0C94D4
:10070000BFE80C9409E30C94158B0D9425000C9410
:1007100069780C94E2830D946C490C94B4E60D94C2
:100720004E480C942DE50C9413830D94C82D0C9415
:1007300099E80C94898A0C9445BF0C9430510C9420
:10074000A8E70C94C7BE0C9439BF0C94D38D0C94BD
:100750007D7C0C94D5E80C949B8C0C944CF40D94FB
:10076000B3480C94FAE70C9420F10C948AF70C949B
:10077000E8F10D9412000C944BE80C9465E50C9490
:10078000208A0C942B830C94DD8D0C9470E50C94D2
:1007900003E70C9421BF0C94568B0C945A8C0C9448
:1007A000F3C40C94D0E40C9451590C9411BD0C94E6
:1007B000F2F10C94CCE50C94D2E80C943F8C0C94A0
:1007C000058B0C943EC20C942ABD0C9412BF0C9461
:1007D000F4BE0C9479F40C94C5BD0C94015B0C949C
:1007E0008DF40C94B1890C94D2860C943E8D0C94AB
:1007F0004D8A0C9460E50C9428F40C94688D0C944C
:1008000032F40C942E8C0C94A1F40C9446E50C94C8
:10081000A5E40C94FA8A0C94C0E60C94BC8D0C945C
:10082000C2BE0C947EE40C9458950C94ABF40C94DA
:10083000A38A0C94348A0C9477890C94EB890D94D8
:100840001B7E0C94F58B0C9408F10C942CE90C9401
:10085000A0E40C9403E50C94808A0C94868D0C948F
:10086000B5E50C9422E30C94E7830C9440E60C94D9
:1008700068E40C9437E30C94E98A0C9421F10C940D
:100880004A8C0C94E97E0C94BE890C94D9890C9402
:1008900049440C9401840C94C58B0C94EB8C0C94FF
:1008A00045950C94D6BE0C942AE60C94B58C0C9409
:1008B000F8E40C942A8A0C9463E40C946CE60C948F
:1008C00084E40C940AE90C9437780C943FBF0C94A0
:1008D000B7F10D94D64A0C94D7E50C9471F10C94B1
:1008E00023E80C94A88C0C947AE90C94E48D0C9475
:1008F00014F40C945EBD0C94E1E60D94034D0C943D
:10090000A9530C94DD830C94DDE80C943E8A0C947E
:100910002C510C9433E50C9403BF0C94288D0C944B
:10092000C5E44E414E494E495459494E46CDCCCC72
:100930003D0AD7233C17B7D13877CC2B329595E6B3
:10094000241FB14F0A000020410000C84200401C93
:100950004620BCBE4CCA1B0E5AAEC59D7400407AE0
:1009600010F35A00A0724E18090010A5D4E8000038
:10097000E87648170000E40B54020000CA9A3B00D6
:100980000000E1F505000080969800000040420F4D
:10099000000000A08601000000102700000000E811
:1009A00003000000006400000000000A00000000D6
:1009B000000100000000002C76D888DC674F082377
:1009C000DFC1DFAE59E1B1B796E5E3E453C63AE6DD
:1009D00051997696E8E6C28426EB898C9B62ED40BD
:1009E0007C6FFCEFBC9C9F40F2BAA56FA5F490050C
:1009F0005A2AF75C936B6CF9676DC11BFCE0E40D40
:100A000047FEF520E6B500D0ED902E030094357733
:100A1000050080841E080000204E0A000000C80C5B
:100A2000333333330F986E12831141EF8D211489C4
:100A30003BE65516CFFEE6DB18D1844B381BF77C1E
:100A40001D901DA4BBE424203284725E228100C963
:100A5000F124ECA1E53D274C4556454C494E470055
:100A6000434F4D4D554E49434154494F4E0044521A
:100A70005952554E004552524F525300494E464F1F
:100A8000004543484F0047322F47332062616420BE
:100A9000706172616D65746572730A00536C65658F
:100AA000702E2E2E003E20686F6D696E67206E6F6F
:100AB00074206E65656465642C20736B69700A0030
:100AC0004D65736820706F696E74206F7574206F48
:100AD000662072616E67650A00436C69636B2074FF
:100AE0006F20526573756D652E2E2E004E6F204D52
:100AF0006F76652E00456E642066696C65206C69B2
:100B000073740A00426567696E2066696C65206CC3
:100B10006973740A00286E6F2066696C652900434A
:100B2000757272656E742066696C653A2000534474
:100B3000207072696E74696E672062797465200036
:100B40004E6F74205344207072696E74696E670A28
:100B5000005072696E742074696D653A2000496EA8
:100B600076616C69642050696E204D6F64650A007F
:100B70000A53746174733A2046696C616D656E74D2
:100B800020757365643A20002C204C6F6E67657386
:100B900074206A6F623A2000546F74616C2074692B
:100BA0006D653A20002C204661696C65643A20002E
:100BB0002C2046696E69736865643A20005072693A
:100BC0006E74733A200053746174733A20004520A8
:100BD0002553006F66660044454255473A004D3143
:100BE00031322053687574646F776E004D31313344
:100BF00020530042656420436F6F6C696E672E2E30
:100C00002E004265642048656174696E672E2E2E41
:100C10000048453344204B323830204F46462E00A2
:100C20004348414D4245525F54454D504552415411
:100C300055524500424142595354455050494E4740
:100C40000041524353004D4F54494F4E5F4D4F4466
:100C5000455300544845524D414C5F50524F544506
:100C60004354494F4E004C4F4E475F46494C454E0A
:100C7000414D45004155544F5245504F52545F53DA
:100C8000445F53544154555300534443415244002C
:100C900050524F4D50545F535550504F5254004591
:100CA0004D455247454E43595F50415253455200BE
:100CB000434153455F4C494748545F425249474876
:100CC000544E45535300544F47474C455F4C49479A
:100CD00048545300534F4654574152455F504F5765
:100CE0004552004255494C445F50455243454E548D
:100CF000004C4556454C494E475F44415441005ACB
:100D00005F50524F42450052554E4F555400415589
:100D1000544F4C4556454C005052494E545F4A4F33
:100D2000420050524F4752455353004155544F5281
:100D300045504F52545F54454D5000564F4C554D01
:100D400045545249430042494E4152595F46494C2D
:100D5000455F5452414E5346455200534552494116
:100D60004C5F584F4E5F584F4646004649524D57CC
:100D70004152455F4E414D453A4D61726C696E205E
:100D80006275676669782D322E302E78202844658A
:100D90006320203620323032302032313A35393A31
:100DA00032392920534F555243455F434F44455FE5
:100DB00055524C3A68747470733A2F2F676974688F
:100DC00075622E636F6D2F4D61726C696E4669722C
:100DD0006D776172652F4D61726C696E2050524F54
:100DE000544F434F4C5F56455253494F4E3A312E64
:100DF00030204D414348494E455F545950453A488B
:100E0000453344204B3238302045585452554445E0
:100E1000525F434F554E543A3120555549443A6339
:100E2000656465326132662D343161322D34373478
:100E3000382D396231322D633535633632663336BB
:100E40003766660A002F2F20004D31343520533C81
:100E5000696E6465783E206F7574206F66207261DC
:100E60006E67652028302D31290A00416363656C67
:100E700065726174696F6E3A20500020204D617870
:100E80003A200020204D696E3A2000536F6674208E
:100E9000656E6473746F70733A200046523A002096
:100EA000466C6F773A200050726F746563746564A6
:100EB0002050696E0A0020643A0020693A002070D0
:100EC0003A006469730043290A0061626C6564201A
:100ED000286D696E2074656D702000436F6C64200E
:100EE00065787472756465732061726520004D3495
:100EF000323120696E636F72726563742070617243
:100F0000616D657465722075736167650A0045459A
:100F100050524F4D204F4B0A005D203D200064652C
:100F20006C74615F656E6473746F705F61646A5B3B
:100F3000004D36363600206472697665722063751E
:100F40007272656E743A2000506F7765722D6C6F07
:100F50007373207265636F766572792000446F6EDB
:100F600065207072696E74696E672066696C650AC7
:100F7000004D3737004D333100810A7C0A750A6E07
:100F80000A600A570A4572726F7220777269746933
:100F90006E6720746F20454550524F4D210A004D19
:100FA000343130004D313132004D3130380053543E
:100FB0004F505045442E20005072696E7465722067
:100FC00073746F707065642064756520746F20653C
:100FD00072726F72732E204669782074686520657E
:100FE00072726F7220616E6420757365204D39399D
:100FF0003920746F20726573746172742E202854C6
:10100000656D7065726174757265206973207265B3
:101010007365742E2053657420697420616674654D
:10102000722072657374617274696E67290A004E6A
:101030006F20436865636B73756D207769746820F2
:101040006C696E65206E756D6265722C204C6173E3
:1010500074204C696E653A2000636865636B737534
:101060006D206D69736D617463682C204C617374BD
:10107000204C696E653A20004C696E65204E756D96
:10108000626572206973206E6F74204C61737420E6
:101090004C696E65204E756D6265722B312C204C4B
:1010A000617374204C696E653A20004D3131300017
:1010B00053442072656164206572726F720A002168
:1010C00021204B494C4C2063617573656420627923
:1010D000204B494C4C20627574746F6E2F70696E92
:1010E0000A002121204B494C4C20636175736564D3
:1010F00020627920746F6F206D75636820696E615E
:1011000063746976652074696D65202D206375723E
:1011100072656E7420636F6D6D616E643A2000625B
:101120007573793A2070617573656420666F7220FB
:10113000696E7075740A00627573793A2070617512
:1011400073656420666F7220757365720A0062753C
:1011500073793A2070726F63657373696E670A0002
:101160004D656469612052656D6F766564004D65FB
:1011700064696120496E736572746564004D313035
:101180003030205300506C65617365205265736583
:1011900074005052494E5445522048414C544544E5
:1011A0000025533A202553004B494C4C45442E20F2
:1011B000005072696E7465722068616C7465642E8B
:1011C000206B696C6C28292063616C6C6564210A52
:1011D000006563686F3A004572726F723A0066612B
:1011E0006C736500747275650020286469736162B0
:1011F0006C6564290A0041424C2041646A7573742D
:101200006D656E74205A002028656E61626C65649D
:10121000290A0041626F76650053616D65205A208E
:1012200061730042656C6F77004175746F20426591
:1012300064204C6576656C696E673A2042494C497A
:101240004E45415200204E6F7A7A6C65290A002083
:101250002620002D43656E746572002D46726F6EF8
:1012600074002D4261636B002028416C69676E65D4
:101270006420576974680020284D6964646C6500B7
:1012800020284C65667400202852696768740050F5
:10129000726F62653A204649585F4D4F554E54452E
:1012A000445F50524F42450A004D616368696E6564
:1012B00020547970653A2044656C74610A005D0AB7
:1012C000004578747261706F6C617465205B0036E4
:1012D0003726023C3D380F2E303E12131A1C180AD6
:1012E000074308090708440001656E717565756557
:1012F000696E672022006F6B00526573656E643AF9
:1013000020002569792025696420256968202569E0
:101310006D202569730023646566696E6520444508
:101320004641554C545F004B6420004B6920004BF4
:10133000702000504944204175746F74756E6520AB
:1013400066696E69736865642120507574207468DD
:1013500065206C617374204B702C204B6920616E8A
:1013600064204B6420636F6E7374616E74732066C7
:10137000726F6D2062656C6F7720696E746F2043A9
:101380006F6E66696775726174696F6E2E680A00A8
:10139000504944204175746F74756E6520666169AB
:1013A0006C6564212074696D656F75740A000A208C
:1013B000436C617373696320504944200A00204BD9
:1013C000643A2000204B693A2000204B703A2000FC
:1013D0002054753A2000204B753A2000206D61782A
:1013E0003A2000206D696E3A200020643A200020E7
:1013F000626961733A2000504944204175746F74EA
:10140000756E652073746172740A005049442041FE
:1014100075746F74756E65206661696C65642120F2
:1014200054656D706572617475726520746F6F209C
:10143000686967680A00504944204175746F747583
:101440006E6500504944204175746F74756E652057
:101450006661696C656421204261642065787472FC
:1014600075646572206E756D6265720A007C4D61EF
:10147000726C696E7C002D2D2D2D2D2D00456E6317
:101480006C6F73757265004D6F76696E672E2E2EC8
:1014900000A10000006900A20000006300B000008D
:1014A000000900C10000004100C20000004100C36B
:1014B0000000004100C40000004100C500000041E0
:1014C00000C60000004145C70000004300C80000FE
:1014D000004500C90000004500CD0000004900D1D2
:1014E0000000004E00D50000004F00D60000004F65
:1014F00000D70000007800DC0000005500DD00008F
:10150000005900E00000006100E10000006100E21D
:101510000000006100E30000006100E400000061E1
:1015200000E50000006100E60000006165E70000E2
:10153000006300E80000006500E90000006500EAC3
:101540000000006500EB0000006500EC0000006991
:1015500000ED0000006900EE0000006900EF0000EF
:10156000006900F10000006E00F20000006F00F35F
:101570000000006F00F40000006F00F50000006F35
:1015800000F60000006F00F80000006F00F9000096
:10159000007500FA0000007500FB0000007500FCFB
:1015A0000000007500FD0000007900FF00000079D8
:1015B0000004010000410005010000610006010077
:1015C0000043000701000063000C01000043000D10
:1015D00001000063000E01000044000F01000064E0
:1015E000001101000064001901000065001A0100EB
:1015F0000045001B01000065001F0100006700306E
:101600000100004900310100006900410100004C67
:1016100000420100006C00430100004E0044010044
:10162000006E00480100006E005801000052005991
:1016300001000072005A01000053005B01000073BA
:10164000005F0100007300600100005300610100B1
:101650000073006501000074006F01000075007CDC
:101660000100007A007D0100005A007E0100007A2E
:1016700000920100006600E30200007800222000D2
:10168000002E001E210000507822210000544D90B1
:101690002100003C2D922100002D3EB021000003CE
:1016A00000BB21000004003C2200007E0048220014
:1016B000007E3D60220000213D612200003D00646B
:1016C0002200003C3D652200003E3DF12300000762
:1016D00000A03000003D0021F301000200C2F4012F
:1016E000000500A2000000EC00B0000000DF00E4F4
:1016F000000000E100F6000000EF00F7000000FD30
:1017000000FC000000F500E3020000EB008703008E
:1017100000A5008F030000F40098030000F2009E73
:10172000030000E300A3030000F600A9030000F497
:1017300000AC030000E000AD030000E300B10300D3
:1017400000E000B2030000E200B5030000E300B8CF
:10175000030000F200BC030000E400BE030000E34D
:1017600000C0030000F700C1030000E600C303004F
:1017700000E500902100007F00922100007E001A09
:10178000220000E8001E220000F30088250000FF70
:101790000002300000A1000C300000A2000D30005B
:1017A00000A3009B300000DE009C300000DF00A0A2
:1017B0003000003D00A1300000A700A2300000B1C1
:1017C00000A3300000A800A4300000B200A5300043
:1017D00000A900A6300000B300A7300000AA00A8AE
:1017E000300000B400A9300000AB00AA300000B502
:1017F00000AB300000B600AC300000B6DEAD30000B
:1018000000B700AE300000B7DEAF300000B800B067
:10181000300000B8DEB1300000B900B2300000B9CD
:10182000DEB3300000BA00B4300000BADEB53000DC
:1018300000BB00B6300000BBDEB7300000BC00B813
:10184000300000BCDEB9300000BD00BA300000BD81
:10185000DEBB300000BE00BC300000BEDEBD30008C
:1018600000BF00BE300000BFDEBF300000C000C0BF
:10187000300000C0DEC1300000C100C2300000C135
:10188000DEC3300000AF00C4300000C200C530002D
:1018900000C2DEC6300000C300C7300000C3DEC88F
:1018A000300000C400C9300000C4DECA300000C5EA
:1018B00000CB300000C600CC300000C700CD3000A7
:1018C00000C800CE300000C900CF300000CA00D0F0
:1018D000300000CADED1300000CADFD2300000CBB9
:1018E00000D3300000CBDED4300000CBDFD5300099
:1018F00000CC00D6300000CCDED7300000CCDFD8E2
:10190000300000CD00D9300000CDDEDA300000CD4F
:10191000DFDB300000CE00DC300000CEDEDD30004A
:1019200000CEDFDE300000CF00DF300000D000E06E
:10193000300000D100E1300000D200E2300000D3DE
:1019400000E3300000AC00E4300000D400E53000DB
:1019500000AD00E6300000D500E7300000AE00E842
:10196000300000D600E9300000D700EA300000D88F
:1019700000EB300000D900EC300000DA00ED300060
:1019800000DB00EF300000DC00F2300000A600F3C6
:10199000300000DD00F4300000B3DEF7300000DC82
:1019A000DEFA300000A6DEFB300000A500FC3000AF
:1019B00000B000FD300000A400074E0000FB0086D0
:1019C000510000FC0043530000FA0064FF0000A433
:1019D0000065FF0000A50066FF0000A60067FF008D
:1019E00000A70068FF0000A80069FF0000A9006AC6
:1019F000FF0000AA006BFF0000AB006CFF0000AC12
:101A0000006DFF0000AD006EFF0000AE006FFF0034
:101A100000AF0070FF0000B00071FF0000B1007265
:101A2000FF0000B20073FF0000B30074FF0000B4B9
:101A30000075FF0000B50076FF0000B60077FF00DC
:101A400000B70078FF0000B80079FF0000B9007A05
:101A5000FF0000BA007BFF0000BB007CFF0000BC61
:101A6000007DFF0000BD007EFF0000BE007FFF0084
:101A700000BF0080FF0000C00081FF0000C10082A5
:101A8000FF0000C20083FF0000C30084FF0000C409
:101A90000085FF0000C50086FF0000C60087FF002C
:101AA00000C70088FF0000C80089FF0000C9008A45
:101AB000FF0000CA008BFF0000CB008CFF0000CCB1
:101AC000008DFF0000CD008EFF0000CE008FFF00D4
:101AD00000CF0090FF0000D00091FF0000D10092E5
:101AE000FF0000D20093FF0000D30094FF0000D459
:101AF0000095FF0000D50096FF0000D60097FF007C
:101B000000D70098FF0000D80099FF0000D9009A84
:101B1000FF0000DA009BFF0000DB009CFF0000DC00
:101B2000009DFF0000DD009EFF0000DE009FFF0023
:101B300000DF00E5FF00005C00001C1F11111F000A
:101B4000000006191803130C00040E1F041C0000EB
:101B500000000E1315110E00001C101817050605C5
:101B600000040A0A0A0A11110E0C12120C000000DD
:101B700000001F1511151F000000000000010204E5
:101B8000040000001C1C0C040404020100000000FE
:101B900000040810000000000046696C2E20446913
:101BA000612E004520696E206D6DC2B300200220B9
:101BB00046616374002002204D6178002002204DB0
:101BC000696E004175746F74656D70005654726172
:101BD00076204D696E00566D696E00566D617820F5
:101BE0004500566D6178204300566D6178204200B3
:101BF000566D6178204100416D6178204500416D4E
:101C00006178204300416D6178204200416D617828
:101C1000204100412D54726176656C00412D526562
:101C2000747261637400416363656C0050726F622B
:101C3000653A3A646F5F7A5F726169736528006420
:101C400065706C6F793A2000203A2050726F62659F
:101C50003A3A7365745F6465706C6F7965640A0005
:101C600053657474696E67732053746F7265640092
:101C70002062797465733B2063726320005365743E
:101C800074696E67732053746F7265642028004511
:101C90004550524F4D206461746173697A652065C7
:101CA00072726F722E0A002073746F7265642073F3
:101CB000657474696E6773207265747269657665A0
:101CC00064202800202863616C63756C617465640E
:101CD00029210A0020213D2000454550524F4D202A
:101CE000435243206D69736D61746368202D202811
:101CF00073746F726564292000496E6465783A20B8
:101D000000204D61726C696E3D563831290A0045DC
:101D10004550524F4D2076657273696F6E206D6924
:101D2000736D617463682028454550524F4D3D00E6
:101D3000486F6D696E67204661696C656400576124
:101D4000726E696E673A20486F6D696E67204275E2
:101D50006D702044697669736F72203C20310A00EF
:101D60005D00646F5F686F6D696E675F6D6F76654C
:101D7000003C3C3C20686F6D6561786973280061A8
:101D8000646A44697374616E63653A00486F6D6597
:101D9000203220536C6F773A0A0020456E647374CA
:101DA0006F703F0A0042616420004D6F76652041EC
:101DB0007761793A0A00486F6D652031204661737A
:101DC000743A0A003E3E3E20686F6D656178697323
:101DD00028000A0A0A5555854255558542555585AC
:101DE000420000A0400000A0400000A04000008C85
:101DF0004300008C430080184401010100000001F1
:101E00000000000100008000555555000000400012
:101E100033333300AAAA2A0049922400000020008C
:101E2000C7711C0099991900D14517005555150027
:101E30003BB11300244912001111110000001000E1
:101E40000F0F0F00E3380E0043790D00CCCC0C00CF
:101E5000C3300C00E8A20B0064210B00AAAA0A0000
:101E6000703D0A009DD80900427B090092240900B8
:101E7000DCD3080088880800104208000000080031
:101E8000F0C107008787070075500700711C070025
:101E90003EEB0600A1BC06006990060066660600DF
:101EA000703E06006118060017F4050074D10500A5
:101EB0005BB00500B2900500627205005555050043
:101EC00078390500B81E0500050505004EEC040034
:101ED00087D40400A1BD040090A704004992040027
:101EE000C17D0400EE690400C756040044440400A8
:101EF0005C320400082104004110040000000400CA
:101F00003FF00300F8E0030026D20300C3C3030040
:101F1000CCB503003AA803000A9B0300388E0300E7
:101F2000C08103009F750300D0690300505E030069
:101F30001D53030034480300913D03003333030075
:101F400016290300381F030097150300300C030007
:101F5000030303000BFA020049F10200BAE8020091
:101F60005CE002002DD802002DD0020059C802000A
:101F7000B0C0020031B90200DAB10200AAAA020020
:101F8000A0A30200BC9C0200FA9502005C8F020034
:101F9000DF88020082820200457C02002776020070
:101FA00027700200436A02007C640200D05E0200D7
:101FB0003F590200C8530200FFFDFCFAF8F6F4F2A4
:101FC000F0EEECEAE9E7E5E3E1E0DEDCDAD9D7D5EB
:101FD000D4D2D0CFCDCBCAC8C7C5C3C2C0BFBDBC89
:101FE000BAB9B7B6B4B3B2B0AFADACAAA9A8A6A5FA
:101FF000A4A2A1A09E9D9C9A999897959493929043
:102000008F8E8D8B8A8988878684838281807F7E6C
:102010007D7B7A797877767574737271706F6E6D77
:102020006C6B6A696867666564636261605F5E5D68
:102030005C5B5A5958585756555453525150504F4B
:102040004E4D4C4B4A4A4948474646454443424216
:1020500041403F3E3E3D3C3B3B3A393838373635D0
:1020600035343332323130302F2E2E2D2C2B2B2A7B
:10207000292928272726252524232322212120201A
:102080001F1E1E1D1C1C1B1B1A19191818171616AB
:10209000151514131312121111100F0F0E0E0D0D32
:1020A0000C0C0B0A0A0909080807070606050504AF
:1020B00004030302020100004F6666004F6E0054E5
:1020C0004D4320447269766572730046616E2053F9
:1020D00070656564004D61696E00537465616C7470
:1020E0006843686F7020456E61626C65640053746C
:1020F000657070696E67204D6F6465004879627223
:102100006964205468726573686F6C640044726916
:102110007665722043757272656E7400436F6E74DB
:10212000726F6C00466C6F77002568753A25303207
:1021300068750025303268753A253032687500536D
:10214000440020202020202020004D6F74696F6EF5
:10215000004D3834004175746F20486F6D65005430
:10216000656D70657261747572650041425300500F
:102170004C41004672656520585900536F667420C3
:10218000456E6473746F70730044697361626C654B
:102190002053746570706572730050726568656174
:1021A0007420242042656400507265686561742063
:1021B0002420456E6400436F6F6C646F776E00502F
:1021C0007265686561742024006F216B2142696C1F
:1021D000696E656172204C6576656C696E67204733
:1021E0007269643A0A00203A202E2E2E4E6F772014
:1021F0004F4E0A00203A204C6576656C696E672068
:102200004F46460A00203A202E2E2E4E6F77204F42
:1022100046460A00203A204C6576656C696E672058
:102220004F4E0A0072657365745F6265645F6C652A
:1022300076656C0A002F33310050726F6265205A48
:10224000204F666673657400416476616E636564F1
:102250002053657474696E677300547A0054790072
:10226000547800457A0045790045780045646974E2
:10227000204D657368004C6576656C20426564008E
:102280004732380A47323900526573746F726520DD
:1022900044656661756C747300507265686561743D
:1022A000202420436F6E660044656C746120436196
:1022B0006C6962726174696F6E0044696167205273
:1022C0006F6400526164697573004865696768747A
:1022D000003C3C3C207365745F617869735F69738F
:1022E0005F61745F686F6D6528003E3E3E207365D8
:1022F000745F617869735F69735F61745F686F6D44
:10230000652800686F6D655F64656C7461006F704F
:10231000656E00545249474745524544007A5F6D07
:102320006178007A5F6D696E00795F6D6178007821
:102330005F6D6178005265706F7274696E672065B9
:102340006E6473746F70207374617475730A002007
:102350003A2073796E635F706C616E5F706F736942
:1023600074696F6E0A00203A207072657061726540
:102370005F666173745F6D6F76655F746F5F6465D0
:102380007374696E6174696F6E0A002020646573EE
:1023900074696E6174696F6E3D00203A207A206C1A
:1023A0006F776572206D6F76650A00203A20787924
:1023B000206D6F76650A00203A207A207261697379
:1023C00065206D6F76650A00203A207A6F6E652071
:1023D000626F72646572206D6F76650A00203A2024
:1023E00064616E676572207A6F6E65206D6F7665C9
:1023F0000A00203A2064657374696E6174696F6EB7
:10240000203D2063757272656E745F706F736974BE
:10241000696F6E0A003E2000646F5F626C6F636BD1
:10242000696E675F6D6F76655F746F00206D6178B0
:102430003A00206D696E3A0041786973200000000F
:102440000000000000000080184400000C43000061
:102450000C430080184400000CC300000CC30000B3
:1024600000004732362048656174696E67204E6F00
:102470007A7A6C65004732362048656174696E6708
:10248000204265640057616974696E6720666F72E7
:10249000206865617475702E0A004669786564204D
:1024A0004C656E677468205072696D6500446F6E8C
:1024B00065205072696D696E67004D616E75616C63
:1024C000207072696D696E672E2E2E00473236209D
:1024D00043616E63656C6564004C656176696E6727
:1024E00020473236003F5370656369666965642032
:1024F000582C5920636F6F7264696E617465206F28
:102500007574206F6620626F756E64732E0A003FCB
:1025100028522965706561742076616C7565206E3E
:102520006F7420706C61757369626C653B206D75AA
:102530007374206265206174206C6561737420314E
:102540002E0A003F537065636966696564206E6F8B
:102550007A7A6C652074656D7065726174757265E8
:10256000206E6F7420706C61757369626C652E0AE1
:10257000003F5370656369666965642066696C61D4
:102580006D656E742073697A65206E6F7420706C4F
:1025900061757369626C652E0A003F5370656369EB
:1025A00066696564207072696D65206C656E67741C
:1025B00068206E6F7420706C61757369626C652E33
:1025C0000A003F537065636966696564206E6F7ABF
:1025D0007A6C652073697A65206E6F7420706C6107
:1025E000757369626C652E0A003F5265747261638F
:1025F00074696F6E204D756C7469706C69657220BA
:102600006D757374206265207370656369666965B2
:10261000642E0A003F5370656369666965642052E1
:10262000657472616374696F6E204D756C74697046
:102630006C696572206E6F7420706C61757369626D
:102640006C652E0A003F5370656369666965642096
:102650006C6179657220686569676874206E6F7453
:1026600020706C61757369626C652E0A0043292EB7
:102670000A003F537065636966696564206265643A
:102680002074656D7065726174757265206E6F740B
:1026900020706C61757369626C65202834302D0080
:1026A000473236207374617274696E672E2E2E0A5B
:1026B0000056652D4A65726B0056432D4A65726B54
:1026C0000056422D4A65726B0056412D4A65726B69
:1026D0000050726F62652059204F66667365740002
:1026E00050726F62652058204F66667365740045AE
:1026F0002073746570732F6D6D0043205374657083
:10270000732F6D6D00422053746570732F6D6D00D3
:10271000412053746570732F6D6D00496E697400AC
:1027200046696C616D656E740050726F6265204F12
:1027300066667365747300416363656C657261748A
:10274000696F6E0056656C6F63697479005A205624
:10275000616C756500496E646578205900496E6446
:1027600065782058000009121B242D363F48415A35
:10277000536C657E7719100B023D342F2651584358
:102780004A757C676E323B2029161F040D7A7368E8
:10279000615E574C452B2239300F061D14636A7158
:1027A00078474E555C646D767F4049525B2C253EE0
:1027B0003708011A137D746F6659504B42353C2718
:1027C0002E1118030A565F444D727B60691E170C68
:1027D000053A3328214F465D546B627970070E1518
:1027E0001C232A31384148535A656C777E09001BF7
:1027F000122D243F3658514A437C756E67101902DA
:102800000B343D262F737A6168575E454C3B322965
:10281000201F160D046A6378714E475C55222B30D9
:1028200039060F141D252C373E0108131A6D647FDD
:102830007649405B523C352E2718110A03747D6699
:102840006F5059424B171E050C333A21285F564DE5
:10285000447B7269600E071C152A233831464F5499
:102860005D626B70797C3C3E5E2B3D3F2F5B5D3B38
:102870002C2A225C0020746F6F206C6F6E672065BD
:102880007874727573696F6E2070726576656E7498
:1028900065640A0020636F6C6420657874727573D8
:1028A000696F6E2070726576656E7465640A0020CB
:1028B000453A0020593A000920426164207265734C
:1028C000706F6E7365210048494748004572726F0A
:1028D000723A20416C6C200020636F6E6E656374E9
:1028E000696F6E2E2E2E200054657374696E6720FA
:1028F00000544D4320434F4E4E454354494F4E20C4
:102900004552524F5200303D2E33323500313D2E6C
:1029100031380057726974696E6720746F20666978
:102920006C653A2000667265736800646F696E6753
:10293000004E6F77200000002100240027002A00AD
:102940002D003000330001010000040107010A01DD
:1029500000000A0B02090C0D0E0807030401000019
:102960000000000000000000000000000000000067
:102970000000000000000000000000001211100024
:102980000000000000000000000000000000000047
:1029900000000000000000002000230026002900A5
:1029A0002C002F0032000001000003010601090184
:1029B00000002200250028002B002E0031003400EA
:1029C00002010000050108010B01050505050705C9
:1029D00008080808020202020A0A0808040404049B
:1029E00001010101010101010303030303030303C7
:1029F000040707070C0C0C0C0C0C0C0C0202020256
:102A000006060606060606060B0B0B0B0B0B0B0B3E
:102A100001021020200808102040102040800201F0
:102A200002010804020101020408102040808040D5
:102A300020100804020180040201804020100804D4
:102A40000201080402010102040810204080010272
:102A50000408102040804D6F76652025736D6D0051
:102A60004D6F766520302E316D6D004D6F7665208F
:102A7000316D6D004D6F76652031306D6D004D6F9D
:102A80007665204178697300486F74656E642074C0
:102A90006F6F20636F6C6400457874727564657243
:102AA000004D6F7665205A004D6F76652059004DB8
:102AB0006F76652058003F00496E697469616C69E2
:102AC0007A6520454550524F4D005072696E742012
:102AD00041626F72746564004D32350050617573E8
:102AE000696E672E2E2E00454550524F4D2056657B
:102AF0007273696F6E204572726F72004545505255
:102B00004F4D20496E646578204572726F720045A2
:102B10004550524F4D20435243204572726F720010
:102B200049676E6F7265005761726E696E673A2011
:102B3000436C65616E20436972636C6520726571D8
:102B400075697265732058590A005761726E696E13
:102B5000673A20526164697573204F7574206F66FF
:102B60002052616E67650A0024F4D43050C38E2071
:102B7000C2A24017828B7011127A910D816CD90A12
:102B8000A861E108C7586607615143061E4B5D0501
:102B9000C145A7041A411104093D98037139310355
:102BA0004036DB0265339102D4305402802E1D0280
:102BB000632CEE01752AC501B028A0011027810100
:102BC0008F2564012B244B01E0223401AC211F012D
:102BD0008D200D01801FFC00841EED00971DDF007D
:102BE000B81CD200E61BC600201BBC00641AB20051
:102BF000B219A8000A19A0006A189900D11791000B
:102C000040178B00B516840031167E00B31579008D
:102C10003A157300C7146F0058146A00EE1366006B
:102C20008813630025135E00C7125B006C12570007
:102C300015125400C111510070114F0021114B00A9
:102C4000D61049008D104700461044000210420083
:102C5000C00F4000800F3E00420F3C00060F3B00BB
:102C6000CB0E3800930E37005C0E3500270E340073
:102C7000F30D3200C10D3100900D3000600D2E00BB
:102C8000320D2D00050D2C00D90C2B00AE0C2900A7
:102C9000850C29005C0C2700350C27000E0C260043
:102CA000E80B2400C40B2400A00B23007D0B2300A1
:102CB0005A0B2100390B2100180B2000F80A1F00C5
:102CC000D90A1E00BB0A1E009D0A1D00800A1D00B5
:102CD000630A1C00470A1B002C0A1B00110A1A0079
:102CE000F7091A00DD091900C4091900AB09190018
:102CF000920917007B091800630917004C09160098
:102D000036091600200916000A091500F5081500F5
:102D1000E0081400CC081400B8081400A40814003B
:102D2000900813007D0812006B0813005808120069
:102D3000460812003408110023081100120811007F
:102D400001081100F0071000E0071000D007100084
:102D5000C0071000B0070F00A107100091070E0078
:102D600083070F0074070F0065070E0057070E005A
:102D700049070E003B070D002E070E0020070D002F
:102D800013070D0006070D00F9060C00ED060D00F7
:102D9000E0060C00D4060C00C8060C00BC060C00B3
:102DA000B0060C00A4060B0099060C008D060B0063
:102DB00082060B0077060B006C060B0061060A000A
:102DC00057060B004C060A0042060A0038060A00A5
:102DD0002E060A0024060A001A060A001006090038
:102DE00007060A00FD050900F4050900EB050900C6
:102DF000E2050900D9050900D0050900C705090049
:102E0000BE050900B5050800AD050800A5050900C7
:102E10009C050800940508008C050800840508003E
:102E20007C050800740508006C05070065050800AE
:102E30005D050700560508004E0507004705070019
:102E40004005080038050700310507002A0507007E
:102E5000230507001C050600160507000F050700DF
:102E60000805060002050700FB040600F50407003C
:102E7000EE040600E8040600E2040700DB04060096
:102E8000D5040600CF040600C9040600C3040600EA
:102E9000BD040600B7040600B1040500AC0406003A
:102EA000A6040600A00405009B0406009504050086
:102EB000900406008A0405008504050080040600CD
:102EC0007A04050075040500700405006B04050014
:102ED00066040500610405005C0405005704050054
:102EE000520405004D040500480405004304050094
:102EF0003E0404003A0405003504050030040400D3
:102F00002C04050027040400230405001E0404000B
:102F10001A04040016040500110404000D04040042
:102F2000090405000404040000040400FC03040078
:102F3000F8030400F4030400F0030400EC030400AD
:102F4000E8030400E4030400E0030400DC030400DD
:102F5000D8030400D4030400D0030400CC0304000D
:102F6000C8030300C503030024F404D9201BC40CC8
:102F70005C0E9804C4095F0265077101F405F9004D
:102F8000FB04B30048048700C103690058035500DF
:102F900003034500BE023A008402310053022A00B6
:102FA0002902250004022000E4011C00C8011900C8
:102FB000AF01170098011400840113007101100083
:102FC0006101100051010E0043010D0036010B009C
:102FD0002B010B0020010B00150109000C01090059
:102FE00003010800FB000800F3000800EB000700E5
:102FF000E4000600DE000600D8000600D20006004D
:10300000CC000500C7000500C2000500BD0004009B
:10301000B9000400B5000400B1000400AD000400D4
:10302000A9000400A5000300A20003009F00040003
:103030009B0003009800030095000200930003002A
:10304000900003008D0002008B0003008800020046
:103050008600020084000300810002007F0002005D
:103060007D0002007B000200790002007700010071
:10307000760002007400020072000100710002007C
:103080006F0002006D0001006C0002006A00010088
:103090006900020067000100660001006500010090
:1030A0006400020062000100610001006000010094
:1030B0005F0002005D0001005C0001005B00010098
:1030C0005A0001005900010058000100570001009A
:1030D000560001005500010054000100530000009B
:1030E0005300010052000100510001005000010096
:1030F0004F0001004E0000004E0001004D00010095
:103100004C0001004B0000004B0001004A00010090
:10311000490001004800000048000100470001008C
:103120004600000046000100450000004500010087
:103130004400010043000000430001004200000081
:103140004200010041000000410001004000010078
:103150003F0000003F0001003E0000003E00010073
:103160003D0000003D0001003C0000003C0000006C
:103170003C0001003B0000003B0001003A00000061
:103180003A00010039000000390001003800000059
:10319000380000003800010037000000370001004F
:1031A0003600000036000000360001003500000047
:1031B000350000003500010034000000340000003C
:1031C0003400010033000000330000003300010030
:1031D0003200000032000000320001003100000027
:1031E000310000003100010030000000300000001C
:1031F000300001002F0000002F0000002F00000011
:103200002F0001002E0000002E0000002E00010003
:103210002D0000002D0000002D0000002D000100F9
:103220002C0000002C0000002C0000002C000100ED
:103230002B0000002B0000002B0000002B000100E1
:103240002A0000002A0000002A0000002A000100D5
:1032500029000000290000002900000029000000CA
:1032600029000100280000002800000028000000BC
:1032700028000000280001002700000027000000AF
:1032800027000000270000002700010026000000A2
:103290002600000026000000260000002600010095
:1032A000250000002500000025000000250000008A
:1032B000250000002500010024000000240000007B
:1032C000240000002400000024000100230000006E
:1032D0002300000023000000230000002300000062
:1032E0002300000023000100220000002200000053
:1032F0002200000022000000220000002200010045
:103300002100000021000000210000002100000039
:103310002100000021000000210001002000000029
:10332000200000002000000020000000200000001D
:103330002000000020000000200001001F0000000D
:103340001F0000001F0000001F0000001F00000001
:103350001F0000001F0001001E0000001E000000F2
:103360001E0000001E000000393000003325000060
:1033700087190000B00F0000DB080000BD0400004A
:10338000740200003F0100005741524E494E472150
:10339000204C6F77205A204A65726B206D6179202E
:1033A0006C65616420746F20756E77616E746564FE
:1033B000207061757365732E0A00204D39322058D4
:1033C000004D32342053256C642054256C64004732
:1033D00039322E39204525730047312046256400B7
:1033E0004731205A2573204632303000473120586B
:1033F0002573205925732046333030300047313251
:10340000004D34323020532569205A2573004D3148
:1034100030362050256920532569004D3130392040
:10342000532569004D31393020532569004D323024
:103430003020442573004739322E392045300A4761
:1034400032385230004D343230205330205A300060
:103450004452565F535441545553090050574D5FE1
:103460005343414C45090050574D434F4E460900C8
:10347000434F4F4C434F4E46090043484F50434F34
:103480004E460900544849474809090054434F4FE4
:103490004C5448525309005450574D544852530904
:1034A00000545354455009090054504F5745524455
:1034B0004F574E0900494F494E090900475354419F
:1034C0005409090049484F4C445F4952554E090080
:1034D00047434F4E4609090044726976657220726F
:1034E00065676973746572733A0A00733276736242
:1034F00009007332767361090031323043090031BB
:10350000343343090031353043090031353743093D
:10351000006F7409006F7470770900733267610976
:10352000007332676209006F6C6109006F6C620999
:103530000073747374090073675F726573756C74DC
:10354000004452565354415455530075537465709A
:1035500020636F756E74005374616C6C6775617273
:1035600064207468727300202D7374617274090092
:10357000687973746572657369730A202D656E646A
:103580000900626C616E6B2074696D65006F666620
:103590002074696D650070776D20677261642061C9
:1035A00075746F0070776D206F6666736574206147
:1035B00075746F0070776D207363616C6520617541
:1035C000746F0070776D207363616C652073756D27
:1035D000004F54207072657761726E005B6D6D2FC5
:1035E000735D090050574D207468726573682E0032
:1035F000747374657009006D73746570730900737A
:103600007465616C746843686F70007673656E737F
:1036100065090050574D207363616C65004353206A
:1036200061637475616C00486F6C642063757272BD
:10363000656E740052756E2063757272656E7400EB
:103640004D41582063757272656E7400524D53205F
:1036500063757272656E740053657420637572725F
:10366000656E7400456E61626C6564090041646456
:103670007265737309007370726561644379636C7A
:10368000650020647269766572206D6F64653A0921
:103690000020737465616C746843686F70206D619D
:1036A000782073706565643A200020496E76616CFD
:1036B0006964206578747275646572200078790099
:1036C0007A7800797A00207A002079002078002E1C
:1036D0002020202000456E64204452592D52554E22
:1036E000004E6F20636F6E76657267656E6365006E
:1036F000497465726174696F6E203A2025303269B1
:1037000000536176652077697468204D353030202C
:10371000616E642F6F7220636F707920746F204325
:103720006F6E66696775726174696F6E2E680A00E4
:10373000253033692E7800302E25303369004361FF
:103740006C6962726174696F6E2073643A0073749D
:1037500064206465763A00726F6C6C696E672062F3
:1037600061636B2E0043616C6962726174696F6E94
:10377000204F4B00436F72726563742064656C74F4
:10378000612073657474696E67732077697468204B
:103790004D36363520616E64204D3636360A0020AF
:1037A000284452592D52554E2900436865636B6970
:1037B0006E672E2E2E204143003F426564206361D8
:1037C0006C6962726174696F6E207261646975738D
:1037D00020696D706C61757369626C652E0A0047B3
:1037E0003333204175746F2043616C696272617478
:1037F000650A003F2856296572626F7365206C6503
:1038000076656C20696D706C61757369626C65209A
:1038100028302D33292E0A003F2846296F72636510
:1038200020697465726174696F6E20696D706C6176
:10383000757369626C652028302D3330292E0A009B
:103840003F284329616C6962726174696F6E2070F0
:103850007265636973696F6E20696D706C617573F1
:1038600069626C6520283E3D30292E0A003F2850B1
:10387000296F696E747320696D706C61757369620C
:103880006C652028302D3130292E0A0002687474AE
:1038900070733A2F2F6D61726C696E66772E6F723E
:1038A0006700206275676669782D322E302E7800A9
:1038B0002020506C616E6E6572427566666572425C
:1038C000797465733A20002046726565204D656DF8
:1038D0006F72793A2000436F6D70696C65643A20AD
:1038E00044656320203620323032300A00204C619B
:1038F000737420557064617465643A2032303230DC
:103900002D30382D3235207C20417574686F723A25
:1039100020284D6172746F6E2042616B73612D308F
:10392000382E32382E32303230290A0062756766FE
:1039300069782D322E302E780A004D61726C696ED6
:103940000020536F667477617265205265736574E9
:103950000A00205761746368646F6720526573655D
:10396000740A002042726F776E206F757420526562
:103970007365740A002045787465726E616C20521C
:10398000657365740A00506F77657255700A00613F
:1039900075746F25632E6700473238004D31303023
:1039A00031006572726F722077726974696E672078
:1039B000746F2066696C650A00446F6E65207361E0
:1039C00076696E672066696C652E0A004D32390093
:1039D00025532025632025632025632025630020AF
:1039E000583A00656E6473746F7073206869743A36
:1039F000200070012C0190012701B0012201C001BB
:103A00001D01F00118011002130130020E016002C5
:103A1000090190020401C002FF000003FA00400304
:103A2000F5008003F000D003EB002004E6007004F2
:103A3000E100E004DC004005D700C005D2004006EC
:103A4000CD00D006C8008007C3003008BE00F008D3
:103A5000B900C009B400B00AAF00B00BAA00D00C86
:103A6000A500000EA000500F9B00C0109600501241
:103A7000910000148C00C0158700B0178200B019A7
:103A80007D00D01B7800001E730040206E00902245
:103A90006900F024640040275F0090295A00E02B61
:103AA0005500102E500020304B0010324600E033FD
:103AB000410090353C001037370070383200A03993
:103AC0002D00B03A2800A03B2300603C1E00103DB2
:103AD0001900903D1400103E0F00703E0A00C03ED9
:103AE0000500003F0000403FFBFF803FF6FFC03F66
:103AF000F1FF426564204C6576656C696E67200055
:103B00004661696C656420746F20656E61626C65E6
:103B100020426564204C6576656C696E670A0049D1
:103B20006E76616C6964206D6573682E0A003E3E96
:103B30003E0020636F72726563746564205A3A00B8
:103B400047323920756E636F7272656374656420E5
:103B50005A3A00203A203E2070726F62696E6720E8
:103B6000636F6D706C6574650A0050726F62696E88
:103B70006720506F696E740025532025692F2569D1
:103B80000050726F62696E67206D65736820706F98
:103B9000696E742000202844525952554E2900471E
:103BA0003239204175746F20426564204C6576651A
:103BB0006C696E67003F20284C2C522C462C422901
:103BC000206F7574206F6620626F756E64732E0AA5
:103BD000003F2856296572626F7365206C657665B3
:103BE0006C20696D706C61757369626C652028303A
:103BF0002D34292E0A00426164205A2076616C75AA
:103C0000650A004E6F2062696C696E65617220679B
:103C10007269640A003E204175746F2D6C6576658B
:103C20006C206E6F74206E65656465642C20736B08
:103C300069700A0020205261646975733A002E4849
:103C400065696768743A00453100626564002C203C
:103C500073797374656D2073746F7070656421205F
:103C60004865617465725F49443A20004865617433
:103C7000696E67204661696C6564004865617469B6
:103C80006E67206661696C656400202D20496E7640
:103C9000616C6964206578747275646572206E75F4
:103CA0006D62657220210A00544845524D414C20F6
:103CB00052554E4157415900546865726D616C20F0
:103CC00052756E61776179004572723A204D4158A4
:103CD00054454D50004D415854454D502074726923
:103CE000676765726564004572723A204D494E54AB
:103CF000454D50004D494E54454D502074726967F2
:103D0000676572656400202F002042403A00204021
:103D10003A0020573A00004C6F6164205365747478
:103D2000696E67730053746F7265205365747469AC
:103D30006E677300506F776572204F7574616765A9
:103D400000436F6E66696775726174696F6E0043D8
:103D5000616E63656C0044656C74612053657474B6
:103D6000696E6773004175746F2043616C6962729C
:103D70006174696F6E00473333004D31303030006D
:103D800053746F70205072696E7400526573756D54
:103D900065205072696E740053746F7000436861DF
:103DA0006E6765204D65646961004D3231004E6F6C
:103DB000204D656469610054756E650050617573CE
:103DC00065205072696E7400496E666F205363728D
:103DD00065656E005374617274205072696E740070
:103DE00043616E6E6F7420656E74657220737562C8
:103DF0006469723A2000052E2E005072696E74209C
:103E000066726F6D204D6564696100205A3A20002A
:103E100020593A200042656420583A2000203A2078
:103E20000A00202063757272656E745F706F73692B
:103E300074696F6E3D002C20002E2E2E2800496ED6
:103E400076616C69642065787472756465720A00C5
:103E50005072696E742050617573656400486F6DAF
:103E600065202573257325732046697273740020BD
:103E700044697363726570616E63793A00326E648F
:103E80002050726F6265205A3A00534C4F570031F0
:103E900073742050726F6265205A3A004641535441
:103EA0000050726F62653A3A72756E5F7A5F707237
:103EB0006F62650050726F62696E67204661696C5F
:103EC00065640A0050726F62696E67204661696CB2
:103ED000656400506F736974696F6E204E6F742053
:103EE000526561636861626C650A005F72656C614E
:103EF00074697665290A0050726F62653A3A707289
:103F00006F62655F61745F706F696E740050726F8D
:103F100062653A3A70726F62655F646F776E5F7464
:103F20006F5F7A0020547269676765726564206507
:103F300061726C792E00204E6F207472696767651C
:103F4000722E002050726F6265206661696C2120BC
:103F50002D003078003C3C3C00220A00556E6B6E10
:103F60006F776E20636F6D6D616E643A202200483A
:103F7000453344204B3238302052656164792E003D
:103F80005072696E74696E672E2E2E006F70656EAA
:103F9000206661696C65642C2046696C653A200076
:103FA00000002110422063308440A550C660E770B5
:103FB000088129914AA16BB18CC1ADD1CEE1EFF15D
:103FC0003112100273325222B5529442F772D66205
:103FD000399318837BB35AA3BDD39CC3FFF3DEE3AD
:103FE0006224433420040114E664C774A444855455
:103FF0006AA54BB528850995EEE5CFF5ACC58DD5FD
:104000005336722611163006D776F6669556B446A4
:104010005BB77AA719973887DFF7FEE79DD7BCC74C
:10402000C448E5588668A7784008611802282338F4
:10403000CCC9EDD98EE9AFF9488969990AA92BB99C
:10404000F55AD44AB77A966A711A500A333A122A44
:10405000FDDBDCCBBFFB9EEB799B588B3BBB1AABEC
:10406000A66C877CE44CC55C222C033C600C411C94
:10407000AEED8FFDECCDCDDD2AAD0BBD688D499D3C
:10408000977EB66ED55EF44E133E322E511E700EE4
:104090009FFFBEEFDDDFFCCF1BBF3AAF599F788F8C
:1040A0008891A981CAB1EBA10CD12DC14EF16FE16C
:1040B0008010A100C230E3200450254046706760A4
:1040C000B9839893FBA3DAB33DC31CD37FE35EF3BC
:1040D000B1029012F322D2323542145277625672F4
:1040E000EAB5CBA5A89589856EF54FE52CD50DC50C
:1040F000E234C324A0148104667447642454054444
:10410000DBA7FAB79987B8975FE77EF71DC73CD75B
:10411000D326F2369106B016576676761546345693
:104120004CD96DC90EF92FE9C899E9898AB9ABA9AB
:104130004458654806782768C018E1088238A328E3
:104140007DCB5CDB3FEB1EFBF98BD89BBBAB9ABBFB
:10415000754A545A376A167AF10AD01AB32A923A33
:104160002EFD0FED6CDD4DCDAABD8BADE89DC98D4B
:10417000267C076C645C454CA23C832CE01CC10C83
:104180001FEF3EFF5DCF7CDF9BAFBABFD98FF89F9B
:10419000176E367E554E745E932EB23ED10EF01ED3
:1041A0002053697A653A200043616E6E6F74206F08
:1041B00070656E20737562646972200053442049F3
:1041C0006E6974204661696C0053442063617264B7
:1041D000206F6B0A006F70656E526F6F742066619E
:1041E000696C65640A00766F6C756D652E696E6921
:1041F00074206661696C65640A004E6F2053442028
:10420000636172640A004D3234004D3233202573ED
:104210000046696C652073656C65637465640A00AB
:1042200046696C65206F70656E65643A2000454E86
:104230004420535542524F5554494E450A002220BE
:10424000706F73002220706172656E743A220053A1
:104250005542524F5554494E452043414C4C2074D1
:1042600061726765743A220053756263616C6C20F9
:104270004F766572666C6F77004578636565646537
:1042800064206D617820535542524F5554494E4534
:104290002064657074683A310A0044656C6574691D
:1042A0006F6E206661696C65642C2046696C653AA6
:1042B000200046696C652064656C657465643A002D
:1042C00020520048617264636F64656420446566CF
:1042D00061756C742053657474696E6773204C6FDC
:1042E000616465640A003B200020204D39303600AF
:1042F00020204D3931330020204D353639205331BF
:1043000000447269766572207374657070696E67B7
:10431000206D6F64653A0048796272696420546860
:10432000726573686F6C643A002054302045005306
:104330007465707065722064726976657220637549
:104340007272656E743A0020204D38353120580065
:104350005A2D50726F6265204F6666736574002037
:10436000204D343133205300506F7765722D4C6FE0
:104370007373205265636F766572793A0020204D21
:104380003330312050005049442073657474696E95
:1043900067733A0020460020204D31343520530009
:1043A0004D6174657269616C206865617475702017
:1043B000706172616D65746572733A002048002007
:1043C000204D363635204C0044656C746120736591
:1043D0007474696E67733A204C3C646961676F6EF0
:1043E000616C20726F643E20523C72616469757327
:1043F0003E20483C6865696768743E20533C73659D
:10440000676D656E747320706572207365633E20FE
:1044100058595A3C746F77657220616E676C6520DD
:104420007472696D3E204142433C726F6420747225
:10443000696D3E0020204D363636205800456E64AA
:1044400073746F702061646A7573746D656E743A0D
:1044500000204A00202047323920572049002020E0
:104460004D3432302053004175746F204265642012
:104470004C6576656C696E673A0020204D323035A8
:10448000204200416476616E6365643A20423C6D6F
:10449000696E5F7365676D656E745F74696D655F86
:1044A00075733E20533C6D696E5F6665656472612D
:1044B00074653E20543C6D696E5F74726176656C04
:1044C0005F66656564726174653E20583C6D617815
:1044D0005F785F6A65726B3E20593C6D61785F79E9
:1044E0005F6A65726B3E205A3C6D61785F7A5F6AE5
:1044F00065726B3E20453C6D61785F655F6A6572F1
:104500006B3E0020540020204D32303420500041BA
:104510006363656C65726174696F6E2028756E697E
:1045200074732F7332293A20503C7072696E745F35
:10453000616363656C3E20523C72657472616374A2
:104540005F616363656C3E20543C74726176656C98
:104550005F616363656C3E0020204D32303120582E
:10456000004D6178696D756D20416363656C65729E
:104570006174696F6E2028756E6974732F733229A8
:104580003A0020204D3230332058004D6178696D5B
:10459000756D206665656472617465732028756E3B
:1045A0006974732F73293A005374657073207065B2
:1045B0007220756E69743A0020440020204D32301C
:1045C000302053002044697361626C65640A0046C0
:1045D000696C616D656E742073657474696E677360
:1045E0003A0020204D3134392043203B20556E695C
:1045F000747320696E2043656C736975730A0020BB
:10460000286D6D29002020473231202020203B20BA
:10461000556E69747320696E206D6D00000048430B
:104620000000484300004843000048430000A04207
:104630000000A0420000A04200005144B80B00005E
:10464000B80B0000B80B0000B80B000020433A0084
:1046500020423A0020436F756E7420413A00507238
:104660006F6265204F666673657420580043617001
:104670003A003F5A206F7574206F662072616E6732
:10468000652028003F59206F7574206F6620726185
:104690006E676520282D0020746F20003F58206F22
:1046A0007574206F662072616E676520282D00008A
:1046B0001F04190311241FBECFEFD1E2DEBFCDBF0F
:1046C00000E00CBF13E0A0E0B2E0E4EFF2E203E0B0
:1046D0000BBF02C007900D92A43BB107D9F729E1A7
:1046E000A4EBB3E001C01D92A739B207E1F713E2D2
:1046F000C9E5D3E200E006C021970109802FFE0141
:104700000F94478DC835D10780E00807A9F70F94AB
:1047100020780D9468910C9400002F923F924F9254
:104720005F926F927F928F929F92AF92BF92CF9241
:10473000DF92EF92FF920F931F93CF93DF93CDB74A
:10474000DEB7E5970FB6F894DEBF0FBECDBF382EAB
:104750002090BD0381E08093BD03809188198D3442
:1047600009F4CBC3843511F40C941235873411F05D
:104770000C94413580918619909187198A31910561
:1047800009F47BC1BCF4843091053CF4823091057E
:104790000CF03FC097FF31C0ACC38C30910509F4D9
:1047A0000BC18531910511F40C944335049709F040
:1047B000A0C3C4C08132910509F408C264F48D31EC
:1047C000910509F47EC18E31910509F47EC14C97A3
:1047D00009F08FC356C18A35910509F4FBC124F451
:1047E0008A9709F4A6C285C38B35910509F4F6C1F1
:1047F0008C35910509F4F7C17CC380913910813063
:1048000011F00C9443350F94900D0E942E730C946C
:10481000433520913910213011F00C94433511E0CB
:10482000029709F010E00F94900D19821A821B82F2
:104830001C821D821E821F82188682E50E94C3AFE1
:10484000882309F44BC00E9443AF6B017C0120E038
:1048500030E0A9010F944C86882309F455C080915B
:104860004B0290914C02A0914D02B0914E028AA74A
:104870009BA7ACA7BDA780914F0290915002A09139
:104880005102B09152028AAB9BABACABBDAB8090F6
:10489000DC109090DD10A090DE10B090DF10409002
:1048A000E0105090E1106090E2107090E310A501CC
:1048B00094016AA57BA58CA59DA50F944C868111BA
:1048C0000C946235A30192016AA97BA98CA99DA9C8
:1048D0000F944C868823C1F00C94623589E40E94C1
:1048E000C3AF882331F00E9443AF69837A838B83FF
:1048F0009C838AE40E94C3AF882331F00E9443AFB7
:104900006D837E838F83988720E030E0A9016981E1
:104910007A818B819C810F944C8681110C94163680
:1049200020E030E0A9016D817E818F8198850F9410
:104930004C8681110C9416360C94293680E50E9421
:10494000C3AF882329F00F9456156B017C0103C077
:10495000C12CD12C760183E50E94C3AF882361F07E
:104960000E9443AF20E030E04AE754E40F94B2865F
:104970000F94FA8E6B017C010E94EE6C8091F30D16
:10498000811105C060E08CE99AE00E94DBFF0E9483
:10499000EEF4C60ED71EE81EF91E0E94EEF4DC01EE
:1049A000CB018C199D09AE09BF09B7FD02C00C945B
:1049B00043350E946D3EF1CF0F941D53F82E8111A7
:1049C0000C94433560E070E080E50F94841489A76F
:1049D0006CE070E083E50F94841488A763E070E0D6
:1049E00084E50F9484148C8F40E050E060ED70E417
:1049F00082E50E944D4B69837A838B839C838091EF
:104A00008B1987FF02C00C94303680918C1983700B
:104A100011F00C94303611E002E0012B882331F0C4
:104A200060E08AE50E94DFAF882311F094E001C0C6
:104A300090E0092B10910E0602FFF12E8F2D0E949F
:104A4000849060E085E40E94DFAFF0901E028093C6
:104A50001E029E01245E3F4FAE014F5F5F4FBE01BD
:104A6000685D7F4FCE0189960E94B5F7F0921E02D5
:104A7000812F0E9484900C9443350E94F4AF0C94D3
:104A8000433540910D0D45FB442740F968E979E332
:104A9000CE0101960F94293580910D0D85FD0E9460
:104AA000FC3C8091EC108770873011F00C944036FC
:104AB00060E08FE40E94DFAF81110C9473360C9498
:104AC00040360F94CD350C9443352091EF10309142
:104AD000F0104091F1105091F21060914B027091E2
:104AE0004C0280914D0290914E020F94878DAB0144
:104AF000BC0188E50E944D4B69837A838B839C833C
:104B00002091F3103091F4104091F5105091F6106F
:104B100060914F0270915002809151029091520227
:104B20000F94878DAB01BC0189E50E944D4B6D83CD
:104B30007E838F839887BE016B5F7F4FCE01019686
:104B40000F943735882311F40C94433580E00E948C
:104B500084900E94929B84E690E090932002809340
:104B60001F0261E085E40E94DFAF01E021E0482FF1
:104B7000BE016B5F7F4FCE0101960F947C556B0198
:104B80007C019B01AC010F94CD90811119C049812A
:104B90005A816B817C8185E19EE30E94EB3C4D81D3
:104BA0005E816F81788580E19EE30E94EB3CB701D6
:104BB000A6018BE09EE30E94EB3C8AE00E94E6386F
:104BC0000E94799B0E94D29C0C9443350F94FE1551
:104BD0000C94433510920D060C9443358FE080936E
:104BE0000D060C94433580918519882349F189304D
:104BF00009F09BC018ECA12E12E0B12E0BE4E02EC0
:104C000002E0F02ED12C00E010E0D5018D915D0185
:104C10000E94C3AF882369F00E9443AFF70160830D
:104C2000718382839383133011F401E002C0DD2489
:104C3000D3941F5FF4E0EF0EF11C143031F76AC01B
:104C400028EC32E03BA72AA7A4ECEA2EA6E0FA2E35
:104C5000BBE4CB2EB2E0DB2E00E010E0AAA5BBA5A2
:104C60008D91BBA7AAA70E94C3AF882309F447C0B0
:104C70000E9443AF2B013C01133049F0F701208122
:104C80003181428153810F94868D2B013C01D601E5
:104C90002D913D914D915C91C301B2010F94868D90
:104CA0004B015C012DEB37E346E855EB0F943B904D
:104CB00087FD0AC02DEB37E346E855E3C501B40193
:104CC0000F944C861816DCF4133051F440925702BE
:104CD000509258026092590270925A0201E00FC03D
:104CE000A5019401F70160817181828193810F9404
:104CF000878DD7016D937D938D939C9313971F5F41
:104D0000B4E0EB0EF11CE4E0CE0ED11C143009F03F
:104D1000A5CF05C0DD2019F00E94C49C06C0002369
:104D200021F087E592E00E94D3700E94D29C0C94FF
:104D3000433580913910813011F00C94433589E46A
:104D40000E94C3AFE82E882321F00E943FAF082FB6
:104D500001C000E08AE40E94C3AFF82E882321F04E
:104D60000E943FAF182F01C010E0EE2011F00B3071
:104D700020F4FF2041F01B3030F080EC9AE00E94DC
:104D8000F8380C94433580E1EBE4F2E0ACEDB0E1AF
:104D900001900D928A95E1F7EE2019F1602F000F36
:104DA000770B880B990B0F94538620911D17309128
:104DB0001E1740911F17509120170F94B286209113
:104DC00013053091140540911505509116050F9467
:104DD000878D6093DC107093DD108093DE109093CC
:104DE000DF10FF2019F1612F110F770B880B990B42
:104DF0000F94538620912117309122174091231749
:104E0000509124170F94B286209117053091180500
:104E10004091190550911A050F94878D6093E01009
:104E20007093E1108093E2109093E31060E080E5CE
:104E30000E94DFAF8823C1F1EE20D1F02091EF1066
:104E40003091F0104091F1105091F2106091DC100F
:104E50007091DD108091DE109091DF100F94868D9F
:104E60006093DC107093DD108093DE109093DF1060
:104E7000FF20D1F02091F3103091F4104091F51003
:104E80005091F6106091E0107091E1108091E21065
:104E90009091E3100F94868D6093E0107093E11071
:104EA0008093E2109093E31040E050E0BA0186E472
:104EB0000E944D4B6B017C0120E030E0A9010F9472
:104EC0003B9018164CF420E030E040E752E4C70174
:104ED000B6010F94818E03C060E070E0CB0169835E
:104EE0007A838B839C83CE0101960E9465AC0C94DF
:104EF00043350F9493510C944335809186199091CA
:104F000087198737910511F40C94A62F0CF0DBC09C
:104F10008D34910509F40FC40CF05AC08931910504
:104F200009F4F5C21CF58431910509F471C27CF4D1
:104F30008131910509F44BC22CF4029708F4EAC1BF
:104F40000C940F35429709F446C60C940F35863100
:104F5000910509F482C20CF47CC28731910509F4F1
:104F600086C2489709F498C20C940F358E3191058A
:104F700009F456C3ACF48B31910509F4F6C20CF474
:104F8000E6C28C31910509F443C34D9711F00C949E
:104F90000F358091EB148E7F8093EB140C94433586
:104FA0008A32910509F495C34CF48F31910509F4C7
:104FB00070C3809709F444C30C940F358B3491056A
:104FC00009F4A0C38C34910509F4A0C30C940F35E7
:104FD0008B36910509F4E7C4D4F58435910509F4BD
:104FE000FAC5E4F48135910509F4DAC534F48E3458
:104FF000910509F4A4C30C940F358235910509F489
:10500000E3C58335910511F00C940F3580910D06A1
:105010008F7E806280930D060C944335883691050F
:1050200009F41FC454F48535910509F40AC68C357A
:10503000910509F429C60C940F358936910509F4B8
:1050400061C48A36910509F470C40C940F35803719
:10505000910509F411C584F48D36910509F428C42D
:105060000CF404C58E36910509F4A8C48F36910559
:1050700009F4B7C40C940F358337910509F4A2C61F
:105080008CF48137910509F404C58237910511F03C
:105090000C940F350E941DDF87E994E10F94E269BB
:1050A0000C9443358537910509F40EC78637910571
:1050B00011F00C940F35009183191091841994E02C
:1050C000F12C40E027C78139F1E09F0711F40C94DF
:1050D0004A330CF07AC08C3C910511F40C94B93031
:1050E00084F58139910509F443C78CF4893791051A
:1050F00009F437C70CF42DC78A37910511F40C94C5
:1051000034348C38910509F4E6C40C940F35883C8E
:10511000910509F4A1C754F48B39910509F41AC516
:105120008E3B910509F4F6C40C940F35893C91052A
:1051300009F4D7C78B3C910511F40C9497300C946B
:105140000F35823E910511F40C942332DCF4833D3B
:10515000910511F40C94EA304CF48D3C910511F05A
:105160000C940F350F94D2140C9443358C3D91055B
:1051700011F40C94A7318D3D910511F40C94CE31AE
:105180000C940F358E3231E0930711F40C940333F5
:105190006CF48C32B1E09B0711F40C946E328D32BA
:1051A000914011F40C9483320C940F358F32F1E05E
:1051B0009F0711F40C9447338039914011F00C94FF
:1051C0000F350E94EE6C0C9443358C3032E093071F
:1051D00011F40C94E4330CF04AC0853AB1E09B071B
:1051E00011F40C94503304F58A39F1E09F0709F467
:1051F0004CC45CF48239914011F00C940F350F943B
:1052000034350E94D29C0C9443358D39A1E09A0725
:1052100011F40C94CD34843A914011F00C940F3574
:105220000F94FB3A0C944335863FE1E09E0711F45E
:105230000C94C7337CF4843F21E0920711F40C9462
:10524000C433853F914011F00C940F350F946A647C
:105250000C944335873FA1E09A0711F40C94CA33AC
:10526000883F914011F40C94D3330C940F358A3855
:10527000E3E09E0711F40C943734FCF4893922E002
:10528000920711F40C94EC334CF48933924011F0F2
:105290000C940F350F94650F0C9443358A39B2E0A6
:1052A0009B0711F40C94EF338335934011F00C9469
:1052B0000F350F94906A0C944335873EF3E09F07B7
:1052C00011F40C94BF34CCF4813933E0930711F41A
:1052D0000C94BC34803A934011F00C940F3520911B
:1052E0008319309184199091EB1492609093EB1490
:1052F000C9010F94E55C0C944335883EB3E09B07ED
:1053000011F40C94EE34893E934011F40C94F13472
:105310000C940F3580E50E94C3AF882329F00F94C9
:1053200056156B017C0103C0C12CD12C760183E59D
:105330000E94C3AF882361F00E9443AF20E030E0B9
:105340004AE754E40F94B2860F94FA8E6B017C0105
:105350000E94EE6C8091831990918419009721F03E
:1053600061E00F94500005C060E089ED9AE00E9472
:10537000DBFF1091BD0383E08093BD0381E0809348
:105380001D0EC114D104E104F10431F00E94EEF4C9
:10539000C60ED71EE81EF91E80911D0E882311F43B
:1053A0000C948036C114D104E104F10411F40C947E
:1053B00087360E94EEF4DC01CB018C199D09AE0901
:1053C000BF09B7FF02C00C9487360C9480368091D9
:1053D000891984FF02C00C948B3680918B1987FF4A
:1053E00002C00C948B3680918C19837011F00C9450
:1053F0008B3660E08CEE9AE00E94DBFF5F988A9823
:105400008091080181708093060112980C944335B5
:1054100084E09BE00E94F8388AE095E10E9461C731
:105420008BE1EAE0F5E1DE01119601900D928A959B
:10543000E1F760E070E0CE0101960F94B061CE011B
:1054400001960E945A8E85EF9AE00E94F8380C94DB
:1054500043350F94C25E0C9443350F94D65C809113
:10546000EB14877F80628093EB140C944335E091BA
:105470008319F09184198081882329F0803209F4FE
:1054800010823196F8CF60E0809183199091841951
:105490000F94335D0C94433583E50E94C3AF88239A
:1054A00021F00E940BAF0E94625084E50E94C3AFBE
:1054B0008823A9F00E940BAF6B017C010E949CA580
:1054C000C0923905D0923A05E0923B05F0923C0536
:1054D000CD28CE28CF2819F081E0809328110E9492
:1054E0008638882381F00F94155E0E94F86B82E560
:1054F00096E00F948C5C10928D1910928E19109278
:105500008F19109290190F9417500C944335809175
:10551000EB1482FF03C08B7F8093EB1480912517DF
:10552000882319F081E00E94E9E080912811813000
:1055300051F782E0809328110E94EEF460930B05EE
:1055400070930C0580930D0590930E05DCCF809130
:10555000EB1483FD02C00C94433583E50E94C3AF76
:1055600081110C94A7360C94433583E40E947AAFE2
:10557000882319F18FE19BE00E94F8388091511641
:10558000882391F0BE016F5F7F4F8EE496E10E9409
:1055900048CB8E010F5F1F4FD8018D918D0188235D
:1055A00039F00E94E638F8CF85E19BE00E94F83898
:1055B0008AE00E94E6380C9443358091EB1482FF18
:1055C00021C08EE29BE00E94F8386091E714709150
:1055D000E8148091E9149091EA144AE00E94043A98
:1055E0008FE20E94E6386091E3147091E414809198
:1055F000E5149091E6144AE00E94043A0E94463E67
:105600000C94433580E49BE00E94F8380C944335B9
:1056100080918319909184190F94E55C0C94433523
:105620008091EB1483FD02C00C9443350F947C51A0
:1056300080918319909184190F9445610C9443359E
:105640008091EB1482FD0E94EE6C8091EB1483FD3F
:1056500002C00C94433560E080E50E94DFAF182F54
:10566000682F80918319909184190F94335D83E59D
:105670000E94C3AF882321F00E940BAF0E946250AA
:105680000F94155E11110C9443350E94F86B0C9425
:1056900043350E9468A56C8F7D8F8E8F9F8FBE01D2
:1056A0006F5F7F4FCE014C960E94834F60E0CE012A
:1056B00001960F9450000E943939BE016F5F7F4FF1
:1056C00081E59BE00E9422398AE00E94E6380C9432
:1056D00043356DE070E080E50E94D0AF8C0197FF0C
:1056E00002C00C944335E82E60E089E40E94DFAFED
:1056F00081110C94AC36802F0F9431728111C0C689
:105700000C94AC360E94F86B0C94433580912811B0
:10571000813011F00C94433582E0809328110E946F
:10572000EEF460930B0570930C0580930D05909338
:105730000E050C9443350E94ED690C94433560E0EE
:1057400070E083E50E94D0AF8E34910531F40E9461
:10575000546C0F9417500C94433586EC9BE00E94D8
:10576000F8386091A00E7091A10E8DEB9BE00E9425
:1057700010396091A20E7091A30E80EB9BE00E9405
:1057800010396091A00E7091A10E8091A20E90919F
:10579000A30E681B790B80912811815021E030E025
:1057A000823010F020E030E0621B730B85EA9BE052
:1057B0000E9410398AE00E94E63886EC9BE00E9445
:1057C000F8388091A40E9091A50EA091A60EB091EC
:1057D000A70E8C8F9D8FAE8FBF8FBE016F5F7F4FE7
:1057E000CE014C960E94834FBE016F5F7F4F88E9C8
:1057F0009BE00E9422398091A80E9091A90EA09161
:10580000AA0EB091AB0E8C8F9D8FAE8FBF8FBE0155
:105810006F5F7F4FCE014C960E94834FBE016F5F3A
:105820007F4F88E89BE00E94223920E030E04AE781
:1058300054E46091AC0E7091AD0E8091AE0E9091DB
:10584000AF0E0F94818EAB01BC0180E79BE00E94FC
:10585000EB3C8DE60E94E6388AE00E94E6380C9424
:10586000433580910D0D83FF02C00C9443350F9496
:10587000A00E87FF02C00C94433589E40E94C3AF99
:10588000882311F40C94E3360E941BAF90E01816A5
:10589000190614F481E090E026E0289FF001299F8A
:1058A000F00D1124EA5DF84E808191810C94ED3663
:1058B00080910D0D83FF02C00C9443350F94A00E10
:1058C000F82E87FF02C00C94433589E40E94C3AFD1
:1058D000082F882311F40C94F6360E941BAF90E039
:1058E0001816190614F481E090E026E0289FF001D4
:1058F000299FF00D1124EA5DF84E8081918110E01E
:105900000C9406370F94A00E182F87FF02C00C943A
:10591000473586EF92E10E94F838812F0F94143DAD
:105920008AE00E94E6380C94473560E080E50F94E9
:10593000C13581110C94433581E40E947AAF8823EC
:1059400029F060910907062F10E002C00FEF10E068
:1059500089E40E94C3AF882399F00E941BAF90E0B6
:105960001816190614F481E090E026E0289FF00153
:10597000299FF00D1124EA5DF84E0481158108C0BD
:1059800083E50E94C3AF882319F00E940BAF8B01FF
:10599000B8010F3F110519F010F06FEF70E0609340
:1059A00009070C94433560E080E50F94C1358111FF
:1059B0000C944335109209070C9443358EE40E94F1
:1059C000C3AF882311F40C9443350E940BAF60934E
:1059D000CB047093CC048093CD049093CE040C94AC
:1059E000433583E50E947AAF882331F060E083E598
:1059F0000F94C13580930D0D0E94393987ED9BE0DE
:105A00000E94F83880910D0D882369F1F9E7EF2E97
:105A1000FFE0FF2E00E010E020E080910D0D90E00F
:105A2000A0E0B0E0002E04C0B695A79597958795A5
:105A30000A94D2F780FF0EC0DD24D394D20E222325
:105A400019F08CE20E94E638F701859194910E944A
:105A5000F8382D2D0F5F1F4FE2E0EE0EF11C0630DF
:105A60001105D9F6A5CD83ED9BE0A0CD10921D0EBA
:105A7000109277020C94433541E060E070E08EEDC7
:105A80009BE00E943D390C9443350E9461380C9490
:105A9000433583E50E94C3AF882371F00E941BAF9A
:105AA000282F30E02D3331051CF480930002EBC722
:105AB0008CE380930002E7C70E94393940910002CD
:105AC00050E060E070E08CEE9BE00E94713A8AE06A
:105AD0000E94E638D8C780910D0D83FDD4C789E4B4
