:100000000C9452230C9483230C9483230C94832309
:100010000C9483230C9483230C9483230C948323C8
:100020000C9483230C9441DF0C9441DF0C9441DF4A
:100030000C9483230C944EF00C9483230C94832310
:100040000C9483230C94E0F20C9483230C9483236C
:100050000C9483230C9483230D94C9560C9404F0C0
:100060000C9483230C94F4430C94EA430C94832360
:100070000C9483230C9483230C9483230C94832368
:100080000C9483230C9483230C9483230C94832358
:100090000C9483230C9483230C9483230C94832348
:1000A0000C9483230C9483230C9483230C94832338
:1000B0000C9483230C9483230C9483230C94832328
:1000C0000C9483230C9483230C9483230C94832318
:1000D0000C9483230C9483230C9483230C94832308
:1000E0000C948323B37B9D7CB97BC37BCD7BD77B77
:1000F000ED7BFA7B9D7C077C9D7C9D7C9D7C9D7C23
:100100009D7C157C9D7C1D7C277C3B7C4D7C5C7C98
:100110009D7C667C707C7A7C897C9D7C937CBC7C9D
:10012000E27DC57CD27CDF7CEC7C057D157DE27DAB
:10013000257DE27DE27DE27DE27DE27D367DE27D30
:10014000417D517D687D807D927DE27D9F7DAC7D8E
:10015000B97DCB7DE27DD87D017E277F0A7E177E2B
:10016000247E317E4A7E5A7E277F6A7E277F277FC4
:10017000277F277F277F7B7E277F867E967EAD7EAB
:10018000C57ED77E277FE47EF17EFE7E107F277FAF
:100190001D7F467F20804C7F547F5C7F647F7A7F09
:1001A000857F2080907F208020802080208020807C
:1001B0009C7F2080A47FAF7FC27FD47FE67F20809A
:1001C000F07FF87F00800F8020801980E5D7E9D785
:1001D000FED709D837D813D837D82DD820D839D951
:1001E0003FD944D952D958D95AD960D965D981D97A
:1001F00081D96CD981D971D977D97CD9A1D9A7D91D
:10020000ACD9BAD9C0D9C2D9C8D9CDD9E9D9E9D9D7
:10021000D4D9E9D9D9D9DFD9E4D909DA0FDA14DA8E
:1002200022DA28DA2ADA30DA35DA51DA51DA3CDA47
:1002300051DA41DA47DA4CDA70DA76DA7BDA89DADF
:100240008FDA91DA97DA9CDAB8DAB8DAA3DAB8DAC0
:10025000A8DAAEDAB3DAF6DAFCDA06DB11DB1CDB9D
:1002600027DB32DB3DDB71DB71DB71DB71DB48DB14
:1002700090DB9CDBACDBBDDBCEDBDFDBF0DB01DC72
:1002800038DC38DC38DC38DC0FDC57DC63DC73DC72
:1002900084DC95DCA6DCB7DCC8DCFFDCFFDCFFDC43
:1002A000FFDCD6DC1EDD27DD35DD40DD4BDD56DD38
:1002B00061DD6BDD9BDD9BDD9BDD9BDD75DD68DE40
:1002C0006BDE5ADE5EDE64DEA2DE6FDE73DE79DEBA
:1002D0007DDE81DE87DE8BDE8FDEA2DE95DE99DEBF
:1002E0009DDEB7E0BCE0C1E0CBE0D5E04EE1DFE071
:1002F000E7E0EFE0F9E003E10DE11CE126E14EE18A
:1003000030E13AE144E1084AD73B3BCE016E84BC80
:10031000BFFDC12F3D6C74319ABD56833DDA3D005F
:10032000C77F11BED9E4BB4C3E916BAAAABE0000A8
:1003300000803F05A84CCDB2D44EB93836A9020C86
:1003400050B9918688083CA6AAAA2ABE000000805F
:100350003F000C942CDE0C9498760C9405BF0C9402
:10036000D4D90C947DDE0C947C6A0C94ACD90C949A
:10037000D77E0C9448DB0C94A8DA0C94C3DD0C9463
:10038000D9C00C947CD90C94C2D90C94A2DE0C94E4
:10039000C4DD0C94B9470C94467F0C94BAD90C94E4
:1003A00044D90C9439D90C942ADA0C945AD90C9467
:1003B0009BDD0C94D0BC0C9413A60C9491DA0C9495
:1003C0009C770C94177E0C941C510C946CD90D9452
:1003D0006C460C9458D90C94DFDB0C949F760C94EB
:1003E00007A60C9463DC0C94EC7C0C94B97B0C9405
:1003F00035DA0C943D760C944AC30C94907F0C949F
:100400009C7F0C94A6DC0C94CBE00D949F450C943F
:1004100081D90D9482080C940BA80C9442E40D949D
:1004200006050C94B8DA0C9499DE0C9423760C949F
:100430005CBD0C944CDA0C9422DA0C94E27D0C94A2
:100440004B740C94AC7D0C9449BD0C9495DE0C94CB
:10045000FED70C945F750C94707C0C9429BF0C949F
:10046000506A0C944BDD0C94FA7B0C94D47F0C9462
:1004700038A60D9428050D9437090C9447440C9424
:100480000BBF0C94E9D90C94927D0C9467850D9464
:1004900053460C94867E0C94057D0C94C57C0C947C
:1004A000ACDB0C94517D0C94E9D70D94AF040C9403
:1004B000B7BC0C9422A30C9430E10C9442A30C948E
:1004C000417D0C9440DD0C94F6A20C94DFE00C947A
:1004D0004EE10C94EA560C9476DA0C9479750C94EF
:1004E000BDBE0C944F760C949CDB0C94F3BE0C9424
:1004F0003AE10D94D57D0C94E7E00C94736A0C946A
:100500007F750C94277F0C9490DB0C9452C30C9451
:1005100030DA0C94E47E0C942DD80C948FDA0C9481
:10052000B7DC0C948B750C9451DA0C9420800C94ED
:10053000B37B0D949D450D94F37D0C94BCE00C941D
:10054000017E0C94F0DB0C94C8D90C947A7F0C9447
:1005500044740C9475BD0C94D8E30C9427DD0C9472
:1005600073750C9426740C94547F0C94FFA70C9410
:100570001E760C949DDE0C9490750C9419760C9458
:10058000107F0C94E4D90C94D77B0C94C8DC0C94A9
:1005900057DC0D9452050C9495DC0D946F080C9467
:1005A000C57E0C944C7F0C9400800C945EDE0C9401
:1005B0004CC30C94DF7C0C948FDE0D9485050C9459
:1005C0005A7E0C949D7C0C94157D0C944EC30D9416
:1005D00051050C941EDD0C9409A30C94FE7E0C9422
:1005E000ABDD0C94937C0C94EFE00C9497DA0C94B4
:1005F000FFBE0C94687D0C940A7E0C9447DA0C9430
:10060000317E0C942BC30C9449760C9460D90D94D4
:100610005C460C9450C30D94E0450C9489DA0C941C
:10062000B97D0C941BBD0C9441DA0C943E440C949F
:10063000367D0D948C080C940B700C94A7D90C94F7
:100640005C7F0C943DDB0C9481DE0C9406DB0D94F6
:1006500055050C94F9E00C94CB7D0C94D6DC0D94EC
:100660008B070C9475DD0C942CA60C945C7C0C947C
:10067000C8EC0C9423BF0C94BDDB0C943B7C0C9415
:1006800064DE0C94077C0C94247E0C94257D0C94E1
:100690000DE10C9420510C9467750C941D7C0C9406
:1006A000FFDC0C948EBD0C94B3DA0C9426A60C944B
:1006B000D27C0C945ADE0C94DAC40C94C1E00C94F5
:1006C000857F0C946A7E0D9469050C94FCDA0C9479
:1006D0006BDE0C94667C0C94AD7E0C94B5EC0D94A2
:1006E00074080C94D5E00C949CDA0C9452D90C94B8
:1006F00014DA0C9420D80C9413D80C94D87D0D9453
:100700001D470D94FF450C9425710D94CE040C9457
:10071000807D0D9444050D941F560C943FD90C9484
:100720001DBF0C9422510C949FBE0C94277C0C94FA
:1007300011BF0C9429E40C94E5D70D9464460C94F5
:1007400086750C9487DE0C94F4790C948BDE0C94F3
:1007500038DC0C9477D90C9447750C94C27F0C94B8
:1007600073DE0C943CDA0C94A47F0C943EE40C945D
:10077000E67F0C94DFD90C94F9BE0C94CBC40C9496
:10078000D8EF0C94AF7F0C9402F00C9443590C9466
:10079000E9BC0C9430A30C9473DC0C940F800C9483
:1007A0004A7E0C941CDB0C944D7C0C946FDE0C94F4
:1007B00035DD0C9470DA0C9456DD0C94AEDA0C94A2
:1007C00016C20C9426E10C9402BD0C9411DB0C941F
:1007D000EABE0C94F07F0C94CCBE0C949DBD0C949E
:1007E000F35A0C942DE40C9413740C9457750C94D8
:1007F000B7E00C942F740C9428DA0D9479080C94BB
:100800006BDD0C9437D80C94F6DA0C941F700C94B2
:1008100079DE0C949ABE0C9471DB0C9461DD0D941E
:10082000B7040C9495750C9419800C94CD7B0D94A1
:100830002E070C940E790C9425700C947A7C0C94F1
:1008400044E10C94A56A0C9403E10C940FDA0C9427
:10085000B96E0C94A1D90C9446E40C9409D80C946C
:10086000CDD90C94BC7C0C946E730C944F750C9485
:1008700014DE0C94967E0C941D7F0C94F17E0C94E7
:100880003B440C94AEBE0C949F7D0C9465D90C94A3
:100890007BDA0C94C0D90C94157C0C94F87F0C94E2
:1008A00084DC0C940D700C947B7E0C9443760C9439
:1008B0000FDC0C94CEDB0C9421AA0C9481750C9463
:1008C00017BF0D94E4040C941CE10D9487480C941C
:1008D000ED7B0C94D9D90C9401DC0C9432A60C94C9
:1008E000897C0C9427DB0C94C37B0C9471D90C94F9
:1008F000A3DA0C94647F0C9403A60C9436BD0C947C
:100900003D740D94B44A0C9468DE0C949B530C9483
:1009100032DB0C941E510C94DBBE0C9436740C9498
:1009200009DA4E414E494E495459494E46CDCCCC38
:100930003D0AD7233C17B7D13877CC2B329595E6B3
:10094000241FB14F0A000020410000C84200401C93
:100950004620BCBE4CCA1B0E5AAEC59D7400407AE0
:1009600010F35A00A0724E18090010A5D4E8000038
:10097000E87648170000E40B54020000CA9A3B00D6
:100980000000E1F505000080969800000040420F4D
:10099000000000A08601000000102700000000E811
:1009A00003000000006400000000000A00000000D6
:1009B000000100000000002C76D888DC674F082377
:1009C000DFC1DFAE59E1B1B796E5E3E453C63AE6DD
:1009D00051997696E8E6C28426EB898C9B62ED40BD
:1009E0007C6FFCEFBC9C9F40F2BAA56FA5F490050C
:1009F0005A2AF75C936B6CF9676DC11BFCE0E40D40
:100A000047FEF520E6B500D0ED902E030094357733
:100A1000050080841E080000204E0A000000C80C5B
:100A2000333333330F986E12831141EF8D211489C4
:100A30003BE65516CFFEE6DB18D1844B381BF77C1E
:100A40001D901DA4BBE424203284725E228100C963
:100A5000F124ECA1E53D274C4556454C494E470055
:100A6000434F4D4D554E49434154494F4E0044521A
:100A70005952554E004552524F525300494E464F1F
:100A8000004543484F0047322F47332062616420BE
:100A9000706172616D65746572730A00536C65658F
:100AA000702E2E2E003E20686F6D696E67206E6F6F
:100AB00074206E65656465642C20736B69700A0030
:100AC0004D65736820706F696E74206F7574206F48
:100AD000662072616E67650A00436C69636B2074FF
:100AE0006F20526573756D652E2E2E004E6F204D52
:100AF0006F76652E00456E642066696C65206C69B2
:100B000073740A00426567696E2066696C65206CC3
:100B10006973740A00286E6F2066696C652900434A
:100B2000757272656E742066696C653A2000534474
:100B3000207072696E74696E672062797465200036
:100B40004E6F74205344207072696E74696E670A28
:100B5000005072696E742074696D653A2000496EA8
:100B600076616C69642050696E204D6F64650A007F
:100B70000A53746174733A2046696C616D656E74D2
:100B800020757365643A20002C204C6F6E67657386
:100B900074206A6F623A2000546F74616C2074692B
:100BA0006D653A20002C204661696C65643A20002E
:100BB0002C2046696E69736865643A20005072693A
:100BC0006E74733A200053746174733A20004520A8
:100BD0002553006F66660044454255473A004D3143
:100BE00031322053687574646F776E004D31313344
:100BF00020530042656420436F6F6C696E672E2E30
:100C00002E004265642048656174696E672E2E2E41
:100C10000048453344204B323830204F46462E00A2
:100C20004348414D4245525F54454D504552415411
:100C300055524500424142595354455050494E4740
:100C40000041524353004D4F54494F4E5F4D4F4466
:100C5000455300544845524D414C5F50524F544506
:100C60004354494F4E004C4F4E475F46494C454E0A
:100C7000414D45004155544F5245504F52545F53DA
:100C8000445F53544154555300534443415244002C
:100C900050524F4D50545F535550504F5254004591
:100CA0004D455247454E43595F50415253455200BE
:100CB000434153455F4C494748545F425249474876
:100CC000544E45535300544F47474C455F4C49479A
:100CD00048545300534F4654574152455F504F5765
:100CE0004552004255494C445F50455243454E548D
:100CF000004C4556454C494E475F44415441005ACB
:100D00005F50524F42450052554E4F555400415589
:100D1000544F4C4556454C005052494E545F4A4F33
:100D2000420050524F4752455353004155544F5281
:100D300045504F52545F54454D5000564F4C554D01
:100D400045545249430042494E4152595F46494C2D
:100D5000455F5452414E5346455200534552494116
:100D60004C5F584F4E5F584F4646004649524D57CC
:100D70004152455F4E414D453A4D61726C696E205E
:100D80006275676669782D322E302E78202841757D
:100D90006720323920323032302031353A31323A20
:100DA00034392920534F555243455F434F44455FE3
:100DB00055524C3A68747470733A2F2F676974688F
:100DC00075622E636F6D2F4D61726C696E4669722C
:100DD0006D776172652F4D61726C696E2050524F54
:100DE000544F434F4C5F56455253494F4E3A312E64
:100DF00030204D414348494E455F545950453A488B
:100E0000453344204B3238302045585452554445E0
:100E1000525F434F554E543A3120555549443A6339
:100E2000656465326132662D343161322D34373478
:100E3000382D396231322D633535633632663336BB
:100E40003766660A002F2F20004D31343520533C81
:100E5000696E6465783E206F7574206F66207261DC
:100E60006E67652028302D31290A00416363656C67
:100E700065726174696F6E3A20500020204D617870
:100E80003A200020204D696E3A2000536F6674208E
:100E9000656E6473746F70733A200046523A002096
:100EA000466C6F773A200050726F746563746564A6
:100EB0002050696E0A0020643A0020693A002070D0
:100EC0003A006469730043290A0061626C6564201A
:100ED000286D696E2074656D702000436F6C64200E
:100EE00065787472756465732061726520004D3495
:100EF000323120696E636F72726563742070617243
:100F0000616D657465722075736167650A0045459A
:100F100050524F4D204F4B0A005D203D200064652C
:100F20006C74615F656E6473746F705F61646A5B3B
:100F3000004D36363600206472697665722063751E
:100F40007272656E743A2000506F7765722D6C6F07
:100F50007373207265636F766572792000446F6EDB
:100F600065207072696E74696E672066696C650AC7
:100F7000004D3737004D333100810A7C0A750A6E07
:100F80000A600A570A4572726F7220777269746933
:100F90006E6720746F20454550524F4D210A004D19
:100FA000343130004D313132004D3130380053543E
:100FB0004F505045442E20005072696E7465722067
:100FC00073746F707065642064756520746F20653C
:100FD00072726F72732E204669782074686520657E
:100FE00072726F7220616E6420757365204D39399D
:100FF0003920746F20726573746172742E202854C6
:10100000656D7065726174757265206973207265B3
:101010007365742E2053657420697420616674654D
:10102000722072657374617274696E67290A004E6A
:101030006F20436865636B73756D207769746820F2
:101040006C696E65206E756D6265722C204C6173E3
:1010500074204C696E653A2000636865636B737534
:101060006D206D69736D617463682C204C617374BD
:10107000204C696E653A20004C696E65204E756D96
:10108000626572206973206E6F74204C61737420E6
:101090004C696E65204E756D6265722B312C204C4B
:1010A000617374204C696E653A20004D3131300017
:1010B00053442072656164206572726F720A002168
:1010C00021204B494C4C2063617573656420627923
:1010D000204B494C4C20627574746F6E2F70696E92
:1010E0000A002121204B494C4C20636175736564D3
:1010F00020627920746F6F206D75636820696E615E
:1011000063746976652074696D65202D206375723E
:1011100072656E7420636F6D6D616E643A2000625B
:101120007573793A2070617573656420666F7220FB
:10113000696E7075740A00627573793A2070617512
:1011400073656420666F7220757365720A0062753C
:1011500073793A2070726F63657373696E670A0002
:101160004D656469612052656D6F766564004D65FB
:1011700064696120496E736572746564004D313035
:101180003030205300506C65617365205265736583
:1011900074005052494E5445522048414C544544E5
:1011A0000025533A202553004B494C4C45442E20F2
:1011B000005072696E7465722068616C7465642E8B
:1011C000206B696C6C28292063616C6C6564210A52
:1011D000006563686F3A004572726F723A0066612B
:1011E0006C736500747275650020286469736162B0
:1011F0006C6564290A0041424C2041646A7573742D
:101200006D656E74205A002028656E61626C65649D
:10121000290A0041626F76650053616D65205A208E
:1012200061730042656C6F77004175746F20426591
:1012300064204C6576656C696E673A2042494C497A
:101240004E45415200204E6F7A7A6C65290A002083
:101250002620002D43656E746572002D46726F6EF8
:1012600074002D4261636B002028416C69676E65D4
:101270006420576974680020284D6964646C6500B7
:1012800020284C65667400202852696768740050F5
:10129000726F62653A204649585F4D4F554E54452E
:1012A000445F50524F42450A004D616368696E6564
:1012B00020547970653A2044656C74610A005D0AB7
:1012C000004578747261706F6C617465205B0036E4
:1012D0003726023C3D380F2E303E12131A1C180AD6
:1012E000074308090708440001656E717565756557
:1012F000696E672022006F6B00526573656E643AF9
:1013000020002569792025696420256968202569E0
:101310006D202569730023646566696E6520444508
:101320004641554C545F004B6420004B6920004BF4
:10133000702000504944204175746F74756E6520AB
:1013400066696E69736865642120507574207468DD
:1013500065206C617374204B702C204B6920616E8A
:1013600064204B6420636F6E7374616E74732066C7
:10137000726F6D2062656C6F7720696E746F2043A9
:101380006F6E66696775726174696F6E2E680A00A8
:10139000504944204175746F74756E6520666169AB
:1013A0006C6564212074696D656F75740A000A208C
:1013B000436C617373696320504944200A00204BD9
:1013C000643A2000204B693A2000204B703A2000FC
:1013D0002054753A2000204B753A2000206D61782A
:1013E0003A2000206D696E3A200020643A200020E7
:1013F000626961733A2000504944204175746F74EA
:10140000756E652073746172740A005049442041FE
:1014100075746F74756E65206661696C65642120F2
:1014200054656D706572617475726520746F6F209C
:10143000686967680A00504944204175746F747583
:101440006E6500504944204175746F74756E652057
:101450006661696C656421204261642065787472FC
:1014600075646572206E756D6265720A007C4D61EF
:10147000726C696E7C002D2D2D2D2D2D00456E6317
:101480006C6F73757265004D6F76696E672E2E2EC8
:1014900000A10000006900A20000006300B000008D
:1014A000000900C10000004100C20000004100C36B
:1014B0000000004100C40000004100C500000041E0
:1014C00000C60000004145C70000004300C80000FE
:1014D000004500C90000004500CD0000004900D1D2
:1014E0000000004E00D50000004F00D60000004F65
:1014F00000D70000007800DC0000005500DD00008F
:10150000005900E00000006100E10000006100E21D
:101510000000006100E30000006100E400000061E1
:1015200000E50000006100E60000006165E70000E2
:10153000006300E80000006500E90000006500EAC3
:101540000000006500EB0000006500EC0000006991
:1015500000ED0000006900EE0000006900EF0000EF
:10156000006900F10000006E00F20000006F00F35F
:101570000000006F00F40000006F00F50000006F35
:1015800000F60000006F00F80000006F00F9000096
:10159000007500FA0000007500FB0000007500FCFB
:1015A0000000007500FD0000007900FF00000079D8
:1015B0000004010000410005010000610006010077
:1015C0000043000701000063000C01000043000D10
:1015D00001000063000E01000044000F01000064E0
:1015E000001101000064001901000065001A0100EB
:1015F0000045001B01000065001F0100006700306E
:101600000100004900310100006900410100004C67
:1016100000420100006C00430100004E0044010044
:10162000006E00480100006E005801000052005991
:1016300001000072005A01000053005B01000073BA
:10164000005F0100007300600100005300610100B1
:101650000073006501000074006F01000075007CDC
:101660000100007A007D0100005A007E0100007A2E
:1016700000920100006600E30200007800222000D2
:10168000002E001E210000507822210000544D90B1
:101690002100003C2D922100002D3EB021000003CE
:1016A00000BB21000004003C2200007E0048220014
:1016B000007E3D60220000213D612200003D00646B
:1016C0002200003C3D652200003E3DF12300000762
:1016D00000A03000003D0021F301000200C2F4012F
:1016E000000500A2000000EC00B0000000DF00E4F4
:1016F000000000E100F6000000EF00F7000000FD30
:1017000000FC000000F500E3020000EB008703008E
:1017100000A5008F030000F40098030000F2009E73
:10172000030000E300A3030000F600A9030000F497
:1017300000AC030000E000AD030000E300B10300D3
:1017400000E000B2030000E200B5030000E300B8CF
:10175000030000F200BC030000E400BE030000E34D
:1017600000C0030000F700C1030000E600C303004F
:1017700000E500902100007F00922100007E001A09
:10178000220000E8001E220000F30088250000FF70
:101790000002300000A1000C300000A2000D30005B
:1017A00000A3009B300000DE009C300000DF00A0A2
:1017B0003000003D00A1300000A700A2300000B1C1
:1017C00000A3300000A800A4300000B200A5300043
:1017D00000A900A6300000B300A7300000AA00A8AE
:1017E000300000B400A9300000AB00AA300000B502
:1017F00000AB300000B600AC300000B6DEAD30000B
:1018000000B700AE300000B7DEAF300000B800B067
:10181000300000B8DEB1300000B900B2300000B9CD
:10182000DEB3300000BA00B4300000BADEB53000DC
:1018300000BB00B6300000BBDEB7300000BC00B813
:10184000300000BCDEB9300000BD00BA300000BD81
:10185000DEBB300000BE00BC300000BEDEBD30008C
:1018600000BF00BE300000BFDEBF300000C000C0BF
:10187000300000C0DEC1300000C100C2300000C135
:10188000DEC3300000AF00C4300000C200C530002D
:1018900000C2DEC6300000C300C7300000C3DEC88F
:1018A000300000C400C9300000C4DECA300000C5EA
:1018B00000CB300000C600CC300000C700CD3000A7
:1018C00000C800CE300000C900CF300000CA00D0F0
:1018D000300000CADED1300000CADFD2300000CBB9
:1018E00000D3300000CBDED4300000CBDFD5300099
:1018F00000CC00D6300000CCDED7300000CCDFD8E2
:10190000300000CD00D9300000CDDEDA300000CD4F
:10191000DFDB300000CE00DC300000CEDEDD30004A
:1019200000CEDFDE300000CF00DF300000D000E06E
:10193000300000D100E1300000D200E2300000D3DE
:1019400000E3300000AC00E4300000D400E53000DB
:1019500000AD00E6300000D500E7300000AE00E842
:10196000300000D600E9300000D700EA300000D88F
:1019700000EB300000D900EC300000DA00ED300060
:1019800000DB00EF300000DC00F2300000A600F3C6
:10199000300000DD00F4300000B3DEF7300000DC82
:1019A000DEFA300000A6DEFB300000A500FC3000AF
:1019B00000B000FD300000A400074E0000FB0086D0
:1019C000510000FC0043530000FA0064FF0000A433
:1019D0000065FF0000A50066FF0000A60067FF008D
:1019E00000A70068FF0000A80069FF0000A9006AC6
:1019F000FF0000AA006BFF0000AB006CFF0000AC12
:101A0000006DFF0000AD006EFF0000AE006FFF0034
:101A100000AF0070FF0000B00071FF0000B1007265
:101A2000FF0000B20073FF0000B30074FF0000B4B9
:101A30000075FF0000B50076FF0000B60077FF00DC
:101A400000B70078FF0000B80079FF0000B9007A05
:101A5000FF0000BA007BFF0000BB007CFF0000BC61
:101A6000007DFF0000BD007EFF0000BE007FFF0084
:101A700000BF0080FF0000C00081FF0000C10082A5
:101A8000FF0000C20083FF0000C30084FF0000C409
:101A90000085FF0000C50086FF0000C60087FF002C
:101AA00000C70088FF0000C80089FF0000C9008A45
:101AB000FF0000CA008BFF0000CB008CFF0000CCB1
:101AC000008DFF0000CD008EFF0000CE008FFF00D4
:101AD00000CF0090FF0000D00091FF0000D10092E5
:101AE000FF0000D20093FF0000D30094FF0000D459
:101AF0000095FF0000D50096FF0000D60097FF007C
:101B000000D70098FF0000D80099FF0000D9009A84
:101B1000FF0000DA009BFF0000DB009CFF0000DC00
:101B2000009DFF0000DD009EFF0000DE009FFF0023
:101B300000DF00E5FF00005C00001C1F11111F000A
:101B4000000006191803130C00040E1F041C0000EB
:101B500000000E1315110E00001C101817050605C5
:101B600000040A0A0A0A11110E0C12120C000000DD
:101B700000001F1511151F000000000000010204E5
:101B8000040000001C1C0C040404020100000000FE
:101B900000040810000000000046696C2E20446913
:101BA000612E004520696E206D6DC2B300200220B9
:101BB00046616374002002204D6178002002204DB0
:101BC000696E004175746F74656D70005654726172
:101BD00076204D696E00566D696E00566D617820F5
:101BE0004500566D6178204300566D6178204200B3
:101BF000566D6178204100416D6178204500416D4E
:101C00006178204300416D6178204200416D617828
:101C1000204100412D54726176656C00412D526562
:101C2000747261637400416363656C0050726F622B
:101C3000653A3A646F5F7A5F726169736528006420
:101C400065706C6F793A2000203A2050726F62659F
:101C50003A3A7365745F6465706C6F7965640A0005
:101C600053657474696E67732053746F7265640092
:101C70002062797465733B2063726320005365743E
:101C800074696E67732053746F7265642028004511
:101C90004550524F4D206461746173697A652065C7
:101CA00072726F722E0A002073746F7265642073F3
:101CB000657474696E6773207265747269657665A0
:101CC00064202800202863616C63756C617465640E
:101CD00029210A0020213D2000454550524F4D202A
:101CE000435243206D69736D61746368202D202811
:101CF00073746F726564292000496E6465783A20B8
:101D000000204D61726C696E3D563831290A0045DC
:101D10004550524F4D2076657273696F6E206D6924
:101D2000736D617463682028454550524F4D3D00E6
:101D30004F6666004F6E00544D43204472697665CD
:101D400072730046616E205370656564004D616971
:101D50006E00537465616C746843686F7020456EE3
:101D600061626C6564005374657070696E67204DC4
:101D70006F646500487962726964205468726573A3
:101D8000686F6C6400447269766572204375727284
:101D9000656E7400436F6E74726F6C00466C6F7783
:101DA000002568753A25303268750025303268752F
:101DB0003A2530326875005344002020202020202E
:101DC00020004D6F74696F6E004D3834004175749A
:101DD0006F20486F6D650054656D70657261747534
:101DE00072650041425300504C41004672656520C7
:101DF000585900536F667420456E6473746F707326
:101E00000044697361626C6520537465707065721B
:101E1000730050726568656174202420456E64000B
:101E20005072656865617420242042656400436FC8
:101E30006F6C646F776E0050726568656174202402
:101E400000E71DE31D42696C696E656172204C6597
:101E500076656C696E6720477269643A0A00203AB9
:101E6000202E2E2E4E6F77204F4E0A00203A204C07
:101E70006576656C696E67204F46460A00203A20F9
:101E80002E2E2E4E6F77204F46460A00203A204CC9
:101E90006576656C696E67204F4E0A0072657365E2
:101EA000745F6265645F6C6576656C0A002F333120
:101EB000005761726E696E673A20486F6D696E6790
:101EC0002042756D702044697669736F72203C20E2
:101ED000310A005D00646F5F686F6D696E675F6DEA
:101EE0006F7665003C3C3C20686F6D656178697376
:101EF000280061646A44697374616E63653A0048DE
:101F00006F6D65203220536C6F773A0A004D6F7603
:101F10006520417761793A0A00486F6D652031206C
:101F2000466173743A0A003E3E3E20686F6D6561FB
:101F300078697328000A0A0A555585425555854225
:101F4000555585420000A0400000A0400000A04080
:101F500000008C4300008C43008018440101010004
:101F600000000100000001000080005555550000F0
:101F700000400033333300AAAA2A0049922400000B
:101F8000002000C7711C0099991900D14517005510
:101F90005515003BB1130024491200111111000026
:101FA0000010000F0F0F00E3380E0043790D00CC36
:101FB000CC0C00C3300C00E8A20B0064210B00AA7B
:101FC000AA0A00703D0A009DD80900427B090092D0
:101FD000240900DCD30800888808001042080000AB
:101FE000000800F0C10700878707007550070071DF
:101FF0001C07003EEB0600A1BC06006990060066C7
:10200000660600703E06006118060017F4050074AD
:10201000D105005BB00500B2900500627205005565
:1020200055050078390500B81E0500050505004E68
:10203000EC040087D40400A1BD040090A70400496B
:10204000920400C17D0400EE690400C756040044F8
:102050004404005C32040008210400411004000024
:102060000004003FF00300F8E0030026D20300C3A1
:10207000C30300CCB503003AA803000A9B03003851
:102080008E0300C08103009F750300D069030050D8
:102090005E03001D53030034480300913D030033E9
:1020A00033030016290300381F030097150300307F
:1020B0000C0300030303000BFA020049F10200BA0B
:1020C000E802005CE002002DD802002DD002005989
:1020D000C80200B0C0020031B90200DAB10200AAA1
:1020E000AA0200A0A30200BC9C0200FA9502005CB8
:1020F0008F0200DF88020082820200457C020027F6
:1021000076020027700200436A02007C640200D05D
:102110005E02003F590200C8530200FFFDFCFAF8BE
:10212000F6F4F2F0EEECEAE9E7E5E3E1E0DEDCDA32
:10213000D9D7D5D4D2D0CFCDCBCAC8C7C5C3C2C0DA
:10214000BFBDBCBAB9B7B6B4B3B2B0AFADACAAA953
:10215000A8A6A5A4A2A1A09E9D9C9A9998979594A3
:102160009392908F8E8D8B8A8988878684838281D3
:10217000807F7E7D7B7A79787776757473727170E3
:102180006F6E6D6C6B6A69686766656463626160D7
:102190005F5E5D5C5B5A59585857565554535251BF
:1021A00050504F4E4D4C4B4A4A494847464645448D
:1021B00043424241403F3E3E3D3C3B3B3A3938384A
:1021C00037363535343332323130302F2E2E2D2CF8
:1021D0002B2B2A292928272726252524232322219A
:1021E0002120201F1E1E1D1C1C1B1B1A191918182C
:1021F000171616151514131312121111100F0F0EB6
:102200000E0D0D0C0C0B0A0A090908080707060633
:1022100005050404030302020100003C3C3C20735A
:1022200065745F617869735F69735F61745F686F1C
:102230006D6528003E3E3E207365745F617869736A
:102240005F69735F61745F686F6D652800686F6DAB
:10225000655F64656C746100486F6D696E672046E8
:1022600061696C6564006F70656E00545249474740
:1022700045524544007A5F6D6178007A5F6D696E02
:1022800000795F6D617800785F6D617800526570EC
:102290006F7274696E6720656E6473746F702073FB
:1022A00074617475730A00203A2073796E635F70ED
:1022B0006C616E5F706F736974696F6E0A00203AAB
:1022C00020707265706172655F666173745F6D6FB7
:1022D00076655F746F5F64657374696E6174696F4E
:1022E0006E0A00202064657374696E6174696F6E94
:1022F0003D00203A207A206C6F776572206D6F76F2
:10230000650A00203A207879206D6F76650A0020F2
:102310003A207A207261697365206D6F76650A00D4
:10232000203A207A6F6E6520626F72646572206D4C
:102330006F76650A00203A2064616E676572207AC4
:102340006F6E65206D6F76650A00203A20646573B4
:1023500074696E6174696F6E203D20637572726579
:102360006E745F706F736974696F6E0A003E20004F
:10237000646F5F626C6F636B696E675F6D6F7665CC
:102380005F746F00206D61783A00206D696E3A00CD
:102390004178697320000000000000000000008008
:1023A000184400000C4300000C4300801844000057
:1023B0000CC300000CC30000000050726F62652067
:1023C0005A204F666673657400416476616E63657A
:1023D000642053657474696E677300547A0054798D
:1023E00000547800457A00457900457800456469D5
:1023F00074204D657368004C6576656C2042656499
:10240000004732380A47323900526573746F72657B
:102410002044656661756C7473005072656865610F
:1024200074202420436F6E660044656C7461204301
:10243000616C6962726174696F6E004469616720E2
:10244000526F64005261646975730048656967681A
:1024500074004732362048656174696E67204E6F9C
:102460007A7A6C65004732362048656174696E6718
:10247000204265640057616974696E6720666F72F7
:10248000206865617475702E0A004669786564205D
:102490004C656E677468205072696D6500446F6E9C
:1024A00065205072696D696E67004D616E75616C73
:1024B000207072696D696E672E2E2E0047323620AD
:1024C00043616E63656C6564004C656176696E6737
:1024D00020473236003F5370656369666965642042
:1024E000582C5920636F6F7264696E617465206F38
:1024F0007574206F6620626F756E64732E0A003FDC
:1025000028522965706561742076616C7565206E4E
:102510006F7420706C61757369626C653B206D75BA
:102520007374206265206174206C6561737420315E
:102530002E0A003F537065636966696564206E6F9B
:102540007A7A6C652074656D7065726174757265F8
:10255000206E6F7420706C61757369626C652E0AF1
:10256000003F5370656369666965642066696C61E4
:102570006D656E742073697A65206E6F7420706C5F
:1025800061757369626C652E0A003F5370656369FB
:1025900066696564207072696D65206C656E67742C
:1025A00068206E6F7420706C61757369626C652E43
:1025B0000A003F537065636966696564206E6F7ACF
:1025C0007A6C652073697A65206E6F7420706C6117
:1025D000757369626C652E0A003F5265747261639F
:1025E00074696F6E204D756C7469706C69657220CA
:1025F0006D757374206265207370656369666965C3
:10260000642E0A003F5370656369666965642052F1
:10261000657472616374696F6E204D756C74697056
:102620006C696572206E6F7420706C61757369627D
:102630006C652E0A003F53706563696669656420A6
:102640006C6179657220686569676874206E6F7463
:1026500020706C61757369626C652E0A0043292EC7
:102660000A003F537065636966696564206265644A
:102670002074656D7065726174757265206E6F741B
:1026800020706C61757369626C65202834302D0090
:10269000473236207374617274696E672E2E2E0A6B
:1026A0000056652D4A65726B0056432D4A65726B64
:1026B0000056422D4A65726B0056412D4A65726B79
:1026C0000050726F62652059204F66667365740012
:1026D00050726F62652058204F66667365740045BE
:1026E0002073746570732F6D6D0043205374657093
:1026F000732F6D6D00422053746570732F6D6D00E4
:10270000412053746570732F6D6D00496E697400BC
:1027100046696C616D656E740050726F6265204F22
:1027200066667365747300416363656C657261749A
:10273000696F6E0056656C6F63697479005A205634
:10274000616C756500496E646578205900496E6456
:10275000657820580020746F6F206C6F6E6720655D
:102760007874727573696F6E2070726576656E74B9
:1027700065640A0020636F6C6420657874727573F9
:10278000696F6E2070726576656E7465640A0020EC
:10279000453A0020593A000920426164207265736D
:1027A000706F6E7365210048494748004572726F2B
:1027B000723A20416C6C200020636F6E6E6563740A
:1027C000696F6E2E2E2E200054657374696E67201B
:1027D00000544D4320434F4E4E454354494F4E20E5
:1027E0004552524F5200303D2E33323500313D2E8E
:1027F00031380000002100240027002A002D00307D
:1028000000330001010000040107010A0100000A71
:102810000B02090C0D0E0807030401000000000064
:1028200000000000000000000000000000000000A8
:102830000000000000000000001211100000000065
:102840000000000000000000000000000000000088
:10285000000000000020002300260029002C002F8B
:1028600000320000010000030106010901000022FE
:1028700000250028002B002E00310034000201004A
:1028800000050108010B01050505050705080808F5
:1028900008020202020A0A080804040404010101F1
:1028A00001010101010303030303030303040707F9
:1028B000070C0C0C0C0C0C0C0C0202020206060697
:1028C00006060606060B0B0B0B0B0B0B0B0102107F
:1028D000202008081020401020408002010201083A
:1028E00004020101020408102040808040201008EA
:1028F0000402018004020180402010080402010843
:1029000004020101020408102040800102040810A2
:102910002040804D6F76652025736D6D004D6F767C
:102920006520302E316D6D004D6F766520316D6DF7
:10293000004D6F76652031306D6D004D6F766520EE
:102940004178697300486F74656E6420746F6F20FE
:10295000636F6C64004578747275646572004D6FC6
:102960007665205A004D6F76652059004D6F76656B
:102970002058003F00496E697469616C697A65206E
:10298000454550524F4D005072696E742041626F40
:1029900072746564004D32350050617573696E67FD
:1029A0002E2E2E00454550524F4D205665727369AC
:1029B0006F6E204572726F7200454550524F4D2028
:1029C000496E646578204572726F720045455052B9
:1029D0004F4D20435243204572726F720049676E1B
:1029E0006F7265005761726E696E673A20436C655D
:1029F000616E20436972636C6520726571756972DE
:102A000065732058590A005761726E696E673A20E3
:102A1000526164697573204F7574206F662052612E
:102A20006E67650A000268747470733A2F2F6D61C7
:102A3000726C696E66772E6F7267002062756766CA
:102A400069782D322E302E78002020506C616E6E09
:102A5000657242756666657242797465733A2000E4
:102A60002046726565204D656D6F72793A2000438E
:102A70006F6D70696C65643A20417567203239204A
:102A8000323032300A00204C61737420557064611A
:102A90007465643A20323032302D30382D32352092
:102AA0007C20417574686F723A20284D6172746F92
:102AB0006E2042616B73612D30382E32382E3230E9
:102AC0003230290A006275676669782D322E302E01
:102AD000780A004D61726C696E0020536F667477DE
:102AE0006172652052657365740A002057617463D2
:102AF00068646F672052657365740A002042726FC4
:102B0000776E206F75742052657365740A002045D6
:102B1000787465726E616C2052657365740A00503A
:102B20006F77657255700A006175746F25632E6743
:102B300000473238004D31303031006572726F72AB
:102B40002077726974696E6720746F2066696C659E
:102B50000A00446F6E6520736176696E672066694E
:102B60006C652E0A004D323900255320256320253F
:102B7000632025632025630020583A00656E647346
:102B8000746F7073206869743A200070012C019092
:102B9000012701B0012201C0011D01F0011801103F
:102BA00002130130020E016002090190020401C00B
:102BB00002FF000003FA004003F5008003F000D09C
:102BC00003EB002004E6007004E100E004DC0040B8
:102BD00005D700C005D2004006CD00D006C8008051
:102BE00007C3003008BE00F008B900C009B400B047
:102BF0000AAF00B00BAA00D00CA500000EA0005038
:102C00000F9B00C01096005012910000148C00C061
:102C1000158700B0178200B0197D00D01B78000026
:102C20001E730040206E0090226900F02464004072
:102C3000275F0090295A00E02B5500102E500020ED
:102C4000304B0010324600E033410090353C00101C
:102C500037370070383200A0392D00B03A2800A074
:102C60003B2300603C1E00103D1900903D140010F5
:102C70003E0F00703E0A00C03E0500003F000040CD
:102C80003FFBFF803FF6FFC03FF1FF24F4D43050FC
:102C9000C38E20C2A24017828B7011127A910D81CF
:102CA0006CD90AA861E108C7586607615143061E3E
:102CB0004B5D05C145A7041A411104093D980371F4
:102CC0003931034036DB0265339102D4305402803F
:102CD0002E1D02632CEE01752AC501B028A001103B
:102CE0002781018F2564012B244B01E0223401ACA4
:102CF000211F018D200D01801FFC00841EED009717
:102D00001DDF00B81CD200E61BC600201BBC0064FF
:102D10001AB200B219A8000A19A0006A189900D1C5
:102D200017910040178B00B516840031167E00B352
:102D30001579003A157300C7146F0058146A00EE35
:102D40001366008813630025135E00C7125B006CD6
:102D500012570015125400C111510070114F00217B
:102D6000114B00D61049008D104700461044000258
:102D7000104200C00F4000800F3E00420F3C000692
:102D80000F3B00CB0E3800930E37005C0E3500274A
:102D90000E3400F30D3200C10D3100900D30006093
:102DA0000D2E00320D2D00050D2C00D90C2B00AE80
:102DB0000C2900850C29005C0C2700350C27000E1F
:102DC0000C2600E80B2400C40B2400A00B23007D7C
:102DD0000B23005A0B2100390B2100180B2000F89F
:102DE0000A1F00D90A1E00BB0A1E009D0A1D008092
:102DF0000A1D00630A1C00470A1B002C0A1B001155
:102E00000A1A00F7091A00DD091900C4091900ABF4
:102E1000091900920917007B091800630917004C73
:102E200009160036091600200916000A091500F5D2
:102E3000081500E0081400CC081400B8081400A419
:102E4000081400900813007D0812006B0813005846
:102E5000081200460812003408110023081100125D
:102E600008110001081100F0071000E0071000D061
:102E7000071000C0071000B0070F00A10710009155
:102E8000070E0083070F0074070F0065070E005739
:102E9000070E0049070E003B070D002E070E00200D
:102EA000070D0013070D0006070D00F9060C00EDD5
:102EB000060D00E0060C00D4060C00C8060C00BC91
:102EC000060C00B0060C00A4060B0099060C008D41
:102ED000060B0082060B0077060B006C060B0061E8
:102EE000060A0057060B004C060A0042060A003884
:102EF000060A002E060A0024060A001A060A001016
:102F000006090007060A00FD050900F4050900EBA3
:102F1000050900E2050900D9050900D0050900C727
:102F2000050900BE050900B5050800AD050800A5A6
:102F30000509009C050800940508008C050800841C
:102F40000508007C050800740508006C050700658D
:102F50000508005D050700560508004E05070047F7
:102F60000507004005080038050700310507002A5D
:102F7000050700230507001C050600160507000FBE
:102F80000507000805060002050700FB040600F51A
:102F9000040700EE040600E8040600E2040700DB74
:102FA000040600D5040600CF040600C9040600C3C9
:102FB000040600BD040600B7040600B1040500AC19
:102FC000040600A6040600A00405009B0406009564
:102FD000040500900406008A0405008504050080AD
:102FE0000406007A04050075040500700405006BF2
:102FF00004050066040500610405005C0405005733
:10300000040500520405004D040500480405004372
:103010000405003E0404003A0405003504050030B0
:103020000404002C04050027040400230405001EEA
:103030000404001A04040016040500110404000D21
:10304000040400090405000404040000040400FC56
:10305000030400F8030400F4030400F0030400EC8C
:10306000030400E8030400E4030400E0030400DCBC
:10307000030400D8030400D4030400D0030400CCEC
:10308000030400C8030300C503030024F404D9208B
:103090001BC40C5C0E9804C4095F0265077101F43F
:1030A00005F900FB04B30048048700C10369005818
:1030B00003550003034500BE023A00840231005369
:1030C000022A002902250004022000E4011C00C895
:1030D000011900AF01170098011400840113007159
:1030E0000110006101100051010E0043010D003676
:1030F000010B002B010B0020010B00150109000C36
:1031000001090003010800FB000800F3000800EBC0
:10311000000700E4000600DE000600D8000600D22A
:10312000000600CC000500C7000500C2000500BD78
:10313000000400B9000400B5000400B1000400ADB3
:10314000000400A9000400A5000300A20003009FE2
:103150000004009B00030098000300950002009308
:10316000000300900003008D0002008B0003008824
:103170000002008600020084000300810002007F3C
:103180000002007D0002007B00020079000200774F
:10319000000100760002007400020072000100715C
:1031A0000002006F0002006D0001006C0002006A66
:1031B000000100690002006700010066000100656F
:1031C0000001006400020062000100610001006073
:1031D0000001005F0002005D0001005C0001005B77
:1031E0000001005A00010059000100580001005779
:1031F0000001005600010055000100540001005379
:103200000000005300010052000100510001005075
:103210000001004F0001004E0000004E0001004D73
:103220000001004C0001004B0000004B0001004A6F
:10323000000100490001004800000048000100476B
:103240000001004600000046000100450000004566
:10325000000100440001004300000043000100425F
:103260000000004200010041000000410001004058
:103270000001003F0000003F0001003E0000003E52
:103280000001003D0000003D0001003C0000003C4A
:103290000000003C0001003B0000003B0001003A40
:1032A0000000003A00010039000000390001003838
:1032B000000000380000003800010037000000372F
:1032C0000001003600000036000000360001003525
:1032D000000000350000003500010034000000341B
:1032E0000000003400010033000000330000003310
:1032F0000001003200000032000000320001003105
:1033000000000031000000310001003000000030FA
:10331000000000300001002F0000002F0000002FEF
:103320000000002F0001002E0000002E0000002EE3
:103330000001002D0000002D0000002D0000002DD8
:103340000001002C0000002C0000002C0000002CCC
:103350000001002B0000002B0000002B0000002BC0
:103360000001002A0000002A0000002A0000002AB4
:1033700000010029000000290000002900000029A8
:10338000000000290001002800000028000000289B
:10339000000000280000002800010027000000278E
:1033A0000000002700000027000000270001002681
:1033B0000000002600000026000000260000002675
:1033C0000001002500000025000000250000002568
:1033D000000000250000002500010024000000245A
:1033E000000000240000002400000024000100234D
:1033F0000000002300000023000000230000002341
:103400000000002300000023000100220000002231
:103410000000002200000022000000220000002224
:103420000001002100000021000000210000002117
:103430000000002100000021000000210001002008
:1034400000000020000000200000002000000020FC
:103450000000002000000020000000200001001FEC
:103460000000001F0000001F0000001F0000001FE0
:103470000000001F0000001F0001001E0000001ED1
:103480000000001E0000001E000000393000003364
:1034900025000087190000B00F0000DB080000BD08
:1034A000040000740200003F0100005741524E49E1
:1034B0004E4721204C6F77205A204A65726B206D51
:1034C0006179206C65616420746F20756E77616E20
:1034D000746564207061757365732E0A00204D3920
:1034E000322058004D32342053256C642054256C12
:1034F00064004739322E3920452573004731204674
:103500002564004731205A25732046323030004769
:103510003120582573205925732046333030300030
:10352000473132004D34323020532569205A2573FB
:10353000004D3130362050256920532569004D312A
:10354000303920532569004D313930205325690029
:103550004D32303020442573004739322E39204512
:10356000300A4732385230004D3432302053302048
:103570005A30004452565F53544154555309005039
:10358000574D5F5343414C45090050574D434F4EF3
:10359000460900434F4F4C434F4E46090043484FA6
:1035A00050434F4E460900544849474809090054C2
:1035B000434F4F4C5448525309005450574D5448B0
:1035C00052530900545354455009090054504F5761
:1035D0004552444F574E0900494F494E090900478B
:1035E0005354415409090049484F4C445F495255CE
:1035F0004E090047434F4E460909004472697665FB
:1036000072207265676973746572733A0A00733267
:103610007673620900733276736109003132304388
:103620000900313433430900313530430900313565
:10363000374309006F7409006F74707709007332A3
:10364000676109007332676209006F6C6109006F7E
:103650006C62090073747374090073675F72657339
:10366000756C74004452565354415455530075536D
:1036700074657020636F756E74005374616C6C6751
:1036800075617264207468727300202D73746172A6
:10369000740900687973746572657369730A202D03
:1036A000656E640900626C616E6B2074696D650003
:1036B0006F66662074696D650070776D2067726152
:1036C00064206175746F0070776D206F6666736536
:1036D00074206175746F0070776D207363616C6521
:1036E000206175746F0070776D207363616C652065
:1036F00073756D004F54207072657761726E005B58
:103700006D6D2F735D090050574D2074687265739D
:10371000682E00747374657009006D73746570733E
:103720000900737465616C746843686F7000767328
:10373000656E7365090050574D207363616C6500B9
:1037400043532061637475616C00486F6C6420633F
:10375000757272656E740052756E20637572726553
:103760006E74004D41582063757272656E7400521C
:103770004D532063757272656E74005365742063D7
:10378000757272656E7400456E61626C65640900E5
:103790004164647265737309007370726561644398
:1037A00079636C650020647269766572206D6F6460
:1037B000653A090020737465616C746843686F70C2
:1037C000206D61782073706565643A200020496E31
:1037D00076616C6964206578747275646572200026
:1037E00044656C6574696F6E206661696C65642CF4
:1037F0002046696C653A200046696C652064656CFA
:10380000657465643A0057726974696E6720746FF5
:103810002066696C653A2000667265736800646FA3
:10382000696E67004E6F7720007879007A780079AA
:103830007A00207A002079002078002E2020202095
:1038400000456E64204452592D52554E004E6F2053
:10385000636F6E76657267656E6365004974657245
:103860006174696F6E203A202530326900536176A9
:10387000652077697468204D35303020616E642F83
:103880006F7220636F707920746F20436F6E66696A
:103890006775726174696F6E2E680A00253033692E
:1038A0002E7800302E253033690043616C696272D6
:1038B0006174696F6E2073643A0073746420646588
:1038C000763A00726F6C6C696E67206261636B2E72
:1038D0000043616C6962726174696F6E204F4B00C6
:1038E000436F72726563742064656C7461207365E4
:1038F0007474696E67732077697468204D36363545
:1039000020616E64204D3636360A00202844525914
:103910002D52554E2900436865636B696E672E2EE4
:103920002E204143003F4265642063616C696272EE
:103930006174696F6E2072616469757320696D705E
:103940006C61757369626C652E0A004733332041E0
:1039500075746F2043616C6962726174650A003F1F
:103960002856296572626F7365206C6576656C20D8
:10397000696D706C61757369626C652028302D33D8
:10398000292E0A003F2846296F72636520697465F5
:10399000726174696F6E20696D706C6175736962B4
:1039A0006C652028302D3330292E0A003F2843290A
:1039B000616C6962726174696F6E207072656369AF
:1039C00073696F6E20696D706C61757369626C6587
:1039D00020283E3D30292E0A003F2850296F696E6D
:1039E000747320696D706C61757369626C652028F1
:1039F000302D3130292E0A002053697A653A200093
:103A000043616E6E6F74206F70656E2073756264B3
:103A100069722000534420496E6974204661696CC4
:103A20000053442063617264206F6B0A006F7065FD
:103A30006E526F6F74206661696C65640A00766F00
:103A40006C756D652E696E6974206661696C65645C
:103A50000A004E6F20534420636172640A004D32A5
:103A600034004D32332025730046696C6520736540
:103A70006C65637465640A0046696C65206F7065E7
:103A80006E65643A2000454E4420535542524F55CE
:103A900054494E450A002220706F73002220706145
:103AA00072656E743A2200535542524F5554494E36
:103AB000452043414C4C207461726765743A220082
:103AC00053756263616C6C204F766572666C6F77BC
:103AD000004578636565646564206D6178205355A1
:103AE00042524F5554494E452064657074683A31CE
:103AF0000A00426564204C6576656C696E6720003B
:103B00004661696C656420746F20656E61626C65E6
:103B100020426564204C6576656C696E670A0049D1
:103B20006E76616C6964206D6573682E0A003E3E96
:103B30003E0020636F72726563746564205A3A00B8
:103B400047323920756E636F7272656374656420E5
:103B50005A3A00203A203E2070726F62696E6720E8
:103B6000636F6D706C6574650A0050726F62696E88
:103B70006720506F696E740025532025692F2569D1
:103B80000050726F62696E67206D65736820706F98
:103B9000696E742000202844525952554E2900471E
:103BA0003239204175746F20426564204C6576651A
:103BB0006C696E67003F20284C2C522C462C422901
:103BC000206F7574206F6620626F756E64732E0AA5
:103BD000003F2856296572626F7365206C657665B3
:103BE0006C20696D706C61757369626C652028303A
:103BF0002D34292E0A00426164205A2076616C75AA
:103C0000650A004E6F2062696C696E65617220679B
:103C10007269640A003E204175746F2D6C6576658B
:103C20006C206E6F74206E65656465642C20736B08
:103C300069700A0020205261646975733A002E4849
:103C400065696768743A0020573A007C3C3E5E2BF9
:103C50003D3F2F5B5D3B2C2A225C000009121B2498
:103C60002D363F48415A536C657E7719100B023D43
:103C7000342F265158434A757C676E323B202916F3
:103C80001F040D7A7368615E574C452B2239300F43
:103C9000061D14636A7178474E555C646D767F40EB
:103CA00049525B2C253E3708011A137D746F665903
:103CB000504B42353C272E1118030A565F444D7273
:103CC0007B60691E170C053A3328214F465D546B03
:103CD000627970070E151C232A31384148535A6502
:103CE0006C777E09001B122D243F3658514A437CC5
:103CF000756E671019020B343D262F737A61685771
:103D00005E454C3B3229201F160D046A6378714EC4
:103D1000475C55222B3039060F141D252C373E01E8
:103D200008131A6D647F7649405B523C352E271884
:103D3000110A03747D666F5059424B171E050C33F0
:103D40003A21285F564D447B7269600E071C152A84
:103D5000233831464F545D626B70794C6F6164203B
:103D600053657474696E67730053746F7265205382
:103D7000657474696E677300506F776572204F7554
:103D80007461676500436F6E666967757261746917
:103D90006F6E0043616E63656C0044656C746120F6
:103DA00053657474696E6773004175746F20436165
:103DB0006C6962726174696F6E00473333004D3114
:103DC0003030300053746F70205072696E7400523E
:103DD0006573756D65205072696E740053746F70F1
:103DE000004368616E6765204D65646961004D320E
:103DF00031004E6F204D656469610054756E650039
:103E00005061757365205072696E7400496E666FFB
:103E10002053637265656E00537461727420507232
:103E2000696E740043616E6E6F7420656E746572A6
:103E3000207375626469723A2000052E2E0050725C
:103E4000696E742066726F6D204D65646961002033
:103E50005A3A200020593A200042656420583A20FE
:103E600000203A200A00202063757272656E745F2C
:103E7000706F736974696F6E3D002C20002E2E2EBA
:103E80002800496E76616C69642065787472756487
:103E900065720A005072696E7420506175736564B2
:103EA00000486F6D65202573257325732046697260
:103EB0007374002044697363726570616E63793A4C
:103EC00000326E642050726F6265205A3A00534C83
:103ED0004F57003173742050726F6265205A3A0058
:103EE000464153540050726F62653A3A72756E5F84
:103EF0007A5F70726F62650050726F62696E6720E0
:103F00004661696C65640A0050726F62696E672071
:103F10004661696C656400506F736974696F6E20E7
:103F20004E6F7420526561636861626C650A005F60
:103F300072656C6174697665290A0050726F6265FA
:103F40003A3A70726F62655F61745F706F696E7428
:103F50000050726F62653A3A70726F62655F646FAB
:103F6000776E5F746F5F7A0020547269676765725D
:103F70006564206561726C792E00204E6F2074722A
:103F800069676765722E002050726F6265206661F6
:103F9000696C21202D003078003C3C3C00220A0056
:103FA000556E6B6E6F776E20636F6D6D616E643AE8
:103FB00020220048453344204B323830205265617E
:103FC00064792E005072696E74696E672E2E2E0011
:103FD000453100626564002C2073797374656D202F
:103FE00073746F7070656421204865617465725FD9
:103FF00049443A200048656174696E6720466169EA
:104000006C65640048656174696E67206661696CFF
:10401000656400202D20496E76616C6964206578A6
:10402000747275646572206E756D62657220210A06
:1040300000544845524D414C2052554E415741592C
:1040400000546865726D616C2052756E617761799C
:10405000004572723A204D415854454D50004D4133
:104060005854454D502074726967676572656400E5
:104070004572723A204D494E54454D50004D494EBF
:1040800054454D50207472696767657265640020FD
:104090002F002042403A0020403A00006F70656EC9
:1040A000206661696C65642C2046696C653A200065
:1040B00000002110422063308440A550C660E770A4
:1040C000088129914AA16BB18CC1ADD1CEE1EFF14C
:1040D0003112100273325222B5529442F772D662F4
:1040E000399318837BB35AA3BDD39CC3FFF3DEE39C
:1040F0006224433420040114E664C774A444855444
:104100006AA54BB528850995EEE5CFF5ACC58DD5EB
:104110005336722611163006D776F6669556B44693
:104120005BB77AA719973887DFF7FEE79DD7BCC73B
:10413000C448E5588668A7784008611802282338E3
:10414000CCC9EDD98EE9AFF9488969990AA92BB98B
:10415000F55AD44AB77A966A711A500A333A122A33
:10416000FDDBDCCBBFFB9EEB799B588B3BBB1AABDB
:10417000A66C877CE44CC55C222C033C600C411C83
:10418000AEED8FFDECCDCDDD2AAD0BBD688D499D2B
:10419000977EB66ED55EF44E133E322E511E700ED3
:1041A0009FFFBEEFDDDFFCCF1BBF3AAF599F788F7B
:1041B0008891A981CAB1EBA10CD12DC14EF16FE15B
:1041C0008010A100C230E320045025404670676093
:1041D000B9839893FBA3DAB33DC31CD37FE35EF3AB
:1041E000B1029012F322D2323542145277625672E3
:1041F000EAB5CBA5A89589856EF54FE52CD50DC5FB
:10420000E234C324A0148104667447642454054432
:10421000DBA7FAB79987B8975FE77EF71DC73CD74A
:10422000D326F2369106B016576676761546345682
:104230004CD96DC90EF92FE9C899E9898AB9ABA99A
:104240004458654806782768C018E1088238A328D2
:104250007DCB5CDB3FEB1EFBF98BD89BBBAB9ABBEA
:10426000754A545A376A167AF10AD01AB32A923A22
:104270002EFD0FED6CDD4DCDAABD8BADE89DC98D3A
:10428000267C076C645C454CA23C832CE01CC10C72
:104290001FEF3EFF5DCF7CDF9BAFBABFD98FF89F8A
:1042A000176E367E554E745E932EB23ED10EF01EC2
:1042B00020520048617264636F64656420446566DF
:1042C00061756C742053657474696E6773204C6FEC
:1042D000616465640A003B200020204D39303600BF
:1042E00020204D3931330020204D353639205331CF
:1042F00000447269766572207374657070696E67C8
:10430000206D6F64653A0048796272696420546870
:10431000726573686F6C643A002054302045005316
:104320007465707065722064726976657220637559
:104330007272656E743A0020204D38353120580075
:104340005A2D50726F6265204F6666736574002047
:10435000204D343133205300506F7765722D4C6FF0
:104360007373205265636F766572793A0020204D31
:104370003330312050005049442073657474696EA5
:1043800067733A0020460020204D31343520530019
:104390004D6174657269616C206865617475702027
:1043A000706172616D65746572733A002048002017
:1043B000204D363635204C0044656C7461207365A1
:1043C0007474696E67733A204C3C646961676F6E00
:1043D000616C20726F643E20523C72616469757337
:1043E0003E20483C6865696768743E20533C7365AD
:1043F000676D656E747320706572207365633E200F
:1044000058595A3C746F77657220616E676C6520ED
:104410007472696D3E204142433C726F6420747235
:10442000696D3E0020204D363636205800456E64BA
:1044300073746F702061646A7573746D656E743A1D
:1044400000204A00202047323920572049002020F0
:104450004D3432302053004175746F204265642022
:104460004C6576656C696E673A0020204D323035B8
:10447000204200416476616E6365643A20423C6D7F
:10448000696E5F7365676D656E745F74696D655F96
:1044900075733E20533C6D696E5F6665656472613D
:1044A00074653E20543C6D696E5F74726176656C14
:1044B0005F66656564726174653E20583C6D617825
:1044C0005F785F6A65726B3E20593C6D61785F79F9
:1044D0005F6A65726B3E205A3C6D61785F7A5F6AF5
:1044E00065726B3E20453C6D61785F655F6A657201
:1044F0006B3E0020540020204D32303420500041CB
:104500006363656C65726174696F6E2028756E698E
:1045100074732F7332293A20503C7072696E745F45
:10452000616363656C3E20523C72657472616374B2
:104530005F616363656C3E20543C74726176656CA8
:104540005F616363656C3E0020204D32303120583E
:10455000004D6178696D756D20416363656C6572AE
:104560006174696F6E2028756E6974732F733229B8
:104570003A0020204D3230332058004D6178696D6B
:10458000756D206665656472617465732028756E4B
:104590006974732F73293A005374657073207065C2
:1045A0007220756E69743A0020440020204D32302C
:1045B000302053002044697361626C65640A0046D0
:1045C000696C616D656E742073657474696E677370
:1045D0003A0020204D3134392043203B20556E696C
:1045E000747320696E2043656C736975730A0020CB
:1045F000286D6D29002020473231202020203B20CB
:10460000556E69747320696E206D6D00000048431B
:104610000000484300004843000048430000A04217
:104620000000A0420000A04200005144B80B00006E
:10463000B80B0000B80B0000B80B000020433A0094
:1046400020423A0020436F756E7420413A00507248
:104650006F6265204F666673657420580043617011
:104660003A003F5A206F7574206F662072616E6742
:10467000652028003F59206F7574206F6620726195
:104680006E676520282D0020746F20003F58206F32
:104690007574206F662072616E676520282D00009A
:1046A0009B02790211241FBECFEFD1E2DEBFCDBF46
:1046B00000E00CBF13E0A0E0B2E0E4EAF2E203E0C5
:1046C0000BBF02C007900D92A43BB107D9F729E1B7
:1046D000A4EBB3E001C01D92A739B207E1F713E2E2
:1046E000C1E5D3E200E006C021970109802FFE0159
:1046F0000F941F8DC035D10780E00807A9F70F94EC
:10470000F8770D9440910C9400002F923F924F92B5
:104710005F926F927F928F929F92AF92BF92CF9251
:10472000DF92EF92FF920F931F93CF93DF93CDB75A
:10473000DEB7E5970FB6F894DEBF0FBECDBF382EBB
:104740002090BD0381E08093BD03809188198D3452
:1047500009F4CBC3843511F40C940C35873411F073
:104760000C943B3580918619909187198A31910577
:1047700009F47BC1BCF4843091053CF4823091058E
:104780000CF03FC097FF31C0ACC38C30910509F4E9
:104790000BC18531910511F40C943D35049709F056
:1047A000A0C3C4C08132910509F408C264F48D31FC
:1047B000910509F47EC18E31910509F47EC14C97B3
:1047C00009F08FC356C18A35910509F4FBC124F461
:1047D0008A9709F4A6C285C38B35910509F4F6C101
:1047E0008C35910509F4F7C17CC38091C00F8130ED
:1047F00011F00C943D350E94E9FC0E94348D0C941C
:104800003D352091C00F213011F00C943D3511E061
:10481000029709F010E00E94E9FC19821A821B82BB
:104820001C821D821E821F82188682E50E949BAF19
:10483000882309F44BC00E941BAF6B017C0120E070
:1048400030E0A9010F942486882309F455C0809193
:104850004B0290914C02A0914D02B0914E028AA75A
:104860009BA7ACA7BDA780914F0290915002A09149
:104870005102B09152028AAB9BABACABBDAB809006
:104880000E1190900F11A0901011B0901111409046
:104890001211509013116090141170901511A50110
:1048A00094016AA57BA58CA59DA50F9424868111F2
:1048B0000C945C35A30192016AA97BA98CA99DA9DE
:1048C0000F9424868823C1F00C945C3589E40E94FF
:1048D0009BAF882331F00E941BAF69837A838B835F
:1048E0009C838AE40E949BAF882331F00E941BAF17
:1048F0006D837E838F83988720E030E0A9016981F2
:104900007A818B819C810F94248681110C941036BE
:1049100020E030E0A9016D817E818F8198850F9420
:10492000248681110C9410360C94233680E50E9465
:104930009BAF882329F00F94240C6B017C0103C0EA
:10494000C12CD12C760183E50E949BAF882361F0B6
:104950000E941BAF20E030E04AE754E40F948A86BF
:104960000F94D28E6B017C010E94F4868091CB0D56
:10497000811105C060E08CE99AE00E947EEC0E9403
:1049800091E1C60ED71EE81EF91E0E9491E1DC01DE
:10499000CB018C199D09AE09BF09B7FD02C00C946B
:1049A0003D350E945F3EF1CF0F94CE50F82E81111D
:1049B0000C943D3560E070E080E50F94DD0389A73D
:1049C0006CE070E083E50F94DD0388A763E070E09E
:1049D00084E50F94DD038C8F40E050E060ED70E4DF
:1049E00082E50E943F4B69837A838B839C8380910D
:1049F0008B1987FF02C00C942A3680918C19837022
:104A000011F00C942A3611E002E0012B882331F0DA
:104A100060E08AE50E94B7AF882311F094E001C0FE
:104A200090E0092B10910E0602FFF12E8F2D0E94AF
:104A3000C08260E085E40E94B7AFF09028028093C6
:104A400028029E01245E3F4FAE014F5F5F4FBE01C3
:104A5000685D7F4FCE0189960E9458E4F09228024B
:104A6000812F0E94C0820C943D350E94CCAF0C94E3
:104A70003D3540910D0D45FB442740F961E37BE254
:104A8000CE0101960F94FD3380910D0D85FD0E949E
:104A9000EE3C80911E118770873011F00C943A36ED
:104AA00060E08FE40E94B7AF81110C946D360C94D6
:104AB0003A360F94A1340C943D3520912111309158
:104AC0002211409123115091241160914B02709159
:104AD0004C0280914D0290914E020F945F8DAB017C
:104AE000BC0188E50E943F4B69837A838B839C835A
:104AF00020912511309126114091271150912811B4
:104B000060914F0270915002809151029091520237
:104B10000F945F8DAB01BC0189E50E943F4B6D8313
:104B20007E838F839887BE016B5F7F4FCE01019696
:104B30000F940B34882311F40C943D3580E00E94CF
:104B4000C0820E94279284E690E090932A0280938C
:104B5000290261E085E40E94B7AF01E021E0482F1F
:104B6000BE016B5F7F4FCE0101960F942D536B01F9
:104B70007C019B01AC010F94A590811119C0498162
:104B80005A816B817C8189E59EE30E94DD3C4D81E9
:104B90005E816F81788584E59EE30E94DD3CB701EC
:104BA000A6018FE49EE30E94DD3C8AE00E94E0388B
:104BB0000E940E920E9467930C943D350F94CC0C8A
:104BC0000C943D3510920D060C943D358FE080938A
:104BD0000D060C943D3580918519882349F1893063
:104BE00009F09BC014EDA12E12E0B12E0BE4E02ED3
:104BF00002E0F02ED12C00E010E0D5018D915D0196
:104C00000E949BAF882369F00E941BAFF70160836D
:104C1000718382839383133011F401E002C0DD2499
:104C2000D3941F5FF4E0EF0EF11C143031F76AC02B
:104C300024ED32E03BA72AA7A4ECEA2EA6E0FA2E48
:104C4000BBE4CB2EB2E0DB2E00E010E0AAA5BBA5B2
:104C50008D91BBA7AAA70E949BAF882309F447C0E8
:104C60000E941BAF2B013C01133049F0F70120815A
:104C70003181428153810F945E8D2B013C01D6011D
:104C80002D913D914D915C91C301B2010F945E8DC8
:104C90004B015C012DEB37E346E855EB0F94139085
:104CA00087FD0AC02DEB37E346E855E3C501B401A3
:104CB0000F9424861816DCF4133051F440925702F6
:104CC000509258026092590270925A0201E00FC04D
:104CD000A5019401F70160817181828193810F9414
:104CE0005F8DD7016D937D938D939C9313971F5F79
:104CF000B4E0EB0EF11CE4E0CE0ED11C143009F050
:104D0000A5CF05C0DD2019F00E94599306C00023ED
:104D100021F087E592E00E94D98A0E9467930C9463
:104D20003D358091C00F813011F00C943D3589E400
:104D30000E949BAFE82E882321F00E9417AF082F16
:104D400001C000E08AE40E949BAFF82E882321F086
:104D50000E9417AF182F01C010E0EE2011F00B30A9
:104D600020F4FF2041F01B3030F080EC9AE00E94EC
:104D7000F2380C943D3580E1EBE4F2E0AEE0B1E1D5
:104D800001900D928A95E1F7EE2019F1602F000F46
:104D9000770B880B990B0F942B8620911D17309160
:104DA0001E1740911F17509120170F948A8620914B
:104DB00013053091140540911505509116050F9477
:104DC0005F8D60930E1170930F118093101190936B
:104DD0001111FF2019F1612F110F770B880B990B1F
:104DE0000F942B8620912117309122174091231781
:104DF000509124170F948A86209117053091180539
:104E00004091190550911A050F945F8D609312110E
:104E100070931311809314119093151160E080E545
:104E20000E94B7AF8823C1F1EE20D1F0209121116B
:104E300030912211409123115091241160910E1153
:104E400070910F1180911011909111110F945E8D3E
:104E500060930E1170930F118093101190931111A4
:104E6000FF20D1F02091251130912611409127117A
:104E700050912811609112117091131180911411A9
:104E8000909115110F945E8D609312117093131110
:104E9000809314119093151140E050E0BA0186E41C
:104EA0000E943F4B6B017C0120E030E0A9010F9490
:104EB000139018164CF420E030E040E752E4C701AC
:104EC000B6010F94598E03C060E070E0CB01698396
:104ED0007A838B839C83CE0101960E943DAC0C9417
:104EE0003D350F94444F0C943D3580918619909137
:104EF00087198737910511F40C949E2F0CF0DBC0B5
:104F00008D34910509F40FC40CF05AC08931910514
:104F100009F4F5C21CF58431910509F471C27CF4E1
:104F20008131910509F44BC22CF4029708F4EAC1CF
:104F30000C940935429709F446C60C94093586311C
:104F4000910509F482C20CF47CC28731910509F401
:104F500086C2489709F498C20C9409358E319105A0
:104F600009F456C3ACF48B31910509F4F6C20CF484
:104F7000E6C28C31910509F443C34D9711F00C94AE
:104F80000935809158158E7F809358150C943D35C6
:104F90008A32910509F495C34CF48F31910509F4D7
:104FA00070C3809709F444C30C9409358B34910580
:104FB00009F4A0C38C34910509F4A0C30C940935FD
:104FC0008B36910509F4E7C4D4F58435910509F4CD
:104FD000FAC5E4F48135910509F4DAC534F48E3468
:104FE000910509F4A4C30C9409358235910509F49F
:104FF000E3C58335910511F00C94093580910D06B8
:105000008F7E806280930D060C943D358836910525
:1050100009F41FC454F48535910509F40AC68C358A
:10502000910509F429C60C9409358936910509F4CE
:1050300061C48A36910509F470C40C94093580372F
:10504000910509F411C584F48D36910509F428C43D
:105050000CF404C58E36910509F4A8C48F36910569
:1050600009F4B7C40C9409358337910509F4A2C635
:105070008CF48137910509F404C58237910511F04C
:105080000C9409350E94F9D384E095E10F94BA6934
:105090000C943D358537910509F40EC78637910587
:1050A00011F00C940935009183191091841994E042
:1050B000F12C40E027C78139F1E09F0711F40C94EF
:1050C00042330CF07AC08C3C910511F40C94B13051
:1050D00084F58139910509F443C78CF4893791052A
:1050E00009F437C70CF42DC78A37910511F40C94D5
:1050F0002E348C38910509F4E6C40C940935883CAB
:10510000910509F4A1C754F48B39910509F41AC526
:105110008E3B910509F4F6C40C940935893C910540
:1051200009F4D7C78B3C910511F40C948F300C9483
:105130000935823E910511F40C941B32DCF4833D59
:10514000910511F40C94E2304CF48D3C910511F072
:105150000C9409350F942B040C943D358C3D91052E
:1051600011F40C949F318D3D910511F40C94C631CE
:105170000C9409358E3231E0930711F40C94FB3214
:105180006CF48C32B1E09B0711F40C9466328D32D2
:10519000914011F40C947B320C9409358F32F1E07C
:1051A0009F0711F40C943F338039914011F00C9417
:1051B00009350E94F4860C943D358C3032E093071B
:1051C00011F40C94DC330CF04AC0853AB1E09B0733
:1051D00011F40C94483304F58A39F1E09F0709F47F
:1051E0004CC45CF48239914011F00C9409350F9451
:1051F00008340E9467930C943D358D39A1E09A07DD
:1052000011F40C94C734843A914011F00C94093590
:105210000F94CF390C943D35863FE1E09E0711F4A1
:105220000C94BF337CF4843F21E0920711F40C947A
:10523000BC33853F914011F00C9409350F944264C2
:105240000C943D35873FA1E09A0711F40C94C233CA
:10525000883F914011F40C94CB330C9409358A3873
:10526000E3E09E0711F40C943134FCF4893922E018
:10527000920711F40C94E4334CF48933924011F00A
:105280000C9409350E94BEFE0C943D358A39B2E07B
:105290009B0711F40C94E7338335934011F00C9481
:1052A00009350F94686A0C943D35873EF3E09F07FB
:1052B00011F40C94B934CCF4813933E0930711F430
:1052C0000C94B634803A934011F00C940935209137
:1052D00083193091841990915815926090935815C4
:1052E000C9010F94FA240C943D35883EB3E09B0726
:1052F00011F40C94E834893E934011F40C94EB348F
:105300000C94093580E50E949BAF882329F00F9407
:10531000240C6B017C0103C0C12CD12C760183E5E8
:105320000E949BAF882361F00E941BAF20E030E019
:105330004AE754E40F948A860F94D28E6B017C0165
:105340000E94F4868091831990918419009721F02E
:1053500061E00E94F3EC05C060E089ED9AE00E94F4
:105360007EEC1091BD0383E08093BD0381E08093C8
:10537000F50DC114D104E104F10431F00E9491E172
:10538000C60ED71EE81EF91E8091F50D882311F474
:105390000C947A36C114D104E104F10411F40C9494
:1053A00081360E9491E1DC01CB018C199D09AE0987
:1053B000BF09B7FF02C00C9481360C947A368091F5
:1053C000891984FF02C00C94853680918B1987FF60
:1053D00002C00C94853680918C19837011F00C9466
:1053E000853660E08CEE9AE00E947EEC5F988A98A9
:1053F0008091080181708093060112980C943D35CC
:1054000084E09BE00E94F23887E795E10F94303DFD
:105410008BE1E7E7F5E1DE01119601900D928A95A7
:10542000E1F760E070E0CE0101960F94052DCE010A
:1054300001960E94968085EF9AE00E94F2380C94C3
:105440003D350F94D7260C943D350F94EB24809175
:105450005815877F8062809358150C943D35E091F4
:105460008319F09184198081882329F0803209F40E
:1054700010823196F8CF60E0809183199091841961
:105480000F9448250C943D3583E50E949BAF8823FB
:1054900021F00E94E3AE0E94545084E50E949BAF2D
:1054A0008823A9F00E94E3AE6B017C010E94339C2B
:1054B000C0926905D0926A05E0926B05F0926C0586
:1054C000CD28CE28CF2819F081E080935A110E9470
:1054D0008038882381F00F942A260E94FE8582E579
:1054E00096E00F94A12410928D1910928E191092AB
:1054F0008F19109290190F94C84D0C943D358091DE
:10550000581582FF03C08B7F809358158091251713
:10551000882319F081E00E94C5D580915A1181300D
:1055200051F782E080935A110E9491E160930B053C
:1055300070930C0580930D0590930E05DCCF809140
:10554000581583FD02C00C943D3583E50E949BAF46
:1055500081110C94A1360C943D3583E40E9452AF26
:10556000882319F18FE19BE00E94F2388091BE16EA
:10557000882391F0BE016F5F7F4F8BEB96E10F9414
:10558000F73B8E010F5F1F4FD8018D918D0188234E
:1055900039F00E94E038F8CF85E19BE00E94F238B4
:1055A0008AE00E94E0380C943D358091581582FFC6
:1055B00021C08EE29BE00E94F238609154157091F8
:1055C000551580915615909157154AE00E94F6396D
:1055D0008FE20E94E03860915015709151158091D2
:1055E0005215909153154AE00E94F6390E94383EB8
:1055F0000C943D3580E49BE00E94F2380C943D35DC
:1056000080918319909184190F94FA240C943D355C
:105610008091581583FD02C00C943D350F942D4F99
:1056200080918319909184190F94AE0B0C943D35A1
:105630008091581582FD0E94F4868091581583FD53
:1056400002C00C943D3560E080E50E94B7AF182F92
:10565000682F80918319909184190F94482583E5D0
:105660000E949BAF882321F00E94E3AE0E94545019
:105670000F942A2611110C943D350E94FE850C943E
:105680003D350E94FF9B6C8F7D8F8E8F9F8FBE015B
:105690006F5F7F4FCE014C960E94754F60E0CE0148
:1056A00001960E94F3EC0E942B39BE016F5F7F4F81
:1056B00081E59BE00E9414398AE00E94E0380C9456
:1056C0003D356DE070E080E50E94A8AF8C0197FF4A
:1056D00002C00C943D35E82E60E089E40E94B7AF2B
:1056E00081110C94A636802F0F9409728111C0C6C7
:1056F0000C94A6360E94FE850C943D3580915A117B
:10570000813011F00C943D3582E080935A110E9453
:1057100091E160930B0570930C0580930D059093B8
:105720000E050C943D350E94DF690C943D3560E018
:1057300070E083E50E94A8AF8E34910531F40E9499
:105740005A860F94C84D0C943D3586EC9BE00E9420
:10575000F2386091270E7091280E8DEB9BE00E942D
:105760000A396091290E70912A0E80EB9BE00E940D
:105770000A396091270E7091280E8091290E909120
:105780002A0E681B790B80915A11815021E030E07C
:10579000823010F020E030E0621B730B85EA9BE062
:1057A0000E940A398AE00E94E03886EC9BE00E9461
:1057B000F23880912B0E90912C0EA0912D0EB0916D
:1057C0002E0E8C8F9D8FAE8FBF8FBE016F5F7F4F70
:1057D000CE014C960E94754FBE016F5F7F4F88E9E6
:1057E0009BE00E94143980912F0E9091300EA09171
:1057F000310EB091320E8C8F9D8FAE8FBF8FBE0158
:105800006F5F7F4FCE014C960E94754FBE016F5F58
:105810007F4F88E89BE00E94143920E030E04AE79F
:1058200054E46091330E7091340E8091350E909156
:10583000360E0F94598EAB01BC0180E79BE00E94AD
:10584000DD3C8DE60E94E0388AE00E94E0380C944E
:105850003D3580910D0D83FF02C00C943D350E94B3
:10586000F9FD87FF02C00C943D3589E40E949BAF8F
:10587000882311F40C94DD360E94F3AE90E01816E4
:10588000190614F481E090E026E0289FF001299F9A
:10589000F00D1124EA5DF84E808191810C94E73679
:1058A00080910D0D83FF02C00C943D350E94F9FDDF
:1058B000F82E87FF02C00C943D3589E40E949BAF0F
:1058C000082F882311F40C94F0360E94F3AE90E078
:1058D0001816190614F481E090E026E0289FF001E4
:1058E000299FF00D1124EA5DF84E8081918110E02E
:1058F0000C9400370E94F9FD182F87FF02C00C940A
:10590000413586EF92E10E94F238812F0F9457566D
:105910008AE00E94E0380C94413560E080E50F9405
:10592000953481110C943D3581E40E9452AF882357
:1059300029F060910907062F10E002C00FEF10E078
:1059400089E40E949BAF882399F00E94F3AE90E017
:105950001816190614F481E090E026E0289FF00163
:10596000299FF00D1124EA5DF84E0481158108C0CD
:1059700083E50E949BAF882319F00E94E3AE8B0160
:10598000B8010F3F110519F010F06FEF70E0609350
:1059900009070C943D3560E080E50F949534811142
:1059A0000C943D35109209070C943D358EE40E940D
:1059B0009BAF882311F40C943D350E94E3AE6093B5
:1059C000CB047093CC048093CD049093CE040C94BC
:1059D0003D3583E50E9452AF882331F060E083E5D6
:1059E0000F94953480930D0D0E942B3987ED9BE029
:1059F0000E94F23880910D0D882369F1F9E7EF2EAE
:105A0000FFE0FF2E00E010E020E080910D0D90E01F
:105A1000A0E0B0E0002E04C0B695A79597958795B5
:105A20000A94D2F780FF0EC0DD24D394D20E222335
:105A300019F08CE20E94E038F701859194910E9460
:105A4000F2382D2D0F5F1F4FE2E0EE0EF11C0630F5
:105A50001105D9F6A5CD83ED9BE0A0CD1092F50DF3
:105A6000109273020C943D3541E060E070E08EEDE1
:105A70009BE00E942F390C943D350E945B380C94BA
:105A80003D3583E50E949BAF882371F00E94F3AE01
:105A9000282F30E02D3331051CF480930002EDC730
:105AA0008CE380930002E9C70E942B3940910002E9
:105AB00050E060E070E08CEE9BE00E94633A8AE088
:105AC0000E94E038DAC780910D0D83FDD6C789E4C6
:105AD0000E949BAF882311F40C944A370E94F3AEC6
