:100000000C94F41E0C94251F0C94251F0C94251F92
:100010000C94251F0C94251F0C94251F0C94251F50
:100020000C94251F0C94251F0C94251F0C94251F40
:100030000C94251F0C94ED980C94251F0C94251FEF
:100040000C94251F0D94EE310C94251F0C94251F44
:100050000C94251F0C94251F0D9492050C94A398C5
:100060000C94251F0C94264E0C941C4E0C94251FAA
:100070000C94251F0C94251F0C94251F0C94251FF0
:100080000C94251F0C94251F0C94251F0C94251FE0
:100090000C94251F0C94251F0C94251F0C94251FD0
:1000A0000C94251F0C94251F0C94251F0C94251FC0
:1000B0000C94251F0C94251F0C94251F0C94251FB0
:1000C0000C94251F0C94251F0C94251F0C94251FA0
:1000D0000C94251F0C94251F0C94251F0C94251F90
:1000E0000C94251FC201EE003C014201F80096016C
:1000F000DA01F0005C014601E601A0011401C8012B
:10010000960140012001580122019801CE019E0173
:10011000FE00EA017401E201BA01CC01F6008E0191
:100120004A01E400EA0110012A01C001084AD73B54
:100130003BCE016E84BCBFFDC12F3D6C74319ABDB6
:1001400056833DDA3D00C77F11BED9E4BB4C3E91DA
:100150006BAAAABE000000803F05A84CCDB2D44EC9
:10016000B93836A9020C50B9918688083CA6AAAACB
:100170002ABE000000803F000C9459D30C94C6A7FF
:100180000D94B3110C9436B40C9437980C94F5403C
:100190000C945D3F0C94B8A30C941F410C94A739A8
:1001A0000C942FA30D94C7240C9420A30C944646C2
:1001B0000C94D0520C943DD60D94CB240D94E02495
:1001C0000C94BDA30C9438DA0D94202F0C941ED6F9
:1001D0000C947BDA0D94E8040C949E3F0D94612CF2
:1001E0000D94692C0C9455460C944A3F0D94FD2EA9
:1001F0000D945A2C0C9408A30D949F0D0D94CF2EA2
:100200000C9443D60C94EF400C9474980C94E9A38E
:100210000C941C3F0C9447D30C9424410C941AD694
:100220000D942A2F0C94D6B30D94812C0C945E3827
:100230000C94AD3F0C9444980C9439A40C94E3A313
:100240000D948F2C0D94B12E0C9419410C946F4E7B
:100250000D94650D0D94342F0D94E4240C94FFDA65
:100260000C94F7DA0C94714E0C9442410C946AA9E8
:100270000C9407410C9422DD0D94502C0C942AA36D
:100280000D948B2C0D94542C0C941A510D94732CAA
:100290000C944FD60D94162F0C94D2520C94CA5233
:1002A0000C94763F0C9433410C942C380C9407DB5F
:1002B0000D94932C0C9416D80D946F2C0C94589884
:1002C0000C9432A40C94B83E0C9425A30D943329BD
:1002D0000C94D7B30C9467A90D94D0550C94F342A9
:1002E0000C94FB400C94033F0D94D92E0C940DD329
:1002F0000C948F3F0C94CAFC0C9419A30C94E0A6A8
:100300000C9469410C946D4E0C942AD60C94EEDA40
:100310000C940D980C94E9400D9420290D94072F0E
:100320000D94700D0C94D13E0C94D7A30D94982C81
:100330000D94B62E0C94734E0C9451410D94C52E11
:100340000D947D2C0C94EA3E0C948C330C94373F26
:100350000C949ADA0D9444130C9422D80C9449D638
:100360000C94754E0C94CE520C9436A50C94DD4F23
:100370000C94DDA30D94E92E0C9439D30D94B25551
:100380000D943E2F0D945E2C0D9446130C94014158
:100390000D94852C0C9413A30D94F32E0D94BB2E69
:1003A0000D9476240C9408440C94B3A30C944FDF62
:1003B0000D94420D0D94652C0C94B8DB0C941341F4
:1003C0000C9460410D94E12E0D94930D0D94772CB7
:1003D0000C9420D30D94482F0D94DC240C941BA373
:1003E0000C94CC520C940D410C9438440C943ADA91
:1003F0004E414E494E495459494E46CDCCCC3D0A0A
:10040000D7233C17B7D13877CC2B329595E6241FEC
:10041000B14F0A000020410000C84200401C4620A5
:10042000BCBE4CCA1B0E5AAEC59D7400407A10F378
:100430005A00A0724E18090010A5D4E80000E87612
:1004400048170000E40B54020000CA9A3B00000069
:10045000E1F505000080969800000040420F000082
:1004600000A08601000000102700000000E8030043
:100470000000006400000000000A0000000000010D
:1004800000000000002C76D888DC674F0823DFC10D
:10049000DFAE59E1B1B796E5E3E453C63AE65199C8
:1004A0007696E8E6C28426EB898C9B62ED407C6FF1
:1004B000FCEFBC9C9F40F2BAA56FA5F490055A2AA8
:1004C000F75C936B6CF9676DC11BFCE0E40D47FEB4
:1004D000F520E6B500D0ED902E03009435770500A9
:1004E00080841E080000204E0A000000C80C333330
:1004F00033330F986E12831141EF8D2114893BE63F
:100500005516CFFEE6DB18D1844B381BF77C1D90C7
:100510001DA4BBE424203284725E228100C9F12430
:10052000ECA1E53D274C4556454C494E4700434F0D
:100530004D4D554E49434154494F4E004452595236
:10054000554E004552524F525300494E464F0045BA
:1005500043484F0047322F47332062616420706167
:1005600072616D65746572730A00536C6565702EF7
:100570002E2E003E20686F6D696E67206E6F7420AE
:100580006E65656465642C20736B69700A004D6547
:10059000736820706F696E74206F7574206F6620A9
:1005A00072616E67650A00436C69636B20746F202B
:1005B000526573756D652E2E2E004E6F204D6F7631
:1005C000652E00456E642066696C65206C697374E5
:1005D0000A00426567696E2066696C65206C697304
:1005E000740A00286E6F2066696C65290043757275
:1005F00072656E742066696C653A20005344207001
:1006000072696E74696E67206279746520004E6F3E
:1006100074205344207072696E74696E670A0050CA
:1006200072696E742074696D653A2000496E766156
:100630006C69642050696E204D6F64650A000A532E
:10064000746174733A2046696C616D656E742075CF
:100650007365643A20002C204C6F6E6765737420BC
:100660006A6F623A2000546F74616C2074696D6522
:100670003A20002C204661696C65643A20002C20E9
:1006800046696E69736865643A20005072696E74D9
:10069000733A200053746174733A20004520255347
:1006A000006F66660044454255473A004D3131328D
:1006B0002053687574646F776E004D313133205369
:1006C0000042656420436F6F6C696E672E2E2E00AA
:1006D0004265642048656174696E672E2E2E00485D
:1006E000453344204B323830204F46462E00434895
:1006F000414D4245525F54454D504552415455522B
:100700004500424142595354455050494E470041DB
:10071000524353004D4F54494F4E5F4D4F44455344
:1007200000544845524D414C5F50524F544543543C
:10073000494F4E004C4F4E475F46494C454E414D48
:1007400045004155544F5245504F52545F53445FFA
:100750005354415455530053444341524400505262
:100760004F4D50545F535550504F525400454D45D6
:100770005247454E43595F50415253455200434101
:1007800053455F4C494748545F4252494748544E8D
:1007900045535300544F47474C455F4C49474854D5
:1007A0005300534F4654574152455F504F5745529F
:1007B000004255494C445F50455243454E54004C0D
:1007C0004556454C494E475F44415441005A5F509D
:1007D000524F42450052554E4F5554004155544FCB
:1007E0004C4556454C005052494E545F4A4F4200CA
:1007F00050524F4752455353004155544F52455064
:100800004F52545F54454D5000564F4C554D455432
:100810005249430042494E4152595F46494C455F57
:100820005452414E534645520053455249414C5F44
:10083000584F4E5F584F4646004649524D57415219
:10084000455F4E414D453A4D61726C696E2062754F
:10085000676669782D322E302E7820284175672002
:10086000323620323032302031323A34343A31327A
:100870002920534F555243455F434F44455F5552DE
:100880004C3A68747470733A2F2F67697468756294
:100890002E636F6D2F4D61726C696E4669726D7754
:1008A0006172652F4D61726C696E2050524F544FCA
:1008B000434F4C5F56455253494F4E3A312E3020EC
:1008C0004D414348494E455F545950453A48453398
:1008D00044204B3238302045585452554445525FDD
:1008E000434F554E543A3120555549443A63656457
:1008F00065326132662D343161322D343734382D12
:10090000396231322D6335356336326633363766B8
:10091000660A002F2F20004D31343520533C696E7C
:100920006465783E206F7574206F662072616E6713
:10093000652028302D31290A00416363656C65729A
:100940006174696F6E3A2050005741524E494E47CC
:1009500021204C6F77205A204A65726B206D617997
:10096000206C65616420746F20756E77616E7465AC
:1009700064207061757365732E0A0020204D6178C4
:100980003A200020204D696E3A2000536F66742093
:10099000656E6473746F70733A200046523A00209B
:1009A000466C6F773A200050726F746563746564AB
:1009B0002050696E0A0020643A0020693A002070D5
:1009C0003A006469730043290A0061626C6564201F
:1009D000286D696E2074656D702000436F6C642013
:1009E00065787472756465732061726520004D349A
:1009F000323120696E636F72726563742070617248
:100A0000616D657465722075736167650A0045459F
:100A100050524F4D204F4B0A005D203D2000646531
:100A20006C74615F656E6473746F705F61646A5B40
:100A3000004D36363600506F7765722D6C6F7373CC
:100A4000207265636F766572792000446F6E652051
:100A50007072696E74696E672066696C650A004D14
:100A60003737004D3331004F054A0543053C052E0D
:100A7000052505456E636C6F73757265004D6F7665
:100A8000696E672E2E2E0046696C2E204469612EF9
:100A9000004520696E206D6DC2B3002002204661C2
:100AA0006374002002204D6178002002204D696EA1
:100AB000004175746F74656D7000452073746570C6
:100AC000732F6D6D00432053746570732F6D6D002F
:100AD000422053746570732F6D6D0041205374650F
:100AE00070732F6D6D00496E69740046696C616D9D
:100AF000656E740050726F6265204F666673657430
:100B00007300416363656C65726174696F6E005652
:100B1000656C6F63697479005A2056616C75650065
:100B2000496E646578205900496E646578205800E4
:100B300045646974204D657368004C6576656C206A
:100B4000426564004732380A473239004572726F95
:100B5000722077726974696E6720746F2045455002
:100B6000524F4D210A004D343130004D31313200A9
:100B70004D3130380053544F505045442E200050D2
:100B800072696E7465722073746F7070656420642E
:100B9000756520746F206572726F72732E204669BE
:100BA0007820746865206572726F7220616E6420AF
:100BB000757365204D39393920746F2072657374EF
:100BC0006172742E202854656D706572617475723F
:100BD000652069732072657365742E2053657420D7
:100BE00069742061667465722072657374617274D1
:100BF000696E67290A004E6F20436865636B7375E1
:100C00006D2077697468206C696E65206E756D6201
:100C100065722C204C617374204C696E653A20001B
:100C2000636865636B73756D206D69736D61746363
:100C3000682C204C617374204C696E653A20004C1E
:100C4000696E65204E756D626572206973206E6FE6
:100C500074204C617374204C696E65204E756D6212
:100C600065722B312C204C617374204C696E653A8F
:100C700020004D313130005344207265616420659D
:100C800072726F720A002121204B494C4C20636123
:100C900075736564206279204B494C4C20627574F1
:100CA000746F6E2F70696E0A002121204B494C4CE5
:100CB0002063617573656420627920746F6F206DA5
:100CC00075636820696E6163746976652074696D07
:100CD00065202D2063757272656E7420636F6D6D73
:100CE000616E643A2000627573793A2070617573A1
:100CF000656420666F7220696E7075740A00627593
:100D000073793A2070617573656420666F7220751F
:100D10007365720A00627573793A2070726F636549
:100D20007373696E670A004D656469612052656D71
:100D30006F766564004D6564696120496E73657204
:100D4000746564004D313030302053003637260250
:100D50003C3D380F2E303E12131A1C180AFF430870
:100D60000907084400015654726176204D696E00EF
:100D7000566D696E00566D6178204500566D61783C
:100D8000204300566D6178204200566D6178204105
:100D900000416D6178204500416D6178204300413C
:100DA0006D6178204200416D6178204100412D54F1
:100DB000726176656C00412D5265747261637400D6
:100DC000416363656C0056652D4A65726B0056433E
:100DD0002D4A65726B0056422D4A65726B00564172
:100DE0002D4A65726B0050726F62652059204F6604
:100DF000667365740050726F62652058204F666696
:100E00007365740053657474696E67732053746FEF
:100E1000726564002062797465733B20637263209D
:100E20000053657474696E67732053746F726564E0
:100E3000202800454550524F4D206461746173690C
:100E40007A65206572726F722E0A002073746F7259
:100E500065642073657474696E677320726574725B
:100E60006965766564202800202863616C63756C71
:100E70006174656429210A0020213D200045455008
:100E8000524F4D20435243206D69736D6174636806
:100E9000202D202873746F726564292000496E64C8
:100EA00065783A2000204D61726C696E3D5638318C
:100EB000290A00454550524F4D2076657273696F7F
:100EC0006E206D69736D61746368202845455052CA
:100ED0004F4D3D005761726E696E673A20436C65F5
:100EE000616E20436972636C652072657175697209
:100EF00065732058590A005761726E696E673A200F
:100F0000526164697573204F7574206F6620526159
:100F10006E67650A003C3C3C207365745F617869CC
:100F2000735F69735F61745F686F6D6528003E3E33
:100F30003E207365745F617869735F69735F617484
:100F40005F686F6D652800686F6D655F64656C74C0
:100F50006100486F6D696E67204661696C65640069
:100F60006F70656E00545249474745524544007AB8
:100F70005F6D6178007A5F6D696E00795F6D617891
:100F800000785F6D6178005265706F7274696E678A
:100F900020656E6473746F70207374617475730A66
:100FA000000000000000000000008018444265645A
:100FB000204C6576656C696E6720004661696C65DA
:100FC0006420746F20656E61626C652042656420E8
:100FD0004C6576656C696E670A00496E76616C696E
:100FE00064206D6573682E0A003E3E3E0020636FEC
:100FF00072726563746564205A3A0047323920750D
:101000006E636F72726563746564205A3A00203AA9
:10101000203E2070726F62696E6720636F6D706C26
:101020006574650A0050726F62696E6720506F695F
:101030006E740025532025692F25690050726F6258
:10104000696E67206D65736820706F696E7420002B
:10105000202844525952554E2900473239204175B3
:10106000746F20426564204C6576656C696E67001C
:101070003F20284C2C522C462C4229206F7574207E
:101080006F6620626F756E64732E0A003F285629C2
:101090006572626F7365206C6576656C20696D7032
:1010A0006C61757369626C652028302D34292E0AB5
:1010B00000426164205A2076616C75650A004E6FAB
:1010C0002062696C696E65617220677269640A00EA
:1010D0003E204175746F2D6C6576656C206E6F7463
:1010E000206E65656465642C20736B69700A00204E
:1010F000205261646975733A002E486569676874A7
:101100003A004732362048656174696E67204E6F39
:101110007A7A6C65004732362048656174696E677B
:10112000204265640057616974696E6720666F725A
:10113000206865617475702E0A00466978656420C0
:101140004C656E677468205072696D6500446F6EFF
:1011500065205072696D696E67004D616E75616CD6
:10116000207072696D696E672E2E2E004732362010
:1011700043616E63656C6564004C656176696E679A
:1011800020473236003F53706563696669656420A5
:10119000582C5920636F6F7264696E617465206F9B
:1011A0007574206F6620626F756E64732E0A003F3F
:1011B00028522965706561742076616C7565206EB2
:1011C0006F7420706C61757369626C653B206D751E
:1011D0007374206265206174206C656173742031C2
:1011E0002E0A003F537065636966696564206E6FFF
:1011F0007A7A6C652074656D70657261747572655C
:10120000206E6F7420706C61757369626C652E0A54
:10121000003F5370656369666965642066696C6147
:101220006D656E742073697A65206E6F7420706CC2
:1012300061757369626C652E0A003F53706563695E
:1012400066696564207072696D65206C656E67748F
:1012500068206E6F7420706C61757369626C652EA6
:101260000A003F537065636966696564206E6F7A32
:101270007A6C652073697A65206E6F7420706C617A
:10128000757369626C652E0A003F52657472616302
:1012900074696F6E204D756C7469706C696572202D
:1012A0006D75737420626520737065636966696526
:1012B000642E0A003F537065636966696564205255
:1012C000657472616374696F6E204D756C746970BA
:1012D0006C696572206E6F7420706C6175736962E1
:1012E0006C652E0A003F537065636966696564200A
:1012F0006C6179657220686569676874206E6F74C7
:1013000020706C61757369626C652E0A0043292E2A
:101310000A003F53706563696669656420626564AD
:101320002074656D7065726174757265206E6F747E
:1013300020706C61757369626C65202834302D00F3
:10134000473236207374617274696E672E2E2E0ACE
:1013500000203A2073796E635F706C616E5F706F0E
:10136000736974696F6E0A00203A2070726570614B
:1013700072655F666173745F6D6F76655F746F5FD2
:1013800064657374696E6174696F6E0A002020640D
:10139000657374696E6174696F6E3D00203A207ADE
:1013A000206C6F776572206D6F76650A00203A2099
:1013B0007879206D6F76650A00203A207A20726174
:1013C000697365206D6F76650A00203A207A6F6E2A
:1013D0006520626F72646572206D6F76650A002009
:1013E0003A2064616E676572207A6F6E65206D6F5A
:1013F00076650A00203A2064657374696E617469C9
:101400006F6E203D2063757272656E745F706F73CE
:101410006974696F6E0A003E2000646F5F626C6FD2
:10142000636B696E675F6D6F76655F746F00206DCB
:1014300061783A00206D696E3A0041786973200046
:101440005761726E696E673A20486F6D696E6720EA
:1014500042756D702044697669736F72203C20314B
:101460000A005D00646F5F686F6D696E675F6D6F26
:101470007665003C3C3C20686F6D65617869732837
:101480000061646A44697374616E63653A00486F11
:101490006D65203220536C6F773A0A004D6F766588
:1014A00020417761793A0A00486F6D652031204606
:1014B0006173743A0A003E3E3E20686F6D65617844
:1014C0006973280000000C4300000C43008018449E
:1014D00000000CC300000CC3000000000A0A0A55FB
:1014E00055854255558542555585420000A040001E
:1014F00000A0400000A04000008C4300008C43008E
:101500008018440101010268747470733A2F2F6DC2
:1015100061726C696E66772E6F7267002062756704
:101520006669782D322E302E78002020506C616E46
:101530006E657242756666657242797465733A20AB
:10154000002046726565204D656D6F72793A200006
:10155000436F6D70696C65643A204175672032365F
:1015600020323032300A00204C6173742055706490
:10157000617465643A20323032302D30382D323586
:10158000207C20417574686F723A202848453344A6
:101590002C20323032302D30382D3235290A00627D
:1015A00075676669782D322E302E780A004D61728B
:1015B0006C696E0020536F667477617265205265A6
:1015C0007365740A00205761746368646F67205202
:1015D000657365740A002042726F776E206F7574B0
:1015E0002052657365740A002045787465726E61D7
:1015F0006C2052657365740A00506F776572557080
:101600000A006175746F25632E6700473238004DFC
:1016100031303031006572726F722077726974698F
:101620006E6720746F2066696C650A00446F6E6592
:1016300020736176696E672066696C652E0A004DBD
:10164000323900255320256320256320256320257A
:10165000630020583A00656E6473746F707320687D
:1016600069743A200070012C0190012701B0012219
:1016700001C0011D01F00118011002130130020E1A
:10168000016002090190020401C002FF000003FA98
:10169000004003F5008003F000D003EB002004E6D7
:1016A000007004E100E004DC004005D700C005D272
:1016B000004006CD00D006C8008007C3003008BE39
:1016C00000F008B900C009B400B00AAF00B00BAA1E
:1016D00000D00CA500000EA000500F9B00C010967B
:1016E000005012910000148C00C0158700B01782C2
:1016F00000B0197D00D01B7800001E730040206EE2
:101700000090226900F024640040275F0090295A6D
:1017100000E02B5500102E500020304B00103246B8
:1017200000E033410090353C00103737007038320C
:1017300000A0392D00B03A2800A03B2300603C1ED9
:1017400000103D1900903D1400103E0F00703E0A3D
:1017500000C03E0500003F0000403FFBFF803FF619
:10176000FFC03FF1FF24F4D43050C38E20C2A2400A
:1017700017828B7011127A910D816CD90AA861E1E0
:1017800008C7586607615143061E4B5D05C145A752
:10179000041A411104093D9803713931034036DBC5
:1017A0000265339102D4305402802E1D02632CEE68
:1017B00001752AC501B028A001102781018F256479
:1017C000012B244B01E0223401AC211F018D200D9F
:1017D00001801FFC00841EED00971DDF00B81CD2A5
:1017E00000E61BC600201BBC00641AB200B219A898
:1017F000000A19A0006A189900D117910040178BB0
:1018000000B516840031167E00B31579003A1573C1
:1018100000C7146F0058146A00EE13660088136343
:101820000025135E00C7125B006C1257001512549E
:1018300000C111510070114F0021114B00D6104909
:10184000008D1047004610440002104200C00F40B7
:1018500000800F3E00420F3C00060F3B00CB0E38CD
:1018600000930E37005C0E3500270E3400F30D3266
:1018700000C10D3100900D3000600D2E00320D2D95
:1018800000050D2C00D90C2B00AE0C2900850C296D
:10189000005C0C2700350C27000E0C2600E80B24FA
:1018A00000C40B2400A00B23007D0B23005A0B2146
:1018B00000390B2100180B2000F80A1F00D90A1E5E
:1018C00000BB0A1E009D0A1D00800A1D00630A1C41
:1018D00000470A1B002C0A1B00110A1A00F7091AFC
:1018E00000DD091900C4091900AB09190092091794
:1018F000007B091800630917004C09160036091609
:1019000000200916000A091500F5081500E0081462
:1019100000CC081400B8081400A4081400900813A0
:10192000007D0812006B08130058081200460812C8
:1019300000340811002308110012081100010811D9
:1019400000F0071000E0071000D0071000C00710DB
:1019500000B0070F00A107100091070E0083070FCA
:101960000074070F0065070E0057070E0049070EA9
:10197000003B070D002E070E0020070D0013070D7A
:101980000006070D00F9060C00ED060D00E0060C40
:1019900000D4060C00C8060C00BC060C00B0060CF7
:1019A00000A4060B0099060C008D060B0082060BA6
:1019B0000077060B006C060B0061060A0057060B49
:1019C000004C060A0042060A0038060A002E060AE3
:1019D0000024060A001A060A001006090007060A73
:1019E00000FD050900F4050900EB050900E2050901
:1019F00000D9050900D0050900C7050900BE050981
:101A000000B5050800AD050800A50509009C0508FE
:101A100000940508008C050800840508007C050872
:101A200000740508006C050700650508005D0507E2
:101A300000560508004E0507004705070040050849
:101A40000038050700310507002A050700230507B0
:101A5000001C050600160507000F0507000805060F
:101A60000002050700FB040600F5040700EE04066B
:101A700000E8040600E2040700DB040600D50406C3
:101A800000CF040600C9040600C3040600BD040616
:101A900000B7040600B1040500AC040600A6040665
:101AA00000A00405009B04060095040500900406B0
:101AB000008A04050085040500800406007A0405F8
:101AC0000075040500700405006B0405006604053C
:101AD00000610405005C040500570405005204057C
:101AE000004D04050048040500430405003E0404BD
:101AF000003A04050035040500300404002C0405F8
:101B00000027040400230405001E0404001A040432
:101B10000016040500110404000D04040009040566
:101B2000000404040000040400FC030400F803049F
:101B300000F4030400F0030400EC030400E80304D1
:101B400000E4030400E0030400DC030400D8030401
:101B500000D4030400D0030400CC030400C8030332
:101B600000C503030024F404D9201BC40C5C0E98A8
:101B700004C4095F0265077101F405F900FB04B3B1
:101B80000048048700C1036900580355000303455A
:101B900000BE023A008402310053022A00290225C5
:101BA0000004022000E4011C00C8011900AF011765
:101BB00000980114008401130071011000610110EC
:101BC0000051010E0043010D0036010B002B010BEB
:101BD0000020010B00150109000C01090003010898
:101BE00000FB000800F3000800EB000700E400061B
:101BF00000DE000600D8000600D2000600CC00057A
:101C000000C7000500C2000500BD000400B90004C3
:101C100000B5000400B1000400AD000400A90004F8
:101C200000A5000300A20003009F0004009B000326
:101C30000098000300950002009300030090000349
:101C4000008D0002008B0003008800020086000265
:101C50000084000300810002007F0002007D00027A
:101C6000007B00020079000200770001007600028C
:101C7000007400020072000100710002006F000297
:101C8000006D0001006C0002006A000100690002A2
:101C900000670001006600010065000100640002A9
:101CA000006200010061000100600001005F0002AD
:101CB000005D0001005C0001005B0001005A0001B2
:101CC00000590001005800010057000100560001B2
:101CD00000550001005400010053000000530001B2
:101CE000005200010051000100500001004F0001AE
:101CF000004E0000004E0001004D0001004C0001AC
:101D0000004B0000004B0001004A000100490001A7
:101D100000480000004800010047000100460000A4
:101D2000004600010045000000450001004400019C
:101D30000043000000430001004200000042000197
:101D4000004100000041000100400001003F000090
:101D5000003F0001003E0000003E0001003D000089
:101D6000003D0001003C0000003C0000003C000180
:101D7000003B0000003B0001003A0000003A000177
:101D80000039000000390001003800000038000070
:101D90000038000100370000003700010036000065
:101DA000003600000036000100350000003500005C
:101DB0000035000100340000003400000034000150
:101DC0000033000000330000003300010032000047
:101DD000003200000032000100310000003100003C
:101DE0000031000100300000003000000030000130
:101DF000002F0000002F0000002F0000002F000126
:101E0000002E0000002E0000002E0001002D00001A
:101E1000002D0000002D0000002D0001002C00000E
:101E2000002C0000002C0000002C0001002B000002
:101E3000002B0000002B0000002B0001002A0000F6
:101E4000002A0000002A0000002A000100290000EA
:101E500000290000002900000029000000290001DD
:101E600000280000002800000028000000280000D2
:101E700000280001002700000027000000270000C4
:101E800000270000002700010026000000260000B7
:101E900000260000002600000026000100250000AA
:101EA000002500000025000000250000002500009E
:101EB0000025000100240000002400000024000090
:101EC0000024000000240001002300000023000083
:101ED0000023000000230000002300000023000076
:101EE0000023000100220000002200000022000068
:101EF000002200000022000000220001002100005A
:101F0000002100000021000000210000002100004D
:101F1000002100000021000100200000002000003E
:101F20000020000000200000002000000020000031
:101F30000020000000200001001F0000001F000022
:101F4000001F0000001F0000001F0000001F000015
:101F5000001F0001001E0000001E0000001E000007
:101F6000001E0000003930000033250000871900F2
:101F700000B00F0000DB080000BD04000074020088
:101F8000003F0100004F6666004F6E004D6F7469A0
:101F90006F6E004D3834004175746F20486F6D6569
:101FA0000054656D706572617475726500414253CD
:101FB00000504C41004672656520585900536F66C9
:101FC0007420456E6473746F70730044697361624A
:101FD0006C6520537465707065727300507265682B
:101FE00065617420242042656400507265686561F3
:101FF00074202420456E6400436F6F6C646F776EAD
:102000000050726568656174202400B11FAD1F50D7
:10201000726F6265204F66667365742058003F5A80
:10202000206F7574206F662072616E6765202800CE
:102030003F59206F7574206F662072616E6765204E
:10204000282D0020746F20003F58206F7574206F7A
:10205000662072616E676520282D00656E7175655A
:102060007565696E672022006F6B00526573656E3F
:10207000643A200025697920256964202569682053
:1020800025696D202569730023646566696E652086
:1020900044454641554C545F004B6420004B692039
:1020A000004B702000504944204175746F74756E68
:1020B000652066696E6973686564212050757420B7
:1020C000746865206C617374204B702C204B692000
:1020D000616E64204B6420636F6E7374616E747301
:1020E0002066726F6D2062656C6F7720696E746F09
:1020F00020436F6E66696775726174696F6E2E68D2
:102100000A00504944204175746F74756E652066ED
:1021100061696C6564212074696D656F75740A006E
:102120000A20436C617373696320504944200A009C
:10213000204B643A2000204B693A2000204B703A33
:1021400020002054753A2000204B753A2000206D65
:1021500061783A2000206D696E3A200020643A20B0
:102160000020626961733A2000504944204175742F
:102170006F74756E652073746172740A00504944FF
:10218000204175746F74756E65206661696C656455
:10219000212054656D706572617475726520746F6D
:1021A0006F20686967680A00504944204175746F60
:1021B00074756E6500504944204175746F74756E76
:1021C00065206661696C65642120426164206578E0
:1021D000747275646572206E756D6265720A007C3A
:1021E0004D61726C696E7C002D2D2D2D2D2D00A161
:1021F0000000006900A20000006300B000000009B8
:1022000000C10000004100C20000004100C3000006
:10221000004100C40000004100C50000004100C6AC
:102220000000004145C70000004300C80000004511
:1022300000C90000004500CD0000004900D10000A9
:10224000004E00D50000004F00D60000004F00D720
:102250000000007800DC0000005500DD000000599F
:1022600000E00000006100E10000006100E2000009
:10227000006100E30000006100E40000006100E58F
:102280000000006100E60000006165E700000063F7
:1022900000E80000006500E90000006500EA0000B9
:1022A000006500EB0000006500EC0000006900ED37
:1022B0000000006900EE0000006900EF0000006906
:1022C00000F10000006E00F20000006F00F300005B
:1022D000006F00F40000006F00F50000006F00F6D2
:1022E0000000006F00F80000006F00F900000075AA
:1022F00000FA0000007500FB0000007500FC000003
:10230000007500FD0000007900FF00000079000466
:1023100001000041000501000061000601000043CA
:10232000000701000063000C01000043000D0100E4
:102330000063000E01000044000F01000064001162
:1023400001000064001901000065001A0100004549
:10235000001B01000065001F010000670030010044
:10236000004900310100006900410100004C0042B9
:102370000100006C00430100004E00440100006EAB
:1023800000480100006E0058010000520059010091
:102390000072005A01000053005B01000073005FEF
:1023A0000100007300600100005300610100007330
:1023B000006501000074006F01000075007C0100E1
:1023C000007A007D0100005A007E0100007A009230
:1023D0000100006600E30200007800222000002EC9
:1023E000001E210000507822210000544D90210051
:1023F000003C2D922100002D3EB02100000300BBC7
:1024000021000004003C2200007E00482200007EE3
:102410003D60220000213D612200003D0064220059
:10242000003C3D652200003E3DF12300000700A076
:102430003000003D0021F301000200C2F40100055C
:1024400000A2000000EC00B0000000DF00E400008B
:1024500000E100F6000000EF00F7000000FD00FCC6
:10246000000000F500E3020000EB0087030000A578
:10247000008F030000F40098030000F2009E0300A8
:1024800000E300A3030000F600A9030000F400AC81
:10249000030000E000AD030000E300B1030000E032
:1024A00000B2030000E200B5030000E300B803003F
:1024B00000F200BC030000E400BE030000E300C023
:1024C000030000F700C1030000E600C3030000E5BD
:1024D00000902100007F00922100007E001A22005F
:1024E00000E8001E220000F30088250000FF000223
:1024F000300000A1000C300000A2000D300000A34D
:10250000009B300000DE009C300000DF00A03000A7
:10251000003D00A1300000A700A2300000B100A3E0
:10252000300000A800A4300000B200A5300000A9CF
:1025300000A6300000B300A7300000AA00A83000B9
:1025400000B400A9300000AB00AA300000B500AB19
:10255000300000B600AC300000B6DEAD300000B791
:1025600000AE300000B7DEAF300000B800B0300081
:1025700000B8DEB1300000B900B2300000B9DEB3FF
:10258000300000BA00B4300000BADEB5300000BB45
:1025900000B6300000BBDEB7300000BC00B8300031
:1025A00000BCDEB9300000BD00BA300000BDDEBBAB
:1025B000300000BE00BC300000BEDEBD300000BFF9
:1025C00000BE300000BFDEBF300000C000C03000E1
:1025D00000C0DEC1300000C100C2300000C1DEC357
:1025E000300000AF00C4300000C200C5300000C29F
:1025F000DEC6300000C300C7300000C3DEC83000B4
:1026000000C400C9300000C4DECA300000C500CBE1
:10261000300000C600CC300000C700CD300000C83C
:1026200000CE300000C900CF300000CA00D030001A
:1026300000CADED1300000CADFD2300000CB00D3A8
:10264000300000CBDED4300000CBDFD5300000CC32
:1026500000D6300000CCDED7300000CCDFD8300010
:1026600000CD00D9300000CDDEDA300000CDDFDB58
:10267000300000CE00DC300000CEDEDD300000CEC9
:10268000DFDE300000CF00DF300000D000E030009F
:1026900000D100E1300000D200E2300000D300E3BE
:1026A000300000AC00E4300000D400E5300000ADA4
:1026B00000E6300000D500E7300000AE00E8300052
:1026C00000D600E9300000D700EA300000D800EB67
:1026D000300000D900EC300000DA00ED300000DB03
:1026E00000EF300000DC00F2300000A600F3300004
:1026F00000DD00F4300000B3DEF7300000DCDEFA6D
:10270000300000A6DEFB300000A500FC300000B069
:1027100000FD300000A400074E0000FB00865100C1
:1027200000FC0043530000FA0064FF0000A40065B1
:10273000FF0000A50066FF0000A60067FF0000A7DD
:102740000068FF0000A80069FF0000A9006AFF0000
:1027500000AA006BFF0000AB006CFF0000AC006D36
:10276000FF0000AD006EFF0000AE006FFF0000AF85
:102770000070FF0000B00071FF0000B10072FF00A8
:1027800000B20073FF0000B30074FF0000B40075D6
:10279000FF0000B50076FF0000B60077FF0000B72D
:1027A0000078FF0000B80079FF0000B9007AFF0050
:1027B00000BA007BFF0000BB007CFF0000BC007D76
:1027C000FF0000BD007EFF0000BE007FFF0000BFD5
:1027D0000080FF0000C00081FF0000C10082FF00F8
:1027E00000C20083FF0000C30084FF0000C4008516
:1027F000FF0000C50086FF0000C60087FF0000C77D
:102800000088FF0000C80089FF0000C9008AFF009F
:1028100000CA008BFF0000CB008CFF0000CC008DB5
:10282000FF0000CD008EFF0000CE008FFF0000CF24
:102830000090FF0000D00091FF0000D10092FF0047
:1028400000D20093FF0000D30094FF0000D4009555
:10285000FF0000D50096FF0000D60097FF0000D7CC
:102860000098FF0000D80099FF0000D9009AFF00EF
:1028700000DA009BFF0000DB009CFF0000DC009DF5
:10288000FF0000DD009EFF0000DE009FFF0000DF74
:1028900000E5FF00005C00001C1F11111F0000007C
:1028A00006191803130C00040E1F041C000000007E
:1028B0000E1315110E00001C101817050605000454
:1028C0000A0A0A0A11110E0C12120C000000000074
:1028D0001F1511151F000000000000010204040074
:1028E00000001C1C0C040404020100000000000491
:1028F000081000000000002053697A653A20004368
:10290000616E6E6F74206F70656E2073756264699E
:10291000722000534420496E6974204661696C003E
:1029200053442063617264206F6B0A006F70656EA0
:10293000526F6F74206661696C65640A00766F6C13
:10294000756D652E696E6974206661696C65640ACF
:10295000004E6F20534420636172640A004D32348C
:10296000004D32332025730046696C652073656C19
:1029700065637465640A0046696C65206F70656EF6
:1029800065643A2000454E4420535542524F5554F9
:10299000494E450A002220706F7300222070617238
:1029A000656E743A2200535542524F5554494E4574
:1029B0002043414C4C207461726765743A22005385
:1029C000756263616C6C204F766572666C6F770020
:1029D0004578636565646564206D61782053554270
:1029E000524F5554494E452064657074683A310A17
:1029F0000044656C6574696F6E206661696C65641E
:102A00002C2046696C653A200046696C6520646537
:102A10006C657465643A0057726974696E672074F6
:102A20006F2066696C653A200066726573680064A1
:102A30006F696E67004E6F7720007879007A7800B2
:102A4000797A00207A002079002078002E2020203A
:102A50002000456E64204452592D52554E004E6F51
:102A600020636F6E76657267656E63650049746595
:102A7000726174696F6E203A2025303269005361AB
:102A800076652077697468204D35303020616E643A
:102A90002F6F7220636F707920746F20436F6E66A2
:102AA000696775726174696F6E2E680A002530332C
:102AB000692E7800302E253033690043616C6962DD
:102AC000726174696F6E2073643A00737464206479
:102AD00065763A00726F6C6C696E67206261636B39
:102AE0002E0043616C6962726174696F6E204F4B96
:102AF00000436F72726563742064656C7461207347
:102B0000657474696E67732077697468204D363612
:102B10003520616E64204D3636360A002028445236
:102B2000592D52554E2900436865636B696E672EB7
:102B30002E2E204143003F4265642063616C696230
:102B4000726174696F6E2072616469757320696D5A
:102B5000706C61757369626C652E0A0047333320AF
:102B60004175746F2043616C6962726174650A001B
:102B70003F2856296572626F7365206C6576656CB7
:102B800020696D706C61757369626C652028302DE9
:102B900033292E0A003F2846296F72636520697425
:102BA00065726174696F6E20696D706C61757369AF
:102BB000626C652028302D3330292E0A003F2843CF
:102BC00029616C6962726174696F6E2070726563ED
:102BD0006973696F6E20696D706C61757369626C81
:102BE0006520283E3D30292E0A003F2850296F6974
:102BF0006E747320696D706C61757369626C6520A9
:102C000028302D3130292E0A0050726F6265205A0B
:102C1000204F666673657400416476616E63656417
:102C20002053657474696E677300547A0054790098
:102C3000547800457A0045790045780046616E2059
:102C4000537065656400526573746F7265204465E6
:102C50006661756C747300507265686561742024D8
:102C600020436F6E660044656C74612043616C693B
:102C700062726174696F6E004469616720526F64AB
:102C80000052616469757300486569676874004C37
:102C90006F61642053657474696E67730053746F59
:102CA00072652053657474696E677300506F776541
:102CB00072204F757461676500436F6E6669677552
:102CC000726174696F6E0043616E63656C00446588
:102CD0006C74612053657474696E67730041757418
:102CE0006F2043616C6962726174696F6E00473373
:102CF00033004D313030300053746F7020507269A2
:102D00006E7400526573756D65205072696E740043
:102D100053746F70004368616E6765204D65646928
:102D200061004D3231004E6F204D65646961005481
:102D3000756E65005061757365205072696E740020
:102D4000496E666F2053637265656E0053746172DD
:102D500074205072696E740043616E6E6F742065EA
:102D60006E746572207375626469723A2000052E74
:102D70002E00506C65617365205265736574005058
:102D800052494E5445522048414C54454400255325
:102D90003A202553004B494C4C45442E200050729C
:102DA000696E7465722068616C7465642E206B694D
:102DB0006C6C28292063616C6C6564210A00656372
:102DC000686F3A004572726F723A00202864697326
:102DD00061626C6564290A0041424C2041646A7555
:102DE00073746D656E74205A002028656E61626C84
:102DF0006564290A0041626F76650053616D652044
:102E00005A2061730042656C6F77004175746F20C2
:102E1000426564204C6576656C696E673A2042496C
:102E20004C494E45415200204E6F7A7A6C65290A12
:102E300000202620002D43656E746572002D4672B9
:102E40006F6E74002D4261636B002028416C6967CE
:102E50006E656420576974680020284D6964646C4D
:102E6000650020284C6566740020285269676874E4
:102E70000050726F62653A204649585F4D4F554E7B
:102E80005445445F50524F42450A004D61636869A2
:102E90006E6520547970653A2044656C74610A004F
:102EA0005D0A004578747261706F6C617465205BB7
:102EB0000042696C696E656172204C6576656C696B
:102EC0006E6720477269643A0A00203A202E2E2E3F
:102ED0004E6F77204F4E0A00203A204C6576656C85
:102EE000696E67204F46460A00203A202E2E2E4E4D
:102EF0006F77204F46460A00203A204C6576656C75
:102F0000696E67204F4E0A0072657365745F626573
:102F1000645F6C6576656C0A0020746F6F206C6F5F
:102F20006E6720657874727573696F6E2070726554
:102F300076656E7465640A0020636F6C6420657842
:102F400074727573696F6E2070726576656E7465E4
:102F5000640A0020453A0020593A000000000100B0
:102F6000000001000080005555550000004000336E
:102F7000333300AAAA2A004992240000002000C787
:102F8000711C0099991900D1451700555515003B42
:102F9000B113002449120011111100000010000F9C
:102FA0000F0F00E3380E0043790D00CCCC0C00C3AA
:102FB000300C00E8A20B0064210B00AAAA0A0070E2
:102FC0003D0A009DD80900427B090092240900DCDB
:102FD000D30800888808001042080000000800F0AC
:102FE000C107008787070075500700711C07003E66
:102FF000EB0600A1BC06006990060066660600703C
:103000003E06006118060017F4050074D105005B48
:10301000B00500B2900500627205005555050078B4
:10302000390500B81E0500050505004EEC040087B3
:10303000D40400A1BD040090A7040049920400C17B
:103040007D0400EE690400C7560400444404005C9B
:103050003204000821040041100400000004003F75
:10306000F00300F8E0030026D20300C3C30300CC42
:10307000B503003AA803000A9B0300388E0300C082
:103080008103009F750300D0690300505E03001D9B
:1030900053030034480300913D030033330300160B
:1030A000290300381F030097150300300C030003A9
:1030B0000303000BFA020049F10200BAE802005CC7
:1030C000E002002DD802002DD0020059C80200B045
:1030D000C0020031B90200DAB10200AAAA0200A0BF
:1030E000A30200BC9C0200FA9502005C8F0200DF84
:1030F00088020082820200457C02002776020027B7
:10310000700200436A02007C640200D05E02003F4D
:10311000590200C8530200FFFDFCFAF8F6F4F2F081
:10312000EEECEAE9E7E5E3E1E0DEDCDAD9D7D5D495
:10313000D2D0CFCDCBCAC8C7C5C3C2C0BFBDBCBA31
:10314000B9B7B6B4B3B2B0AFADACAAA9A8A6A5A49E
:10315000A2A1A09E9D9C9A99989795949392908FE6
:103160008E8D8B8A8988878684838281807F7E7D0D
:103170007B7A797877767574737271706F6E6D6C17
:103180006B6A696867666564636261605F5E5D5C07
:103190005B5A5958585756555453525150504F4EE8
:1031A0004D4C4B4A4A4948474646454443424241B2
:1031B000403F3E3E3D3C3B3B3A393838373635356B
:1031C000343332323130302F2E2E2D2C2B2B2A2916
:1031D0002928272726252524232322212120201FB3
:1031E0001E1E1D1C1C1B1B1A191918181716161544
:1031F0001514131312121111100F0F0E0E0D0D0CCA
:103200000C0B0A0A09090808070706060505040445
:103210000303020201000050726F62653A3A646F64
:103220005F7A5F726169736528006465706C6F799D
:103230003A2000203A2050726F62653A3A73657402
:103240005F6465706C6F7965640A0020433A002002
:10325000423A0020436F756E7420413A00453100B8
:10326000626564002C2073797374656D2073746FCC
:103270007070656421204865617465725F49443AE5
:10328000200048656174696E67204661696C6564F9
:103290000048656174696E67206661696C656400E9
:1032A000202D20496E76616C696420657874727592
:1032B000646572206E756D62657220210A00544843
:1032C00045524D414C2052554E415741590054688A
:1032D00065726D616C2052756E617761790045721F
:1032E000723A204D415854454D50004D4158544577
:1032F0004D5020747269676765726564004572722B
:103300003A204D494E54454D50004D494E54454D7F
:10331000502074726967676572656400202F002011
:1033200042403A0020403A0046616E205370656585
:1033300064207E004D61696E00466C6F77002568E1
:10334000753A25303268750025303268753A253077
:1033500032687500534400202020202020200020C7
:10336000573A007C3C3E5E2B3D3F2F5B5D3B2C2A59
:10337000225C000009121B242D363F48415A536C31
:10338000657E7719100B023D342F265158434A753C
:103390007C676E323B2029161F040D7A7368615ECC
:1033A000574C452B2239300F061D14636A7178473C
:1033B0004E555C646D767F4049525B2C253E370844
:1033C000011A137D746F6659504B42353C272E11FC
:1033D00018030A565F444D727B60691E170C053A4C
:1033E0003328214F465D546B627970070E151C23FC
:1033F0002A31384148535A656C777E09001B122DDB
:10340000243F3658514A437C756E671019020B34BD
:103410003D262F737A6168575E454C3B3229201F49
:10342000160D046A6378714E475C55222B303906BD
:103430000F141D252C373E0108131A6D647F764941
:10344000405B523C352E2718110A03747D666F507D
:1034500059424B171E050C333A21285F564D447BC9
:103460007269600E071C152A233831464F545D627D
:103470006B70795072696E742066726F6D204D6545
:1034800064696100205A3A200020593A20004265C0
:103490006420583A2000203A200A002020637572E8
:1034A00072656E745F706F736974696F6E3D002C26
:1034B00020002E2E2E2800496E76616C69642065EE
:1034C000787472756465720A005072696E74205067
:1034D000617573656400486F6D65202573257325DC
:1034E0007320466972737400204469736372657057
:1034F000616E63793A00326E642050726F626520AB
:103500005A3A00534C4F57003173742050726F6217
:1035100065205A3A00464153540050726F62653A32
:103520003A72756E5F7A5F70726F62650050726F8B
:1035300062696E67204661696C65640A0050726F4B
:1035400062696E67204661696C656400506F7369DB
:1035500074696F6E204E6F7420526561636861629A
:103560006C650A005F72656C6174697665290A0092
:1035700050726F62653A3A70726F62655F61745F34
:10358000706F696E740050726F62653A3A70726F54
:1035900062655F646F776E5F746F5F7A002054724C
:1035A00069676765726564206561726C792E0020B9
:1035B0004E6F20747269676765722E002050726FBB
:1035C0006265206661696C21202D003C3C3C002234
:1035D0000A00556E6B6E6F776E20636F6D6D616E56
:1035E000643A20220048453344204B323830205280
:1035F000656164792E005072696E74696E672E2E53
:103600002E003F00496E697469616C697A652045D6
:103610004550524F4D005072696E742041626F7276
:10362000746564004D32350050617573696E672EA4
:103630002E2E00454550524F4D2056657273696FCE
:103640006E204572726F7200454550524F4D2049B1
:103650006E646578204572726F7200454550524F16
:103660004D20435243204572726F720049676E6F5E
:1036700072650000002100240027002A002D003080
:1036800000330001010000040107010A01000022CB
:1036900000250028002B002E00310034000201001C
:1036A00000050108010B010000200023002600296D
:1036B000002C002F00320000010000030106010968
:1036C0000105050505070508080808020202020AA7
:1036D0000A080804040404010101010101010103B5
:1036E00003030303030303040707070C0C0C0C0C70
:1036F0000C0C0C0202020206060606060606060B63
:103700000B0B0B0B0B0B0B010210202008081020D9
:10371000401020408002010201080402010102045D
:10372000081020408080402010080402018004021C
:103730000180402010080402010804020101020473
:103740000810204080010204081020408000000A78
:103750000B02090C0D0E0807030401000000000015
:103760000000000000000000000000000000000059
:103770000000000000000000001211100000000016
:103780000000000000000000000000000000000039
:103790000000004D6F76652025736D6D004D6F76CE
:1037A0006520302E316D6D004D6F766520316D6D69
:1037B000004D6F76652031306D6D004D6F76652060
:1037C0004178697300486F74656E6420746F6F2070
:1037D000636F6C64004578747275646572004D6F38
:1037E0007665205A004D6F76652059004D6F7665DD
:1037F00020580020520048617264636F6465642041
:1038000044656661756C742053657474696E677382
:10381000204C6F616465640A003B200020204D3815
:1038200035312058005A2D50726F6265204F666600
:103830007365740020204D343133205300506F776E
:1038400065722D4C6F7373205265636F7665727964
:103850003A0020204D33303120500050494420732D
:10386000657474696E67733A0020460020204D31FC
:1038700034352053004D6174657269616C20686550
:103880006174757020706172616D65746572733AF0
:103890000020480020204D363635204C0044656C11
:1038A00074612073657474696E67733A204C3C646C
:1038B0006961676F6E616C20726F643E20523C726A
:1038C00061646975733E20483C6865696768743E49
:1038D00020533C7365676D656E747320706572204C
:1038E0007365633E2058595A3C746F776572206146
:1038F0006E676C65207472696D3E204142433C7274
:103900006F64207472696D3E0020204D363636207B
:103910005800456E6473746F702061646A757374C7
:103920006D656E743A00204A0020204732392057D6
:1039300020490020204D3432302053004175746FEF
:1039400020426564204C6576656C696E673A00209C
:10395000204D323035204200416476616E636564EB
:103960003A20423C6D696E5F7365676D656E745F8A
:1039700074696D655F75733E20533C6D696E5F665B
:10398000656564726174653E20543C6D696E5F7458
:10399000726176656C5F66656564726174653E2010
:1039A000583C6D61785F785F6A65726B3E20593C68
:1039B0006D61785F795F6A65726B3E205A3C6D611C
:1039C000785F7A5F6A65726B3E20453C6D61785F17
:1039D000655F6A65726B3E0020540020204D3230D6
:1039E00034205000416363656C65726174696F6E69
:1039F0002028756E6974732F7332293A20503C70F9
:103A000072696E745F616363656C3E20523C7265DF
:103A100074726163745F616363656C3E20543C74CF
:103A2000726176656C5F616363656C3E0020204D5A
:103A30003230312058004D6178696D756D204163D9
:103A400063656C65726174696F6E2028756E697448
:103A5000732F7332293A0020204D32303320580022
:103A60004D6178696D756D20666565647261746518
:103A7000732028756E6974732F73293A0053746527
:103A800070732070657220756E69743A002044006E
:103A900020204D3230302053002044697361626C25
:103AA00065640A0046696C616D656E7420736574A7
:103AB00074696E67733A0020204D313439204320F9
:103AC0003B20556E69747320696E2043656C736981
:103AD00075730A0020286D6D29002020473231209F
:103AE0002020203B20556E69747320696E206D6D17
:103AF00000000048430000484300004843000048DD
:103B0000430000A0420000A0420000A0420000517B
:103B100044B80B0000B80B0000B80B0000B80B0055
:103B2000006F70656E206661696C65642C20466963
:103B30006C653A200000002110422063308440A5CB
:103B400050C660E770088129914AA16BB18CC1AD64
:103B5000D1CEE1EFF13112100273325222B55294FC
:103B600042F772D662399318837BB35AA3BDD39CB4
:103B7000C3FFF3DEE36224433420040114E664C788
:103B800074A44485546AA54BB528850995EEE5CF04
:103B9000F5ACC58DD55336722611163006D776F69C
:103BA000669556B4465BB77AA719973887DFF7FE54
:103BB000E79DD7BCC7C448E5588668A77840086128
:103BC0001802282338CCC9EDD98EE9AFF9488969A4
:103BD000990AA92BB9F55AD44AB77A966A711A503C
:103BE0000A333A122AFDDBDCCBBFFB9EEB799B58F4
:103BF0008B3BBB1AABA66C877CE44CC55C222C03C8
:103C00003C600C411CAEED8FFDECCDCDDD2AAD0B43
:103C1000BD688D499D977EB66ED55EF44E133E32DB
:103C20002E511E700E9FFFBEEFDDDFFCCF1BBF3A93
:103C3000AF599F788F8891A981CAB1EBA10CD12D82
:103C4000C14EF16FE18010A100C230E32004502585
:103C50004046706760B9839893FBA3DAB33DC31CF9
:103C6000D37FE35EF3B1029012F322D232354214D5
:103C70005277625672EAB5CBA5A89589856EF54F45
:103C8000E52CD50DC5E234C324A014810466744725
:103C90006424540544DBA7FAB79987B8975FE77E99
:103CA000F71DC73CD7D326F2369106B01657667675
:103CB00076154634564CD96DC90EF92FE9C899E9E5
:103CC000898AB9ABA94458654806782768C018E1C5
:103CD000088238A3287DCB5CDB3FEB1EFBF98BD839
:103CE0009BBBAB9ABB754A545A376A167AF10AD015
:103CF0001AB32A923A2EFD0FED6CDD4DCDAABD8B85
:103D0000ADE89DC98D267C076C645C454CA23C8364
:103D10002CE01CC10C1FEF3EFF5DCF7CDF9BAFBAD8
:103D2000BFD98FF89F176E367E554E745E932EB2B4
:103D30003ED10EF01E4361703A00204D39322058BA
:103D4000004D32342053256C642054256C640047A8
:103D500039322E392045257300473120462564002D
:103D60004731205A257320463230300047312058E1
:103D700025732059257320463330303000473132C7
:103D8000004D34323020532569205A2573004D31BF
:103D900030362050256920532569004D31303920B7
:103DA000532569004D31393020532569004D32309B
:103DB0003020442573004739322E392045300A47D8
:103DC00032385230004D343230205330205A3000D7
:103DD00020496E76616C69642065787472756465DB
:103DE000722000006C01BE0111241FBECFEFD1E292
:103DF000DEBFCDBF00E00CBF13E0A0E0B2E0ECE717
:103E0000FEEC02E00BBF02C007900D92A435B10793
:103E1000D9F728E1A4E5B3E001C01D92AD30B207A7
:103E2000E1F71EE1C3EFDEE100E006C021970109E2
:103E3000802FFE010F944263C23FD10780E0080744
:103E4000A9F70F94DF4C0D942C670C9400002F926F
:103E50003F924F925F926F927F928F929F92AF921A
:103E6000BF92CF92DF92EF92FF920F931F93CF9367
:103E7000DF93CDB7DEB7E5970FB6F894DEBF0FBE80
:103E8000CDBF382E20905D0381E080935D0380914B
:103E900004188D3409F4CBC3843511F40C94F92F34
:103EA000873411F00C9428308091021890910318F7
:103EB0008A31910509F47BC1BCF4843091053CF44E
:103EC000823091050CF03FC097FF31C0ACC38C30FD
:103ED000910509F40BC18531910511F40C942A3038
:103EE000049709F0A0C3C4C08132910509F408C247
:103EF00064F48D31910509F47EC18E31910509F488
:103F00007EC14C9709F08FC356C18A35910509F4DB
:103F1000FBC124F48A9709F4A6C285C38B359105A9
:103F200009F4F6C18C35910509F4F7C17CC3809181
:103F30008406813011F00C942A300F94B5480E9409
:103F4000E18A0C942A3020918406213011F00C94DF
:103F50002A3011E0029709F010E00F94B548198259
:103F60001A821B821C821D821E821F82188682E595
:103F70000E9408E4882309F44BC00E9488E36B0187
:103F80007C0120E030E0A9010F94475C882309F40C
:103F900055C080914A0290914B02A0914C02B09181
:103FA0004D028AA79BA7ACA7BDA780914E02909116
:103FB0004F02A0915002B09151028AAB9BABACABC7
:103FC000BDAB8090AB0F9090AC0FA090AD0FB090B8
:103FD000AE0F4090AF0F5090B00F6090B10F709047
:103FE000B20FA50194016AA57BA58CA59DA50F9490
:103FF000475C81110C944930A30192016AA97BA905
:104000008CA99DA90F94475C8823C1F00C9449307A
:1040100089E40E9408E4882331F00E9488E36983E0
:104020007A838B839C838AE40E9408E4882331F09E
:104030000E9488E36D837E838F83988720E030E041
:10404000A90169817A818B819C810F94475C8111E0
:104050000C94FD3020E030E0A9016D817E818F81DC
:1040600098850F94475C81110C94FD300C941031AD
:1040700080E50E9408E4882329F00F94124C6B011C
:104080007C0103C0C12CD12C760183E50E9408E499
:10409000882361F00E9488E320E030E04AE754E49E
:1040A0000F94AD5C0F94BE646B017C010E942DFFE8
:1040B0008091BA10811105C060E08AE695E00F9406
:1040C000E9280F948B2FC60ED71EE81EF91E0F94F9
:1040D0008B2FDC01CB018C199D09AE09BF09B7FDFF
:1040E00002C00C942A300E948048F1CF0F94561FD2
:1040F000F82E81110C942A3060E070E080E50F9476
:10410000C44B89A76CE070E083E50F94C44B88A78B
:1041100063E070E084E50F94C44B8C8F40E050E086
:1041200060ED70E482E50E949BAC69837A838B83A7
:104130009C838091150787FF02C00C9417318091F2
:104140001607837011F00C94173111E002E0012B77
:10415000882331F060E08AE50E9424E4882311F08E
:1041600094E001C090E0092B1091F70F02FFF12EAF
:104170008F2D0E94FCEA60E085E40E9424E4F09028
:104180002202809322029E01245E3F4FAE014F5FC8
:104190005F4FBE01685D7F4FCE0189960E946168C6
:1041A000F0922202812F0E94FCEA0C942A300E9495
:1041B000EB7C0C942A304091BE0E45FB442740F91D
:1041C0006BE076E1CE0101960E94B2738091BE0E43
:1041D00085FD0E94A3E98091BB0F8770873011F0A5
:1041E0000C94273160E08FE40E9424E481110C9448
:1041F0005A310C9427310E9456740C942A30209125
:10420000BE0F3091BF0F4091C00F5091C10F609110
:104210004A0270914B0280914C0290914D020F9492
:104220004B63AB01BC0188E50E949BAC69837A8338
:104230008B839C832091C20F3091C30F4091C40F98
:104240005091C50F60914E0270914F0280915002C3
:10425000909151020F944B63AB01BC0189E50E9420
:104260009BAC6D837E838F839887BE016B5F7F4F8E
:10427000CE0101960E94C073882311F40C942A3059
:1042800080E00E94FCEA0E94168F84E690E0909302
:1042900024028093230261E085E40E9424E401E08B
:1042A00021E0482FBE016B5F7F4FCE0101960F9436
:1042B000B5216B017C019B01AC010F9491668111CA
:1042C00019C049815A816B817C818EE894E30E94F8
:1042D00092E94D815E816F81788589E894E30E943F
:1042E00092E9B701A60184E894E30E9492E98AE08A
:1042F0000E9454470E94FD8E0E94EA930C942A303B
:104300000E946DBB0C942A301092F60F0C942A3048
:104310008FE08093F60F0C942A3080910118882347
:1043200049F1893009F09BC02BECA22E22E0B22E7D
:104330003AE4E32E32E0F32ED12C00E010E0D50178
:104340008D915D010E9408E4882369F00E9488E352
:10435000F7016083718382839383133011F401E04A
:1043600002C0DD24D3941F5FF4E0EF0EF11C143083
:1043700031F76AC02BEC32E03BA72AA784E6E82E8F
:1043800088E0F82E9AE4C92E92E0D92E00E010E0E1
:10439000AAA5BBA58D91BBA7AAA70E9408E4882364
:1043A00009F447C00E9488E32B013C01133049F017
:1043B000F70120813181428153810F944A632B019F
:1043C0003C01D6012D913D914D915C91C301B2010B
:1043D0000F944A634B015C012DEB37E346E855EB44
:1043E0000F94FF6587FD0AC02DEB37E346E855E3E0
:1043F000C501B4010F94475C1816DCF4133051F476
:10440000409256025092570260925802709259029E
:1044100001E00FC0A5019401F701608171818281E3
:1044200093810F944B63D7016D937D938D939C93F0
:1044300013971F5FB4E0EB0EF11CE4E0CE0ED11C2D
:10444000143009F0A5CF05C0DD2019F00E94DC93DF
:1044500006C0002321F086E592E00F9412030E942B
:10446000EA930C942A3080918406813011F00C94E8
:104470002A3089E40E9408E4E82E882321F00E9473
:1044800084E3082F01C000E08AE40E9408E4F82ECB
:10449000882321F00E9484E3182F01C010E0EE2051
:1044A00011F00B3020F4FF2041F01B3030F08EE88B
:1044B00095E00E9402E70C942A3080E1EAE4F2E001
:1044C000ABEABFE001900D928A95E1F7EE2019F179
:1044D000602F000F770B880B990B0F944E5C209187
:1044E00023113091241140912511509126110F94E0
:1044F000AD5C209125043091260440912704509111
:1045000028040F944B636093AB0F7093AC0F8093B0
:10451000AD0F9093AE0FFF2019F1612F110F770BA4
:10452000880B990B0F944E5C209127113091281124
:104530004091291150912A110F94AD5C20912904CA
:1045400030912A0440912B0450912C040F944B631A
:104550006093AF0F7093B00F8093B10F9093B20F31
:1045600060E080E50E9424E48823C1F1EE20D1F0D0
:104570002091BE0F3091BF0F4091C00F5091C10FDD
:104580006091AB0F7091AC0F8091AD0F9091AE0F19
:104590000F944A636093AB0F7093AC0F8093AD0F91
:1045A0009093AE0FFF20D1F02091C20F3091C30F36
:1045B0004091C40F5091C50F6091AF0F7091B00F33
:1045C0008091B10F9091B20F0F944A636093AF0F37
:1045D0007093B00F8093B10F9093B20F40E050E012
:1045E000BA0186E40E949BAC6B017C0120E030E0C4
:1045F000A9010F94FF6518164CF420E030E040E765
:1046000052E4C701B6010F94456403C060E070E056
:10461000CB0169837A838B839C83CE0101960E94B0
:1046200061E20C942A300F94821E0C942A308091FF
:104630000218909103188537910509F4A2C70CF070
:1046400044C18C34910509F44AC40CF055C0893139
:10465000910509F449C31CF58431910509F4C5C2DB
:104660007CF48131910509F49FC22CF4029708F47F
:104670003EC20C94F62F429709F485C60C94F62F8F
:104680008631910509F4D6C20CF4D0C28731910568
:1046900009F4DAC2489709F4ECC20C94F62F8E3173
:1046A000910509F4AAC3ACF48B31910509F44AC30E
:1046B0000CF43AC38C31910509F497C34D9711F06E
:1046C0000C94F62F809121168E7F809321160C94E6
:1046D0002A308032910509F4A0C30CF4C7C38A3292
:1046E000910509F4E3C38B34910511F00C94F62F76
:1046F0000E94C6FD0C942A308936910509F4E7C45E
:1047000064F58335910509F437C6BCF48E34910500
:1047100009F4FEC30CF4F8C38135910509F418C6F9
:104720008235910511F00C94F62F8091F60F8F7D54
:1047300080618093F60F0C942A308535910509F439
:1047400058C60CF420C68C35910509F475C6883618
:10475000910509F46FC40C94F62F8E36910509F477
:1047600015C584F48B36910509F403C50CF4BFC458
:104770008C36910509F460C58D36910509F481C424
:104780000C94F62F8137910509F45BC594F48F36AC
:10479000910509F40CC58037910511F00C94F62FA2
:1047A00041E060E070E08CEA96E00E94D3EB0C946C
:1047B0002A308237910509F4DDC68337910511F05F
:1047C0000C94F62F89E398E00E9402E760E089E20A
:1047D00098E00F94C24760E084E198E00F94C247EC
:1047E00061E08FE096E30F94C24761E089E098E0D2
:1047F0000F94C24761E089EF97E00F94C24760E0F1
:1048000080EF97E00F94C24761E086EE97E00F9447
:10481000C24761E08CED97E00F94C24760E085ED00
:1048200097E00F94C24761E08DEC97E00F94C24788
:1048300061E08FEB97E00F94C24760E081EB97E077
:104840000F94C24760E082EA97E00F94C24760E0AD
:1048500084E997E00F94C24760E08EE797E00F94F9
:10486000C24760E08DE697E00F94C24760E08EE5B6
:1048700097E00F94C24761E087E597E00F94C24745
:1048800060E082E497E00F94C24760E084E397E041
:104890000F94C24761E081E297E00F94C24760E065
:1048A00084E197E00F94C24761E08FE097E00F94B6
:1048B000C24760E082E097E00F94C24760E08EEE6E
:1048C00096E00F94C2470C942A308F32F1E09F0794
:1048D00011F40C94B22E0CF071C0893C910509F4CE
:1048E0005EC78CF58C38910509F4CDC4BCF48737CC
:1048F000910509F490C60CF454C68837910509F463
:104900008DC68937910511F00C94F62F1092FC0496
:104910001092FB040E9423620C942A308B3991057B
:1049200009F4F0C434F48139910509F47FC60C947C
:10493000F62F8E3B910509F4C5C4883C910509F416
:10494000E9C60C94F62F8C3D910511F40C94122DB0
:10495000ACF48C3C910509F467C734F48B3C9105A9
:1049600009F440C70C94F62F8D3C910509F48DC7CE
:10497000833D910509F499C70C94F62F8C3231E0F0
:10498000930711F40C94D92D64F48D3D910511F425
:104990000C94392D823E910511F40C948E2D0C94BB
:1049A000F62F8D32B1E09B0711F40C94EE2D8E3270
:1049B000914011F40C946E2E0C94F62F863FF1E08A
:1049C0009F0711F40C94372F0CF045C08D3931E05E
:1049D000930711F40C94B42FFCF48139B1E09B07D8
:1049E00011F40C94B52E4CF48039914011F00C94D4
:1049F000F62F0E942DFF0C942A30823921E0920775
:104A000011F40C94BB2E8A39914011F00C94F62FBE
:104A10000E9479460C942A30853AA1E09A0711F455
:104A20000C94C02E4CF4843A914011F00C94F62F63
:104A30000E9484790C942A30843FF1E09F0711F49E
:104A40000C94342F853F914011F00C94F62F0F9465
:104A50006A340C942A308A3932E0930711F40C94AA
:104A60005C2FC4F4883FB1E09B0711F40C94432FF2
:104A700014F40C943A2F8C30F2E09F0711F40C944C
:104A8000542F8939924011F00C94F62F0F94224C38
:104A90000C942A30873E33E0930711F40C94A62F30
:104AA000CCF48335B3E09B0711F40C94A32F803A28
:104AB000934011F00C94F62F2091FF1730910018BD
:104AC00090912116926090932116C9010E9492B68E
:104AD0000C942A30883EF3E09F0711F40C94D52FF4
:104AE000893E934011F40C94D82F0C94F62F80E556
:104AF0000E9408E4882329F00F94124C6B017C017A
:104B000003C0C12CD12C760183E50E9408E48823E0
:104B100061F00E9488E320E030E04AE754E40F941B
:104B2000AD5C0F94BE646B017C010E942DFF8091EF
:104B3000FF1790910018009721F061E00F945E2913
:104B400005C060E087EA95E00F94E92810915D03C5
:104B500083E080935D0381E08093E410C114D1046D
:104B6000E104F10431F00F948B2FC60ED71EE81E1E
:104B7000F91E8091E410882311F40C946731C1145C
:104B8000D104E104F10411F40C946E310F948B2FD5
:104B9000DC01CB018C199D09AE09BF09B7FF02C02A
:104BA0000C946E310C9467318091130784FF02C01E
:104BB0000C9472318091150787FF02C00C947231FA
:104BC00080911607837011F00C94723160E08AEBCB
:104BD00095E00F94E9285F988A9880910801817088
:104BE0008093060112980C942A3082ED95E00E9481
:104BF00002E780E496E10F94B6158BE1E0E4F6E17C
:104C0000DE01119601900D928A95E1F760E070E067
:104C1000CE0101960E9479BACE0101960E945BE412
:104C200083EC95E00E9402E70C942A300E943AB986
:104C30000C942A300E9451B580912116877F8062A2
:104C4000809321160C942A30E091FF17F091001800
:104C50008081882329F0803209F410823196F8CFC0
:104C600060E08091FF17909100180E94E0B60C94CC
:104C70002A3083E50E9408E4882321F00E9450E353
:104C80000E9482B184E50E9408E48823A9F00E9472
:104C900050E36B017C010E941D65C092200FD092F1
:104CA000210FE092220FF092230FCD28CE28CF289B
:104CB00019F081E08093F50F0E949E46882381F0D1
:104CC0000E9460B50E94C6FD8CE390E10E9407B58A
:104CD00010921707109218071092190710921A07CE
:104CE0000F94C21D0C942A308091211682FF03C0BC
:104CF0008B7F8093211680912B11882319F081E0FE
:104D00000F94071D8091F50F813051F782E0809359
:104D1000F50F0F948B2F6093240F7093250F8093C2
:104D2000260F9093270FDCCF8091211683FD02C0C0
:104D30000C942A3083E50E9408E481110C948E3192
:104D40000C942A3083E40E94BFE3882319F18DEE8E
:104D500095E00E9402E780918717882391F0BE01B9
:104D60006F5F7F4F84E897E10F947D148E010F5F92
:104D70001F4FD8018D918D01882339F00E9454472F
:104D8000F8CF83EE95E00E9402E78AE00E94544744
:104D90000C942A308091211682FF21C08CEF95E07F
:104DA0000E9402E760911D1670911E1680911F16D9
:104DB000909120164AE00E945B478FE20E94544780
:104DC0006091191670911A1680911B1690911C16FD
:104DD0004AE00E945B470E9459480C942A308EE0BA
:104DE00096E00E9402E70C942A308091FF17909180
:104DF00000180E9492B60C942A308091211683FDEF
:104E000002C00C942A300F946B1E8091FF17909172
:104E100000180E94C4B80C942A308091211682FD9B
:104E20000E942DFF8091211683FD02C00C942A3030
:104E300060E080E50E9424E4182F682F8091FF171E
:104E4000909100180E94E0B683E50E9408E4882350
:104E500021F00E9450E30E9482B10E9460B51111BE
:104E60000C942A300E94C6FD0C942A300E94E964FA
:104E70006C8F7D8F8E8F9F8FBE016F5F7F4FCE01B6
:104E80004C960E94A3B060E0CE0101960F945E297B
:104E90000E94CFEBBE016F5F7F4F8FE196E00E94D3
:104EA000B8EB8AE00E9454470C942A306DE070E021
:104EB00080E50E9415E48C0197FF02C00C942A3013
:104EC000E82E60E089E40E9424E481110C9493317F
:104ED000802F0F94BA4C81113EC60C94933180916F
:104EE000F50F813011F00C942A3082E08093F50F99
:104EF0000F948B2F6093240F7093250F8093260FB0
:104F00009093270F0C942A300E9422FE0C942A3092
:104F100060E070E083E50E9415E48E34910531F481
:104F20000E9493FE0F94C21D0C942A3084E996E0EF
:104F30000E9402E76091EB047091EC048BE896E02C
:104F40000E9485E96091ED047091EE048EE796E091
:104F50000E9485E96091EB047091EC048091ED046E
:104F60009091EE04681B790B8091F50F815021E040
:104F700030E0823010F020E030E0621B730B83E7FA
:104F800096E00E9485E98AE00E94544784E996E011
:104F90000E9402E78091EF049091F004A091F10447
:104FA000B091F2048C8F9D8FAE8FBF8FBE016F5F6B
:104FB0007F4FCE014C960E94A3B0BE016F5F7F4F22
:104FC00086E696E00E94B8EB8091F3049091F40499
:104FD000A091F504B091F6048C8F9D8FAE8FBF8F9A
:104FE000BE016F5F7F4FCE014C960E94A3B0BE0101
:104FF0006F5F7F4F86E596E00E94B8EB20E030E0DF
:105000004AE754E46091F7047091F8048091F90440
:105010009091FA040F944564AB01BC018EE396E0D5
:105020000E9492E98DE60E9454478AE00E9454470C
:105030000C942A308091BE0E83FF02C00C942A305B
:105040000F94C54987FF02C00C942A3089E40E945E
:1050500008E4882311F40C94D0310E9460E390E0BE
:105060001816190614F481E090E026E0289FF0015C
:10507000299FF00D1124E45DFE4E808191810C94F6
:10508000DA318091BE0E83FDE5C70F94C549F82E35
:1050900087FDE0C789E40E9408E4082F882311F403
:1050A0000C94E3310E9460E390E01816190614F4A2
:1050B00081E090E026E0289FF001299FF00D112467
:1050C000E45DFE4E8081918110E00C94F3310F94E9
:1050D000C549182F87FDC2C788E690E20E9402E703
:1050E000812F0F9420058AE00E945447B7C760E0E3
:1050F00080E50E944A74F82EF1E0F81708F4AAC778
:1051000081E40E94BFE3882329F06091A908062F5B
:1051100010E002C00FEF10E089E40E9408E4882349
:1051200099F00E9460E390E01816190614F481E0EB
:1051300090E026E0289FF001299FF00D1124E45D06
:10514000FE4E0481158108C083E50E9408E488238F
:1051500019F00E9450E38B01EF2DF0E0E755F74F77
:10516000B8010F3F110519F010F06FEF70E0608388
:1051700071C760E080E50E944A74823008F06AC717
:10518000E82FF0E0E755F74F108264C78EE40E94E5
:1051900008E4882309F45EC70E9450E360939F07E8
:1051A0007093A0078093A1079093A20753C783E54C
:1051B0000E94BFE3882331F060E083E50E944A74D7
:1051C0008093BE0E0E94CFEB85EA96E00E9402E734
:1051D0008091BE0E882369F107E6E02E0AE0F02EEA
:1051E00000E010E020E08091BE0E90E0A0E0B0E092
:1051F000002E04C0B695A795979587950A94D2F787
:1052000080FF0EC0DD24D394D20E222319F08CE24D
:105210000E945447F701859194910E9402E72D2D39
:105220000F5F1F4F32E0E30EF11C06301105D9F677
:10523000ACCD81EA96E0A7CD1092E4101092300236
:1052400009C783E50E9408E4882371F00E9460E3A7
:10525000282F30E02D3331051CF480930002FAC66C
:105260008CE380930002F6C60E94CFEB40910002CF
:1052700050E060E070E08AEB96E00E9474E98AE01A
:105280000E945447E7C68091BE0E83FDE3C689E4C1
:105290000E9408E4882311F40C943D320E9460E3DC
:1052A00090E01816190614F481E090E026E0289F9B
:1052B000F001299FF00D1124E45DFE4E828193815F
:1052C0000C9448328091BE0E83FDC4C689E40E94CE
:1052D00008E4882311F40C944F320E9460E390E0BC
:1052E0001816190614F481E090E026E0289FF001DA
:1052F000299FF00D1124E45DFE4E8281938110E020
:105300000C94603283E50E9408E4882309F4A2C665
:105310000E9460E3182F90E0CD970CF01CE31093EF
:1053200058030F948B2F6B017C01212F30E0A8EEE6
:10533000B3E00F94F162C60ED71EE81EF91EC092AC
:105340005403D0925503E0925603F092570382C65D
:105350000F94CA050E9422FE0E943DFF0E94BE4695
:1053600068EE73E080E090E00E94D3E660E08FEDAD
:1053700096E00F94E9286EC68091F60F8F7E8062CA
:105380008093F60F67C683E50E9408E48823E9F05E
:105390000F948B2F6093880F7093890F80938A0FDF
:1053A00090938B0F0E9488E320E030E04AE754E4BA
:1053B0000F94AD5C0F94BE6460930102709302027F
:1053C000809303029093040245C68091130784FFE3
:1053D00002C00C9489328091150787FF02C00C949B
:1053E000893280911607837011F00C9489320C94E5
:1053F000BA3283E50E94BFE3882309F42BC60F94D9
:105400008B2F6093880F7093890F80938A0F9093EE
:105410008B0F0E9488E320E030E04AE754E40F94C9
:10542000AD5C0F94BE646093590370935A038093EC
:105430005B0390935C030EC60F94C54987FD0AC6B3
:105440009091130794FD04C09091150797FF0AC02F
:10545000BBECCB2EB2E0DB2E1FEBE12E1EE0F12EDB
:1054600010E009C090911607937091F7682F81E0C2
:105470000F94D74BEFC5D6018D916D010E9408E4C2
:10548000882309F46DC0133009F063C00E9488E3DB
:105490004B015C0120E030E040EA51E40F94475CAE
:1054A00087FF4EC0A50194016091DF0E7091E00E60
:1054B0008091E10E9091E20E0F9445642B013C0126
:1054C0009B01AC0160918D0870918E0880918F08CE
:1054D000909190080F94AD5C60938D0870938E0846
:1054E00080938F0890939008A30192016091EF0E32
:1054F0007091F00E8091F10E9091F20E0F94AD5CD0
:105500006093EF0E7093F00E8093F10E9093F20E75
:1055100060919D0870919E0880919F089091A008CD
:105520000F944C5CA30192010F94AD5C0F94BE6488
:1055300060939D0870939E0880939F089093A008A5
:105540008092DF0E9092E00EA092E10EB092E20EF9
:1055500007C00E9488E3F701648B758B868B978B5D
:105560001F5FF4E0EF0EF11C143009F084CF0E94AD
:1055700009FF70C50E9462FB8DEC95E10F94DA0C77
:1055800069C58091FF1790910018009709F4A8CB86
:10559000DC012C91222309F4A3CB60E00F945E2957
:1055A00059C50091FF171091001894E0F12C40E0CC
:1055B000915021F1F8018081282F2B7F213421F493
:1055C00021812133D9F407C08035C1F48181805312
:1055D0008A3048F013C0813421F0853421F441E051
:1055E00002C0FF24F39498012E5F3F4F89012F5F83
:1055F0003F4FF80180818032C9F3DACF41110E9418
:10560000CFEBFF2021F083E199E00E9402E7C8017F
:105610000E945F481FC50E94FA611CC581E080930B
:10562000FC048093FB040E94236214C560E070E0D8
:1056300083E50E9415E4823038F00E94CBEB87E1CD
:1056400099E00E9402E706C58C01112788E40E94B8
:1056500008E48823E1F00E9484E38A3A910544F04B
:105660000E9484E38530914034F40E9484E305C0B5
:105670008AEA90E002C084E091E026E0209FF001F9
:10568000219FF00D1124E45DFE4E9183808382E41E
:105690000E9408E48823D9F00E9484E3059744F02F
:1056A0000E9484E38D38910534F40E9484E305C0A0
:1056B00085E090E002C08CE890E026E0209FF001B9
:1056C000219FF00D1124E45DFE4E9383828386E4D6
:1056D0000E9408E4882309F4BDC40E9484E397FD76
:1056E00009C00E9484E38F3F910509F034F40E94C1
:1056F00084E305C080E090E002C08FEF90E026E0F8
:10570000209FF001219FF00D1124E45DFE4E958352
:105710008483A0C40F94C549182F87FD9BC40091B2
:10572000071084E40E9408E4882309F426C70E9435
:1057300088E36B017C0120E030E0A9010F94475C15
:10574000882339F124E01202F0011124ED5FFF4EAD
:10575000C082D182E282F38220E030E0A901609130
:1057600003107091041080910510909106100F9411
:10577000475C81110CC080E090E0A0EEBFE3809315
:10578000031090930410A0930510B093061001E04D
:10579000F4C680E0809307100E94CAFC5BC40F949B
:1057A000C54987FD57C4ABECEA2EA2E0FA2E0FEBF9
:1057B0001EE0D7018D917D010E94BFE3882359F03F
:1057C0000E9488E30F94BE64F80160837183828332
:1057D00093830E94C2FE0C5F1F4FFEE00F3C1F0729
:1057E00041F738C40F94C54987FD34C4EBECEE2E65
:1057F000E2E0FE2E0FEB1EE0FFECCF2EFEE0DF2EF0
:10580000D7018D917D010E94BFE3882339F00E946A
:1058100088E3F80164A375A386A397A30C5F1F4FC9
:10582000C016D10669F716C48091140787FDAAC671
:10583000809115078E7009F0A5C64091F30E509126
:10584000F40E6091F50E7091F60E89E399E00E94D6
:1058500092E94091F70E5091F80E6091F90E709117
:10586000FA0E83EF97E30E9492E94091FB0E50916C
:10587000FC0E6091FD0E7091FE0E88ED99E30E9482
:1058800092E98AE00E945447E5C380911307827130
:1058900009F0BEC6809115078C7809F0B9C68091D1
:1058A0001607837009F0B4C6D5C3C0900E02D0901D
:1058B0000F02E0901002F09011028091120290917C
:1058C0001302A0911402B09115028AA79BA7ACA75E
:1058D000BDA740906408509065086090660870907D
:1058E0006708A301920160910A0270910B028091F6
:1058F0000C0290910D020F944B636C8F7D8F8E8FF5
:105900009F8F8090680890906908A0906A08B09076
:105910006B08A5019401C701B6010F944B6368A3FE
:1059200079A38AA39BA3C0906C08D0906D08E090E7
:105930006E08F0906F08A70196016AA57BA58CA55B
:105940009DA50F944B636CA37DA38EA39FA3809111
:105950001A0290911B02A0911C02B0911D028AA70D
:105960009BA7ACA7BDA780911E0290911F02A0919A
:105970002002B09121028EA79FA7A8ABB9ABA301CB
:105980009201609116027091170280911802909115
:1059900019020F944B6369837A838B839C832AA5B6
:1059A0003BA54CA55DA5C501B4010F944B636D8368
:1059B0007E838F8398872EA53FA548A959A9C70143
:1059C000B6010F944B6369877A878B879C870E9407
:1059D000CFEB8BE899E00E9402E783E50E94BFE3EA
:1059E000882321F00E9474E3809322028091220296
:1059F000882319F089E395E002C085E398E00E94CE
:105A000002E74DE553E363E879E0CE014C960E944E
:105A1000EDEA40E050E06BE779E0CE0101960E94AC
:105A2000EDEA18C383E50E9408E4882331F00E9460
:105A300084E3909324028093230280911307909132
:105A40001407A0911507B0911607892B8A2B8B2B71
:105A500009F000C360912302709124028BE999E060
:105A60000E94ABEB85E20E9454478AE00E945447B3
:105A7000F1C20F94C549F82E87FDECC283E50E9460
:105A800008E40F2D0F2C000C110B882361F10E94EC
:105A900084E3F801EE0FFF1FE65AFD4F91838083E8
:105AA000000F111F000F111FD801AC5BBD4F7D010E
:105AB000BC01990F880B990B0F944E5C2AE037EDCF
:105AC00043E25CE30F94AD5CF801E85EF04F2081A7
:105AD0003181428153810F94AD5CF7016083718302
