:100000000C94F81E0C94291F0C94291F0C94291F82
:100010000C94291F0C94291F0C94291F0C94291F40
:100020000C94291F0C94291F0C94291F0C94291F30
:100030000C94291F0C94F1980C94291F0C94291FDF
:100040000C94291F0D94EF310C94291F0C94291F37
:100050000C94291F0C94291F0D9496050C94A798B5
:100060000C94291F0C942A4E0C94204E0C94291F9A
:100070000C94291F0C94291F0C94291F0C94291FE0
:100080000C94291F0C94291F0C94291F0C94291FD0
:100090000C94291F0C94291F0C94291F0C94291FC0
:1000A0000C94291F0C94291F0C94291F0C94291FB0
:1000B0000C94291F0C94291F0C94291F0C94291FA0
:1000C0000C94291F0C94291F0C94291F0C94291F90
:1000D0000C94291F0C94291F0C94291F0C94291F80
:1000E0000C94291FC201EE003C014201F800960168
:1000F000DA01F0005C014601E601A0011401C8012B
:10010000960140012001580122019801CE019E0173
:10011000FE00EA017401E201BA01CC01F6008E0191
:100120004A01E400EA0110012A01C001084AD73B54
:100130003BCE016E84BCBFFDC12F3D6C74319ABDB6
:1001400056833DDA3D00C77F11BED9E4BB4C3E91DA
:100150006BAAAABE000000803F05A84CCDB2D44EC9
:10016000B93836A9020C50B9918688083CA6AAAACB
:100170002ABE000000803F000C945DD30C94CAA7F7
:100180000D94B7110C943AB40C943B980C94F9402C
:100190000C94613F0C94BCA30C9423410C94AB3998
:1001A0000C9433A30D94C8240C9424A30C944A46B5
:1001B0000C94D4520C9441D60D94CC240D94E1248B
:1001C0000C94C1A30C943CDA0D94212F0C9422D6EC
:1001D0000C947FDA0D94EC040C94A23F0D94622CE5
:1001E0000D946A2C0C9459460C944E3F0D94FE2E9F
:1001F0000D945B2C0C940CA30D94A30D0D94D02E98
:100200000C9447D60C94F3400C9478980C94EDA37E
:100210000C94203F0C944BD30C9428410C941ED684
:100220000D942B2F0C94DAB30D94822C0C9462381D
:100230000C94B13F0C9448980C943DA40C94E7A303
:100240000D94902C0D94B22E0C941D410C94734E71
:100250000D94690D0D94352F0D94E5240C9403DB5A
:100260000C94FBDA0C94754E0C9446410C946EA9D8
:100270000C940B410C9426DD0D94512C0C942EA360
:100280000D948C2C0D94552C0C941E510D94742CA3
:100290000C9453D60D94172F0C94D6520C94CE5226
:1002A0000C947A3F0C9437410C9430380C940BDB4F
:1002B0000D94942C0C941AD80D94702C0C945C987A
:1002C0000C9436A40C94BC3E0C9429A30D943429B0
:1002D0000C94DBB30C946BA90D94D1550C94F7429C
:1002E0000C94FF400C94073F0D94DA2E0C9411D31C
:1002F0000C94933F0C94CEFC0C941DA30C94E4A698
:100300000C946D410C94714E0C942ED60C94F2DA30
:100310000C9411980C94ED400D9421290D94082F04
:100320000D94740D0C94D53E0C94DBA30D94992C74
:100330000D94B72E0C94774E0C9455410D94C62E07
:100340000D947E2C0C94EE3E0C9490330C943B3F19
:100350000C949EDA0D9448130C9426D80C944DD628
:100360000C94794E0C94D2520C943AA50C94E14F13
:100370000C94E1A30D94EA2E0C943DD30D94B35547
:100380000D943F2F0D945F2C0D944A130C9405414E
:100390000D94862C0C9417A30D94F42E0D94BC2E62
:1003A0000D9477240C940C440C94B7A30C9453DF55
:1003B0000D94460D0D94662C0C94BCDB0C941741E7
:1003C0000C9464410D94E22E0D94970D0D94782CAD
:1003D0000C9424D30D94492F0D94DD240C941FA369
:1003E0000C94D0520C9411410C943C440C943EDA81
:1003F0004E414E494E495459494E46CDCCCC3D0A0A
:10040000D7233C17B7D13877CC2B329595E6241FEC
:10041000B14F0A000020410000C84200401C4620A5
:10042000BCBE4CCA1B0E5AAEC59D7400407A10F378
:100430005A00A0724E18090010A5D4E80000E87612
:1004400048170000E40B54020000CA9A3B00000069
:10045000E1F505000080969800000040420F000082
:1004600000A08601000000102700000000E8030043
:100470000000006400000000000A0000000000010D
:1004800000000000002C76D888DC674F0823DFC10D
:10049000DFAE59E1B1B796E5E3E453C63AE65199C8
:1004A0007696E8E6C28426EB898C9B62ED407C6FF1
:1004B000FCEFBC9C9F40F2BAA56FA5F490055A2AA8
:1004C000F75C936B6CF9676DC11BFCE0E40D47FEB4
:1004D000F520E6B500D0ED902E03009435770500A9
:1004E00080841E080000204E0A000000C80C333330
:1004F00033330F986E12831141EF8D2114893BE63F
:100500005516CFFEE6DB18D1844B381BF77C1D90C7
:100510001DA4BBE424203284725E228100C9F12430
:10052000ECA1E53D274C4556454C494E4700434F0D
:100530004D4D554E49434154494F4E004452595236
:10054000554E004552524F525300494E464F0045BA
:1005500043484F0047322F47332062616420706167
:1005600072616D65746572730A00536C6565702EF7
:100570002E2E003E20686F6D696E67206E6F7420AE
:100580006E65656465642C20736B69700A004D6547
:10059000736820706F696E74206F7574206F6620A9
:1005A00072616E67650A00436C69636B20746F202B
:1005B000526573756D652E2E2E004E6F204D6F7631
:1005C000652E00456E642066696C65206C697374E5
:1005D0000A00426567696E2066696C65206C697304
:1005E000740A00286E6F2066696C65290043757275
:1005F00072656E742066696C653A20005344207001
:1006000072696E74696E67206279746520004E6F3E
:1006100074205344207072696E74696E670A0050CA
:1006200072696E742074696D653A2000496E766156
:100630006C69642050696E204D6F64650A000A532E
:10064000746174733A2046696C616D656E742075CF
:100650007365643A20002C204C6F6E6765737420BC
:100660006A6F623A2000546F74616C2074696D6522
:100670003A20002C204661696C65643A20002C20E9
:1006800046696E69736865643A20005072696E74D9
:10069000733A200053746174733A20004520255347
:1006A000006F66660044454255473A004D3131328D
:1006B0002053687574646F776E004D313133205369
:1006C0000042656420436F6F6C696E672E2E2E00AA
:1006D0004265642048656174696E672E2E2E00485D
:1006E000453344204B323030204F46462E0043489D
:1006F000414D4245525F54454D504552415455522B
:100700004500424142595354455050494E470041DB
:10071000524353004D4F54494F4E5F4D4F44455344
:1007200000544845524D414C5F50524F544543543C
:10073000494F4E004C4F4E475F46494C454E414D48
:1007400045004155544F5245504F52545F53445FFA
:100750005354415455530053444341524400505262
:100760004F4D50545F535550504F525400454D45D6
:100770005247454E43595F50415253455200434101
:1007800053455F4C494748545F4252494748544E8D
:1007900045535300544F47474C455F4C49474854D5
:1007A0005300534F4654574152455F504F5745529F
:1007B000004255494C445F50455243454E54004C0D
:1007C0004556454C494E475F44415441005A5F509D
:1007D000524F42450052554E4F5554004155544FCB
:1007E0004C4556454C005052494E545F4A4F4200CA
:1007F00050524F4752455353004155544F52455064
:100800004F52545F54454D5000564F4C554D455432
:100810005249430042494E4152595F46494C455F57
:100820005452414E534645520053455249414C5F44
:10083000584F4E5F584F4646004649524D57415219
:10084000455F4E414D453A4D61726C696E2062754F
:10085000676669782D322E302E78202853657020F7
:10086000203220323032302030363A30373A343786
:100870002920534F555243455F434F44455F5552DE
:100880004C3A68747470733A2F2F67697468756294
:100890002E636F6D2F4D61726C696E4669726D7754
:1008A0006172652F4D61726C696E2050524F544FCA
:1008B000434F4C5F56455253494F4E3A312E3020EC
:1008C0004D414348494E455F545950453A48453398
:1008D00044204B3230302045585452554445525FE5
:1008E000434F554E543A3120555549443A63656457
:1008F00065326132662D343161322D343734382D12
:10090000396231322D6335356336326633363766B8
:10091000660A002F2F20004D31343520533C696E7C
:100920006465783E206F7574206F662072616E6713
:10093000652028302D31290A00416363656C65729A
:100940006174696F6E3A2050005741524E494E47CC
:1009500021204C6F77205A204A65726B206D617997
:10096000206C65616420746F20756E77616E7465AC
:1009700064207061757365732E0A0020204D6178C4
:100980003A200020204D696E3A2000536F66742093
:10099000656E6473746F70733A200046523A00209B
:1009A000466C6F773A200050726F746563746564AB
:1009B0002050696E0A0020643A0020693A002070D5
:1009C0003A006469730043290A0061626C6564201F
:1009D000286D696E2074656D702000436F6C642013
:1009E00065787472756465732061726520004D349A
:1009F000323120696E636F72726563742070617248
:100A0000616D657465722075736167650A0045459F
:100A100050524F4D204F4B0A005D203D2000646531
:100A20006C74615F656E6473746F705F61646A5B40
:100A3000004D36363600506F7765722D6C6F7373CC
:100A4000207265636F766572792000446F6E652051
:100A50007072696E74696E672066696C650A004D14
:100A60003737004D3331004F054A0543053C052E0D
:100A7000052505456E636C6F73757265004D6F7665
:100A8000696E672E2E2E0046696C2E204469612EF9
:100A9000004520696E206D6DC2B3002002204661C2
:100AA0006374002002204D6178002002204D696EA1
:100AB000004175746F74656D7000452073746570C6
:100AC000732F6D6D00432053746570732F6D6D002F
:100AD000422053746570732F6D6D0041205374650F
:100AE00070732F6D6D00496E69740046696C616D9D
:100AF000656E740050726F6265204F666673657430
:100B00007300416363656C65726174696F6E005652
:100B1000656C6F63697479005A2056616C75650065
:100B2000496E646578205900496E646578205800E4
:100B300045646974204D657368004C6576656C206A
:100B4000426564004732380A473239004572726F95
:100B5000722077726974696E6720746F2045455002
:100B6000524F4D210A004D343130004D31313200A9
:100B70004D3130380053544F505045442E200050D2
:100B800072696E7465722073746F7070656420642E
:100B9000756520746F206572726F72732E204669BE
:100BA0007820746865206572726F7220616E6420AF
:100BB000757365204D39393920746F2072657374EF
:100BC0006172742E202854656D706572617475723F
:100BD000652069732072657365742E2053657420D7
:100BE00069742061667465722072657374617274D1
:100BF000696E67290A004E6F20436865636B7375E1
:100C00006D2077697468206C696E65206E756D6201
:100C100065722C204C617374204C696E653A20001B
:100C2000636865636B73756D206D69736D61746363
:100C3000682C204C617374204C696E653A20004C1E
:100C4000696E65204E756D626572206973206E6FE6
:100C500074204C617374204C696E65204E756D6212
:100C600065722B312C204C617374204C696E653A8F
:100C700020004D313130005344207265616420659D
:100C800072726F720A002121204B494C4C20636123
:100C900075736564206279204B494C4C20627574F1
:100CA000746F6E2F70696E0A002121204B494C4CE5
:100CB0002063617573656420627920746F6F206DA5
:100CC00075636820696E6163746976652074696D07
:100CD00065202D2063757272656E7420636F6D6D73
:100CE000616E643A2000627573793A2070617573A1
:100CF000656420666F7220696E7075740A00627593
:100D000073793A2070617573656420666F7220751F
:100D10007365720A00627573793A2070726F636549
:100D20007373696E670A004D656469612052656D71
:100D30006F766564004D6564696120496E73657204
:100D4000746564004D313030302053003637260250
:100D50003C3D380F2E303E12131A1C180AFF430870
:100D60000907084400015654726176204D696E00EF
:100D7000566D696E00566D6178204500566D61783C
:100D8000204300566D6178204200566D6178204105
:100D900000416D6178204500416D6178204300413C
:100DA0006D6178204200416D6178204100412D54F1
:100DB000726176656C00412D5265747261637400D6
:100DC000416363656C0056652D4A65726B0056433E
:100DD0002D4A65726B0056422D4A65726B00564172
:100DE0002D4A65726B0050726F62652059204F6604
:100DF000667365740050726F62652058204F666696
:100E00007365740053657474696E67732053746FEF
:100E1000726564002062797465733B20637263209D
:100E20000053657474696E67732053746F726564E0
:100E3000202800454550524F4D206461746173690C
:100E40007A65206572726F722E0A002073746F7259
:100E500065642073657474696E677320726574725B
:100E60006965766564202800202863616C63756C71
:100E70006174656429210A0020213D200045455008
:100E8000524F4D20435243206D69736D6174636806
:100E9000202D202873746F726564292000496E64C8
:100EA00065783A2000204D61726C696E3D5638318C
:100EB000290A00454550524F4D2076657273696F7F
:100EC0006E206D69736D61746368202845455052CA
:100ED0004F4D3D005761726E696E673A20436C65F5
:100EE000616E20436972636C652072657175697209
:100EF00065732058590A005761726E696E673A200F
:100F0000526164697573204F7574206F6620526159
:100F10006E67650A003C3C3C207365745F617869CC
:100F2000735F69735F61745F686F6D6528003E3E33
:100F30003E207365745F617869735F69735F617484
:100F40005F686F6D652800686F6D655F64656C74C0
:100F50006100486F6D696E67204661696C65640069
:100F60006F70656E00545249474745524544007AB8
:100F70005F6D6178007A5F6D696E00795F6D617891
:100F800000785F6D6178005265706F7274696E678A
:100F900020656E6473746F70207374617475730A66
:100FA00000000000000000000000009B4342656458
:100FB000204C6576656C696E6720004661696C65DA
:100FC0006420746F20656E61626C652042656420E8
:100FD0004C6576656C696E670A00496E76616C696E
:100FE00064206D6573682E0A003E3E3E0020636FEC
:100FF00072726563746564205A3A0047323920750D
:101000006E636F72726563746564205A3A00203AA9
:10101000203E2070726F62696E6720636F6D706C26
:101020006574650A0050726F62696E6720506F695F
:101030006E740025532025692F25690050726F6258
:10104000696E67206D65736820706F696E7420002B
:10105000202844525952554E2900473239204175B3
:10106000746F20426564204C6576656C696E67001C
:101070003F20284C2C522C462C4229206F7574207E
:101080006F6620626F756E64732E0A003F285629C2
:101090006572626F7365206C6576656C20696D7032
:1010A0006C61757369626C652028302D34292E0AB5
:1010B00000426164205A2076616C75650A004E6FAB
:1010C0002062696C696E65617220677269640A00EA
:1010D0003E204175746F2D6C6576656C206E6F7463
:1010E000206E65656465642C20736B69700A00204E
:1010F000205261646975733A002E486569676874A7
:101100003A004732362048656174696E67204E6F39
:101110007A7A6C65004732362048656174696E677B
:10112000204265640057616974696E6720666F725A
:10113000206865617475702E0A00466978656420C0
:101140004C656E677468205072696D6500446F6EFF
:1011500065205072696D696E67004D616E75616CD6
:10116000207072696D696E672E2E2E004732362010
:1011700043616E63656C6564004C656176696E679A
:1011800020473236003F53706563696669656420A5
:10119000582C5920636F6F7264696E617465206F9B
:1011A0007574206F6620626F756E64732E0A003F3F
:1011B00028522965706561742076616C7565206EB2
:1011C0006F7420706C61757369626C653B206D751E
:1011D0007374206265206174206C656173742031C2
:1011E0002E0A003F537065636966696564206E6FFF
:1011F0007A7A6C652074656D70657261747572655C
:10120000206E6F7420706C61757369626C652E0A54
:10121000003F5370656369666965642066696C6147
:101220006D656E742073697A65206E6F7420706CC2
:1012300061757369626C652E0A003F53706563695E
:1012400066696564207072696D65206C656E67748F
:1012500068206E6F7420706C61757369626C652EA6
:101260000A003F537065636966696564206E6F7A32
:101270007A6C652073697A65206E6F7420706C617A
:10128000757369626C652E0A003F52657472616302
:1012900074696F6E204D756C7469706C696572202D
:1012A0006D75737420626520737065636966696526
:1012B000642E0A003F537065636966696564205255
:1012C000657472616374696F6E204D756C746970BA
:1012D0006C696572206E6F7420706C6175736962E1
:1012E0006C652E0A003F537065636966696564200A
:1012F0006C6179657220686569676874206E6F74C7
:1013000020706C61757369626C652E0A0043292E2A
:101310000A003F53706563696669656420626564AD
:101320002074656D7065726174757265206E6F747E
:1013300020706C61757369626C65202834302D00F3
:10134000473236207374617274696E672E2E2E0ACE
:1013500000203A2073796E635F706C616E5F706F0E
:10136000736974696F6E0A00203A2070726570614B
:1013700072655F666173745F6D6F76655F746F5FD2
:1013800064657374696E6174696F6E0A002020640D
:10139000657374696E6174696F6E3D00203A207ADE
:1013A000206C6F776572206D6F76650A00203A2099
:1013B0007879206D6F76650A00203A207A20726174
:1013C000697365206D6F76650A00203A207A6F6E2A
:1013D0006520626F72646572206D6F76650A002009
:1013E0003A2064616E676572207A6F6E65206D6F5A
:1013F00076650A00203A2064657374696E617469C9
:101400006F6E203D2063757272656E745F706F73CE
:101410006974696F6E0A003E2000646F5F626C6FD2
:10142000636B696E675F6D6F76655F746F00206DCB
:1014300061783A00206D696E3A0041786973200046
:101440005761726E696E673A20486F6D696E6720EA
:1014500042756D702044697669736F72203C20314B
:101460000A005D00646F5F686F6D696E675F6D6F26
:101470007665003C3C3C20686F6D65617869732837
:101480000061646A44697374616E63653A00486F11
:101490006D65203220536C6F773A0A004D6F766588
:1014A00020417761793A0A00486F6D652031204606
:1014B0006173743A0A003E3E3E20686F6D65617844
:1014C000697328000000C8420000C84200009B4326
:1014D0000000C8C20000C8C2000000000A0A0A5585
:1014E00055854255558542555585420000A040001E
:1014F00000A0400000A04000004843000048430016
:10150000009B430101010268747470733A2F2F6DC0
:1015100061726C696E66772E6F7267002062756704
:101520006669782D322E302E78002020506C616E46
:101530006E657242756666657242797465733A20AB
:10154000002046726565204D656D6F72793A200006
:10155000436F6D70696C65643A205365702020326A
:1015600020323032300A00204C6173742055706490
:10157000617465643A20323032302D30382D323586
:10158000207C20417574686F723A20284D61727416
:101590006F6E2042616B7361202D2030382E3238FF
:1015A0002E32303230290A006275676669782D3232
:1015B0002E302E780A004D61726C696E0020536FD8
:1015C0006674776172652052657365740A002057EE
:1015D00061746368646F672052657365740A0020E4
:1015E00042726F776E206F75742052657365740A4E
:1015F000002045787465726E616C20526573657465
:101600000A00506F77657255700A006175746F2516
:10161000632E6700473238004D313030310065723B
:10162000726F722077726974696E6720746F2066BA
:10163000696C650A00446F6E6520736176696E6738
:101640002066696C652E0A004D323900255320252D
:10165000632025632025632025630020583A006518
:101660006E6473746F7073206869743A200070013F
:101670002C0190012701B0012201C0011D01F001E0
:1016800018011002130130020E01600209019002DC
:101690000401C002FF000003FA004003F5008003CC
:1016A000F000D003EB002004E6007004E100E00449
:1016B000DC004005D700C005D2004006CD00D006B2
:1016C000C8008007C3003008BE00F008B900C00998
:1016D000B400B00AAF00B00BAA00D00CA500000EF9
:1016E000A000500F9B00C0109600501291000014F3
:1016F0008C00C0158700B0178200B0197D00D01B88
:101700007800001E730040206E0090226900F024D3
:10171000640040275F0090295A00E02B5500102EEE
:10172000500020304B0010324600E033410090352D
:101730003C001037370070383200A0392D00B03A25
:101740002800A03B2300603C1E00103D1900903D86
:101750001400103E0F00703E0A00C03E0500003F1E
:101760000000403FFBFF803FF6FFC03FF1FF24F445
:10177000D43050C38E20C2A24017828B7011127ACF
:10178000910D816CD90AA861E108C75866076151BB
:1017900043061E4B5D05C145A7041A411104093DCE
:1017A0009803713931034036DB0265339102D4303E
:1017B0005402802E1D02632CEE01752AC501B0284B
:1017C000A001102781018F2564012B244B01E02209
:1017D0003401AC211F018D200D01801FFC00841EEF
:1017E000ED00971DDF00B81CD200E61BC600201BD1
:1017F000BC00641AB200B219A8000A19A0006A1845
:101800009900D117910040178B00B516840031164E
:101810007E00B31579003A157300C7146F00581491
:101820006A00EE1366008813630025135E00C7127A
:101830005B006C12570015125400C1115100701159
:101840004F0021114B00D61049008D104700461063
:10185000440002104200C00F4000800F3E00420FC3
:101860003C00060F3B00CB0E3800930E37005C0E99
:101870003500270E3400F30D3200C10D3100900DFC
:101880003000600D2E00320D2D00050D2C00D90CFE
:101890002B00AE0C2900850C29005C0C2700350CB0
:1018A00027000E0C2600E80B2400C40B2400A00B1C
:1018B00023007D0B23005A0B2100390B2100180B4C
:1018C0002000F80A1F00D90A1E00BB0A1E009D0A4C
:1018D0001D00800A1D00630A1C00470A1B002C0A19
:1018E0001B00110A1A00F7091A00DD091900C409C2
:1018F0001900AB091900920917007B091800630948
:1019000017004C09160036091600200916000A09AE
:101910001500F5081500E0081400CC081400B808FC
:101920001400A4081400900813007D0812006B082E
:10193000130058081200460812003408110023084A
:1019400011001208110001081100F0071000E00753
:101950001000D0071000C0071000B0070F00A1074B
:10196000100091070E0083070F0074070F00650732
:101970000E0057070E0049070E003B070D002E070B
:101980000E0020070D0013070D0006070D00F906D5
:101990000C00ED060D00E0060C00D4060C00C80695
:1019A0000C00BC060C00B0060C00A4060B00990647
:1019B0000C008D060B0082060B0077060B006C06F0
:1019C0000B0061060A0057060B004C060A0042068F
:1019D0000A0038060A002E060A0024060A001A0623
:1019E0000A001006090007060A00FD050900F405B3
:1019F0000900EB050900E2050900D9050900D00539
:101A00000900C7050900BE050900B5050800AD05B8
:101A10000800A50509009C050800940508008C0530
:101A20000800840508007C050800740508006C05A2
:101A30000700650508005D050700560508004E050E
:101A40000700470507004005080038050700310575
:101A500007002A050700230507001C0506001605D8
:101A600007000F0507000805060002050700FB0434
:101A70000600F5040700EE040600E8040600E20490
:101A80000700DB040600D5040600CF040600C904E5
:101A90000600C3040600BD040600B7040600B10436
:101AA0000500AC040600A6040600A00405009B0483
:101AB000060095040500900406008A0405008504CC
:101AC0000500800406007A04050075040500700412
:101AD00005006B04050066040500610405005C0454
:101AE000050057040500520405004D040500480494
:101AF0000500430405003E0404003A0405003504D3
:101B00000500300404002C0405002704040023040D
:101B100005001E0404001A04040016040500110444
:101B200004000D040400090405000404040000047A
:101B30000400FC030400F8030400F4030400F003B1
:101B40000400EC030400E8030400E4030400E003E1
:101B50000400DC030400D8030400D4030400D00311
:101B60000400CC030400C8030300C503030024F4ED
:101B700004D9201BC40C5C0E9804C4095F026507DD
:101B80007101F405F900FB04B30048048700C103A8
:101B900069005803550003034500BE023A00840261
:101BA000310053022A002902250004022000E4012A
:101BB0001C00C8011900AF0117009801140084012E
:101BC0001300710110006101100051010E0043016A
:101BD0000D0036010B002B010B0020010B0015013D
:101BE00009000C01090003010800FB000800F300D4
:101BF0000800EB000700E4000600DE000600D80045
:101C00000600D2000600CC000500C7000500C20097
:101C10000500BD000400B9000400B5000400B100D7
:101C20000400AD000400A9000400A5000300A20008
:101C300003009F0004009B00030098000300950030
:101C4000020093000300900003008D0002008B004F
:101C50000300880002008600020084000300810067
:101C600002007F0002007D0002007B00020079007C
:101C7000020077000100760002007400020072008A
:101C80000100710002006F0002006D0001006C0095
:101C900002006A000100690002006700010066009E
:101CA00001006500010064000200620001006100A3
:101CB0000100600001005F0002005D0001005C00A7
:101CC00001005B0001005A000100590001005800AA
:101CD00001005700010056000100550001005400AA
:101CE00001005300000053000100520001005100A8
:101CF0000100500001004F0001004E0000004E00A6
:101D000001004D0001004C0001004B0000004B00A1
:101D100001004A000100490001004800000048009D
:101D20000100470001004600000046000100450098
:101D30000000450001004400010043000000430092
:101D4000010042000000420001004100000041008B
:101D50000100400001003F0000003F0001003E0084
:101D600000003E0001003D0000003D0001003C007D
:101D700000003C0000003C0001003B0000003B0074
:101D800001003A0000003A0001003900000039006B
:101D90000100380000003800000038000100370062
:101DA0000000370001003600000036000000360059
:101DB000010035000000350000003500010034004E
:101DC0000000340000003400010033000000330044
:101DD0000000330001003200000032000000320039
:101DE000010031000000310000003100010030002E
:101DF000000030000000300001002F0000002F0024
:101E000000002F0000002F0001002E0000002E0017
:101E100000002E0001002D0000002D0000002D000C
:101E200000002D0001002C0000002C0000002C0000
:101E300000002C0001002B0000002B0000002B00F4
:101E400000002B0001002A0000002A0000002A00E8
:101E500000002A00010029000000290000002900DC
:101E600000002900000029000100280000002800CF
:101E700000002800000028000000280001002700C2
:101E800000002700000027000000270000002700B6
:101E900001002600000026000000260000002600A9
:101EA000000026000100250000002500000025009C
:101EB000000025000000250000002500010024008E
:101EC0000000240000002400000024000000240082
:101ED0000100230000002300000023000000230075
:101EE0000000230000002300000023000100220066
:101EF000000022000000220000002200000022005A
:101F0000000022000100210000002100000021004B
:101F1000000021000000210000002100000021003D
:101F20000100200000002000000020000000200030
:101F30000000200000002000000020000000200021
:101F400001001F0000001F0000001F0000001F0014
:101F500000001F0000001F0000001F0001001E0005
:101F600000001E0000001E0000001E0000003930AE
:101F700000003325000087190000B00F0000DB08C7
:101F80000000BD040000740200003F0100004F6625
:101F900066004F6E004D6F74696F6E004D383400EF
:101FA0004175746F20486F6D650054656D70657282
:101FB00061747572650041425300504C4100467295
:101FC000656520585900536F667420456E647374BC
:101FD0006F70730044697361626C6520537465703F
:101FE00070657273005072656865617420242042C8
:101FF00065640050726568656174202420456E64D4
:1020000000436F6F6C646F776E0050726568656136
:1020100074202400BA1FB61F50726F6265204F668D
:10202000667365742058003F5A206F7574206F6680
:102030002072616E67652028003F59206F757420FB
:102040006F662072616E676520282D0020746F20F6
:10205000003F58206F7574206F662072616E67654F
:1020600020282D00656E7175657565696E67202283
:10207000006F6B00526573656E643A2000256979C4
:1020800020256964202569682025696D20256973EC
:102090000023646566696E652044454641554C548D
:1020A0005F004B6420004B6920004B7020005049BA
:1020B00044204175746F74756E652066696E69732E
:1020C000686564212050757420746865206C6173A4
:1020D00074204B702C204B6920616E64204B64206F
:1020E000636F6E7374616E74732066726F6D2062BD
:1020F000656C6F7720696E746F20436F6E666967D9
:1021000075726174696F6E2E680A005049442041EF
:1021100075746F74756E65206661696C65642120E5
:1021200074696D656F75740A000A20436C6173737E
:10213000696320504944200A00204B643A20002063
:102140004B693A2000204B703A20002054753A2009
:1021500000204B753A2000206D61783A2000206DF8
:10216000696E3A200020643A200020626961733A67
:102170002000504944204175746F74756E6520735A
:10218000746172740A00504944204175746F74750B
:102190006E65206661696C6564212054656D7065AB
:1021A00072617475726520746F6F20686967680A60
:1021B00000504944204175746F74756E6500504934
:1021C00044204175746F74756E65206661696C6535
:1021D00064212042616420657874727564657220A0
:1021E0006E756D6265720A007C4D61726C696E7C01
:1021F000002D2D2D2D2D2D00A10000006900A20025
:1022000000006300B00000000900C10000004100B0
:10221000C20000004100C30000004100C4000000F3
:102220004100C50000004100C60000004145C70054
:1022300000004300C80000004500C9000000450040
:10224000CD0000004900D10000004E00D500000084
:102250004F00D60000004F00D70000007800DC00DF
:1022600000005500DD0000005900E00000006100A2
:10227000E10000006100E20000006100E3000000F6
:102280006100E40000006100E50000006100E6007C
:1022900000006165E70000006300E80000006500E1
:1022A000E90000006500EA0000006500EB000000A6
:1022B0006500EC0000006900ED0000006900EE0020
:1022C00000006900EF0000006900F10000006E00EE
:1022D000F20000006F00F30000006F00F400000047
:1022E0006F00F50000006F00F60000006F00F800BE
:1022F00000006F00F90000007500FA000000750092
:10230000FB0000007500FC0000007500FD000000EF
:102310007900FF0000007900040100004100050180
:102320000000610006010000430007010000630097
:102330000C01000043000D01000063000E010000CD
:1023400044000F0100006400110100006400190145
:10235000000065001A01000045001B010000650037
:102360001F0100006700300100004900310100003A
:102370006900410100004C00420100006C00430173
:1023800000004E00440100006E00480100006E0095
:102390005801000052005901000072005A0100006B
:1023A00053005B01000073005F01000073006001D7
:1023B000000053006101000073006501000074001B
:1023C0006F01000075007C0100007A007D010000B3
:1023D0005A007E0100007A00920100006600E302CC
:1023E00000007800222000002E001E2100005078FE
:1023F00022210000544D902100003C2D922100002C
:102400002D3EB02100000300BB21000004003C224F
:1024100000007E00482200007E3D60220000213D39
:10242000612200003D00642200003C3D6522000066
:102430003E3DF12300000700A03000003D0021F3E5
:1024400001000200C2F401000500A2000000EC003F
:10245000B0000000DF00E4000000E100F600000032
:10246000EF00F7000000FD00FC000000F500E302B3
:102470000000EB0087030000A5008F030000F400BC
:1024800098030000F2009E030000E300A303000095
:10249000F600A9030000F400AC030000E000AD0367
:1024A0000000E300B1030000E000B2030000E2001E
:1024B000B5030000E300B8030000F200BC03000015
:1024C000E400BE030000E300C0030000F700C10306
:1024D0000000E600C3030000E500902100007F003B
:1024E000922100007E001A220000E8001E22000057
:1024F000F30088250000FF0002300000A1000C302E
:102500000000A2000D300000A3009B300000DE00A0
:102510009C300000DF00A03000003D00A130000032
:10252000A700A2300000B100A3300000A800A43032
:102530000000B200A5300000A900A6300000B300E2
:10254000A7300000AA00A8300000B400A9300000A5
:10255000AB00AA300000B500AB300000B600AC30D4
:102560000000B6DEAD300000B700AE300000B7DED0
:10257000AF300000B800B0300000B8DEB13000006D
:10258000B900B2300000B9DEB3300000BA00B43098
:102590000000BADEB5300000BB00B6300000BBDE84
:1025A000B7300000BC00B8300000BCDEB93000001D
:1025B000BD00BA300000BDDEBB300000BE00BC3044
:1025C0000000BEDEBD300000BF00BE300000BFDE38
:1025D000BF300000C000C0300000C0DEC1300000CD
:1025E000C100C2300000C1DEC3300000AF00C43003
:1025F0000000C200C5300000C2DEC6300000C300CB
:10260000C7300000C3DEC8300000C400C93000007D
:10261000C4DECA300000C500CB300000C600CC309C
:102620000000C700CD300000C800CE300000C90057
:10263000CF300000CA00D0300000CADED130000028
:10264000CADFD2300000CB00D3300000CBDED43064
:102650000000CBDFD5300000CC00D6300000CCDE4F
:10266000D7300000CCDFD8300000CD00D9300000DA
:10267000CDDEDA300000CDDFDB300000CE00DC3014
:102680000000CEDEDD300000CEDFDE300000CF0007
:10269000DF300000D000E0300000D100E130000069
:1026A000D200E2300000D300E3300000AC00E430A0
:1026B0000000D400E5300000AD00E6300000D50099
:1026C000E7300000AE00E8300000D600E93000003E
:1026D000D700EA300000D800EB300000D900EC3021
:1026E0000000DA00ED300000DB00EF300000DC001D
:1026F000F2300000A600F3300000DD00F4300000EE
:10270000B3DEF7300000DCDEFA300000A6DEFB307E
:102710000000A500FC300000B000FD300000A40067
:10272000074E0000FB0086510000FC0043530000F0
:10273000FA0064FF0000A40065FF0000A50066FF2A
:102740000000A60067FF0000A70068FF0000A800C7
:1027500069FF0000A9006AFF0000AA006BFF0000EB
:10276000AB006CFF0000AC006DFF0000AD006EFF21
:102770000000AE006FFF0000AF0070FF0000B0006F
:1027800071FF0000B10072FF0000B20073FF000093
:10279000B30074FF0000B40075FF0000B50076FFC1
:1027A0000000B60077FF0000B70078FF0000B80017
:1027B00079FF0000B9007AFF0000BA007BFF00003B
:1027C000BB007CFF0000BC007DFF0000BD007EFF61
:1027D0000000BE007FFF0000BF0080FF0000C000BF
:1027E00081FF0000C10082FF0000C20083FF0000E3
:1027F000C30084FF0000C40085FF0000C50086FF01
:102800000000C60087FF0000C70088FF0000C80066
:1028100089FF0000C9008AFF0000CA008BFF00008A
:10282000CB008CFF0000CC008DFF0000CD008EFFA0
:102830000000CE008FFF0000CF0090FF0000D0000E
:1028400091FF0000D10092FF0000D20093FF000032
:10285000D30094FF0000D40095FF0000D50096FF40
:102860000000D60097FF0000D70098FF0000D800B6
:1028700099FF0000D9009AFF0000DA009BFF0000DA
:10288000DB009CFF0000DC009DFF0000DD009EFFE0
:102890000000DE009FFF0000DF00E5FF00005C009D
:1028A000001C1F11111F00000006191803130C0053
:1028B000040E1F041C000000000E1315110E000072
:1028C0001C10181705060500040A0A0A0A11110E41
:1028D0000C12120C00000000001F1511151F000043
:1028E00000000000010204040000001C1C0C040491
:1028F00004020100000000000408100000000000B5
:102900002053697A653A200043616E6E6F74206FC0
:1029100070656E20737562646972200053442049AB
:102920006E6974204661696C00534420636172646F
:10293000206F6B0A006F70656E526F6F7420666156
:10294000696C65640A00766F6C756D652E696E69D9
:1029500074206661696C65640A004E6F20534420E0
:10296000636172640A004D3234004D3233202573A6
:102970000046696C652073656C65637465640A0064
:1029800046696C65206F70656E65643A2000454E3F
:102990004420535542524F5554494E450A00222077
:1029A000706F73002220706172656E743A2200535A
:1029B0005542524F5554494E452043414C4C20748A
:1029C00061726765743A220053756263616C6C20B2
:1029D0004F766572666C6F770045786365656465F0
:1029E00064206D617820535542524F5554494E45ED
:1029F0002064657074683A310A0044656C657469D6
:102A00006F6E206661696C65642C2046696C653A5E
:102A1000200046696C652064656C657465643A00E5
:102A200057726974696E6720746F2066696C653AC5
:102A30002000667265736800646F696E67004E6F90
:102A40007720007879007A7800797A00207A00205F
:102A500079002078002E2020202000456E6420443C
:102A600052592D52554E004E6F20636F6E7665722F
:102A700067656E636500497465726174696F6E2085
:102A80003A20253032690053617665207769746891
:102A9000204D35303020616E642F6F7220636F706F
:102AA0007920746F20436F6E66696775726174690F
:102AB0006F6E2E680A00253033692E7800302E257F
:102AC0003033690043616C6962726174696F6E20B2
:102AD00073643A00737464206465763A00726F6CB4
:102AE0006C696E67206261636B2E0043616C696282
:102AF000726174696F6E204F4B00436F7272656331
:102B0000742064656C74612073657474696E677396
:102B10002077697468204D36363520616E64204D0B
:102B20003636360A0020284452592D52554E290077
:102B3000436865636B696E672E2E2E204143003F0C
:102B40004265642063616C6962726174696F6E20B2
:102B500072616469757320696D706C617573696207
:102B60006C652E0A00473333204175746F20436132
:102B70006C6962726174650A003F28562965726249
:102B80006F7365206C6576656C20696D706C61751E
:102B90007369626C652028302D33292E0A003F2886
:102BA00046296F72636520697465726174696F6E1E
:102BB00020696D706C61757369626C652028302DB9
:102BC0003330292E0A003F284329616C6962726103
:102BD00074696F6E20707265636973696F6E2069C6
:102BE0006D706C61757369626C6520283E3D30299B
:102BF0002E0A003F2850296F696E747320696D702A
:102C00006C61757369626C652028302D3130292E16
:102C10000A0050726F6265205A204F6666736574B1
:102C200000416476616E6365642053657474696EF7
:102C3000677300547A00547900547800457A00454F
:102C4000790045780046616E2053706565640052D6
:102C50006573746F72652044656661756C7473008A
:102C600050726568656174202420436F6E6600446D
:102C7000656C74612043616C6962726174696F6E26
:102C8000004469616720526F640052616469757322
:102C900000486569676874004C6F6164205365740F
:102CA00074696E67730053746F7265205365747432
:102CB000696E677300506F776572204F7574616736
:102CC0006500436F6E66696775726174696F6E0047
:102CD00043616E63656C0044656C74612053657478
:102CE00074696E6773004175746F2043616C69622B
:102CF000726174696F6E00473333004D313030308C
:102D00000053746F70205072696E74005265737551
:102D10006D65205072696E740053746F7000436863
:102D2000616E6765204D65646961004D3231004E0A
:102D30006F204D656469610054756E650050617562
:102D40007365205072696E7400496E666F2053631C
:102D50007265656E005374617274205072696E748E
:102D60000043616E6E6F7420656E746572207375BA
:102D7000626469723A2000052E2E00506C65617302
:102D800065205265736574005052494E5445522077
:102D900048414C5445440025533A202553004B49A3
:102DA0004C4C45442E20005072696E746572206848
:102DB000616C7465642E206B696C6C2829206361DA
:102DC0006C6C6564210A006563686F3A0045727235
:102DD0006F723A00202864697361626C6564290A25
:102DE0000041424C2041646A7573746D656E7420B5
:102DF0005A002028656E61626C6564290A00416290
:102E00006F76650053616D65205A206173004265DD
:102E10006C6F77004175746F20426564204C657655
:102E2000656C696E673A2042494C494E45415200F3
:102E3000204E6F7A7A6C65290A00202620002D43E7
:102E4000656E746572002D46726F6E74002D42615E
:102E5000636B002028416C69676E65642057697454
:102E6000680020284D6964646C650020284C656604
:102E70007400202852696768740050726F62653A66
:102E8000204649585F4D4F554E5445445F50524F70
:102E900042450A004D616368696E6520547970652A
:102EA0003A2044656C74610A005D0A0045787472CA
:102EB00061706F6C617465205B0042696C696E655E
:102EC0006172204C6576656C696E67204772696433
:102ED0003A0A00203A202E2E2E4E6F77204F4E0AAF
:102EE00000203A204C6576656C696E67204F464637
:102EF0000A00203A202E2E2E4E6F77204F46460A8B
:102F000000203A204C6576656C696E67204F4E0A4A
:102F10000072657365745F6265645F6C6576656C8D
:102F20000A0020746F6F206C6F6E67206578747272
:102F30007573696F6E2070726576656E7465640A6C
:102F40000020636F6C6420657874727573696F6EAE
:102F50002070726576656E7465640A0020453A00DB
:102F600020593A000000000100000001000080002C
:102F7000555555000000400033333300AAAA2A00FB
:102F80004992240000002000C7711C009999190083
:102F9000D1451700555515003BB1130024491200C7
:102FA00011111100000010000F0F0F00E3380E0088
:102FB00043790D00CCCC0C00C3300C00E8A20B0010
:102FC00064210B00AAAA0A00703D0A009DD80900DE
:102FD000427B090092240900DCD30800888808009D
:102FE0001042080000000800F0C1070087870700B2
:102FF00075500700711C07003EEB0600A1BC0600DF
:103000006990060066660600703E060061180600BC
:1030100017F4050074D105005BB00500B2900500FF
:10302000627205005555050078390500B81E050087
:10303000050505004EEC040087D40400A1BD040082
:1030400090A7040049920400C17D0400EE690400C9
:10305000C7560400444404005C3204000821040004
:1030600041100400000004003FF00300F8E00300FA
:1030700026D20300C3C30300CCB503003AA8030063
:103080000A9B0300388E0300C08103009F75030074
:10309000D0690300505E03001D5303003448030051
:1030A000913D03003333030016290300381F03004A
:1030B00097150300300C0300030303000BFA020012
:1030C00049F10200BAE802005CE002002DD80200DB
:1030D0002DD0020059C80200B0C0020031B9020070
:1030E000DAB10200AAAA0200A0A30200BC9C02005E
:1030F000FA9502005C8F0200DF88020082820200E3
:10310000457C02002776020027700200436A020015
:103110007C640200D05E02003F590200C8530200E6
:10312000FFFDFCFAF8F6F4F2F0EEECEAE9E7E5E38D
:10313000E1E0DEDCDAD9D7D5D4D2D0CFCDCBCAC846
:10314000C7C5C3C2C0BFBDBCBAB9B7B6B4B3B2B0CD
:10315000AFADACAAA9A8A6A5A4A2A1A09E9D9C9A29
:1031600099989795949392908F8E8D8B8A89888762
:103170008684838281807F7E7D7B7A79787776757D
:1031800074737271706F6E6D6C6B6A696867666577
:1031900064636261605F5E5D5C5B5A595858575664
:1031A000555453525150504F4E4D4C4B4A4A49483A
:1031B000474646454443424241403F3E3E3D3C3BFC
:1031C0003B3A3938383736353534333232313030AE
:1031D0002F2E2E2D2C2B2B2A292928272726252553
:1031E00024232322212120201F1E1E1D1C1C1B1BEB
:1031F0001A19191818171616151514131312121177
:1032000011100F0F0E0E0D0D0C0C0B0A0A090908F8
:10321000080707060605050404030302020100006F
:1032200050726F62653A3A646F5F7A5F7261697378
:103230006528006465706C6F793A2000203A205050
:10324000726F62653A3A7365745F6465706C6F792A
:1032500065640A0020433A0020423A0020436F751B
:103260006E7420413A00453100626564002C207381
:10327000797374656D2073746F7070656421204874
:1032800065617465725F49443A20004865617469FC
:103290006E67204661696C65640048656174696E9B
:1032A00067206661696C656400202D20496E766137
:1032B0006C6964206578747275646572206E756DD2
:1032C00062657220210A00544845524D414C2052FB
:1032D000554E4157415900546865726D616C2052DA
:1032E000756E61776179004572723A204D4158548C
:1032F000454D50004D415854454D502074726967FA
:103300006765726564004572723A204D494E5445B6
:103310004D50004D494E54454D50207472696767B9
:103320006572656400202F002042403A0020403A38
:103330000046616E205370656564207E004D6169B2
:103340006E00466C6F77002568753A2530326875D7
:103350000025303268753A253032687500534400D4
:10336000202020202020200020573A007C3C3E5E78
:103370002B3D3F2F5B5D3B2C2A225C000009121B7A
:10338000242D363F48415A536C657E7719100B0245
:103390003D342F265158434A757C676E323B2029B5
:1033A000161F040D7A7368615E574C452B22393025
:1033B0000F061D14636A7178474E555C646D767F05
:1033C0004049525B2C253E3708011A137D746F6605
:1033D00059504B42353C272E1118030A565F444D75
:1033E000727B60691E170C053A3328214F465D54E5
:1033F0006B627970070E151C232A31384148535AE5
:10340000656C777E09001B122D243F3658514A43C4
:103410007C756E671019020B343D262F737A616834
:10342000575E454C3B3229201F160D046A637871A4
:103430004E475C55222B3039060F141D252C373E84
:103440000108131A6D647F7649405B523C352E2784
:1034500018110A03747D666F5059424B171E050CF4
:10346000333A21285F564D447B7269600E071C1564
:103470002A233831464F545D626B70795072696E01
:10348000742066726F6D204D6564696100205A3A40
:10349000200020593A200042656420583A2000203C
:1034A0003A200A00202063757272656E745F706F37
:1034B000736974696F6E3D002C20002E2E2E28003B
:1034C000496E76616C6964206578747275646572A2
:1034D0000A005072696E742050617573656400480B
:1034E0006F6D65202573257325732046697273748B
:1034F000002044697363726570616E63793A0032CB
:103500006E642050726F6265205A3A00534C4F57D8
:10351000003173742050726F6265205A3A00464140
:1035200053540050726F62653A3A72756E5F7A5FFB
:1035300070726F62650050726F62696E67204661DB
:10354000696C65640A0050726F62696E672046613B
:10355000696C656400506F736974696F6E204E6F9B
:103560007420526561636861626C650A005F726510
:103570006C6174697665290A0050726F62653A3A27
:1035800070726F62655F61745F706F696E74005016
:10359000726F62653A3A70726F62655F646F776EE0
:1035A0005F746F5F7A002054726967676572656443
:1035B000206561726C792E00204E6F2074726967ED
:1035C0006765722E002050726F6265206661696CBB
:1035D00021202D003C3C3C00220A00556E6B6E6F92
:1035E000776E20636F6D6D616E643A2022004845EE
:1035F0003344204B3230302052656164792E0050C4
:1036000072696E74696E672E2E2E003F00496E69D6
:103610007469616C697A6520454550524F4D005080
:1036200072696E742041626F72746564004D323548
:103630000050617573696E672E2E2E0045455052FD
:103640004F4D2056657273696F6E204572726F72AE
:1036500000454550524F4D20496E646578204572B3
:10366000726F7200454550524F4D204352432045E2
:1036700072726F720049676E6F7265000000210000
:10368000240027002A002D00300033000101000033
:10369000040107010A0100002200250028002B0078
:1036A0002E003100340002010000050108010B0169
:1036B000000020002300260029002C002F003200EB
:1036C00000010000030106010901050505050705C4
:1036D00008080808020202020A0A0808040404048E
:1036E00001010101010101010303030303030303BA
:1036F000040707070C0C0C0C0C0C0C0C0202020249
:1037000006060606060606060B0B0B0B0B0B0B0B31
:1037100001021020200808102040102040800201E3
:1037200002010804020101020408102040808040C8
:1037300020100804020180040201804020100804C7
:103740000201080402010102040810204080010265
:1037500004081020408000000A0B02090C0D0E081E
:10376000070304010000000000000000000000004A
:103770000000000000000000000000000000000049
:103780000000121110000000000000000000000006
:103790000000000000000000000000004D6F766592
:1037A0002025736D6D004D6F766520302E316D6D67
:1037B000004D6F766520316D6D004D6F766520315F
:1037C000306D6D004D6F7665204178697300486FEC
:1037D00074656E6420746F6F20636F6C640045784D
:1037E000747275646572004D6F7665205A004D6F76
:1037F00076652059004D6F766520580020520048AC
:10380000617264636F6465642044656661756C749D
:103810002053657474696E6773204C6F61646564CE
:103820000A003B200020204D3835312058005A2D09
:1038300050726F6265204F66667365740020204D7C
:10384000343133205300506F7765722D4C6F737392
:10385000205265636F766572793A0020204D3330CF
:10386000312050005049442073657474696E677349
:103870003A0020460020204D3134352053004D6160
:1038800074657269616C206865617475702070611F
:1038900072616D65746572733A0020480020204D96
:1038A000363635204C0044656C7461207365747441
:1038B000696E67733A204C3C646961676F6E616C36
:1038C00020726F643E20523C7261646975733E20C1
:1038D000483C6865696768743E20533C7365676D52
:1038E000656E747320706572207365633E2058594D
:1038F0005A3C746F77657220616E676C65207472D4
:10390000696D3E204142433C726F64207472696D60
:103910003E0020204D363636205800456E647374C4
:103920006F702061646A7573746D656E743A0020FF
:103930004A002020473239205720490020204D34AA
:1039400032302053004175746F20426564204C650D
:1039500076656C696E673A0020204D323035204222
:1039600000416476616E6365643A20423C6D696E25
:103970005F7365676D656E745F74696D655F7573A0
:103980003E20533C6D696E5F666565647261746567
:103990003E20543C6D696E5F74726176656C5F6643
:1039A000656564726174653E20583C6D61785F782E
:1039B0005F6A65726B3E20593C6D61785F795F6A22
:1039C00065726B3E205A3C6D61785F7A5F6A657202
:1039D0006B3E20453C6D61785F655F6A65726B3E4A
:1039E0000020540020204D323034205000416363C9
:1039F000656C65726174696F6E2028756E69747389
:103A00002F7332293A20503C7072696E745F616383
:103A100063656C3E20523C726574726163745F61D1
:103A20006363656C3E20543C74726176656C5F61C3
:103A30006363656C3E0020204D3230312058004DCC
:103A40006178696D756D20416363656C6572617441
:103A5000696F6E2028756E6974732F7332293A006E
:103A600020204D3230332058004D6178696D756DDE
:103A7000206665656472617465732028756E69746B
:103A8000732F73293A005374657073207065722028
:103A9000756E69743A0020440020204D3230302089
:103AA00053002044697361626C65640A0046696C66
:103AB000616D656E742073657474696E67733A0026
:103AC00020204D3134392043203B20556E697473DA
:103AD00020696E2043656C736975730A0020286D38
:103AE0006D29002020473231202020203B20556EB8
:103AF00069747320696E206D6D00000048430000FA
:103B0000484300004843000048430000A042000032
:103B1000A0420000A04200005144B80B0000B80BC6
:103B20000000B80B0000B80B00006F70656E2066D7
:103B300061696C65642C2046696C653A2000000060
:103B40002110422063308440A550C660E770088190
:103B500029914AA16BB18CC1ADD1CEE1EFF1311207
:103B6000100273325222B5529442F772D6623993E0
:103B700018837BB35AA3BDD39CC3FFF3DEE3622457
:103B8000433420040114E664C774A44485546AA530
:103B90004BB528850995EEE5CFF5ACC58DD55336E7
:103BA000722611163006D776F6669556B4465BB780
:103BB0007AA719973887DFF7FEE79DD7BCC7C448B7
:103BC000E5588668A7784008611802282338CCC9D0
:103BD000EDD98EE9AFF9488969990AA92BB9F55A47
:103BE000D44AB77A966A711A500A333A122AFDDB20
:103BF000DCCBBFFB9EEB799B588B3BBB1AABA66C17
:103C0000877CE44CC55C222C033C600C411CAEED6F
:103C10008FFDECCDCDDD2AAD0BBD688D499D977E26
:103C2000B66ED55EF44E133E322E511E700E9FFFBF
:103C3000BEEFDDDFFCCF1BBF3AAF599F788F889175
:103C4000A981CAB1EBA10CD12DC14EF16FE1801059
:103C5000A100C230E3200450254046706760B9835C
:103C60009893FBA3DAB33DC31CD37FE35EF3B102A9
:103C70009012F322D2323542145277625672EAB56C
:103C8000CBA5A89589856EF54FE52CD50DC5E234F9
:103C9000C324A01481046674476424540544DBA73C
:103CA000FAB79987B8975FE77EF71DC73CD7D32649
:103CB000F2369106B01657667676154634564CD9CC
:103CC0006DC90EF92FE9C899E9898AB9ABA9445899
:103CD000654806782768C018E1088238A3287DCB9C
:103CE0005CDB3FEB1EFBF98BD89BBBAB9ABB754AE9
:103CF000545A376A167AF10AD01AB32A923A2EFD2C
:103D00000FED6CDD4DCDAABD8BADE89DC98D267C38
:103D1000076C645C454CA23C832CE01CC10C1FEF7B
:103D20003EFF5DCF7CDF9BAFBABFD98FF89F176E88
:103D3000367E554E745E932EB23ED10EF01E436118
:103D4000703A00204D39322058004D32342053252E
:103D50006C642054256C64004739322E3920452587
:103D60007300473120462564004731205A257320CF
:103D700046323030004731205825732059257320B2
:103D8000463330303000473132004D34323020532A
:103D90002569205A2573004D313036205025692081
:103DA000532569004D31303920532569004D313993
:103DB0003020532569004D323030204425730047B0
:103DC00039322E392045300A4732385230004D34CE
:103DD0003230205330205A300020496E76616C69B1
:103DE0006420657874727564657220006C01BE0190
:103DF00011241FBECFEFD1E2DEBFCDBF00E00CBF6C
:103E000013E0A0E0B2E0EEE7FEEC02E00BBF02C080
:103E100007900D92A435B107D9F728E1A4E5B3E0E6
:103E200001C01D92AD30B207E1F71EE1C7EFDEE140
:103E300000E006C021970109802FFE010F94436323
:103E4000C63FD10780E00807A9F70F94E04C0D9416
:103E50002D670C9400002F923F924F925F926F92C9
:103E60007F928F929F92AF92BF92CF92DF92EF920A
:103E7000FF920F931F93CF93DF93CDB7DEB7E597F4
:103E80000FB6F894DEBF0FBECDBF382E20905D0375
:103E900081E080935D03809104188D3409F4CBC3D5
:103EA000843511F40C94FD2F873411F00C942C30D0
:103EB00080910218909103188A31910509F47BC111
:103EC000BCF4843091053CF4823091050CF03FC085
:103ED00097FF31C0ACC38C30910509F40BC185311B
:103EE000910511F40C942E30049709F0A0C3C4C0BE
:103EF0008132910509F408C264F48D31910509F409
:103F00007EC18E31910509F47EC14C9709F08FC3B3
:103F100056C18A35910509F4FBC124F48A9709F446
:103F2000A6C285C38B35910509F4F6C18C35910580
:103F300009F4F7C17CC380918406813011F00C94A0
:103F40002E300F94B6480E94E58A0C942E302091B2
:103F50008406213011F00C942E3011E0029709F004
:103F600010E00F94B64819821A821B821C821D82AF
:103F70001E821F82188682E50E940CE4882309F4C1
:103F80004BC00E948CE36B017C0120E030E0A90172
:103F90000F94485C882309F455C080914A0290919F
:103FA0004B02A0914C02B0914D028AA79BA7ACA7EF
:103FB000BDA780914E0290914F02A0915002B09106
:103FC00051028AAB9BABACABBDAB8090AB0F90907A
:103FD000AC0FA090AD0FB090AE0F4090AF0F5090CF
:103FE000B00F6090B10F7090B20FA50194016AA557
:103FF0007BA58CA59DA50F94485C81110C944D3038
:10400000A30192016AA97BA98CA99DA90F94485C80
:104010008823C1F00C944D3089E40E940CE488237D
:1040200031F00E948CE369837A838B839C838AE4DA
:104030000E940CE4882331F00E948CE36D837E8320
:104040008F83988720E030E0A90169817A818B8194
:104050009C810F94485C81110C94013120E030E088
:10406000A9016D817E818F8198850F94485C8111B3
:104070000C9401310C94143180E50E940CE48823E7
:1040800029F00F94134C6B017C0103C0C12CD12C7F
:10409000760183E50E940CE4882361F00E948CE3A2
:1040A00020E030E04AE754E40F94AE5C0F94BF6424
:1040B0006B017C010E9431FF8091BA10811105C013
:1040C00060E08AE695E00F94EA280F948C2FC60EE4
:1040D000D71EE81EF91E0F948C2FDC01CB018C1922
:1040E0009D09AE09BF09B7FD02C00C942E300E9495
:1040F0008448F1CF0F94571FF82E81110C942E3065
:1041000060E070E080E50F94C54B89A76CE070E03B
:1041100083E50F94C54B88A763E070E084E50F94B6
:10412000C54B8C8F40E050E060ED70E482E50E946A
:104130009FAC69837A838B839C838091150787FF6B
:1041400002C00C941B3180911607837011F00C94FF
:104150001B3111E002E0012B882331F060E08AE599
:104160000E9428E4882311F094E001C090E0092B1C
:104170001091F70F02FFF12E8F2D0E9400EB60E0EF
:1041800085E40E9428E4F0902202809322029E019E
:10419000245E3F4FAE014F5F5F4FBE01685D7F4FB2
:1041A000CE0189960E946568F0922202812F0E94BA
:1041B00000EB0C942E300E94EF7C0C942E3040913A
:1041C000BE0E45FB442740F964E176E1CE0101963D
:1041D0000E94B6738091BE0E85FD0E94A7E9809172
:1041E000BB0F8770873011F00C942B3160E08FE4A7
:1041F0000E9428E481110C945E310C942B310E94B2
:104200005A740C942E302091BE0F3091BF0F409104
:10421000C00F5091C10F60914A0270914B02809182
:104220004C0290914D020F944C63AB01BC0188E5A8
:104230000E949FAC69837A838B839C832091C20FF9
:104240003091C30F4091C40F5091C50F60914E0241
:1042500070914F0280915002909151020F944C63E3
:10426000AB01BC0189E50E949FAC6D837E838F8387
:104270009887BE016B5F7F4FCE0101960E94C47389
:10428000882311F40C942E3080E00E9400EB0E94F1
:104290001A8F84E690E0909324028093230261E0D9
:1042A00085E40E9428E401E021E0482FBE016B5F15
:1042B0007F4FCE0101960F94B6216B017C019B01CB
:1042C000AC010F949266811119C049815A816B81AA
:1042D0007C8187E994E30E9496E94D815E816F813C
:1042E000788582E994E30E9496E9B701A6018DE8FA
:1042F00094E30E9496E98AE00E9458470E94018F49
:104300000E94EE930C942E300E9471BB0C942E30C0
:104310001092F60F0C942E308FE08093F60F0C94D1
:104320002E3080910118882349F1893009F09BC013
:104330002BECA22E22E0B22E3AE4E32E32E0F32E52
:10434000D12C00E010E0D5018D915D010E940CE4BC
:10435000882369F00E948CE3F70160837183828374
:104360009383133011F401E002C0DD24D3941F5F66
:10437000F4E0EF0EF11C143031F76AC02BEC32E0A0
:104380003BA72AA784E6E82E88E0F82E9AE4C92EF7
:1043900092E0D92E00E010E0AAA5BBA58D91BBA7A5
:1043A000AAA70E940CE4882309F447C00E948CE36A
:1043B0002B013C01133049F0F7012081318142810A
:1043C00053810F944B632B013C01D6012D913D91FC
:1043D0004D915C91C301B2010F944B634B015C01A1
:1043E0002DEB37E346E855EB0F94006687FD0AC0D6
:1043F0002DEB37E346E855E3C501B4010F94485C63
:104400001816DCF4133051F44092560250925702C1
:10441000609258027092590201E00FC0A501940108
:10442000F70160817181828193810F944C63D70180
:104430006D937D938D939C9313971F5FB4E0EB0E68
:10444000F11CE4E0CE0ED11C143009F0A5CF05C05C
:10445000DD2019F00E94E09306C0002321F086E5DC
:1044600092E00F9416030E94EE930C942E308091EC
:104470008406813011F00C942E3089E40E940CE403
:10448000E82E882321F00E9488E3082F01C000E075
:104490008AE40E940CE4F82E882321F00E9488E32D
:1044A000182F01C010E0EE2011F00B3020F4FF2097
:1044B00041F01B3030F08EE895E00E9406E70C9446
:1044C0002E3080E1EAE4F2E0ABEABFE001900D9229
:1044D0008A95E1F7EE2019F1602F000F770B880B1A
:1044E000990B0F944F5C209123113091241140912E
:1044F0002511509126110F94AE5C20912504309126
:10450000260440912704509128040F944C63609333
:10451000AB0F7093AC0F8093AD0F9093AE0FFF2055
:1045200019F1612F110F770B880B990B0F944F5CCA
:1045300020912711309128114091291150912A1171
:104540000F94AE5C2091290430912A0440912B04F1
:1045500050912C040F944C636093AF0F7093B00F85
:104560008093B10F9093B20F60E080E50E9428E441
:104570008823C1F1EE20D1F02091BE0F3091BF0F02
:104580004091C00F5091C10F6091AB0F7091AC0F73
:104590008091AD0F9091AE0F0F944B636093AB0F72
:1045A0007093AC0F8093AD0F9093AE0FFF20D1F0BE
:1045B0002091C20F3091C30F4091C40F5091C50F8D
:1045C0006091AF0F7091B00F8091B10F9091B20FC9
:1045D0000F944B636093AF0F7093B00F8093B10F44
:1045E0009093B20F40E050E0BA0186E40E949FAC85
:1045F0006B017C0120E030E0A9010F9400661816E1
:104600004CF420E030E040E752E4C701B6010F94DB
:10461000466403C060E070E0CB0169837A838B83DA
:104620009C83CE0101960E9465E20C942E300F947B
:10463000861E0C942E3080910218909103188537B5
:10464000910509F4A2C70CF044C18C34910509F41A
:104650004AC40CF055C08931910509F449C31CF5D1
:104660008431910509F4C5C27CF48131910509F4C6
:104670009FC22CF4029708F43EC20C94FA2F429782
:1046800009F485C60C94FA2F8631910509F4D6C237
:104690000CF4D0C28731910509F4DAC2489709F4C5
:1046A000ECC20C94FA2F8E31910509F4AAC3ACF434
:1046B0008B31910509F44AC30CF43AC38C3191054E
:1046C00009F497C34D9711F00C94FA2F809121169D
:1046D0008E7F809321160C942E308032910509F440
:1046E000A0C30CF4C7C38A32910509F4E3C38B3429
:1046F000910511F00C94FA2F0E94CAFD0C942E30F3
:104700008936910509F4E7C464F58335910509F408
:1047100037C6BCF48E34910509F4FEC30CF4F8C31B
:104720008135910509F418C68235910511F00C9474
:10473000FA2F8091F60F8F7D80618093F60F0C9495
:104740002E308535910509F458C60CF420C68C35F9
:10475000910509F475C68836910509F46FC40C9467
:10476000FA2F8E36910509F415C584F48B36910520
:1047700009F403C50CF4BFC48C36910509F460C577
:104780008D36910509F481C40C94FA2F8137910577
:1047900009F45BC594F48F36910509F40CC5803794
:1047A000910511F00C94FA2F41E060E070E08CEA82
:1047B00096E00E94D7EB0C942E308237910509F4D5
:1047C000DDC68337910511F00C94FA2F89E398E048
:1047D0000E9406E760E089E298E00F94C34760E03A
:1047E00084E198E00F94C34761E088E196E30F9479
:1047F000C34761E089E098E00F94C34761E089EF27
:1048000097E00F94C34760E080EF97E00F94C347B1
:1048100061E086EE97E00F94C34761E08CED97E08E
:104820000F94C34760E085ED97E00F94C34761E0C4
:104830008DEC97E00F94C34761E08FEB97E00F9406
:10484000C34760E081EB97E00F94C34760E082EAE2
:1048500097E00F94C34760E084E997E00F94C34763
:1048600060E08EE797E00F94C34760E08DE697E045
:104870000F94C34760E08EE597E00F94C34761E073
:1048800087E597E00F94C34760E082E497E00F94D8
:10489000C34760E084E397E00F94C34761E081E29F
:1048A00097E00F94C34760E084E197E00F94C3471B
:1048B00061E08FE097E00F94C34760E082E097E00B
:1048C0000F94C34760E08EEE96E00F94C3470C94BC
:1048D0002E308F32F1E09F0711F40C94B62E0CF0BD
:1048E00071C0893C910509F45EC78CF58C3891053F
:1048F00009F4CDC4BCF48737910509F490C60CF4D3
:1049000054C68837910509F48DC68937910511F091
:104910000C94FA2F1092FC041092FB040E94276260
:104920000C942E308B39910509F4F0C434F481399C
:10493000910509F47FC60C94FA2F8E3B910509F47A
:10494000C5C4883C910509F4E9C60C94FA2F8C3D46
:10495000910511F40C94162DACF48C3C910509F4DE
:1049600067C734F48B3C910509F440C70C94FA2FC7
:104970008D3C910509F48DC7833D910509F499C7D4
:104980000C94FA2F8C3231E0930711F40C94DD2D46
:1049900064F48D3D910511F40C943D2D823E9105FA
:1049A00011F40C94922D0C94FA2F8D32B1E09B07E8
:1049B00011F40C94F22D8E32914011F40C94722E5D
:1049C0000C94FA2F863FF1E09F0711F40C943B2FD3
:1049D0000CF045C08D3931E0930711F40C94B82FD9
:1049E000FCF48139B1E09B0711F40C94B92E4CF41E
:1049F0008039914011F00C94FA2F0E9431FF0C94F1
:104A00002E30823921E0920711F40C94BF2E8A399E
:104A1000914011F00C94FA2F0E947D460C942E3098
:104A2000853AA1E09A0711F40C94C42E4CF4843A10
:104A3000914011F00C94FA2F0E9488790C942E303A
:104A4000843FF1E09F0711F40C94382F853F91408B
:104A500011F00C94FA2F0F946B340C942E308A3989
:104A600032E0930711F40C94602FC4F4883FB1E056
:104A70009B0711F40C94472F14F40C943E2F8C30A8
:104A8000F2E09F0711F40C94582F8939924011F0ED
:104A90000C94FA2F0F94234C0C942E30873E33E065
:104AA000930711F40C94AA2FCCF48335B3E09B0741
:104AB00011F40C94A72F803A934011F00C94FA2F24
:104AC0002091FF17309100189091211692609093D9
:104AD0002116C9010E9496B60C942E30883EF3E050
:104AE0009F0711F40C94D92F893E934011F40C9434
:104AF000DC2F0C94FA2F80E50E940CE4882329F027
:104B00000F94134C6B017C0103C0C12CD12C760196
:104B100083E50E940CE4882361F00E948CE320E08E
:104B200030E04AE754E40F94AE5C0F94BF646B012D
:104B30007C010E9431FF8091FF179091001800972F
:104B400021F061E00F945F2905C060E087EA95E0FD
:104B50000F94EA2810915D0383E080935D0381E068
:104B60008093E410C114D104E104F10431F00F94F6
:104B70008C2FC60ED71EE81EF91E8091E4108823E4
:104B800011F40C946B31C114D104E104F10411F45B
:104B90000C9472310F948C2FDC01CB018C199D0980
:104BA000AE09BF09B7FF02C00C9472310C946B318F
:104BB0008091130784FF02C00C9476318091150711
:104BC00087FF02C00C94763180911607837011F034
:104BD0000C94763160E08AEB95E00F94EA285F98B8
:104BE0008A988091080181708093060112980C9434
:104BF0002E3082ED95E00E9406E780E496E10F9466
:104C0000BA158BE1E0E4F6E1DE01119601900D9218
:104C10008A95E1F760E070E0CE0101960E947DBACE
:104C2000CE0101960E945FE483EC95E00E9406E7C6
:104C30000C942E300E943EB90C942E300E9455B533
:104C400080912116877F8062809321160C942E30EC
:104C5000E091FF17F09100188081882329F08032BD
:104C600009F410823196F8CF60E08091FF1790919F
:104C700000180E94E4B60C942E3083E50E940CE4E8
:104C8000882321F00E9454E30E9486B184E50E94AB
:104C90000CE48823A9F00E9454E36B017C010E947C
:104CA0002165C092200FD092210FE092220FF09246
:104CB000230FCD28CE28CF2819F081E08093F50F5F
:104CC0000E94A246882381F00E9464B50E94CAFD1A
:104CD0008CE390E10E940BB5109217071092180711
:104CE0001092190710921A070F94C61D0C942E30BB
:104CF0008091211682FF03C08B7F809321168091C3
:104D00002B11882319F081E00F940B1D8091F50F72
:104D1000813051F782E08093F50F0F948C2F6093D0
:104D2000240F7093250F8093260F9093270FDCCFCD
:104D30008091211683FD02C00C942E3083E50E94E1
:104D40000CE481110C9492310C942E3083E40E9477
:104D5000C3E3882319F18DEE95E00E9406E7809168
:104D60008717882391F0BE016F5F7F4F84E897E13A
:104D70000F9481148E010F5F1F4FD8018D918D010B
:104D8000882339F00E945847F8CF83EE95E00E94BF
:104D900006E78AE00E9458470C942E308091211635
:104DA00082FF21C08CEF95E00E9406E760911D16FE
:104DB00070911E1680911F16909120164AE00E9455
:104DC0005F478FE20E9458476091191670911A163A
:104DD00080911B1690911C164AE00E945F470E942A
:104DE0005D480C942E308EE096E00E9406E70C940D
:104DF0002E308091FF17909100180E9496B60C9467
:104E00002E308091211683FD02C00C942E300F9419
:104E10006F1E8091FF17909100180E94C8B80C94E3
:104E20002E308091211682FD0E9431FF8091211643
:104E300083FD02C00C942E3060E080E50E9428E4DF
:104E4000182F682F8091FF17909100180E94E4B6E8
:104E500083E50E940CE4882321F00E9454E30E9421
:104E600086B10E9464B511110C942E300E94CAFDC7
:104E70000C942E300E94ED646C8F7D8F8E8F9F8FEF
:104E8000BE016F5F7F4FCE014C960E94A7B060E0DD
:104E9000CE0101960F945F290E94D3EBBE016F5F94
:104EA0007F4F8FE196E00E94BCEB8AE00E9458475A
:104EB0000C942E306DE070E080E50E9419E48C01C6
:104EC00097FF02C00C942E30E82E60E089E40E9427
:104ED00028E481110C949731802F0F94BB4C8111E1
:104EE0003EC60C9497318091F50F813011F00C94EF
:104EF0002E3082E08093F50F0F948C2F6093240F57
:104F00007093250F8093260F9093270F0C942E30CB
:104F10000E9426FE0C942E3060E070E083E50E9433
:104F200019E48E34910531F40E9497FE0F94C61D4A
:104F30000C942E3084E996E00E9406E76091EB0421
:104F40007091EC048BE896E00E9489E96091ED0491
:104F50007091EE048EE796E00E9489E96091EB047F
:104F60007091EC048091ED049091EE04681B790B34
:104F70008091F50F815021E030E0823010F020E088
:104F800030E0621B730B83E796E00E9489E98AE0B8
:104F90000E94584784E996E00E9406E78091EF045A
:104FA0009091F004A091F104B091F2048C8F9D8F48
:104FB000AE8FBF8FBE016F5F7F4FCE014C960E94B8
:104FC000A7B0BE016F5F7F4F86E696E00E94BCEB04
:104FD0008091F3049091F404A091F504B091F6044B
:104FE0008C8F9D8FAE8FBF8FBE016F5F7F4FCE01C5
:104FF0004C960E94A7B0BE016F5F7F4F86E596E09A
:105000000E94BCEB20E030E04AE754E46091F704F2
:105010007091F8048091F9049091FA040F94466419
:10502000AB01BC018EE396E00E9496E98DE60E94FA
:1050300058478AE00E9458470C942E308091BE0E4B
:1050400083FF02C00C942E300F94C64987FF02C024
:105050000C942E3089E40E940CE4882311F40C9403
:10506000D4310E9464E390E01816190614F481E02C
:1050700090E026E0289FF001299FF00D1124E45DC7
:10508000FE4E808191810C94DE318091BE0E83FDB5
:10509000E5C70F94C649F82E87FDE0C789E40E9452
:1050A0000CE4082F882311F40C94E7310E9464E388
:1050B00090E01816190614F481E090E026E0289F8D
:1050C000F001299FF00D1124E45DFE4E8081918155
:1050D00010E00C94F7310F94C649182F87FDC2C712
:1050E00081E790E20E9406E7812F0F9424058AE071
:1050F0000E945847B7C760E080E50E944E74F82EC2
:10510000F1E0F81708F4AAC781E40E94C3E38823FA
:1051100029F06091A908062F10E002C00FEF10E0FF
:1051200089E40E940CE4882399F00E9464E390E0F3
:105130001816190614F481E090E026E0289FF0018B
:10514000299FF00D1124E45DFE4E0481158108C0F5
:1051500083E50E940CE4882319F00E9454E38B013C
:10516000EF2DF0E0E755F74FB8010F3F110519F0AB
:1051700010F06FEF70E0608371C760E080E50E941F
:105180004E74823008F06AC7E82FF0E0E755F74F19
:10519000108264C78EE40E940CE4882309F45EC781
:1051A0000E9454E360939F077093A0078093A10728
:1051B0009093A20753C783E50E94C3E3882331F08D
:1051C00060E083E50E944E748093BE0E0E94D3EB94
:1051D00085EA96E00E9406E78091BE0E882369F179
:1051E00007E6E02E0AE0F02E00E010E020E08091DB
:1051F000BE0E90E0A0E0B0E0002E04C0B695A795EA
:10520000979587950A94D2F780FF0EC0DD24D3943A
:10521000D20E222319F08CE20E945847F7018591A3
:1052200094910E9406E72D2D0F5F1F4F32E0E30E91
:10523000F11C06301105D9F6ACCD81EA96E0A7CD78
:105240001092E4101092300209C783E50E940CE42A
:10525000882371F00E9464E3282F30E02D3331055C
:105260001CF480930002FAC68CE380930002F6C619
:105270000E94D3EB4091000250E060E070E08AEBC6
:1052800096E00E9478E98AE00E945847E7C680913C
:10529000BE0E83FDE3C689E40E940CE4882311F46A
:1052A0000C9441320E9464E390E01816190614F43D
:1052B00081E090E026E0289FF001299FF00D112465
:1052C000E45DFE4E828193810C944C328091BE0E3F
:1052D00083FDC4C689E40E940CE4882311F40C9475
:1052E00053320E9464E390E01816190614F481E02A
:1052F00090E026E0289FF001299FF00D1124E45D45
:10530000FE4E8281938110E00C94643283E50E940A
:105310000CE4882309F4A2C60E9464E3182F90E0ED
:10532000CD970CF01CE3109358030F948C2F6B0156
:105330007C01212F30E0A8EEB3E00F94F262C60E9C
:10534000D71EE81EF91EC0925403D0925503E09276
:105350005603F092570382C60F94CE050E9426FE94
:105360000E9441FF0E94C24668EE73E080E090E038
:105370000E94D7E660E08FED96E00F94EA286EC6B3
:105380008091F60F8F7E80628093F60F67C683E56B
:105390000E940CE48823E9F00F948C2F6093880F0F
:1053A0007093890F80938A0F90938B0F0E948CE3E8
:1053B00020E030E04AE754E40F94AE5C0F94BF6401
:1053C000609301027093020280930302909304029F
:1053D00045C68091130784FF02C00C948D328091E2
:1053E000150787FF02C00C948D32809116078370D9
:1053F00011F00C948D320C94BE3283E50E94C3E30D
:10540000882309F42BC60F948C2F6093880F709318
:10541000890F80938A0F90938B0F0E948CE320E07A
:1054200030E04AE754E40F94AE5C0F94BF6460939D
:10543000590370935A0380935B0390935C030EC6E9
:105440000F94C64987FD0AC69091130794FD04C0C6
:105450009091150797FF0AC0BBECCB2EB2E0DB2E74
:105460001FEBE12E1EE0F12E10E009C0909116070F
:10547000937091F7682F81E00F94D84BEFC5D60158
:105480008D916D010E940CE4882309F46DC01330E6
:1054900009F063C00E948CE34B015C0120E030E026
:1054A00040EA51E40F94485C87FF4EC0A501940187
:1054B0006091DF0E7091E00E8091E10E9091E20E0E
:1054C0000F9446642B013C019B01AC0160918D0857
:1054D00070918E0880918F08909190080F94AE5C27
:1054E00060938D0870938E0880938F089093900836
:1054F000A30192016091EF0E7091F00E8091F10E78
:105500009091F20E0F94AE5C6093EF0E7093F00EDC
:105510008093F10E9093F20E60919D0870919E0819
:1055200080919F089091A0080F944D5CA301920177
:105530000F94AE5C0F94BF6460939D0870939E08B7
:1055400080939F089093A0088092DF0E9092E00EC7
:10555000A092E10EB092E20E07C00E948CE3F70128
:10556000648B758B868B978B1F5FF4E0EF0EF11CBD
:10557000143009F084CF0E940DFF70C50E9466FBB5
:105580008DEC95E10F94DE0C69C58091FF17909129
:105590000018009709F4A8CBDC012C91222309F410
:1055A000A3CB60E00F945F2959C50091FF171091BC
:1055B000001894E0F12C40E0915021F1F801808135
:1055C000282F2B7F213421F421812133D9F407C0E6
:1055D0008035C1F4818180538A3048F013C0813412
:1055E00021F0853421F441E002C0FF24F3949801B6
:1055F0002E5F3F4F89012F5F3F4FF801808180323E
:10560000C9F3DACF41110E94D3EBFF2021F083E1EF
:1056100099E00E9406E7C8010E9463481FC50E94E6
:10562000FE611CC581E08093FC048093FB040E9412
:10563000276214C560E070E083E50E9419E48230BF
:1056400038F00E94CFEB87E199E00E9406E706C59B
:105650008C01112788E40E940CE48823E1F00E9469
:1056600088E38A3A910544F00E9488E385309140AE
:1056700034F40E9488E305C08AEA90E002C084E026
:1056800091E026E0209FF001219FF00D1124E45DC0
:10569000FE4E9183808382E40E940CE48823D9F03B
:1056A0000E9488E3059744F00E9488E38D389105B5
:1056B00034F40E9488E305C085E090E002C08CE8E5
:1056C00090E026E0209FF001219FF00D1124E45D81
:1056D000FE4E9383828386E40E940CE4882309F4BF
:1056E000BDC40E9488E397FD09C00E9488E38F3FF4
:1056F000910509F034F40E9488E305C080E090E051
:1057000002C08FEF90E026E0209FF001219FF00D76
:105710001124E45DFE4E95838483A0C40F94C64992
:10572000182F87FD9BC40091071084E40E940CE4AD
:10573000882309F426C70E948CE36B017C0120E0DA
:1057400030E0A9010F94485C882339F124E012026B
:10575000F0011124ED5FFF4EC082D182E282F3821C
:1057600020E030E0A9016091031070910410809155
:105770000510909106100F94485C81110CC080E0D8
:1057800090E0A0EEBFE38093031090930410A093E9
:105790000510B093061001E0F4C680E08093071076
:1057A0000E94CEFC5BC40F94C64987FD57C4ABEC86
:1057B000EA2EA2E0FA2E0FEB1EE0D7018D917D01BB
:1057C0000E94C3E3882359F00E948CE30F94BF64C6
:1057D000F80160837183828393830E94C6FE0C5F0D
:1057E0001F4FFEE00F3C1F0741F738C40F94C64916
:1057F00087FD34C4EBECEE2EE2E0FE2E0FEB1EE054
:10580000FFECCF2EFEE0DF2ED7018D917D010E94AF
:10581000C3E3882339F00E948CE3F80164A375A3E5
:1058200086A397A30C5F1F4FC016D10669F716C455
:105830008091140787FDAAC6809115078E7009F024
:10584000A5C64091F30E5091F40E6091F50E709143
:10585000F60E89E399E00E9496E94091F70E509187
:10586000F80E6091F90E7091FA0E8CEF97E30E949A
:1058700096E94091FB0E5091FC0E6091FD0E7091E7
:10588000FE0E81EE99E30E9496E98AE00E94584755
:10589000E5C380911307827109F0BEC68091150798
:1058A0008C7809F0B9C680911607837009F0B4C6E8
:1058B000D5C3C0900E02D0900F02E0901002F0907D
:1058C00011028091120290911302A0911402B091E2
:1058D00015028AA79BA7ACA7BDA74090640850906B
:1058E00065086090660870906708A3019201609156
:1058F0000A0270910B0280910C0290910D020F949C
:105900004C636C8F7D8F8E8F9F8F809068089090F6
:105910006908A0906A08B0906B08A5019401C701BE
:10592000B6010F944C6368A379A38AA39BA3C0908C
:105930006C08D0906D08E0906E08F0906F08A70199
:1059400096016AA57BA58CA59DA50F944C636CA3BD
:105950007DA38EA39FA380911A0290911B02A09118
:105960001C02B0911D028AA79BA7ACA7BDA780917E
:105970001E0290911F02A0912002B09121028EA7D9
:105980009FA7A8ABB9ABA3019201609116027091D9
:10599000170280911802909119020F944C63698349
:1059A0007A838B839C832AA53BA54CA55DA5C50165
:1059B000B4010F944C636D837E838F8398872EA5EB
:1059C0003FA548A959A9C701B6010F944C6369873F
:1059D0007A878B879C870E94D3EB8BE899E00E94A3
:1059E00006E783E50E94C3E3882321F00E9478E361
:1059F0008093220280912202882319F089E395E0A6
:105A000002C085E398E00E9406E746E653E363E8B8
:105A100079E0CE014C960E94F1EA40E050E06BE75D
:105A200079E0CE0101960E94F1EA18C383E50E9455
:105A30000CE4882331F00E9488E390932402809341
:105A400023028091130790911407A0911507B0913C
:105A50001607892B8A2B8B2B09F000C36091230238
:105A6000709124028BE999E00E94AFEB85E20E94DD
:105A700058478AE00E945847F1C20F94C649F82E51
:105A800087FDECC283E50E940CE40F2D0F2C000C67
:105A9000110B882361F10E9488E3F801EE0FFF1FCC
:105AA000E65AFD4F91838083000F111F000F111FD5
:105AB000D801AC5BBD4F7D01BC01990F880B990BE0
:105AC0000F944F5C2AE037ED43E25CE30F94AE5C49
:105AD000F801E85EF04F20813181428153810F94BB
