:100000000C9428240C9459240C9459240C945924AD
:100010000C9459240C9459240C9459240C9459246C
:100020000C9459240D9416780D9416780D94167826
:100030000C9459240D94AF470C9459240C945924D2
:100040000C9459240D94F5100C9459240C945924B3
:100050000C9459240C9459240C9482A50D94377A4D
:100060000C9459240C9403450C94F9440C94592491
:100070000C9459240C9459240C9459240C9459240C
:100080000C9459240C9459240C9459240C945924FC
:100090000C9459240C9459240C9459240C945924EC
:1000A0000C9459240C9459240C9459240C945924DC
:1000B0000C9459240C9459240C9459240C945924CC
:1000C0000C9459240C9459240C9459240C945924BC
:1000D0000C9459240C9459240C9459240C945924AC
:1000E0000C945924684552466E45784582458C45A6
:1000F000A245AF455246BC4552465246524652462C
:100100005246CA455246D245DC45F04502461146A4
:1001100052461B4625462F463E46524648467146A5
:1001200097477A4687469446A146BA46CA469747B5
:10013000DA4697479747974797479747EB4697473A
:10014000F64606471D473547474797475447614797
:100150006E47804797478D47B647DC48BF47CC4737
:10016000D947E647FF470F48DC481F48DC48DC48D2
:10017000DC48DC48DC483048DC483B484B486248B7
:100180007A488C48DC489948A648B348C548DC48BA
:10019000D248FB48D54901490949114919492F4914
:1001A0003A49D5494549D549D549D549D549D5498A
:1001B0005149D54959496449774989499B49D549A4
:1001C000A549AD49B549C449D549CE49EE498C4AFE
:1001D000F149F649FB49004A134A1B4A8C4A234A13
:1001E0008C4A8C4A8C4A8C4A8C4A2C4A8C4A314A1A
:1001F000364A464A524A614A8C4A684A6D4A724AAD
:100200007E4A8C4A854A455B495B5E5B695B975BCE
:10021000735B975B8D5B805BC65CCC5CD15CDF5CA9
:10022000E55CEA5CF05CF55C105D105DFC5C105D0B
:10023000015D065D0B5D305D365D3B5D495D4F5D8B
:10024000545D5A5D5F5D7A5D7A5D665D7A5D6B5D7A
:10025000705D755D9A5DA05DA55DB35DB95DBE5DC8
:10026000C45DC95DE45DE45DD05DE45DD55DDA5DEE
:10027000DF5D045E0A5E0F5E1D5E235E285E2E5EFD
:10028000335E4E5E4E5E3A5E4E5E3F5E445E495E5B
:10029000665E6C5E715E7F5E855E8A5E905E955E78
:1002A000B05EB05E9C5EB05EA15EA65EAB5EEF5ED1
:1002B000F55EFF5E0A5F155F205F2B5F365F6A5F4A
:1002C0006A5F6A5F6A5F415F895F955FA55FB65F3E
:1002D000C75FD85FE95FFA5F3160316031603160DC
:1002E000086050605C606C607D608E609F60B06094
:1002F000C160F860F860F860F860CF601761206155
:100300002E61396144614F615A6165619561956102
:10031000956195616F61AE61B161B961BE61C361A3
:10032000C861CD61D261FF61FF61FF61FF61D96189
:10033000F802580414040202D0048802E0024802C1
:10034000DE03EE0208050602FE049C048802540443
:100350000C04480398030E026402180278026C042D
:10036000840408045C0214039604EC04D002E6033F
:100370006C044604B6038C04084AD73B3BCE016E9E
:1003800084BCBFFDC12F3D6C74319ABD56833DDAEC
:100390003D00C77F11BED9E4BB4C3E916BAAAABEFB
:1003A000000000803F05A84CCDB2D44EB93836A924
:1003B000020C50B9918688083CA6AAAA2ABE000061
:1003C00000803F000C94B8950C94975B0C9450609F
:1003D0000C94C4950C94854A0C948D5B0C949F608E
:1003E0000C94895F0C9406470C9493B70C94B2F963
:1003F0000D943F340C94F0450C94AB5E0C945A5D14
:100400000C94AD4E0D94AC770C945BBC0D94D577E9
:100410000C94B3480C942B5F0C943A5E0D9456796F
:100420000C943CFB0C94B1610C94805B0C94BF4722
:100430000D9465790C94BBA70C9480680C9471465C
:100440000C94614A0C944F5D0C946A5F0C94FF47C6
:100450000C945C600C949C5E0C94CBFF0C94176124
:100460000C946B5D0C9487460C94FB480C94CC5C0C
:100470000C94C4490C94DC480C947BB50C94365D08
:100480000C9401490C94C95D0C948E960D943B34E8
:100490000D94C1770C9495FE0C94045E0C94B35D9E
:1004A0000C9433F90C94335E0C9488960C94DD967E
:1004B0000C94BC450C9419490D9489790C94724A9A
:1004C0000C944B480C949BB00D945B790C94285E73
:1004D0000C94FE690C94A3B30C94AF450C94A24504
:1004E0000C9448460C9439610C94CE490C94205FCE
:1004F0000D946F790C94B47C0C944F610C943B5D1B
:100500000C94DF5C0C944BFB0C94AABB0C94705DB8
:100510000D94F0770C94D55D0C94665D0C948C452D
:100520000C9454470C946C600C94C65C0C94A648D4
:100530000C94DF5D0C94E4780C947EB30C9440949E
:100540000C940B5D0C944CAD0C9451AD0C94A15ECD
:100550000C942DFB0C941D470C94EB460C94804797
:100560000C942E5E0C9448670C94AE610C946396C8
:100570000C949D580C94CB950C941B4A0C9444BA43
:100580000C941F480C9491B30C94D0950C94B647DE
:100590000C940F480D9412770C94AFA70D94DA8643
:1005A0000D94B6790C94C75F0C94C8610C9484FBCD
:1005B0000C9458FD0C946D4A0C94E1970D94DA3C20
:1005C0000D94BD770C94665E0C9497F90C94CD61F4
:1005D0000C946E450C948C950C9465F90D94CB7726
:1005E0000C9409490C94AF4E0C949B490C94DA95E9
:1005F0000D94B6770C94495B0D9419470C94B34E47
:100600000C9468450C9494460C94F55E0D94C73C8C
:100610000C94CA460C9420610C9461B00C94495E11
:100620000C942F490C946EB30D9493790C94B06094
:100630000C94B5A80C94C9FF0C9482960C9431606C
:100640000C9452460C941B460C94F8600C943E4655
:100650000C94F05C0C94D85F0C943E870C94134A75
:100660000C942F460C94D05D0C94905E0C94955E87
:100670000C944CF90C9464490C9449940C9469FBC7
:100680000C948E600C946E470C94CFFF0C94FF5E1C
:100690000D94EB770C94D8F90C945AAD0D94EA3F75
:1006A0000C94A8FB0C94EF5E0C94FC5C0C94E55C41
:1006B0000C94445E0C942CA80D9458340C946CBA91
:1006C0000C94B14E0C94B0A70C94365F0C945399D3
:1006D0000C94235E0C94684A0C9458A80D945434DE
:1006E0000C94AAFF0C94105D0C94524A0C9442672F
:1006F0000C94A55D0C9409BA0C9451490C949495F2
:100700000C944E5E0C9463BA0C94BE950C94C36129
:100710000C943B480C94715E0C945F5D0C945949A9
:100720000C94155F0C94695B0D94EA330C94BEBA7B
:100730000D9451790C94314A0C94DC650C94B96198
:100740000C945E960C94C45D0D9480470C94DA462C
:100750000C94EE490C945A610C94234A0C94A49581
:100760000C943B620D947A770C9474B00D94D47908
:100770000C94F6490C94ADB00C94FA5F0D9450476C
:100780000C9462480C9496FB0C9461470C94BE5DEB
:100790000C9489490C943A490C940F620C94955F1F
:1007A0000C94ED560C9446BB0C94CF600C9478FBE3
:1007B0000C9447470C94F7690C94F0690D94C77733
:1007C0000C9445490C945FC10C94A65E0D94C079BD
:1007D0000C942E610C946C5E0C94D2610D944E4777
:1007E0000C947A480C94D5490C94C1600C946462C2
:1007F0000C94305D0D945F010D9411770C9472B3DD
:100800000C943F5E0C9466AA0C94CDFF0D9450019D
:100810000D9481790C9464AD0D94E7770D94BC86AA
:100820000C94DC450C9478450D94A8770C942D9489
:100830000C94065D0C947EFB0C9430480C94116B68
:100840000C94A5490C94E8A70C9435470D94644783
:100850000C94755D0C94D1FF0C9419FA0C94579478
:100860000C94D2480C94015D0C94B3A70C9447AD42
:100870000C945E5B0C9444610C949C950C94849550
:100880000C94004A0C94D5950C94F55C0D94CA799F
:100890000C94A2FB0C94AC950C94A2BB0C94326209
:1008A0000C947A5D0C94455B0D94E3770C94CC47E3
:1008B0000D94B9770C9494960C94BB4E0C947F5E77
:1008C0000C9450940C9468960C9499480C9490FB5A
:1008D0000C94399A0C940A5F0D94E8790C94855E17
:1008E0000C94A55F0C94B0BD0C946FB50C94545D42
:1008F0000C94A1460C94C5F90C9495610C94C7BA5C
:100900000C94735B0C9423BA0D9479790C94E6479C
:100910000C94DA9B0C9497470D94DE790C94B05E9E
:100920000C94B95D0C947A460C948A5E0D949D7972
:100930000C94EA5C0C94464A0D94DD770C941149B2
:100940000C94D15C0C949DB30C94C6950C949ABBFA
:100950000C9430670C9408600C94E95F0C94F1F9E6
:100960000C9419FB0C945AFB0C942C4A0C94D24511
:100970000C948AFB0C9411460C9477490D94627781
:100980000C94495D0C94B65F0C940AFA0D9443479D
:100990000C948C4A0C94A05D0C947EF90C948C48B9
:1009A0000D94B2770C947E4A0C94D9610C940F5E2E
:1009B0000C94C5480C94FB490C94E4960C949CFB55
:1009C0000C94D2A70C9494540C941D5E0C94B549CD
:1009D0000C949A5D0C940A5E0D94A7790C94BA4617
:1009E0000C941ABF0C94FF610D9450340C94E45D88
:1009F0000C942E670C94F6460C94CA450D94D97746
:100A00000C9497B30C9425BA0C941EFB0C9465615E
:100A10000D94CF770C94DA5D0C94BE610C94F1497F
:100A20000C947D600C940AA80C94E1780C946F618E
:100A30000C948D470C94415F0C9472FB0C94364AD5
:100A40000C9425460C9402460C948DB00C94AD4940
:100A50000C9405BB0C94D9470C9482450C943F51DF
:100A60004E414E494E495459494E46CDCCCC3D0A93
:100A7000D7233C17B7D13877CC2B329595E6241F76
:100A8000B14F0A000020410000C84200401C46202F
:100A9000BCBE4CCA1B0E5AAEC59D7400407A10F302
:100AA0005A00A0724E18090010A5D4E80000E8769C
:100AB00048170000E40B54020000CA9A3B000000F3
:100AC000E1F505000080969800000040420F00000C
:100AD00000A08601000000102700000000E80300CD
:100AE0000000006400000000000A00000000000197
:100AF00000000000002C76D888DC674F0823DFC197
:100B0000DFAE59E1B1B796E5E3E453C63AE6519951
:100B10007696E8E6C28426EB898C9B62ED407C6F7A
:100B2000FCEFBC9C9F40F2BAA56FA5F490055A2A31
:100B3000F75C936B6CF9676DC11BFCE0E40D47FE3D
:100B4000F520E6B500D0ED902E0300943577050032
:100B500080841E080000204E0A000000C80C3333B9
:100B600033330F986E12831141EF8D2114893BE6C8
:100B70005516CFFEE6DB18D1844B381BF77C1D9051
:100B80001DA4BBE424203284725E228100C9F124BA
:100B9000ECA1E53D274C4556454C494E4700434F97
:100BA0004D4D554E49434154494F4E0044525952C0
:100BB000554E004552524F525300494E464F004544
:100BC00043484F0047322F473320626164207061F1
:100BD00072616D65746572730A00536C6565702E81
:100BE0002E2E003E20686F6D696E67206E6F742038
:100BF0006E65656465642C20736B69700A004D65D1
:100C0000736820706F696E74206F7574206F662032
:100C100072616E67650A00436C69636B20746F20B4
:100C2000526573756D652E2E2E004E6F204D6F76BA
:100C3000652E00456E642066696C65206C6973746E
:100C40000A00426567696E2066696C65206C69738D
:100C5000740A00286E6F2066696C652900437572FE
:100C600072656E742066696C653A2000534420708A
:100C700072696E74696E67206279746520004E6FC8
:100C800074205344207072696E74696E670A005054
:100C900072696E742074696D653A2000496E7661E0
:100CA0006C69642050696E204D6F64650A000A53B8
:100CB000746174733A2046696C616D656E74207559
:100CC0007365643A20002C204C6F6E676573742046
:100CD0006A6F623A2000546F74616C2074696D65AC
:100CE0003A20002C204661696C65643A20002C2073
:100CF00046696E69736865643A20005072696E7463
:100D0000733A200053746174733A200045202553D0
:100D1000006F66660044454255473A004D31313216
:100D20002053687574646F776E004D3131332053F2
:100D30000042656420436F6F6C696E672E2E2E0033
:100D40004265642048656174696E672E2E2E0048E6
:100D5000453344204B323830204F46462E0043481E
:100D6000414D4245525F54454D50455241545552B4
:100D70004500424142595354455050494E47004165
:100D8000524353004D4F54494F4E5F4D4F444553CE
:100D900000544845524D414C5F50524F54454354C6
:100DA000494F4E004C4F4E475F46494C454E414DD2
:100DB00045004155544F5245504F52545F53445F84
:100DC00053544154555300534443415244005052EC
:100DD0004F4D50545F535550504F525400454D4560
:100DE0005247454E43595F5041525345520043418B
:100DF00053455F4C494748545F4252494748544E17
:100E000045535300544F47474C455F4C494748545E
:100E10005300534F4654574152455F504F57455228
:100E2000004255494C445F50455243454E54004C96
:100E30004556454C494E475F44415441005A5F5026
:100E4000524F42450052554E4F5554004155544F54
:100E50004C4556454C005052494E545F4A4F420053
:100E600050524F4752455353004155544F524550ED
:100E70004F52545F54454D5000564F4C554D4554BC
:100E80005249430042494E4152595F46494C455FE1
:100E90005452414E534645520053455249414C5FCE
:100EA000584F4E5F584F4646004649524D574152A3
:100EB000455F4E414D453A4D61726C696E206275D9
:100EC000676669782D322E302E7820284E6F762076
:100ED000203320323032302030313A35383A35380C
:100EE0002920534F555243455F434F44455F555268
:100EF0004C3A68747470733A2F2F6769746875621E
:100F00002E636F6D2F4D61726C696E4669726D77DD
:100F10006172652F4D61726C696E2050524F544F53
:100F2000434F4C5F56455253494F4E3A312E302075
:100F30004D414348494E455F545950453A48453321
:100F400044204B3238302045585452554445525F66
:100F5000434F554E543A3120555549443A636564E0
:100F600065326132662D343161322D343734382D9B
:100F7000396231322D633535633632663336376642
:100F8000660A002F2F20004D31343520533C696E06
:100F90006465783E206F7574206F662072616E679D
:100FA000652028302D31290A00416363656C657224
:100FB0006174696F6E3A20500020204D61783A20AC
:100FC0000020204D696E3A2000536F667420656ED4
:100FD0006473746F70733A200046523A0020466C76
:100FE0006F773A200050726F7465637465642050A7
:100FF000696E0A0020643A0020693A0020703A00C5
:101000006469730043290A0061626C656420286D7D
:10101000696E2074656D702000436F6C6420657884
:101020007472756465732061726520004D343231CD
:1010300020696E636F727265637420706172616D96
:10104000657465722075736167650A004545505285
:101050004F4D204F4B0A005D203D200064656C74AD
:10106000615F656E6473746F705F61646A5B004D8D
:1010700036363600506F7765722D6C6F7373207241
:1010800065636F766572792000446F6E65207072BB
:10109000696E74696E672066696C650A004D373742
:1010A000004D333100BF0BBA0BB30BAC0B9E0B954D
:1010B0000B4572726F722077726974696E67207463
:1010C0006F20454550524F4D210A004D34313000BC
:1010D0004D313132004D3130380053544F5050456E
:1010E000442E20005072696E7465722073746F70A4
:1010F0007065642064756520746F206572726F720C
:10110000732E2046697820746865206572726F724C
:1011100020616E6420757365204D39393920746FF4
:1011200020726573746172742E202854656D706529
:101130007261747572652069732072657365742EAF
:10114000205365742069742061667465722072652D
:101150007374617274696E67290A004E6F20436868
:1011600065636B73756D2077697468206C696E6553
:10117000206E756D6265722C204C617374204C6911
:101180006E653A2000636865636B73756D206D69E9
:10119000736D617463682C204C617374204C696EAC
:1011A000653A20004C696E65204E756D626572204F
:1011B0006973206E6F74204C617374204C696E6586
:1011C000204E756D6265722B312C204C617374203A
:1011D0004C696E653A20004D313130005344207225
:1011E000656164206572726F720A002121204B498B
:1011F0004C4C20636175736564206279204B494CC7
:101200004C20627574746F6E2F70696E0A00212114
:10121000204B494C4C2063617573656420627920D2
:10122000746F6F206D75636820696E616374697691
:10123000652074696D65202D2063757272656E740A
:1012400020636F6D6D616E643A2000627573793A48
:101250002070617573656420666F7220696E7075A9
:10126000740A00627573793A207061757365642041
:10127000666F7220757365720A00627573793A2021
:1012800070726F63657373696E670A004D65646998
:10129000612052656D6F766564004D6564696120FB
:1012A000496E736572746564004D3130303020537F
:1012B00000506C656173652052657365740050520F
:1012C000494E5445522048414C5445440025533A18
:1012D000202553004B494C4C45442E200050726948
:1012E0006E7465722068616C7465642E206B696C25
:1012F0006C28292063616C6C6564210A0065636851
:101300006F3A004572726F723A0066616C736500E5
:101310007472756500202864697361626C65642964
:101320000A0041424C2041646A7573746D656E74A5
:10133000205A002028656E61626C6564290A0041AC
:10134000626F76650053616D65205A2061730042BB
:10135000656C6F77004175746F20426564204C6541
:1013600076656C696E673A2042494C494E45415258
:1013700000204E6F7A7A6C65290A00202620002D05
:1013800043656E746572002D46726F6E74002D4257
:1013900061636B002028416C69676E656420576942
:1013A00074680020284D6964646C650020284C65D1
:1013B000667400202852696768740050726F626515
:1013C0003A204649585F4D4F554E5445445F505260
:1013D0004F42450A004D616368696E65205479701B
:1013E000653A2044656C74610A005D0A00457874B2
:1013F0007261706F6C617465205B0042696C696E2C
:10140000656172204C6576656C696E67204772690C
:10141000643A0A00363726023C3D380F2E303E1221
:10142000131A1C1824221E0A07430809070844003F
:1014300001203A202E2E2E4E6F77204F4E0A00208C
:101440003A204C6576656C696E67204F46460A0007
:10145000203A202E2E2E4E6F77204F46460A00202F
:101460003A204C6576656C696E67204F4E0A0072B3
:10147000657365745F6265645F6C6576656C0A00B0
:101480002F3331004D6F76696E672E2E2E00466920
:101490006C2E204469612E004520696E206D6DC25E
:1014A000B30020022046616374002002204D617861
:1014B000002002204D696E004175746F74656D7077
:1014C000005654726176204D696E00566D696E004B
:1014D000566D6178204500566D6178204300566D49
:1014E0006178204200566D6178204100416D61783D
:1014F000204500416D6178204300416D61782042B4
:1015000000416D6178204100412D54726176656C17
:1015100000412D5265747261637400416363656CB0
:1015200000092042616420726573706F6E736521DB
:101530000048494748004572726F723A20416C6C0E
:10154000200020636F6E6E656374696F6E2E2E2EA1
:10155000200054657374696E672000544D43204326
:101560004F4E4E454354494F4E204552524F520024
:10157000303D2E33323500313D2E3138004F666616
:10158000004F6E00544D43204472697665727300BB
:1015900046616E205370656564004D61696E00455B
:1015A0003200537465616C746843686F7020456ED7
:1015B00061626C6564005374657070696E67204D7C
:1015C0006F6465004879627269642054687265735B
:1015D000686F6C640044726976657220437572723C
:1015E000656E7400436F6E74726F6C00466C6F773B
:1015F000002568753A2530326875002530326875E7
:101600003A253032687500534400202020202020E5
:10161000200025732025643B256425252000507279
:101620006F62653A3A646F5F7A5F726169736528C9
:10163000006465706C6F793A2000203A2050726F18
:1016400062653A3A7365745F6465706C6F7965645E
:101650000A0053657474696E67732053746F726502
:1016600064002062797465733B20637263200053C9
:10167000657474696E67732053746F726564202893
:1016800000454550524F4D206461746173697A651D
:10169000206572726F722E0A002073746F72656417
:1016A0002073657474696E677320726574726965FE
:1016B000766564202800202863616C63756C617412
:1016C000656429210A0020213D2000454550524FE4
:1016D0004D20435243206D69736D61746368202D02
:1016E000202873746F726564292000496E646578E0
:1016F0003A2000204D61726C696E3D563831290ADE
:1017000000454550524F4D2076657273696F6E20CB
:101710006D69736D617463682028454550524F4D63
:101720003D00656E7175657565696E672022006F95
:101730006B00526573656E643A2000256979202537
:101740006964202569682025696D20256973002357
:10175000646566696E652044454641554C545F009A
:101760004B6420004B6920004B70200050494420FE
:101770004175746F74756E652066696E697368650E
:1017800064212050757420746865206C6173742026
:101790004B702C204B6920616E64204B6420636F7A
:1017A0006E7374616E74732066726F6D2062656C07
:1017B0006F7720696E746F20436F6E66696775720C
:1017C0006174696F6E2E680A005049442041757437
:1017D0006F74756E65206661696C6564212074693B
:1017E0006D656F75740A000A20436C6173736963D9
:1017F00020504944200A00204B643A2000204B69C5
:101800003A2000204B703A20002054753A200020E6
:101810004B753A2000206D61783A2000206D696E8A
:101820003A200020643A200020626961733A200067
:10183000504944204175746F74756E6520737461EE
:1018400072740A00504944204175746F74756E6556
:10185000206661696C6564212054656D70657261F4
:101860007475726520746F6F20686967680A00502C
:101870004944204175746F74756E65005049442069
:101880004175746F74756E65206661696C6564215D
:1018900020426164206578747275646572206E758B
:1018A0006D6265720A007C4D61726C696E7C002D00
:1018B0002D2D2D2D2D00456E636C6F737572650097
:1018C000A10000006900A20000006300B000000059
:1018D0000900C10000004100C20000004100C30037
:1018E00000004100C40000004100C50000004100AC
:1018F000C60000004145C70000004300C8000000CA
:101900004500C90000004500CD0000004900D1009D
:1019100000004E00D50000004F00D60000004F0030
:10192000D70000007800DC0000005500DD0000005A
:101930005900E00000006100E10000006100E200E9
:1019400000006100E30000006100E40000006100AD
:10195000E50000006100E60000006165E7000000AE
:101960006300E80000006500E90000006500EA008F
:1019700000006500EB0000006500EC00000069005D
:10198000ED0000006900EE0000006900EF000000BB
:101990006900F10000006E00F20000006F00F3002B
:1019A00000006F00F40000006F00F50000006F0001
:1019B000F60000006F00F80000006F00F900000062
:1019C0007500FA0000007500FB0000007500FC00C7
:1019D00000007500FD0000007900FF0000007900A4
:1019E0000401000041000501000061000601000043
:1019F00043000701000063000C01000043000D01DB
:101A0000000063000E01000044000F0100006400AC
:101A10001101000064001901000065001A010000B6
:101A200045001B01000065001F0100006700300138
:101A300000004900310100006900410100004C0034
:101A4000420100006C00430100004E004401000010
:101A50006E00480100006E0058010000520059015C
:101A6000000072005A01000053005B010000730087
:101A70005F0100007300600100005300610100007D
:101A800073006501000074006F01000075007C01A7
:101A900000007A007D0100005A007E0100007A00FB
:101AA000920100006600E30200007800222000009E
:101AB0002E001E210000507822210000544D90215C
:101AC00000003C2D922100002D3EB02100000300BB
:101AD000BB21000004003C2200007E0048220000E0
:101AE0007E3D60220000213D612200003D00642215
:101AF00000003C3D652200003E3DF1230000070050
:101B0000A03000003D0021F301000200C2F40100FA
:101B10000500A2000000EC00B0000000DF00E400BF
:101B20000000E100F6000000EF00F7000000FD00FB
:101B3000FC000000F500E3020000EB00870300005A
:101B4000A5008F030000F40098030000F2009E033C
:101B50000000E300A3030000F600A9030000F40066
:101B6000AC030000E000AD030000E300B10300009F
:101B7000E000B2030000E200B5030000E300B80398
:101B80000000F200BC030000E400BE030000E3001C
:101B9000C0030000F700C1030000E600C30300001B
:101BA000E500902100007F00922100007E001A22B3
:101BB0000000E8001E220000F30088250000FF005E
:101BC00002300000A1000C300000A2000D30000027
:101BD000A3009B300000DE009C300000DF00A0303E
:101BE00000003D00A1300000A700A2300000B100BD
:101BF000A3300000A800A4300000B200A53000000F
:101C0000A900A6300000B300A7300000AA00A83049
:101C10000000B400A9300000AB00AA300000B500FD
:101C2000AB300000B600AC300000B6DEAD300000D6
:101C3000B700AE300000B7DEAF300000B800B03003
:101C40000000B8DEB1300000B900B2300000B9DEEB
:101C5000B3300000BA00B4300000BADEB530000086
:101C6000BB00B6300000BBDEB7300000BC00B830AF
:101C70000000BCDEB9300000BD00BA300000BDDE9F
:101C8000BB300000BE00BC300000BEDEBD30000036
:101C9000BF00BE300000BFDEBF300000C000C0305B
:101CA0000000C0DEC1300000C100C2300000C1DE53
:101CB000C3300000AF00C4300000C200C5300000D7
:101CC000C2DEC6300000C300C7300000C3DEC8302B
:101CD0000000C400C9300000C4DECA300000C500E6
:101CE000CB300000C600CC300000C700CD30000073
:101CF000C800CE300000C900CF300000CA00D0308C
:101D00000000CADED1300000CADFD2300000CB00B4
:101D1000D3300000CBDED4300000CBDFD530000064
:101D2000CC00D6300000CCDED7300000CCDFD8307D
:101D30000000CD00D9300000CDDEDA300000CDDF6C
:101D4000DB300000CE00DC300000CEDEDD300000F5
:101D5000CEDFDE300000CF00DF300000D000E0300A
:101D60000000D100E1300000D200E2300000D300DA
:101D7000E3300000AC00E4300000D400E5300000A7
:101D8000AD00E6300000D500E7300000AE00E830DE
:101D90000000D600E9300000D700EA300000D8008B
:101DA000EB300000D900EC300000DA00ED3000002C
:101DB000DB00EF300000DC00F2300000A600F33062
:101DC0000000DD00F4300000B3DEF7300000DCDEA0
:101DD000FA300000A6DEFB300000A500FC30000059
:101DE000B000FD300000A400074E0000FB0086514B
:101DF0000000FC0043530000FA0064FF0000A40050
:101E000065FF0000A50066FF0000A60067FF000058
:101E1000A70068FF0000A80069FF0000A9006AFF92
:101E20000000AA006BFF0000AB006CFF0000AC00DC
:101E30006DFF0000AD006EFF0000AE006FFF000000
:101E4000AF0070FF0000B00071FF0000B10072FF32
:101E50000000B20073FF0000B30074FF0000B40084
:101E600075FF0000B50076FF0000B60077FF0000A8
:101E7000B70078FF0000B80079FF0000B9007AFFD2
:101E80000000BA007BFF0000BB007CFF0000BC002C
:101E90007DFF0000BD007EFF0000BE007FFF000050
:101EA000BF0080FF0000C00081FF0000C10082FF72
:101EB0000000C20083FF0000C30084FF0000C400D4
:101EC00085FF0000C50086FF0000C60087FF0000F8
:101ED000C70088FF0000C80089FF0000C9008AFF12
:101EE0000000CA008BFF0000CB008CFF0000CC007C
:101EF0008DFF0000CD008EFF0000CE008FFF0000A0
:101F0000CF0090FF0000D00091FF0000D10092FFB1
:101F10000000D20093FF0000D30094FF0000D40023
:101F200095FF0000D50096FF0000D60097FF000047
:101F3000D70098FF0000D80099FF0000D9009AFF51
:101F40000000DA009BFF0000DB009CFF0000DC00CB
:101F50009DFF0000DD009EFF0000DE009FFF0000EF
:101F6000DF00E5FF00005C00001C1F11111F0000D6
:101F70000006191803130C00040E1F041C000000B7
:101F8000000E1315110E00001C1018170506050091
:101F9000040A0A0A0A11110E0C12120C00000000A9
:101FA000001F1511151F00000000000001020404AD
:101FB0000000001C1C0C04040402010000000000CE
:101FC00004081000000000005761726E696E673AE5
:101FD00020486F6D696E672042756D702044697688
:101FE00069736F72203C20310A005D00646F5F6886
:101FF0006F6D696E675F6D6F7665003C3C3C206875
:102000006F6D6561786973280061646A44697374EF
:10201000616E63653A00486F6D65203220536C6FC6
:10202000773A0A004D6F766520417761793A0A0068
:10203000486F6D65203120466173743A0A003E3E58
:102040003E20686F6D656178697328000A0A0A5539
:1020500055854255558542555585420000A04000A2
:1020600000A0400000A04000008C4300008C430012
:10207000801844010101000000010000000100007F
:102080008000555555000000400033333300AAAAA4
:102090002A004992240000002000C7711C00999971
:1020A0001900D1451700555515003BB113002449BF
:1020B000120011111100000010000F0F0F00E33883
:1020C0000E0043790D00CCCC0C00C3300C00E8A20C
:1020D0000B0064210B00AAAA0A00703D0A009DD8DB
:1020E0000900427B090092240900DCD3080088889B
:1020F00008001042080000000800F0C107008787B0
:10210000070075500700711C07003EEB0600A1BCDC
:1021100006006990060066660600703E06006118BB
:10212000060017F4050074D105005BB00500B290FD
:102130000500627205005555050078390500B81E86
:102140000500050505004EEC040087D40400A1BD80
:10215000040090A7040049920400C17D0400EE69C8
:102160000400C7560400444404005C320400082103
:10217000040041100400000004003FF00300F8E0F8
:10218000030026D20300C3C30300CCB503003AA862
:1021900003000A9B0300388E0300C08103009F7573
:1021A0000300D0690300505E03001D530300344850
:1021B0000300913D03003333030016290300381F49
:1021C000030097150300300C0300030303000BFA10
:1021D000020049F10200BAE802005CE002002DD8DA
:1021E00002002DD0020059C80200B0C0020031B96F
:1021F0000200DAB10200AAAA0200A0A30200BC9C5D
:102200000200FA9502005C8F0200DF8802008282E1
:102210000200457C02002776020027700200436A14
:1022200002007C640200D05E02003F590200C853E5
:102230000200FFFDFCFAF8F6F4F2F0EEECEAE9E752
:10224000E5E3E1E0DEDCDAD9D7D5D4D2D0CFCDCB0F
:10225000CAC8C7C5C3C2C0BFBDBCBAB9B7B6B4B39C
:10226000B2B0AFADACAAA9A8A6A5A4A2A1A09E9DFC
:102270009C9A99989795949392908F8E8D8B8A893A
:1022800088878684838281807F7E7D7B7A79787758
:10229000767574737271706F6E6D6C6B6A69686756
:1022A000666564636261605F5E5D5C5B5A59585845
:1022B0005756555453525150504F4E4D4C4B4A4A1D
:1022C0004948474646454443424241403F3E3E3DE1
:1022D0003C3B3B3A39383837363535343332323196
:1022E00030302F2E2E2D2C2B2B2A2929282727263C
:1022F000252524232322212120201F1E1E1D1C1CD6
:102300001B1B1A1919181817161615151413131262
:10231000121111100F0F0E0E0D0D0C0C0B0A0A09E5
:10232000090808070706060505040403030202015D
:1023300000004D6F74696F6E004D38340041757444
:102340006F20486F6D650054656D706572617475BE
:1023500072650041425300504C4100467265652051
:10236000585900536F667420456E6473746F7073B0
:102370000044697361626C652053746570706572A6
:10238000730050726568656174202420456E640096
:102390005072656865617420242042656400436F53
:1023A0006F6C646F776E005072656865617420248D
:1023B0000057235323544845524D414C2052554E0B
:1023C0004157415900546865726D616C2052756EB9
:1023D00061776179004572723A204D415854454DFC
:1023E00050004D415854454D5020747269676765DF
:1023F000726564004572723A204D494E54454D5005
:10240000004D494E54454D5020747269676765729E
:10241000656400202F002042403A0020403A007CB2
:102420003C3E5E2B3D3F2F5B5D3B2C2A225C000037
:1024300009121B242D363F48415A536C657E77198B
:10244000100B023D342F265158434A757C676E327B
:102450003B2029161F040D7A7368615E574C452B8B
:102460002239300F061D14636A7178474E555C643B
:102470006D767F4049525B2C253E3708011A137D4B
:10248000746F6659504B42353C272E1118030A567B
:102490005F444D727B60691E170C053A3328214F4B
:1024A000465D546B627970070E151C232A31384142
:1024B00048535A656C777E09001B122D243F36580D
:1024C000514A437C756E671019020B343D262F73F9
:1024D0007A6168575E454C3B3229201F160D046A0D
:1024E0006378714E475C55222B3039060F141D2539
:1024F0002C373E0108131A6D647F7649405B523CCD
:10250000352E2718110A03747D666F5059424B17F8
:102510001E050C333A21285F564D447B7269600ECC
:10252000071C152A233831464F545D626B7079447D
:10253000656C6574696F6E206661696C65642C20DA
:1025400046696C653A200046696C652064656C6577
:102550007465643A0057726974696E6720746F20FD
:1025600066696C653A2000667265736800646F691D
:102570006E67004E6F77200050726F6265205A20A0
:102580004F666673657400416476616E63656420AE
:1025900053657474696E677300547A0054790054FB
:1025A0007800457A004579004578004564697420D3
:1025B0004D657368004C6576656C20426564004724
:1025C00032380A47323900526573746F726520449D
:1025D000656661756C74730050726568656174201E
:1025E0002420436F6E660044656C74612043616C07
:1025F0006962726174696F6E004469616720526F2D
:1026000064005261646975730048656967687400A5
:102610004C6F61642053657474696E677300537402
:102620006F72652053657474696E677300506F77BD
:102630006572204F757461676500436F6E666967E8
:1026400075726174696F6E0043616E63656C0044FE
:10265000656C74612053657474696E6773004175AD
:10266000746F2043616C6962726174696F6E0047B8
:102670003333004D313030300053746F702050725E
:10268000696E7400526573756D65205072696E7461
:102690000053746F70004368616E6765204D656418
:1026A0006961004D3231004D69786572004E6F20CE
:1026B0004D656469610054756E65005061757365A0
:1026C000205072696E7400496E666F2053637265A4
:1026D000656E005374617274205072696E740043A9
:1026E000616E6E6F7420656E7465722073756264BE
:1026F00069723A2000052E2E0025336425252025F9
:102700003364252500562D746F6F6C7320576572E6
:102710006520526573657400526573657420562D8B
:10272000746F6F6C7300546F67676C65204D6978C8
:10273000002533643B2533642525004163746976A5
:102740006520562D746F6F6C0020746F6F206C6F56
:102750006E6720657874727573696F6E207072652C
:1027600076656E7465640A0020636F6C642065781A
:1027700074727573696F6E2070726576656E7465BC
:10278000640A0020453A0020593A003C3C3C207342
:1027900065745F617869735F69735F61745F686FA7
:1027A0006D6528003E3E3E207365745F61786973F5
:1027B0005F69735F61745F686F6D652800686F6D36
:1027C000655F64656C746100486F6D696E67204673
:1027D00061696C6564006F70656E005452494747CB
:1027E00045524544007A5F6D6178007A5F6D696E8D
:1027F00000795F6D617800785F6D61780052657077
:102800006F7274696E6720656E6473746F70207385
:1028100074617475730A00203A2073796E635F7077
:102820006C616E5F706F736974696F6E0A00203A35
:1028300020707265706172655F666173745F6D6F41
:1028400076655F746F5F64657374696E6174696FD8
:102850006E0A00202064657374696E6174696F6E1E
:102860003D00203A207A206C6F776572206D6F767C
:10287000650A00203A207879206D6F76650A00207D
:102880003A207A207261697365206D6F76650A005F
:10289000203A207A6F6E6520626F72646572206DD7
:1028A0006F76650A00203A2064616E676572207A4F
:1028B0006F6E65206D6F76650A00203A206465733F
:1028C00074696E6174696F6E203D20637572726504
:1028D0006E745F706F736974696F6E0A003E2000DA
:1028E000646F5F626C6F636B696E675F6D6F766557
:1028F0005F746F00206D61783A00206D696E3A0058
:102900004178697320000000000000000000008092
:10291000184400000C4300000C43008018440000E1
:102920000CC300000CC3000000004732362048658D
:102930006174696E67204E6F7A7A6C650047323633
:102940002048656174696E6720426564005761695B
:1029500074696E6720666F72206865617475702E89
:102960000A004669786564204C656E67746820507B
:1029700072696D6500446F6E65205072696D696E95
:1029800067004D616E75616C207072696D696E676C
:102990002E2E2E004732362043616E63656C6564CF
:1029A000004C656176696E6720473236003F537090
:1029B0006563696669656420582C5920636F6F727E
:1029C00064696E617465206F7574206F6620626F34
:1029D000756E64732E0A003F285229657065617414
:1029E0002076616C7565206E6F7420706C617573F4
:1029F00069626C653B206D7573742062652061743B
:102A0000206C6561737420312E0A003F537065633A
:102A10006966696564206E6F7A7A6C652074656D8D
:102A20007065726174757265206E6F7420706C6170
:102A3000757369626C652E0A003F53706563696641
:102A40006965642066696C616D656E742073697A6E
:102A500065206E6F7420706C61757369626C652E91
:102A60000A003F5370656369666965642070726926
:102A70006D65206C656E677468206E6F7420706C75
:102A800061757369626C652E0A003F5370656369F6
:102A900066696564206E6F7A7A6C652073697A6501
:102AA000206E6F7420706C61757369626C652E0A9C
:102AB000003F52657472616374696F6E204D756C6E
:102AC0007469706C696572206D757374206265201D
:102AD0007370656369666965642E0A003F537065AB
:102AE0006369666965642052657472616374696FB5
:102AF0006E204D756C7469706C696572206E6F74B0
:102B000020706C61757369626C652E0A003F5370AA
:102B100065636966696564206C61796572206865C2
:102B200069676874206E6F7420706C617573696278
:102B30006C652E0A0043292E0A003F5370656369B5
:102B400066696564206265642074656D7065726194
:102B500074757265206E6F7420706C617573696234
:102B60006C65202834302D00473236207374617232
:102B700074696E672E2E2E0A0056652D4A65726B9B
:102B80000056432D4A65726B0056422D4A65726BA2
:102B90000056412D4A65726B0050726F6265205974
:102BA000204F66667365740050726F62652058200E
:102BB0004F666673657400452073746570732F6D7E
:102BC0006D00432053746570732F6D6D0042205368
:102BD000746570732F6D6D00412053746570732F91
:102BE0006D6D00496E69740046696C616D656E7447
:102BF0000050726F6265204F6666736574730041A2
:102C00006363656C65726174696F6E0056656C6FA5
:102C100063697479005A2056616C756500496E6469
:102C20006578205900496E64657820580045310068
:102C300020433A0020423A0020436F756E742041D1
:102C40003A00626564002C2073797374656D20739B
:102C5000746F7070656421204865617465725F49A6
:102C6000443A200048656174696E67204661696C6A
:102C700065640048656174696E67206661696C65AA
:102C80006400202D20496E76616C6964206578743B
:102C90007275646572206E756D62657220210A001E
:102CA00000204D39322058004D32342053256C64B9
:102CB0002054256C64004739322E39204525730095
:102CC000473120462564004731205A25732046327B
:102CD0003030004731205825732059257320463362
:102CE00030303000473132004D34323020532569C6
:102CF000205A2573004D3130362050256920532548
:102D000069004D31303920532569004D313930206B
:102D1000532569004D323030204425730047393245
:102D20002E392045300A4732385230004D34323087
:102D3000205330205A30004452565F53544154556A
:102D400053090050574D5F5343414C4509005057BC
:102D50004D434F4E460900434F4F4C434F4E46099B
:102D60000043484F50434F4E460900544849474896
:102D700009090054434F4F4C5448525309005450D2
:102D8000574D5448525309005453544550090900B3
:102D900054504F574552444F574E0900494F494EE2
:102DA000090900475354415409090049484F4C440C
:102DB0005F4952554E090047434F4E4609090044AA
:102DC0007269766572207265676973746572733AA9
:102DD0000A007332767362090073327673610900F8
:102DE0003132304309003134334309003135304347
:102DF00009003135374309006F7409006F7470772B
:102E000009007332676109007332676209006F6CF1
:102E10006109006F6C620900737473740900736751
:102E20005F726573756C7400445256535441545527
:102E30005300755374657020636F756E740053741E
:102E4000616C6C6775617264207468727300202D08
:102E5000737461727409006879737465726573695B
:102E6000730A202D656E640900626C616E6B2074BC
:102E7000696D65006F66662074696D650070776DB9
:102E80002067726164206175746F0070776D206FC8
:102E90006666736574206175746F0070776D20735A
:102EA00063616C65206175746F0070776D2073636A
:102EB000616C652073756D004F5420707265776189
:102EC000726E005B6D6D2F735D090050574D20745D
:102ED00068726573682E00747374657009006D7391
:102EE000746570730900737465616C746843686F0E
:102EF00070007673656E7365090050574D207363DB
:102F0000616C650043532061637475616C00486FA8
:102F10006C642063757272656E740052756E206306
:102F2000757272656E74004D4158206375727265DA
:102F30006E7400524D532063757272656E74005347
:102F400065742063757272656E7400456E61626CA3
:102F5000656409004164647265737309007370727B
:102F60006561644379636C6500206472697665729B
:102F7000206D6F64653A090020647269766572207D
:102F800063757272656E743A200020737465616CAB
:102F9000746843686F70206D617820737065656434
:102FA0003A200020496E76616C69642065787472FD
:102FB00075646572200024F4D43050C38E20C2A200
:102FC0004017828B7011127A910D816CD90AA86119
:102FD000E108C7586607615143061E4B5D05C145B0
:102FE000A7041A411104093D980371393103403691
:102FF000DB0265339102D4305402802E1D02632C13
:10300000EE01752AC501B028A001102781018F2586
:1030100064012B244B01E0223401AC211F018D20DF
:103020000D01801FFC00841EED00971DDF00B81C01
:10303000D200E61BC600201BBC00641AB200B21905
:10304000A8000A19A0006A189900D117910040172A
:103050008B00B516840031167E00B31579003A1541
:103060007300C7146F0058146A00EE1366008813CB
:10307000630025135E00C7125B006C125700151227
:103080005400C111510070114F0021114B00D61096
:1030900049008D1047004610440002104200C00F46
:1030A0004000800F3E00420F3C00060F3B00CB0E5D
:1030B0003800930E37005C0E3500270E3400F30DF8
:1030C0003200C10D3100900D3000600D2E00320D28
:1030D0002D00050D2C00D90C2B00AE0C2900850C01
:1030E00029005C0C2700350C27000E0C2600E80B8D
:1030F0002400C40B2400A00B23007D0B23005A0BDB
:103100002100390B2100180B2000F80A1F00D90AF2
:103110001E00BB0A1E009D0A1D00800A1D00630AD6
:103120001C00470A1B002C0A1B00110A1A00F70991
:103130001A00DD091900C4091900AB091900920928
:1031400017007B091800630917004C09160036099F
:103150001600200916000A091500F5081500E008F8
:103160001400CC081400B8081400A4081400900837
:1031700013007D0812006B0813005808120046085F
:103180001200340811002308110012081100010870
:103190001100F0071000E0071000D0071000C00772
:1031A0001000B0070F00A107100091070E00830761
:1031B0000F0074070F0065070E0057070E00490740
:1031C0000E003B070D002E070E0020070D00130711
:1031D0000D0006070D00F9060C00ED060D00E006D7
:1031E0000C00D4060C00C8060C00BC060C00B0068F
:1031F0000C00A4060B0099060C008D060B0082063D
:103200000B0077060B006C060B0061060A005706E0
:103210000B004C060A0042060A0038060A002E0679
:103220000A0024060A001A060A001006090007060A
:103230000A00FD050900F4050900EB050900E20597
:103240000900D9050900D0050900C7050900BE0518
:103250000900B5050800AD050800A50509009C0595
:103260000800940508008C050800840508007C050A
:103270000800740508006C050700650508005D0579
:103280000700560508004E050700470507004005E2
:10329000080038050700310507002A050700230547
:1032A00007001C050600160507000F0507000805A6
:1032B000060002050700FB040600F5040700EE0403
:1032C0000600E8040600E2040700DB040600D5045B
:1032D0000600CF040600C9040600C3040600BD04AE
:1032E0000600B7040600B1040500AC040600A604FD
:1032F0000600A00405009B04060095040500900448
:1033000006008A04050085040500800406007A048E
:10331000050075040500700405006B0405006604D3
:103320000500610405005C04050057040500520413
:1033300005004D04050048040500430405003E0453
:1033400004003A04050035040500300404002C0490
:10335000050027040400230405001E0404001A04C9
:10336000040016040500110404000D0404000904FF
:1033700005000404040000040400FC030400F80336
:103380000400F4030400F0030400EC030400E80369
:103390000400E4030400E0030400DC030400D80399
:1033A0000400D4030400D0030400CC030400C803C9
:1033B0000300C503030024F404D9201BC40C5C0ED5
:1033C0009804C4095F0265077101F405F900FB0464
:1033D000B30048048700C103690058035500030384
:1033E0004500BE023A008402310053022A0029023D
:1033F000250004022000E4011C00C8011900AF01EF
:10340000170098011400840113007101100061017C
:10341000100051010E0043010D0036010B002B017D
:103420000B0020010B00150109000C01090003012C
:103430000800FB000800F3000800EB000700E400B0
:103440000600DE000600D8000600D2000600CC0010
:103450000500C7000500C2000500BD000400B9005A
:103460000400B5000400B1000400AD000400A90090
:103470000400A5000300A20003009F0004009B00BD
:1034800003009800030095000200930003009000E1
:1034900003008D0002008B000300880002008600FC
:1034A000020084000300810002007F0002007D0012
:1034B00002007B0002007900020077000100760024
:1034C00002007400020072000100710002006F002F
:1034D00002006D0001006C0002006A00010069003A
:1034E0000200670001006600010065000100640041
:1034F00002006200010061000100600001005F0045
:1035000002005D0001005C0001005B0001005A0048
:103510000100590001005800010057000100560049
:103520000100550001005400010053000000530049
:1035300001005200010051000100500001004F0045
:1035400001004E0000004E0001004D0001004C0043
:1035500001004B0000004B0001004A00010049003F
:10356000010048000000480001004700010046003B
:103570000000460001004500000045000100440035
:10358000010043000000430001004200000042002F
:1035900001004100000041000100400001003F0027
:1035A00000003F0001003E0000003E0001003D0021
:1035B00000003D0001003C0000003C0000003C0019
:1035C00001003B0000003B0001003A0000003A000F
:1035D0000100390000003900010038000000380007
:1035E00000003800010037000000370001003600FD
:1035F00000003600000036000100350000003500F4
:1036000000003500010034000000340000003400E8
:1036100001003300000033000000330001003200DD
:1036200000003200000032000100310000003100D3
:1036300000003100010030000000300000003000C8
:1036400001002F0000002F0000002F0000002F00BD
:1036500001002E0000002E0000002E0001002D00B1
:1036600000002D0000002D0000002D0001002C00A6
:1036700000002C0000002C0000002C0001002B009A
:1036800000002B0000002B0000002B0001002A008E
:1036900000002A0000002A0000002A000100290082
:1036A0000000290000002900000029000000290076
:1036B0000100280000002800000028000000280069
:1036C000000028000100270000002700000027005C
:1036D000000027000000270001002600000026004F
:1036E0000000260000002600000026000100250042
:1036F0000000250000002500000025000000250036
:103700000000250001002400000024000000240027
:10371000000024000000240001002300000023001A
:10372000000023000000230000002300000023000D
:1037300000002300010022000000220000002200FF
:1037400000002200000022000000220001002100F1
:1037500000002100000021000000210000002100E5
:1037600000002100000021000100200000002000D6
:1037700000002000000020000000200000002000C9
:10378000000020000000200001001F0000001F00BA
:1037900000001F0000001F0000001F0000001F00AD
:1037A00000001F0001001E0000001E0000001E009F
:1037B00000001E000000752A0000C21E0000D41385
:1037C0000000970B00005406000052030000B301F4
:1037D0000000DC0000007879007A7800797A002017
:1037E0007A002079002078002E2020202000456ECD
:1037F00064204452592D52554E004E6F20636F6E17
:1038000076657267656E6365004974657261746997
:103810006F6E203A2025303269005361766520773B
:10382000697468204D35303020616E642F6F7220CE
:10383000636F707920746F20436F6E66696775726D
:103840006174696F6E2E680A00253033692E780026
:10385000302E253033690043616C6962726174698E
:103860006F6E2073643A00737464206465763A0066
:10387000726F6C6C696E67206261636B2E004361CE
:103880006C6962726174696F6E204F4B00436F7296
:10389000726563742064656C746120736574746907
:1038A0006E67732077697468204D36363520616EF7
:1038B00064204D3636360A0020284452592D525580
:1038C0004E2900436865636B696E672E2E2E20417A
:1038D00043003F4265642063616C69627261746990
:1038E0006F6E2072616469757320696D706C6175AB
:1038F0007369626C652E0A00473333204175746F1B
:103900002043616C6962726174650A003F28562920
:103910006572626F7365206C6576656C20696D7089
:103920006C61757369626C652028302D33292E0A0D
:10393000003F2846296F726365206974657261745F
:10394000696F6E20696D706C61757369626C65205A
:1039500028302D3330292E0A003F284329616C6915
:1039600062726174696F6E20707265636973696FEA
:103970006E20696D706C61757369626C6520283E9C
:103980003D30292E0A003F2850296F696E7473203C
:10399000696D706C61757369626C652028302D31BA
:1039A00030292E0A005741524E494E4721204C6F74
:1039B00077205A204A65726B206D6179206C6561B1
:1039C0006420746F20756E77616E74656420706119
:1039D000757365732E0A003F00496E697469616CE6
:1039E000697A6520454550524F4D005072696E749A
:1039F0002041626F72746564004D3235005061750C
:103A000073696E672E2E2E00454550524F4D20563D
:103A1000657273696F6E204572726F720045455012
:103A2000524F4D20496E646578204572726F720066
:103A3000454550524F4D20435243204572726F729C
:103A40000049676E6F7265005761726E696E673A02
:103A500020436C65616E20436972636C65207265FA
:103A60007175697265732058590A005761726E69E1
:103A70006E673A20526164697573204F7574206FC8
:103A8000662052616E67650A005072696E74206626
:103A9000726F6D204D6564696100205A3A200020E4
:103AA000593A200042656420583A2000203A200A02
:103AB00000202063757272656E745F706F73697435
:103AC000696F6E3D002C20002E2E2E28004D6F7643
:103AD000652025736D6D004D6F766520302E316D3C
:103AE0006D004D6F766520316D6D004D6F766520F0
:103AF00031306D6D004D6F766520417869730048F7
:103B00006F74656E6420746F6F20636F6C64004522
:103B100078747275646572004D6F7665205A004D39
:103B20006F76652059004D6F7665205800486F6D9F
:103B300065202573257325732046697273740020F0
:103B400044697363726570616E63793A00326E64C2
:103B50002050726F6265205A3A00534C4F57003123
:103B600073742050726F6265205A3A004641535474
:103B70000050726F62653A3A72756E5F7A5F70726A
:103B80006F62650050726F62696E67204661696C92
:103B900065640A0050726F62696E67204661696CE5
:103BA000656400506F736974696F6E204E6F742086
:103BB000526561636861626C650A005F72656C6181
:103BC00074697665290A0050726F62653A3A7072BC
:103BD0006F62655F61745F706F696E7400000020D2
:103BE000002300260029002C002F003200000100D5
:103BF0000003010601090100002200250028002B16
:103C0000002E003100340002010000050108010B04
:103C10000105050505070508080808020202020A51
:103C20000A0808040404040101010101010101035F
:103C300003030303030303040707070C0C0C0C0C1A
:103C40000C0C0C0202020206060606060606060B0D
:103C50000B0B0B0B0B0B0B01021020200808102084
:103C60004010204080020102010804020101020408
:103C700008102040808040201008040201800402C7
:103C8000018040201008040201080402010102041E
:103C9000081020408001020408102040800268744F
:103CA0007470733A2F2F6D61726C696E66772E6F28
:103CB000726700206275676669782D322E302E7823
:103CC000002020506C616E6E65724275666665728A
:103CD00042797465733A20002046726565204D650F
:103CE0006D6F72793A2000436F6D70696C65643A4C
:103CF000204E6F7620203320323032300A00204CA4
:103D000061737420557064617465643A2032303296
:103D1000302D30382D3235207C20417574686F721B
:103D20003A20284D6172746F6E2042616B73612D71
:103D300031312E30332E32303230290A006275672D
:103D40006669782D322E302E780A004D61726C69CA
:103D50006E0020536F6674776172652052657365DB
:103D6000740A00205761746368646F67205265733A
:103D700065740A002042726F776E206F757420524E
:103D8000657365740A002045787465726E616C20F5
:103D900052657365740A00506F77657255700A003A
:103DA0006175746F25632E6700473238004D3130DE
:103DB0003031006572726F722077726974696E6754
:103DC00020746F2066696C650A00446F6E6520730D
:103DD0006176696E672066696C652E0A004D32391E
:103DE00000255320256320256320256320256300BB
:103DF00020583A00656E6473746F7073206869743C
:103E00003A200070012C0190012701B0012201C06D
:103E1000011D01F00118011002130130020E0160B2
:103E200002090190020401C002FF000003FA0040F1
:103E300003F5008003F000D003EB002004E60070DF
:103E400004E100E004DC004005D700C005D20040DA
:103E500006CD00D006C8008007C3003008BE00F0C1
:103E600008B900C009B400B00AAF00B00BAA00D076
:103E70000CA500000EA000500F9B00C01096005033
:103E800012910000148C00C0158700B0178200B09A
:103E9000197D00D01B7800001E730040206E00903A
:103EA000226900F024640040275F0090295A00E056
:103EB0002B5500102E500020304B0010324600E0F1
:103EC00033410090353C001037370070383200A085
:103ED000392D00B03A2800A03B2300603C1E0010A2
:103EE0003D1900903D1400103E0F00703E0A00C0C6
:103EF0003E0500003F0000403FFBFF803FF6FFC053
:103F00003FF1FF2053697A653A200043616E6E6F7E
:103F100074206F70656E207375626469722000533F
:103F20004420496E6974204661696C0053442063E3
:103F3000617264206F6B0A006F70656E526F6F74F0
:103F4000206661696C65640A00766F6C756D652E1C
:103F5000696E6974206661696C65640A004E6F2041
:103F6000534420636172640A004D3234004D323391
:103F70002025730046696C652073656C6563746504
:103F8000640A0046696C65206F70656E65643A204E
:103F900000454E4420535542524F5554494E450A10
:103FA000002220706F73002220706172656E743A77
:103FB0002200535542524F5554494E452043414CDF
:103FC0004C207461726765743A22005375626361B4
:103FD0006C6C204F766572666C6F77004578636510
:103FE00065646564206D617820535542524F555485
:103FF000494E452064657074683A310A0042656430
:10400000204C6576656C696E6720004661696C6559
:104010006420746F20656E61626C65204265642067
:104020004C6576656C696E670A00496E76616C69ED
:1040300064206D6573682E0A003E3E3E0020636F6B
:1040400072726563746564205A3A0047323920758C
:104050006E636F72726563746564205A3A00203A29
:10406000203E2070726F62696E6720636F6D706CA6
:104070006574650A0050726F62696E6720506F69DF
:104080006E740025532025692F25690050726F62D8
:10409000696E67206D65736820706F696E742000AB
:1040A000202844525952554E290047323920417533
:1040B000746F20426564204C6576656C696E67009C
:1040C0003F20284C2C522C462C4229206F757420FE
:1040D0006F6620626F756E64732E0A003F28562942
:1040E0006572626F7365206C6576656C20696D70B2
:1040F0006C61757369626C652028302D34292E0A35
:1041000000426164205A2076616C75650A004E6F2A
:104110002062696C696E65617220677269640A0069
:104120003E204175746F2D6C6576656C206E6F74E2
:10413000206E65656465642C20736B69700A0020CD
:10414000205261646975733A002E48656967687426
:104150003A006F70656E206661696C65642C20465C
:10416000696C653A200000002110422063308440D1
:10417000A550C660E770088129914AA16BB18CC136
:10418000ADD1CEE1EFF13112100273325222B552AD
:104190009442F772D662399318837BB35AA3BDD386
:1041A0009CC3FFF3DEE36224433420040114E6647D
:1041B000C774A44485546AA54BB528850995EEE5D6
:1041C000CFF5ACC58DD55336722611163006D7768D
:1041D000F6669556B4465BB77AA719973887DFF726
:1041E000FEE79DD7BCC7C448E5588668A778400855
:1041F000611802282338CCC9EDD98EE9AFF9488976
:1042000069990AA92BB9F55AD44AB77A966A711AEC
:10421000500A333A122AFDDBDCCBBFFB9EEB799BC5
:10422000588B3BBB1AABA66C877CE44CC55C222C3C
:10423000033C600C411CAEED8FFDECCDCDDD2AAD15
:104240000BBD688D499D977EB66ED55EF44E133ECC
:10425000322E511E700E9FFFBEEFDDDFFCCF1BBF65
:104260003AAF599F788F8891A981CAB1EBA10CD13F
:104270002DC14EF16FE18010A100C230E320045047
:10428000254046706760B9839893FBA3DAB33DC3BA
:104290001CD37FE35EF3B1029012F322D232354297
:1042A000145277625672EAB5CBA5A89589856EF54A
:1042B0004FE52CD50DC5E234C324A01481046674E7
:1042C000476424540544DBA7FAB79987B8975FE79A
:1042D0007EF71DC73CD7D326F2369106B016576637
:1042E0007676154634564CD96DC90EF92FE9C89922
:1042F000E9898AB9ABA94458654806782768C01887
:10430000E1088238A3287DCB5CDB3FEB1EFBF98BF9
:10431000D89BBBAB9ABB754A545A376A167AF10AD6
:10432000D01AB32A923A2EFD0FED6CDD4DCDAABD09
:104330008BADE89DC98D267C076C645C454CA23C26
:10434000832CE01CC10C1FEF3EFF5DCF7CDF9BAFD9
:10435000BABFD98FF89F176E367E554E745E932E76
:10436000B23ED10EF01E20520048617264636F6449
:1043700065642044656661756C7420536574746966
:104380006E6773204C6F616465640A003B200020F7
:10439000204D3930360020204D3931330020204D5A
:1043A0003536392053310044726976657220737452
:1043B000657070696E67206D6F64653A0048796258
:1043C000726964205468726573686F6C643A002087
:1043D00054312045002054302045005374657070DE
:1043E0006572206472697665722063757272656E9B
:1043F000743A0020204D3835312058005A2D507223
:104400006F6265204F66667365740020204D3431FD
:1044100033205300506F7765722D4C6F73732052A9
:1044200065636F766572793A0020204D3330312014
:1044300050005049442073657474696E67733A0084
:1044400020460020204D3134352053004D617465E5
:104450007269616C20686561747570207061726149
:104460006D65746572733A0020480020204D363621
:1044700035204C0044656C74612073657474696EFA
:1044800067733A204C3C646961676F6E616C20729F
:104490006F643E20523C7261646975733E20483CF3
:1044A0006865696768743E20533C7365676D656E27
:1044B000747320706572207365633E2058595A3CAE
:1044C000746F77657220616E676C65207472696DB8
:1044D0003E204142433C726F64207472696D3E001D
:1044E00020204D363636205800456E6473746F7048
:1044F0002061646A7573746D656E743A00204A00B9
:104500002020473239205720490020204D343230B6
:104510002053004175746F20426564204C657665B8
:104520006C696E673A0020204D32303520420041E0
:104530006476616E6365643A20423C6D696E5F73B8
:1045400065676D656E745F74696D655F75733E2038
:10455000533C6D696E5F66656564726174653E208B
:10456000543C6D696E5F74726176656C5F666565FB
:1045700064726174653E20583C6D61785F785F6A53
:1045800065726B3E20593C6D61785F795F6A657238
:104590006B3E205A3C6D61785F7A5F6A65726B3E54
:1045A00020453C6D61785F655F6A65726B3E0020F7
:1045B000540020204D323034205000416363656C3C
:1045C00065726174696F6E2028756E6974732F73DC
:1045D00032293A20503C7072696E745F6163636582
:1045E0006C3E20523C726574726163745F616363F8
:1045F000656C3E20543C74726176656C5F616363E8
:10460000656C3E0020204D3230312058004D6178DD
:10461000696D756D20416363656C65726174696F66
:104620006E2028756E6974732F7332293A0020202A
:104630004D3230332058004D6178696D756D2066BC
:1046400065656472617465732028756E6974732F73
:1046500073293A0053746570732070657220756E0B
:1046600069743A0020440020204D3230302053003D
:104670002044697361626C65640A0046696C616D0F
:10468000656E742073657474696E67733A002020D8
:104690004D3134392043203B20556E6974732069B5
:1046A0006E2043656C736975730A0020286D6D294F
:1046B000002020473231202020203B20556E697495
:1046C0007320696E206D6D00000048430000484370
:1046D00000004843000048430000A0420000A04200
:1046E0000000A04200005144B80B0000B80B0000CD
:1046F000B80B0000B80B0000496E76616C6964204D
:1047000065787472756465720A005072696E7420FF
:104710005061757365640050726F62653A3A7072E9
:104720006F62655F646F776E5F746F5F7A002054AD
:104730007269676765726564206561726C792E00C5
:10474000204E6F20747269676765722E0020507268
:104750006F6265206661696C21202D0020573A0048
:104760003078003C3C3C00220A00556E6B6E6F773F
:104770006E20636F6D6D616E643A20220048453390
:1047800044204B3238302052656164792E005072DB
:10479000696E74696E672E2E2E0050726F626520EE
:1047A0004F66667365742058004361703A003F5A43
:1047B000206F7574206F662072616E676520280017
:1047C0003F59206F7574206F662072616E67652097
:1047D000282D0020746F20003F58206F7574206FC3
:1047E000662072616E676520282D0000002100247C
:1047F0000027002A002D00300033000101000004D2
:104800000107010A0100000A0B02090C0D0E08073E
:104810000304010000000000000000000000000090
:104820000000000000000000000000000000000088
:104830000012111000000000000000000000000045
:10484000000000000000000000000000CE020E0486
:1048500011241FBECFEFD1E2DEBFCDBF00E00CBF01
:1048600013E0A0E0B2E0E8E1F5E303E00BBF02C033
:1048700007900D92A63BB107D9F72AE1A6EBB3E06A
:1048800001C01D92A932B207E1F714E2C7E2D4E2F7
:1048900000E006C021970109802FFE010F94599670
:1048A000C632D10780E00807A9F70F9420810D9444
:1048B0007A9A0C9400002F923F924F925F926F92DF
:1048C0007F928F929F92AF92BF92CF92DF92EF92A0
:1048D000FF920F931F93CF93DF93CDB7DEB7E5978A
:1048E0000FB6F894DEBF0FBECDBF382E2090BF03A9
:1048F00021E02093BF038091151A8D3409F4CBC3B6
:10490000843511F40C947D35873411F00C94AC355A
:104910008091131A9091141A8A31910509F47BC180
:10492000BCF4843091053CF4823091050CF03FC01A
:1049300097FF31C0ACC38C30910509F40BC18531B0
:10494000910511F40C94AE35049709F0A0C3C4C0CE
:104950008132910509F408C264F48D31910509F49E
:104960007EC18E31910509F47EC14C9709F08FC349
:1049700056C18A35910509F4FBC124F48A9709F4DC
:10498000A6C285C38B35910509F4F6C18C35910516
:1049900009F4F7C17CC380911511813011F00C949A
:1049A000AE350F9473080E940B8F0C94AE35209196
:1049B0001511213011F00C94AE3511E0029709F079
:1049C00010E00F94730819821A821B821C821D82C8
:1049D0001E821F82188682E50E9418EC882309F443
:1049E0004BC00E9498EB6B017C0120E030E0A901F4
:1049F0000F945E8F882309F455C0809146029091F0
:104A00004702A0914802B09149028AA79BA7ACA790
:104A1000BDA780914A0290914B02A0914C02B091A7
:104A20004D028AAB9BABACABBDAB8090560F909068
:104A3000570FA090580FB090590F40905A0F5090B8
:104A40005B0F60905C0F70905D0FA50194016AA5EB
:104A50007BA58CA59DA50F945E8F81110C94CD35FF
:104A6000A30192016AA97BA98CA99DA90F945E8FCD
:104A70008823C1F00C94CD3589E40E9418EC88237A
:104A800031F00E9498EB69837A838B839C838AE45C
:104A90000E9418EC882331F00E9498EB6D837E838E
:104AA0008F83988720E030E0A90169817A818B812A
:104AB0009C810F945E8F81110C94813620E030E050
:104AC000A9016D817E818F8198850F945E8F811100
:104AD0000C9481360C94943680E50E9418EC88235F
:104AE00029F00F941E1B6B017C0103C0C12CD12C3B
:104AF000760183E50E9418EC882361F00E9498EB10
:104B000020E030E04AE754E40F94C48F0F940C98EF
:104B10006B017C010E94CB888091A50E811105C09C
:104B200060E08AED9BE00F94903C0F942B7AC60EC8
:104B3000D71EE81EF91E0F942B7ADC01CB018C19CD
:104B40009D09AE09BF09B7FD02C00C94AE350E94A5
:104B50006E3FF1CF0F940240F82E81110C94AE35C8
:104B600060E070E080E50F94551089A76CE070E07C
:104B700083E50F94551088A763E070E084E50F94F7
:104B800055108C8F40E050E060ED70E482E50E94AB
:104B9000188069837A838B839C838091181A87FF9E
:104BA00002C00C949B368091191A837011F00C94FA
:104BB0009B3611E002E0012B882331F060E08AE5AA
:104BC0000E9434EC882311F094E001C090E0092B9E
:104BD0001091C10502FFF12E8F2D0E94A14D60E0C2
:104BE00085E40E9434ECF0902802809328029E0114
:104BF000245E3F4FAE014F5F5F4FBE01685D7F4F48
:104C0000CE0189960F946A34F0922802812F0E9477
:104C1000A14D0C94AE350E9449EC0C94AE354091F8
:104C2000030D45FB442740F969EA7DE3CE01019677
:104C30000F94E7578091030D85FD0E94FD3D809103
:104C4000660F8770873011F00C94AB3660E08FE40C
:104C50000E9434EC81110C94DE360C94AB360F9428
:104C60008B580C94AE352091B6193091B7194091FC
:104C7000B8195091B919609146027091470280911C
:104C80004802909149020F949996AB01BC0188E5C6
:104C90000E94188069837A838B839C832091BA1940
:104CA0003091BB194091BC195091BD1960914A02D5
:104CB00070914B0280914C0290914D020F94999605
:104CC000AB01BC0189E50E9418806D837E838F83D0
:104CD0009887BE016B5F7F4FCE0101960F94F55709
:104CE000882311F40C94AE3580E00E94A14D0E94FF
:104CF0005ED884E690E090932A028093290261E0D6
:104D000085E40E9434EC01E021E0482FBE016B5F96
:104D10007F4FCE0101960F941D426B017C019B01D8
:104D2000AC010F94DF99811119C049815A816B81BF
:104D30007C8184EA9AE30E94EC3D4D815E816F8123
:104D400078858FE99AE30E94EC3DB701A6018AE9D4
:104D50009AE30E94EC3D8AE00E9457390E9445D8B0
:104D60000E949ED90C94AE350F944A1C0C94AE351B
:104D70001092C0050C94AE358FE08093C0050C9462
:104D8000AE358091121A882349F1893009F09BC011
:104D900024EDA22E22E0B22E36E4E32E32E0F32EF2
:104DA000D12C00E010E0D5018D915D010E9418EC3E
:104DB000882369F00E9498EBF701608371838283F6
:104DC0009383133011F401E002C0DD24D3941F5FFC
:104DD000F4E0EF0EF11C143031F76AC024ED32E03C
:104DE0003BA72AA787E7E82E86E0F82E96E4C92E8F
:104DF00092E0D92E00E010E0AAA5BBA58D91BBA73B
:104E0000AAA70E9418EC882309F447C00E9498EBD7
:104E10002B013C01133049F0F7012081318142819F
:104E200053810F9498962B013C01D6012D913D9111
:104E30004D915C91C301B2010F9498964B015C01B6
:104E40002DEB37E346E855EB0F944D9987FD0AC0EB
:104E50002DEB37E346E855E3C501B4010F945E8FAF
:104E60001816DCF4133051F440925202509253025F
:104E7000609254027092550201E00FC0A5019401A6
:104E8000F70160817181828193810F949996D70196
:104E90006D937D938D939C9313971F5FB4E0EB0EFE
:104EA000F11CE4E0CE0ED11C143009F0A5CF05C0F2
:104EB000DD2019F00E9490D906C0002321F082E580
:104EC00092E00E94B08C0E949ED90C94AE358091E5
:104ED0001511813011F00C94AE3589E40E9418EC64
:104EE000E82E882321F00E9494EB082F01C000E0F7
:104EF0008AE40E9418ECF82E882321F00E9494EB9B
:104F0000182F01C010E0EE2011F00B3020F4FF202C
:104F100041F01B3030F08EEF9BE00E9469390C9419
:104F2000AE3580E1E6E4F2E0A6E5BFE001900D9247
:104F30008A95E1F7EE2019F1602F000F770B880BAF
:104F4000990B0F94658F20918817309189174091A4
:104F50008A1750918B170F94C48F20918F04309132
:104F6000900440919104509192040F94999660930B
:104F7000560F7093570F8093580F9093590FFF203F
:104F800019F1612F110F770B880B990B0F94658F17
:104F900020918C1730918D1740918E1750918F175B
:104FA0000F94C48F20919304309194044091950400
:104FB000509196040F94999660935A0F70935B0FDB
:104FC00080935C0F90935D0F60E080E50E9434EC6D
:104FD0008823C1F1EE20D1F02091B6193091B71994
:104FE0004091B8195091B9196091560F7091570FAF
:104FF0008091580F9091590F0F9498966093560F87
:105000007093570F8093580F9093590FFF20D1F052
:105010002091BA193091BB194091BC195091BD191A
:1050200060915A0F70915B0F80915C0F90915D0FB2
:105030000F94989660935A0F70935B0F80935C0F58
:1050400090935D0F40E050E0BA0186E40E94188022
:105050006B017C0120E030E0A9010F944D991816F6
:105060004CF420E030E040E752E4C701B6010F9471
:10507000939703C060E070E0CB0169837A838B83F0
:105080009C83CE0101960E94BAE80C94AE350F9431
:10509000C06B0C94AE358091131A9091141A883716
:1050A000910511F40C945F300CF077C18E349105AA
:1050B00009F49FC40CF068C08A31910509F49EC3BD
:1050C000A4F58431910509F404C37CF48131910580
:1050D00009F4DDC22CF4029708F47CC20C947A35F2
:1050E000429709F4A4C60C947A358731910509F4E6
:1050F00015C394F48531910509F40CC3469711F05A
:105100000C947A350F94D5488091C315877F8062BF
:105110008093C3150C94AE358831910509F413C3FF
:10512000499709F44BC30C947A358F31910509F4F2
:105130000EC47CF48C31910509F4C1C30CF46CC32A
:105140008D31910509F4C3C34E9709F4C7C30C947C
:105150007A358B34910509F433C44CF480329105CF
:1051600009F4CCC38A9709F412C40C947A358C34B0
:10517000910509F429C48D34910511F00C947A3508
:105180000E9470780C94AE358C36910509F4B2C546
:105190000CF047C08535910509F47FC64CF5823582
:1051A000910509F436C6D4F48135910511F00C94BB
:1051B0007A350E94BAA50E9470780E94DB880E940E
:1051C000173968EE73E080E090E00E948D3860E06F
:1051D0008FE49DE00F94903C0C94AE35833591059F
:1051E00009F41EC68435910509F421C60C947A355C
:1051F0008936910509F4D3C454F48C35910509F42A
:105200006FC68836910509F486C40C947A358A36BF
:10521000910509F4D4C48B36910509F40CC50C949E
:105220007A358137910509F46DC5C4F48E36910540
:1052300009F40AC50CF490C48F36910509F415C51C
:105240008037910511F00C947A3541E060E070E010
:105250008CE19DE00E94A6390C94AE35853791050E
:1052600009F4E3C60CF08CC08237910509F4D6C668
:105270008337910511F00C947A3589EA9EE00E94FB
:10528000693960E089E99EE00F94377660E084E850
:105290009EE00F94377661E084EE99E30F943776C1
:1052A00061E089E79EE00F94377661E089E69EE051
:1052B0000F94377660E080E69EE00F94377661E0E9
:1052C00086E59EE00F94377661E08CE49EE00F94D3
:1052D000377660E085E49EE00F94377661E08DE3F9
:1052E0009EE00F94377661E08FE29EE00F94377670
:1052F00060E081E29EE00F94377660E082E19EE01C
:105300000F94377660E084E09EE00F94377660E09B
:105310008EEE9DE00F94377660E08DED9DE00F946A
:10532000377660E08EEC9DE00F94377661E087EC95
:105330009DE00F94377660E082EB9DE00F94377626
:1053400060E084EA9DE00F94377661E081E99DE0BA
:105350000F94377660E084E89DE00F94377661E043
:105360008FE79DE00F94377660E082E79DE00F9431
:10537000377660E08EE59DE00F9437760C94AE357D
:105380008637910509F461C68737910511F00C94B1
:105390007A350E94FBDD0C94AE358039F1E09F0731
:1053A00011F40C9434340CF06DC08B3C910509F46D
:1053B000ABC77CF58B39910509F405C58CF48A37A8
:1053C000910511F40C9421350CF480C68C389105AC
:1053D00009F4BAC48139910509F47FC60C947A3571
:1053E0008E3B910509F4CFC454F4833A910509F436
:1053F000E8C6843A910509F40CC70C947A35883CC8
:10540000910509F419C7893C910509F45AC70C9410
:105410007A358D3D910511F40C94BB328CF48D3CA2
:10542000910509F4C1C70CF48EC7833D910509F4B9
:10543000BEC78C3D910511F40C9494320C947A35CE
:105440008D32A1E09A0711F40C94703364F4823E1B
:10545000910511F40C9410338C32914011F40C949A
:105460005B330C947A358E32F1E09F0711F40C9483
:10547000F0338F32914011F00C947A350E942F80D6
:105480000C94AE35883F31E0930711F40C94BF348F
:105490000CF047C0843AB1E09B0711F40C944234FD
:1054A000ACF48239F1E09F0711F40C943D3414F40C
:1054B0000C9437348A3931E0930709F420C48D39CC
:1054C000914011F40C9438350C947A35853FB1E055
:1054D0009B0711F40C94B9347CF4853AF1E09F07F2
:1054E00011F40C944534843F914011F00C947A35BA
:1054F0000E94B66B0C94AE35863F31E0930711F4F1
:105500000C94BC34873F914011F00C947A3561E0E3
:1055100083E50E9434EC91E089270F9467650C9431
:10552000AE358A38B3E09B0711F40C9424352CF582
:105530008939F2E09F0711F40C94D7347CF48C3055
:1055400032E0930711F40C94CF348933924011F078
:105550000C947A350F94140B0C94AE358A39B2E062
:105560009B0711F40C94DA348335934011F00C94BA
:105570007A350F94706F0C94AE35873EF3E09F0739
:1055800011F40C942A35CCF4813933E0930711F4EB
:105590000C942735803A934011F00C947A35209181
:1055A000101A3091111A9091C31592609093C315FF
:1055B000C9010F94E4480C94AE35883EB3E09B07D4
:1055C00011F40C945935893E934011F40C945C35D8
:1055D0000C947A3580E50E9418EC882329F00F940A
:1055E0001E1B6B017C0103C0C12CD12C760183E50D
:1055F0000E9418EC882361F00E9498EB20E030E0D4
:105600004AE754E40F94C48F0F940C986B017C010B
:105610000E94CB888091101A9091111A009721F066
:1056200061E00F94053D05C060E087E19CE00F94C8
:10563000903C1091BF0383E08093BF0381E080938F
:10564000CF0EC114D104E104F10431F00F942B7A90
:10565000C60ED71EE81EF91E8091CF0E882311F4C6
:105660000C94EB36C114D104E104F10411F40C9450
:10567000F2360F942B7ADC01CB018C199D09AE090F
:10568000BF09B7FF02C00C94F2360C94EB36809140
:10569000161A84FF02C00C94F6368091181A87FF00
:1056A00002C00C94F6368091191A837011F00C9494
:1056B000F63660E08AE29CE00F94903C5F988A980E
:1056C000809108018170809306010E94CE380C946D
:1056D000AE3582E49CE00E94693982EE95E10E9439
:1056E000F49D8BE1E2EEF5E1DE01119601900D9261
:1056F0008A95E1F760E070E0CE0101960F94EF50DB
:10570000CE0101960E94024B83E39CE00E9469391E
:105710000C94AE350F94C14A0C94AE35E091101A3A
:10572000F091111A8081882329F0803209F41082C7
:105730003196F8CF60E08091101A9091111A0F9471
:1057400032490C94AE3583E50E9418EC882321F091
:105750000E9460EB0E942D8584E50E9418EC88234E
:10576000A9F00E9460EB6B017C010E946AE2C0928A
:105770008005D0928105E0928205F0928305CD28C4
:10578000CE28CF2819F081E08093F5190E94F738D0
:10579000882381F00F94144A0E94D58785E096E013
:1057A0000F948B481092A4041092A5041092A604A2
:1057B0001092A7040F94446A0C94AE358091C315DF
:1057C00082FF03C08B7F8093C3158091901788233D
:1057D00019F081E00E943AD68091F519813051F795
:1057E00082E08093F5190F942B7A6093870470936D
:1057F00088048093890490938A04DCCF8091C31538
:1058000083FD02C00C94AE3583E50E9418EC811133
:105810000C9413370C94AE3583E40E94CFEB8823AD
:1058200019F18DE59CE00E94693980912917882340
:1058300091F0BE016F5F7F4F86E297E10E94BB9CB3
:105840008E010F5F1F4FD8018D918D01882339F094
:105850000E945739F8CF83E59CE00E9469398AE0BD
:105860000E9457390C94AE358091C31582FF21C038
:105870008CE69CE00E9469396091BF157091C0155B
:105880008091C1159091C2154AE00E946D3A8FE255
:105890000E9457396091BB157091BC158091BD1560
:1058A0009091BE154AE00E946D3A0E94473F0C94C9
:1058B000AE358EE79CE00E9469390C94AE3580913C
:1058C000101A9091111A0F94E4480C94AE358091FF
:1058D000C3158E7F8093C3150C94AE358091C3158C
:1058E00083FD02C00C94AE350F94A96B8091101A01
:1058F0009091111A0E94EBAF0C94AE358091C315B4
:1059000082FD0E94CB888091C31583FD02C00C9458
:10591000AE3560E080E50E9434EC182F682F80914E
:10592000101A9091111A0F94324983E50E9418ECD5
:10593000882321F00E9460EB0E942D850F94144A69
:1059400011110C94AE350E94D5870C94AE350E948F
:1059500036E26C8F7D8F8E8F9F8FBE016F5F7F4F82
:10596000CE014C960E944E8460E0CE0101960F94C9
:10597000053D0E94A239BE016F5F7F4F8FE89CE01A
:105980000E948B398AE00E9457390C94AE356DE045
:1059900070E080E50E9425EC8C0197FF02C00C941A
:1059A000AE35E82E60E089E40E9434EC81110C945D
:1059B0001837802F0F94817A81114FC60C941837B5
:1059C0000E94D5870C94AE358091F519813011F085
:1059D0000C94AE3582E08093F5190F942B7A609386
:1059E0008704709388048093890490938A040C94AC
:1059F000AE3560E070E083E50E9425EC8E349105C1
:105A000031F40E9431880F94446A0C94AE3584E0DE
:105A10009DE00E9469396091740F7091750F8BEF52
:105A20009CE00E9481396091760F7091770F8EEE25
:105A30009CE00E9481396091740F7091750F809184
:105A4000760F9091770F681B790B8091F519815033
:105A500021E030E0823010F020E030E0621B730B78
:105A600083EE9CE00E9481398AE00E94573984E0ED
:105A70009DE00E9469398091780F9091790FA091F3
:105A80007A0FB0917B0F8C8F9D8FAE8FBF8FBE0131
:105A90006F5F7F4FCE014C960E944E84BE016F5FB8
:105AA0007F4F86ED9CE00E948B3980917C0F909116
:105AB0007D0FA0917E0FB0917F0F8C8F9D8FAE8F49
:105AC000BF8FBE016F5F7F4FCE014C960E944E8408
:105AD000BE016F5F7F4F86EC9CE00E948B3920E017
