:100000000C9490230C94C1230C94C1230C94C12311
:100010000C94C1230C94C1230C94C1230C94C123D0
:100020000C94C1230D9473730D9473730D947373B7
:100030000C94C1230D94AC130C94C1230C94C123D4
:100040000C94C1230C9474F70C94C1230C94C12319
:100050000C94C1230C94C1230C94868B0D9494753D
:100060000C94C1230C94D3430C94C9430C94C12326
:100070000C94C1230C94C1230C94C1230C94C12370
:100080000C94C1230C94C1230C94C1230C94C12360
:100090000C94C1230C94C1230C94C1230C94C12350
:1000A0000C94C1230C94C1230C94C1230C94C12340
:1000B0000C94C1230C94C1230C94C1230C94C12330
:1000C0000C94C1230C94C1230C94C1230C94C12320
:1000D0000C94C1230C94C1230C94C1230C94C12310
:1000E0000C94C123C75DB15ECD5DD75DE15DEB5D75
:1000F000015E0E5EB15E1B5EB15EB15EB15EB15E71
:10010000B15E295EB15E315E3B5E4F5E615E705EE8
:10011000B15E7A5E845E8E5E9D5EB15EA75ED05EED
:10012000F65FD95EE65EF35E005F195F295FF65FFA
:10013000395FF65FF65FF65FF65FF65F4A5FF65F80
:10014000555F655F7C5F945FA65FF65FB35FC05FDE
:10015000CD5FDF5FF65FEC5F15603B611E602B607B
:10016000386045605E606E603B617E603B613B6114
:100170003B613B613B618F603B619A60AA60C160FB
:10018000D960EB603B61F8600561126124613B61FD
:1001900031615A61346260616861706178618E6159
:1001A00099613462A46134623462346234623462CC
:1001B000B0613462B861C361D661E861FA613462EA
:1001C00004620C621462236234622D6213034303DF
:1001D000E7024902C1027D03C102730457031502FD
:1001E00085038103E901270241040304F702710436
:1001F0007104C70371049104BD03A3030502B50391
:10020000F70375047702CD0187045B044B044B04AC
:1002100075034B04D3011503DD038D04C902550496
:10022000F102FB02A9031F041102BF01BF01A901D2
:10023000BF013104DB01AB030B0361038102070340
:100240000F021703FF036702C702C702DF01C702DD
:100250005F02E5023F03BB030D02270415047F0381
:100260001902D90161044502450245024502010413
:100270004D04A902210489047D029103EB0273035A
:10028000BF03BF03BF03BF031F021D020303EB0332
:10029000BF02FF01DB024B038D037B027B027B026B
:1002A0007B02D101ED0331039B027B0365049303C1
:1002B0007904D9036F046F046F046F042D046B037A
:1002C0009903B502C1016303FB01DF03DD010F03E5
:1002D000B101B5016904AF03E301FB01AF025303B0
:1002E00077044102F5031B04790213027703DD0250
:1002F0009702C50175027B04270311039F02770350
:10030000AD01C301E501084AD73B3BCE016E84BC79
:10031000BFFDC12F3D6C74319ABD56833DDA3D005F
:10032000C77F11BED9E4BB4C3E916BAAAABE0000A8
:1003300000803F05A84CCDB2D44EB93836A9020C86
:1003400050B9918688083CA6AAAA2ABE000000805F
:100350003F000D9411040C9407DE0D9427750C9446
:10036000DE810D9428730C94D05E0D942C730D9443
:100370005D100C94F8600C947E600C94A4610D9454
:1003800026040D9409730D9431750D94E6740C9444
:100390004BD60C9408970C94295F0D9497030D94F9
:1003A000B01D0D94AB060D94AE030D94A3210D94D6
:1003B00015820D9407050D941C040D941E730D9465
:1003C00078040D94BF720D943A730D943B750C94A0
:1003D000E9990D9427030C94ACD50D94EA070C947D
:1003E000D2930C94D75D0C9431DE0C94C7920C948C
:1003F000CD920D94EE070D944D730C949EA00D9428
:100400006A060C9415A20D94231D0D9476030C948A
:10041000395F0C949A600C945E600D94D1040D9435
:1004200064040D940A040D94CC740D940E030D9481
:1004300080070D94FC040C9480A10D942C060D945F
:10044000E4050C94DBDB0C940E5E0C943BD90D940C
:100450002D030C944F5E0D946E720D94DB200C9462
:1004600023620C9470D60C94CD5F0D94D5070C9438
:10047000A75E0C94D9600C94F35E0D94F8200C9454
:1004800076D60D94AE740C94F9990D9446050C949F
:10049000015E0D94DE010C94A8DD0C94CD5D0D94ED
:1004A000AA130C940DDE0C942BA40C9461910C9463
:1004B0001E600D9480130C947CD50C94B8610D943F
:1004C0007D040C94948D0C940C9A0C9424610D94DE
:1004D00071040C94B15E0C9460610C94B78D0C9413
:1004E000A8DC0D94D1070C94EA9B0D94F0740D9444
:1004F00095030D94C2740D94D4060D94A3050C9429
:1005000084A00D9450040C9434620C94C5D60C94C1
:1005100024E10C94005F0C9431610C9446540D94CA
:100520003A1D0C941E440C94655F0C9426DC0D94CB
:10053000DE740C94CCD60D940A070C948F600D9445
:100540001D750C949D5E0D94C11D0C945A610C9404
:100550003B610D9471050C9416970C9425DE0D9457
:1005600040730C94B3920C946E600D9405730C94CC
:1005700046D60C946FD40D9433820C94AA600D94DB
:1005800059060D940C020C94E7A00C94A0A00D94B5
:100590008D040D94E4030C9454DC0C9445600C948D
:1005A000DEA00C94D6A20D94F71F0C943B5E0D9424
:1005B000941D0D94F11D0D947B060D94D6740D942D
:1005C000501D0C9416950C9425A20D9483040D9443
:1005D000D3010D94EE200D94C5050C94EEE30C941C
:1005E00039E20D94F7030C9458E20C9478D40D94EE
:1005F0003A030C94E98D0D94FD030D941B1D0C948E
:100600001A440C9405610D9438060C941C440D9406
:100610005E040C94615E0D9445040C94E65E0D94AA
:1006200024730D9413750D94BA010D94B4030D94B5
:1006300066040D9470100C9404620C94A6D50C946E
:100640000E9E0C948E610C9466500D94E0200D94D7
:1006500004750C94129A0C9442A10C94845E0C9430
:1006600039A10D94FC060C94C05F0C94945F0C941B
:10067000E8610C94C2D50C94EF960C9424950D94DB
:1006800088040D94BE1D0D94BE010C94C2DB0C9425
:100690005CE20C942D620D948C060C941B5E0C9401
:1006A000B8D50C947C5F0D9444730C94FD4D0D945F
:1006B000F5010C94C1600C94DAA70C9450D60C94FC
:1006C00068610D944B040D940F730C94EC5F0C94C3
:1006D00069500C94C75D0D9413730D94EC150C9434
:1006E0007A5E0C94F65F0D94D6050D94A9030D94D3
:1006F00045750D94BD1D0D9415070D94E8010D94DD
:10070000F1040D9419030C94315E0D9414030C94B0
:10071000F4DB0D94D51D0C94B3D50D949D060C946B
:100720000C620D94B4050D942B070C94BCDD0C9455
:10073000F0670D9416730C9412610C94C1A10C9483
:10074000ED990C94189A0D9451030C9467DC0C9459
:1007500037960D94FF030D9421040C946C500D9466
:1007600036730D94721D0C94E15D0D947C030C9412
:100770001DA20C94EB5D0D94CB040D944C030D94D1
:100780000D060C94F69B0C94E9DD0C944D4C0D94E5
:1007900041030C94195F0C940F950C944A5F0C94D0
:1007A0005CD40C9474D50C942BDE0C9437DE0C9432
:1007B000EB600D9440070C94DFE30D94B9030D94A6
:1007C0001A730C945EE20C94705E0C9484D50C94B5
:1007D000C08D0D949A1F0D9448060D94F3060C9449
:1007E0000DDC0C94DF5F0D946F720D94B3740D9457
:1007F00081030C94C3610C949F460C94B0610D94DA
:100800006C040D941D050D9435030C94ADDD0C9412
:10081000E7DF0C94CBDD0C9438600C94A0D50D94DC
:10082000E6070C9441DC0C9413DE0D94E6040C9462
:1008300019DE0C942B600D94B8740C9480DC0D942C
:1008400005040D9481050C9478610C947CD60D946C
:10085000DB040C9494D50C94555F0D944A070C94CA
:10086000F8DD0D9416040C94DC960C9499610C94AC
:1008700021DA0C9499DC0C9460E20C945AE20C940A
:10088000C9D70D942F030C94A65F0C9401DE0C9431
:100890001E9A0C9428970D94BE030D9465050C9434
:1008A0008CD50C94D95E0C94D6610D94E9030C940C
:1008B000BFA00C941FDE0D94A2030C94BDD50D9423
:1008C000E5200D9412050C94AED50D9420070C94E0
:1008D0001D950D9432730C94F4490C946AD60D94C2
:1008E00070070D9456030D9402020D948F030D941E
:1008F00048730D9436070D94FA740C9414620C949A
:1009000020440C9415600C94DADD0C94FA610D947B
:100910009D030D9492050C948E5E0D94DE030C9451
:10092000B35F0D9446030C94B5920C94295E0C941D
:1009300095A50C9470610D94D7724E414E494E4965
:100940005459494E46CDCCCC3D0AD7233C17B7D19C
:100950003877CC2B329595E6241FB14F0A00002042
:10096000410000C84200401C4620BCBE4CCA1B0EC1
:100970005AAEC59D7400407A10F35A00A0724E180A
:10098000090010A5D4E80000E87648170000E40B41
:1009900054020000CA9A3B000000E1F50500008007
:1009A000969800000040420F000000A08601000061
:1009B00000102700000000E80300000000640000B1
:1009C0000000000A00000000000100000000002CF0
:1009D00076D888DC674F0823DFC1DFAE59E1B1B7B5
:1009E00096E5E3E453C63AE651997696E8E6C28482
:1009F00026EB898C9B62ED407C6FFCEFBC9C9F409A
:100A0000F2BAA56FA5F490055A2AF75C936B6CF9BE
:100A1000676DC11BFCE0E40D47FEF520E6B500D094
:100A2000ED902E0300943577050080841E080000A9
:100A3000204E0A000000C80C333333330F986E1277
:100A4000831141EF8D2114893BE65516CFFEE6DB7D
:100A500018D1844B381BF77C1D901DA4BBE42420C7
:100A60003284725E228100C9F124ECA1E53D274C5D
:100A70004556454C494E4700434F4D4D554E494311
:100A80004154494F4E0044525952554E004552521E
:100A90004F525300494E464F004543484F0047329E
:100AA0002F47332062616420706172616D657465E7
:100AB00072730A00536C6565702E2E2E003E2068FE
:100AC0006F6D696E67206E6F74206E656564656416
:100AD0002C20736B69700A004D65736820706F6914
:100AE0006E74206F7574206F662072616E67650A80
:100AF00000436C69636B20746F20526573756D657C
:100B00002E2E2E004E6F204D6F76652E00456E64A2
:100B10002066696C65206C6973740A0042656769B8
:100B20006E2066696C65206C6973740A00286E6FAC
:100B30002066696C65290043757272656E74206663
:100B4000696C653A20005344207072696E74696E56
:100B500067206279746520004E6F742053442070C2
:100B600072696E74696E670A005072696E742074DF
:100B7000696D653A2000496E76616C696420506940
:100B80006E204D6F64650A000A53746174733A20D5
:100B900046696C616D656E7420757365643A2000FA
:100BA0002C204C6F6E67657374206A6F623A200068
:100BB000546F74616C2074696D653A20002C204676
:100BC00061696C65643A20002C2046696E6973681F
:100BD00065643A20005072696E74733A2000537451
:100BE0006174733A200045202553006F6666004407
:100BF000454255473A004D3131322053687574648F
:100C00006F776E004D3131332053004265642043CD
:100C10006F6F6C696E672E2E2E00426564204865EA
:100C20006174696E672E2E2E0048453344204B3286
:100C30003830204F46462E004348414D4245525FD2
:100C400054454D5045524154555245004241425938
:100C50005354455050494E470041524353004D4F65
:100C600054494F4E5F4D4F44455300544845524DF3
:100C7000414C5F50524F54454354494F4E004C4FE6
:100C80004E475F46494C454E414D45004155544FF6
:100C90005245504F52545F53445F5354415455533F
:100CA000005344434152440050524F4D50545F53FF
:100CB0005550504F525400454D455247454E4359AB
:100CC0005F50415253455200434153455F4C4947A1
:100CD00048545F4252494748544E45535300544F7D
:100CE00047474C455F4C494748545300534F46547F
:100CF000574152455F504F574552004255494C4469
:100D00005F50455243454E54004C4556454C494E64
:100D1000475F44415441005A5F50524F4245005290
:100D2000554E4F5554004155544F4C4556454C0077
:100D30005052494E545F4A4F420050524F4752451D
:100D40005353004155544F5245504F52545F5445F0
:100D50004D5000564F4C554D455452494300424961
:100D60004E4152595F46494C455F5452414E53469D
:100D700045520053455249414C5F584F4E5F584FC2
:100D80004646004649524D574152455F4E414D45FA
:100D90003A4D61726C696E206275676669782D32B2
:100DA0002E302E78202841756720333120323032A2
:100DB000302032323A35373A35322920534F5552A6
:100DC00043455F434F44455F55524C3A68747470D5
:100DD000733A2F2F6769746875622E636F6D2F4D9C
:100DE00061726C696E4669726D776172652F4D61D3
:100DF000726C696E2050524F544F434F4C5F5645B2
:100E00005253494F4E3A312E30204D414348494EBE
:100E1000455F545950453A48453344204B323830A9
:100E20002045585452554445525F434F554E543A0D
:100E30003120555549443A63656465326132662D07
:100E4000343161322D343734382D396231322D63EB
:100E500035356336326633363766660A002F2F2003
:100E6000004D31343520533C696E6465783E206F07
:100E70007574206F662072616E67652028302D3191
:100E8000290A00416363656C65726174696F6E3A2B
:100E900020500020204D61783A200020204D696EBE
:100EA0003A2000536F667420656E6473746F7073BC
:100EB0003A200046523A0020466C6F773A200050A4
:100EC000726F7465637465642050696E0A002064F3
:100ED0003A0020693A0020703A006469730043299F
:100EE0000A0061626C656420286D696E2074656D0E
:100EF000702000436F6C642065787472756465734C
:100F00002061726520004D34323120696E636F724A
:100F10007265637420706172616D657465722075AD
:100F2000736167650A00454550524F4D204F4B0A8B
:100F3000005D203D200064656C74615F656E6473C4
:100F4000746F705F61646A5B004D36363600506FB7
:100F50007765722D6C6F7373207265636F7665723F
:100F6000792000446F6E65207072696E74696E67D7
:100F70002066696C650A004D3737004D33310099A2
:100F80000A940A8D0A860A780A6F0A4572726F728D
:100F90002077726974696E6720746F2045455052DE
:100FA0004F4D210A004D343130004D313132004D6A
:100FB0003130380053544F505045442E2000507269
:100FC000696E7465722073746F70706564206475E7
:100FD0006520746F206572726F72732E2046697877
:100FE00020746865206572726F7220616E6420756E
:100FF0007365204D39393920746F207265737461BF
:1010000072742E202854656D7065726174757265F6
:101010002069732072657365742E2053657420698E
:10102000742061667465722072657374617274698C
:101030006E67290A004E6F20436865636B73756D98
:101040002077697468206C696E65206E756D6265C5
:10105000722C204C617374204C696E653A200063D9
:101060006865636B73756D206D69736D617463681A
:101070002C204C617374204C696E653A20004C69D9
:101080006E65204E756D626572206973206E6F7497
:10109000204C617374204C696E65204E756D6265DD
:1010A000722B312C204C617374204C696E653A2090
:1010B000004D313130005344207265616420657207
:1010C000726F720A002121204B494C4C20636175DC
:1010D000736564206279204B494C4C2062757474AE
:1010E0006F6E2F70696E0A002121204B494C4C20F5
:1010F00063617573656420627920746F6F206D750C
:10110000636820696E6163746976652074696D65D2
:10111000202D2063757272656E7420636F6D6D6132
:101120006E643A2000627573793A20706175736558
:101130006420666F7220696E7075740A0062757340
:10114000793A2070617573656420666F72207573DB
:1011500065720A00627573793A2070726F63657305
:1011600073696E670A004D656469612052656D6F31
:10117000766564004D6564696120496E73657274BB
:101180006564004D31303030205300506C65617320
:1011900065205265736574005052494E5445522083
:1011A00048414C5445440025533A202553004B49AF
:1011B0004C4C45442E20005072696E746572206854
:1011C000616C7465642E206B696C6C2829206361E6
:1011D0006C6C6564210A006563686F3A0045727241
:1011E0006F723A0066616C736500747275650020F9
:1011F0002864697361626C6564290A0041424C206D
:1012000041646A7573746D656E74205A0020286598
:101210006E61626C6564290A0041626F76650053F5
:10122000616D65205A2061730042656C6F770041E3
:1012300075746F20426564204C6576656C696E67D5
:101240003A2042494C494E45415200204E6F7A7A2D
:101250006C65290A00202620002D43656E74657296
:10126000002D46726F6E74002D4261636B00202862
:10127000416C69676E656420576974680020284D69
:101280006964646C650020284C65667400202852EF
:10129000696768740050726F62653A204649585F0A
:1012A0004D4F554E5445445F50524F42450A004DF4
:1012B000616368696E6520547970653A2044656C95
:1012C00074610A005D0A004578747261706F6C6128
:1012D0007465205B00363726023C3D380F2E303EC9
:1012E00012131A1C1824221E0A074308090708446F
:1012F000000146696C2E204469612E004520696E0C
:10130000206D6DC2B300200220466163740020028C
:10131000204D6178002002204D696E004175746F88
:1013200074656D70005654726176204D696E00567A
:101330006D696E00566D6178204500566D617820AC
:101340004300566D6178204200566D61782041005F
:10135000416D6178204500416D6178204300416D09
:101360006178204200416D6178204100412D547226
:101370006176656C00412D52657472616374004141
:101380006363656C00656E7175657565696E672070
:1013900022006F6B00526573656E643A2000256908
:1013A0007920256964202569682025696D202569D3
:1013B000730023646566696E652044454641554C5B
:1013C000545F004B6420004B6920004B702000509C
:1013D0004944204175746F74756E652066696E6945
:1013E00073686564212050757420746865206C6191
:1013F0007374204B702C204B6920616E64204B6409
:1014000020636F6E7374616E74732066726F6D20EB
:1014100062656C6F7720696E746F20436F6E6669CA
:101420006775726174696F6E2E680A0050494420B6
:101430004175746F74756E65206661696C656421B1
:101440002074696D656F75740A000A20436C6173BE
:1014500073696320504944200A00204B643A2000FD
:10146000204B693A2000204B703A20002054753AF6
:101470002000204B753A2000206D61783A20002032
:101480006D696E3A200020643A2000206269617321
:101490003A2000504944204175746F74756E652080
:1014A00073746172740A00504944204175746F74FA
:1014B000756E65206661696C6564212054656D7088
:1014C0006572617475726520746F6F2068696768F2
:1014D0000A00504944204175746F74756E65005060
:1014E0004944204175746F74756E65206661696C3E
:1014F0006564212042616420657874727564657248
:10150000206E756D6265720A007C4D61726C696E49
:101510007C002D2D2D2D2D2D00456E636C6F737568
:101520007265004D6F76696E672E2E2E00A1000049
:10153000006900A20000006300B00000000900C1C3
:101540000000004100C20000004100C30000004153
:1015500000C40000004100C50000004100C60000BA
:10156000004145C70000004300C80000004500C915
:101570000000004500CD0000004900D10000004EF1
:1015800000D50000004F00D60000004F00D700003B
:10159000007800DC0000005500DD0000005900E08C
:1015A0000000006100E10000006100E20000006155
:1015B00000E30000006100E40000006100E50000BD
:1015C000006100E60000006165E70000006300E8DC
:1015D0000000006500E90000006500EA0000006509
:1015E00000EB0000006500EC0000006900ED000069
:1015F000006900EE0000006900EF0000006900F1E2
:101600000000006E00F20000006F00F30000006FA9
:1016100000F40000006F00F50000006F00F600000D
:10162000006F00F80000006F00F90000007500FA7C
:101630000000007500FB0000007500FC0000007554
:1016400000FD0000007900FF0000007900040100A7
:101650000041000501000061000601000043000791
:1016600001000063000C01000043000D0100006355
:10167000000E01000044000F010000640011010091
:101680000064001901000065001A01000045001BFC
:1016900001000065001F01000067003001000049E3
:1016A00000310100006900410100004C00420100CE
:1016B000006C00430100004E00440100006E004831
:1016C0000100006E00580100005200590100007234
:1016D000005A01000053005B01000073005F01002D
:1016E0000073006001000053006101000073006599
:1016F00001000074006F01000075007C0100007A99
:10170000007D0100005A007E0100007A0092010075
:10171000006600E30200007800222000002E001E78
:10172000210000507822210000544D902100003CFF
:101730002D922100002D3EB02100000300BB2100AE
:101740000004003C2200007E00482200007E3D6034
:10175000220000213D612200003D00642200003C87
:101760003D652200003E3DF12300000700A030004F
:10177000003D0021F301000200C2F401000500A2B7
:10178000000000EC00B0000000DF00E4000000E119
:1017900000F6000000EF00F7000000FD00FC000074
:1017A00000F500E3020000EB0087030000A5008FB6
:1017B000030000F40098030000F2009E030000E321
:1017C00000A3030000F600A9030000F400AC03002E
:1017D00000E000AD030000E300B1030000E000B250
:1017E000030000E200B5030000E300B8030000F2CC
:1017F00000BC030000E400BE030000E300C00300DF
:1018000000F700C1030000E600C3030000E50090FC
:101810002100007F00922100007E001A220000E8D3
:10182000001E220000F30088250000FF00023000A7
:1018300000A1000C300000A2000D300000A3009BAE
:10184000300000DE009C300000DF00A03000003DD2
:1018500000A1300000A700A2300000B100A33000BA
:1018600000A800A4300000B200A5300000A900A626
:10187000300000B300A7300000AA00A8300000B478
:1018800000A9300000AB00AA300000B500AB30006A
:1018900000B600AC300000B6DEAD300000B700AEE0
:1018A000300000B7DEAF300000B800B0300000B844
:1018B000DEB1300000B900B2300000B9DEB3300054
:1018C00000BA00B4300000BADEB5300000BB00B68C
:1018D000300000BBDEB7300000BC00B8300000BCF8
:1018E000DEB9300000BD00BA300000BDDEBB300004
:1018F00000BE00BC300000BEDEBD300000BF00BE38
:10190000300000BFDEBF300000C000C0300000C0AB
:10191000DEC1300000C100C2300000C1DEC33000B3
:1019200000AF00C4300000C200C5300000C2DEC6F7
:10193000300000C300C7300000C3DEC8300000C460
:1019400000C9300000C4DECA300000C500CB300042
:1019500000C600CC300000C700CD300000C800CE6B
:10196000300000C900CF300000CA00D0300000CAEB
:10197000DED1300000CADFD2300000CB00D330000F
:1019800000CBDED4300000CBDFD5300000CC00D659
:10199000300000CCDED7300000CCDFD8300000CDE6
:1019A00000D9300000CDDEDA300000CDDFDB3000C2
:1019B00000CE00DC300000CEDEDD300000CEDFDE09
:1019C000300000CF00DF300000D000E0300000D158
:1019D00000E1300000D200E2300000D300E330002C
:1019E00000AC00E4300000D400E5300000AD00E6BB
:1019F000300000D500E7300000AE00E8300000D62F
:101A000000E9300000D700EA300000D800EB3000D9
:101A100000D900EC300000DA00ED300000DB00EF10
:101A2000300000DC00F2300000A600F3300000DDE2
:101A300000F4300000B3DEF7300000DCDEFA3000E6
:101A400000A6DEFB300000A500FC300000B000FD69
:101A5000300000A400074E0000FB0086510000FC8F
:101A60000043530000FA0064FF0000A40065FF007B
:101A700000A50066FF0000A60067FF0000A7006841
:101A8000FF0000A80069FF0000A9006AFF0000AA8B
:101A9000006BFF0000AB006CFF0000AC006DFF00AE
:101AA00000AD006EFF0000AE006FFF0000AF0070E1
:101AB000FF0000B00071FF0000B10072FF0000B233
:101AC0000073FF0000B30074FF0000B40075FF0056
:101AD00000B50076FF0000B60077FF0000B7007881
:101AE000FF0000B80079FF0000B9007AFF0000BADB
:101AF000007BFF0000BB007CFF0000BC007DFF00FE
:101B000000BD007EFF0000BE007FFF0000BF008020
:101B1000FF0000C00081FF0000C10082FF0000C282
:101B20000083FF0000C30084FF0000C40085FF00A5
:101B300000C50086FF0000C60087FF0000C70088C0
:101B4000FF0000C80089FF0000C9008AFF0000CA2A
:101B5000008BFF0000CB008CFF0000CC008DFF004D
:101B600000CD008EFF0000CE008FFF0000CF009060
:101B7000FF0000D00091FF0000D10092FF0000D2D2
:101B80000093FF0000D30094FF0000D40095FF00F5
:101B900000D50096FF0000D60097FF0000D7009800
:101BA000FF0000D80099FF0000D9009AFF0000DA7A
:101BB000009BFF0000DB009CFF0000DC009DFF009D
:101BC00000DD009EFF0000DE009FFF0000DF00E55B
:101BD000FF00005C00001C1F11111F00000006190F
:101BE0001803130C00040E1F041C000000000E1349
:101BF00015110E00001C10181705060500040A0A2E
:101C00000A0A11110E0C12120C00000000001F1520
:101C100011151F0000000000000102040400000074
:101C20001C1C0C0404040201000000000004081045
:101C3000000000000042696C696E656172204C65AD
:101C400076656C696E6720477269643A0A00203ACB
:101C5000202E2E2E4E6F77204F4E0A00203A204C19
:101C60006576656C696E67204F46460A00203A200B
:101C70002E2E2E4E6F77204F46460A00203A204CDB
:101C80006576656C696E67204F4E0A0072657365F4
:101C9000745F6265645F6C6576656C0A002F333132
:101CA000005761726E696E673A20486F6D696E67A2
:101CB0002042756D702044697669736F72203C20F4
:101CC000310A005D00646F5F686F6D696E675F6DFC
:101CD0006F7665003C3C3C20686F6D656178697388
:101CE000280061646A44697374616E63653A0048F0
:101CF0006F6D65203220536C6F773A0A004D6F7616
:101D00006520417761793A0A00486F6D652031207E
:101D1000466173743A0A003E3E3E20686F6D65610D
:101D200078697328000A0A0A555585425555854237
:101D3000555585420000A0400000A0400000A04092
:101D400000008C4300008C43008018440101010016
:101D50000000010000000100008000555555000002
:101D600000400033333300AAAA2A0049922400001D
:101D7000002000C7711C0099991900D14517005522
:101D80005515003BB1130024491200111111000038
:101D90000010000F0F0F00E3380E0043790D00CC48
:101DA000CC0C00C3300C00E8A20B0064210B00AA8D
:101DB000AA0A00703D0A009DD80900427B090092E2
:101DC000240900DCD30800888808001042080000BD
:101DD000000800F0C10700878707007550070071F1
:101DE0001C07003EEB0600A1BC06006990060066D9
:101DF000660600703E06006118060017F4050074C0
:101E0000D105005BB00500B2900500627205005577
:101E100055050078390500B81E0500050505004E7A
:101E2000EC040087D40400A1BD040090A70400497D
:101E3000920400C17D0400EE690400C7560400440A
:101E40004404005C32040008210400411004000036
:101E50000004003FF00300F8E0030026D20300C3B3
:101E6000C30300CCB503003AA803000A9B03003863
:101E70008E0300C08103009F750300D069030050EA
:101E80005E03001D53030034480300913D030033FB
:101E900033030016290300381F0300971503003091
:101EA0000C0300030303000BFA020049F10200BA1D
:101EB000E802005CE002002DD802002DD00200599B
:101EC000C80200B0C0020031B90200DAB10200AAB3
:101ED000AA0200A0A30200BC9C0200FA9502005CCA
:101EE0008F0200DF88020082820200457C02002708
:101EF00076020027700200436A02007C640200D070
:101F00005E02003F590200C8530200FFFDFCFAF8D0
:101F1000F6F4F2F0EEECEAE9E7E5E3E1E0DEDCDA44
:101F2000D9D7D5D4D2D0CFCDCBCAC8C7C5C3C2C0EC
:101F3000BFBDBCBAB9B7B6B4B3B2B0AFADACAAA965
:101F4000A8A6A5A4A2A1A09E9D9C9A9998979594B5
:101F50009392908F8E8D8B8A8988878684838281E5
:101F6000807F7E7D7B7A79787776757473727170F5
:101F70006F6E6D6C6B6A69686766656463626160E9
:101F80005F5E5D5C5B5A59585857565554535251D1
:101F900050504F4E4D4C4B4A4A494847464645449F
:101FA00043424241403F3E3E3D3C3B3B3A3938385C
:101FB00037363535343332323130302F2E2E2D2C0A
:101FC0002B2B2A29292827272625252423232221AC
:101FD0002120201F1E1E1D1C1C1B1B1A191918183E
:101FE000171616151514131312121111100F0F0EC8
:101FF0000E0D0D0C0C0B0A0A090908080707060646
:10200000050504040303020201000050726F6265BB
:102010003A3A646F5F7A5F7261697365280064653C
:10202000706C6F793A2000203A2050726F62653AE6
:102030003A7365745F6465706C6F7965640A005308
:10204000657474696E67732053746F7265640020E1
:1020500062797465733B2063726320005365747406
:10206000696E67732053746F72656420280045455C
:1020700050524F4D206461746173697A65206572B6
:10208000726F722E0A002073746F7265642073651C
:102090007474696E677320726574726965766564BD
:1020A000202800202863616C63756C617465642965
:1020B000210A0020213D2000454550524F4D20432C
:1020C0005243206D69736D61746368202D202873FD
:1020D000746F726564292000496E6465783A200047
:1020E000204D61726C696E3D563831290A004545B4
:1020F00050524F4D2076657273696F6E206D697313
:102100006D617463682028454550524F4D3D005421
:102110004845524D414C2052554E4157415900546B
:102120006865726D616C2052756E617761790045EA
:1021300072723A204D415854454D50004D4158540B
:10214000454D502074726967676572656400457219
:10215000723A204D494E54454D50004D494E54451C
:102160004D502074726967676572656400202F00A6
:102170002042403A0020403A007C3C3E5E2B3D3FEE
:102180002F5B5D3B2C2A225C000009121B242D369C
:102190003F48415A536C657E7719100B023D342F2E
:1021A000265158434A757C676E323B2029161F041E
:1021B0000D7A7368615E574C452B2239300F061D2E
:1021C00014636A7178474E555C646D767F4049525E
:1021D0005B2C253E3708011A137D746F6659504BEE
:1021E00042353C272E1118030A565F444D727B601E
:1021F000691E170C053A3328214F465D546B6279EE
:1022000070070E151C232A31384148535A656C77E4
:102210007E09001B122D243F3658514A437C756EAF
:10222000671019020B343D262F737A6168575E459B
:102230004C3B3229201F160D046A6378714E475CAF
:1022400055222B3039060F141D252C373E0108135B
:102250001A6D647F7649405B523C352E2718110A6F
:1022600003747D666F5059424B171E050C333A219B
:10227000285F564D447B7269600E071C152A23386F
:1022800031464F545D626B70794F6666004F6E0049
:10229000544D4320447269766572730046616E2026
:1022A0005370656564004D61696E00537465616CBF
:1022B000746843686F7020456E61626C656400539A
:1022C00074657070696E67204D6F6465004879624F
:1022D000726964205468726573686F6C640044723C
:1022E000697665722043757272656E7400436F6E15
:1022F00074726F6C00466C6F77002568753A2530F4
:102300003268750025303268753A253032687500BC
:102310005344002020202020202000257320256405
:102320003B25642525200050726F6265205A204F9E
:10233000666673657400416476616E6365642053FC
:10234000657474696E677300547A00547900547828
:1023500000457A0045790045780045646974204D50
:10236000657368004C6576656C2042656400473291
:10237000380A47323900526573746F7265204465BC
:102380006661756C747300507265686561742024B1
:1023900020436F6E660044656C74612043616C6914
:1023A00062726174696F6E004469616720526F6484
:1023B0000052616469757300486569676874004C10
:1023C0006F61642053657474696E67730053746F32
:1023D00072652053657474696E677300506F77651A
:1023E00072204F757461676500436F6E666967752B
:1023F000726174696F6E0043616E63656C00446561
:102400006C74612053657474696E677300417574F0
:102410006F2043616C6962726174696F6E0047334B
:1024200033004D313030300053746F70205072697A
:102430006E7400526573756D65205072696E74001C
:1024400053746F70004368616E6765204D65646901
:1024500061004D3231004D69786572004E6F204D3C
:10246000656469610054756E65005061757365201F
:102470005072696E7400496E666F205363726565B1
:102480006E005374617274205072696E74004361FF
:102490006E6E6F7420656E74657220737562646908
:1024A000723A2000052E2E00253364252520253381
:1024B00064252500562D746F6F6C73205765726507
:1024C00020526573657400526573657420562D74CF
:1024D0006F6F6C7300546F67676C65204D6978008F
:1024E0002533643B25336425250041637469766593
:1024F00020562D746F6F6C005741524E494E472144
:10250000204C6F77205A204A65726B206D617920CC
:102510006C65616420746F20756E77616E7465649C
:10252000207061757365732E0A00204D3932205872
:10253000004D32342053256C642054256C640047D0
:1025400039322E3920452573004731204625640055
:102550004731205A25732046323030004731205809
:1025600025732059257320463330303000473132EF
:10257000004D34323020532569205A2573004D31E7
:1025800030362050256920532569004D31303920DF
:10259000532569004D31393020532569004D3230C3
:1025A0003020442573004739322E392045300A4700
:1025B00032385230004D343230205330205A3000FF
:1025C0004452565F535441545553090050574D5F80
:1025D0005343414C45090050574D434F4E46090067
:1025E000434F4F4C434F4E46090043484F50434FD3
:1025F0004E460900544849474809090054434F4F83
:102600004C5448525309005450574D5448525309A2
:1026100000545354455009090054504F57455244F3
:102620004F574E0900494F494E090900475354413D
:102630005409090049484F4C445F4952554E09001E
:1026400047434F4E4609090044726976657220720D
:1026500065676973746572733A0A007332767362E0
:102660000900733276736109003132304309003159
:1026700034334309003135304309003135374309DC
:10268000006F7409006F7470770900733267610915
:10269000007332676209006F6C6109006F6C620938
:1026A0000073747374090073675F726573756C747B
:1026B0000044525653544154555300755374657039
:1026C00020636F756E74005374616C6C6775617212
:1026D00064207468727300202D7374617274090031
:1026E000687973746572657369730A202D656E6409
:1026F0000900626C616E6B2074696D65006F6666BF
:102700002074696D650070776D2067726164206167
:1027100075746F0070776D206F66667365742061E5
:1027200075746F0070776D207363616C65206175DF
:10273000746F0070776D207363616C652073756DC5
:10274000004F54207072657761726E005B6D6D2F63
:10275000735D090050574D207468726573682E00D0
:10276000747374657009006D737465707309007318
:102770007465616C746843686F70007673656E731E
:1027800065090050574D207363616C650043532009
:1027900061637475616C00486F6C6420637572725C
:1027A000656E740052756E2063757272656E74008A
:1027B0004D41582063757272656E7400524D5320FE
:1027C00063757272656E74005365742063757272FE
:1027D000656E7400456E61626C65640900416464F5
:1027E0007265737309007370726561644379636C19
:1027F000650020647269766572206D6F64653A09C0
:1028000000206472697665722063757272656E74F9
:102810003A200020737465616C746843686F70209F
:102820006D61782073706565643A200020496E768A
:10283000616C696420657874727564657220003C0F
:102840003C3C207365745F617869735F69735F6195
:10285000745F686F6D6528003E3E3E207365745F4F
:10286000617869735F69735F61745F686F6D652814
:1028700000686F6D655F64656C746100486F6D69B9
:102880006E67204661696C6564006F70656E005408
:102890005249474745524544007A5F6D6178007A56
:1028A0005F6D696E00795F6D617800785F6D61784A
:1028B000005265706F7274696E6720656E64737420
:1028C0006F70207374617475730A00203A207379F5
:1028D0006E635F706C616E5F706F736974696F6E49
:1028E0000A00203A20707265706172655F666173DC
:1028F000745F6D6F76655F746F5F64657374696E26
:102900006174696F6E0A00202064657374696E617A
:1029100074696F6E3D00203A207A206C6F77657283
:10292000206D6F76650A00203A207879206D6F76E9
:10293000650A00203A207A207261697365206D6F04
:1029400076650A00203A207A6F6E6520626F7264A5
:102950006572206D6F76650A00203A2064616E67AB
:102960006572207A6F6E65206D6F76650A00203A79
:102970002064657374696E6174696F6E203D2063B5
:10298000757272656E745F706F736974696F6E0AC9
:10299000003E2000646F5F626C6F636B696E675FFF
:1029A0006D6F76655F746F00206D61783A00206D01
:1029B000696E3A0041786973200000000000000051
:1029C00000000080184400000C4300000C4300800D
:1029D000184400000CC300000CC300000000473284
:1029E000362048656174696E67204E6F7A7A6C652F
:1029F000004732362048656174696E67204265641D
:102A00000057616974696E6720666F72206865613E
:102A10007475702E0A004669786564204C656E678F
:102A20007468205072696D6500446F6E6520507245
:102A3000696D696E67004D616E75616C20707269B9
:102A40006D696E672E2E2E004732362043616E630D
:102A5000656C6564004C656176696E672047323647
:102A6000003F53706563696669656420582C59207E
:102A7000636F6F7264696E617465206F7574206F27
:102A80006620626F756E64732E0A003F28522965B6
:102A9000706561742076616C7565206E6F7420704E
:102AA0006C61757369626C653B206D75737420622F
:102AB00065206174206C6561737420312E0A003FBB
:102AC000537065636966696564206E6F7A7A6C65B8
:102AD0002074656D7065726174757265206E6F74B7
:102AE00020706C61757369626C652E0A003F5370CB
:102AF000656369666965642066696C616D656E749D
:102B00002073697A65206E6F7420706C61757369CB
:102B1000626C652E0A003F5370656369666965647F
:102B2000207072696D65206C656E677468206E6FC9
:102B30007420706C61757369626C652E0A003F5376
:102B40007065636966696564206E6F7A7A6C65206A
:102B500073697A65206E6F7420706C617573696239
:102B60006C652E0A003F52657472616374696F6E02
:102B7000204D756C7469706C696572206D75737425
:102B8000206265207370656369666965642E0A005A
:102B90003F5370656369666965642052657472614C
:102BA0006374696F6E204D756C7469706C696572C1
:102BB000206E6F7420706C61757369626C652E0A8B
:102BC000003F537065636966696564206C6179656F
:102BD0007220686569676874206E6F7420706C611C
:102BE000757369626C652E0A0043292E0A003F53F3
:102BF0007065636966696564206265642074656DEB
:102C00007065726174757265206E6F7420706C618E
:102C1000757369626C65202834302D004732362088
:102C20007374617274696E672E2E2E0A004D6F7474
:102C3000696F6E004D3834004175746F20486F6DB8
:102C4000650054656D70657261747572650041420E
:102C50005300504C41004672656520585900536F2F
:102C6000667420456E6473746F7073004469736199
:102C7000626C652053746570706572730050726584
:102C8000686561742024204265640050726568653F
:102C90006174202420456E6400436F6F6C646F770D
:102CA0006E0050726568656174202400522C4E2CB1
:102CB00056652D4A65726B0056432D4A65726B004E
:102CC00056422D4A65726B0056412D4A65726B0063
:102CD00050726F62652059204F66667365740050AC
:102CE000726F62652058204F6666736574004520D8
:102CF00073746570732F6D6D00432053746570732A
:102D00002F6D6D00422053746570732F6D6D0041FF
:102D10002053746570732F6D6D00496E69740046A1
:102D2000696C616D656E740050726F6265204F66EC
:102D3000667365747300416363656C657261746981
:102D40006F6E0056656C6F63697479005A20566126
:102D50006C756500496E646578205900496E64653C
:102D60007820580020746F6F206C6F6E6720657834
:102D700074727573696F6E2070726576656E7465B6
:102D8000640A0020636F6C642065787472757369DF
:102D90006F6E2070726576656E7465640A002045FA
:102DA0003A0020593A0024F4D43050C38E20C2A2F5
:102DB0004017828B7011127A910D816CD90AA8612B
:102DC000E108C7586607615143061E4B5D05C145C2
:102DD000A7041A411104093D9803713931034036A3
:102DE000DB0265339102D4305402802E1D02632C25
:102DF000EE01752AC501B028A001102781018F2599
:102E000064012B244B01E0223401AC211F018D20F1
:102E10000D01801FFC00841EED00971DDF00B81C13
:102E2000D200E61BC600201BBC00641AB200B21917
:102E3000A8000A19A0006A189900D117910040173C
:102E40008B00B516840031167E00B31579003A1553
:102E50007300C7146F0058146A00EE1366008813DD
:102E6000630025135E00C7125B006C125700151239
:102E70005400C111510070114F0021114B00D610A8
:102E800049008D1047004610440002104200C00F58
:102E90004000800F3E00420F3C00060F3B00CB0E6F
:102EA0003800930E37005C0E3500270E3400F30D0A
:102EB0003200C10D3100900D3000600D2E00320D3A
:102EC0002D00050D2C00D90C2B00AE0C2900850C13
:102ED00029005C0C2700350C27000E0C2600E80B9F
:102EE0002400C40B2400A00B23007D0B23005A0BED
:102EF0002100390B2100180B2000F80A1F00D90A05
:102F00001E00BB0A1E009D0A1D00800A1D00630AE8
:102F10001C00470A1B002C0A1B00110A1A00F709A3
:102F20001A00DD091900C4091900AB09190092093A
:102F300017007B091800630917004C0916003609B1
:102F40001600200916000A091500F5081500E0080A
:102F50001400CC081400B8081400A4081400900849
:102F600013007D0812006B08130058081200460871
:102F70001200340811002308110012081100010882
:102F80001100F0071000E0071000D0071000C00784
:102F90001000B0070F00A107100091070E00830773
:102FA0000F0074070F0065070E0057070E00490752
:102FB0000E003B070D002E070E0020070D00130723
:102FC0000D0006070D00F9060C00ED060D00E006E9
:102FD0000C00D4060C00C8060C00BC060C00B006A1
:102FE0000C00A4060B0099060C008D060B0082064F
:102FF0000B0077060B006C060B0061060A005706F3
:103000000B004C060A0042060A0038060A002E068B
:103010000A0024060A001A060A001006090007061C
:103020000A00FD050900F4050900EB050900E205A9
:103030000900D9050900D0050900C7050900BE052A
:103040000900B5050800AD050800A50509009C05A7
:103050000800940508008C050800840508007C051C
:103060000800740508006C050700650508005D058B
:103070000700560508004E050700470507004005F4
:10308000080038050700310507002A050700230559
:1030900007001C050600160507000F0507000805B8
:1030A000060002050700FB040600F5040700EE0415
:1030B0000600E8040600E2040700DB040600D5046D
:1030C0000600CF040600C9040600C3040600BD04C0
:1030D0000600B7040600B1040500AC040600A6040F
:1030E0000600A00405009B0406009504050090045A
:1030F00006008A04050085040500800406007A04A1
:10310000050075040500700405006B0405006604E5
:103110000500610405005C04050057040500520425
:1031200005004D04050048040500430405003E0465
:1031300004003A04050035040500300404002C04A2
:10314000050027040400230405001E0404001A04DB
:10315000040016040500110404000D040400090411
:1031600005000404040000040400FC030400F80348
:103170000400F4030400F0030400EC030400E8037B
:103180000400E4030400E0030400DC030400D803AB
:103190000400D4030400D0030400CC030400C803DB
:1031A0000300C503030024F404D9201BC40C5C0EE7
:1031B0009804C4095F0265077101F405F900FB0476
:1031C000B30048048700C103690058035500030396
:1031D0004500BE023A008402310053022A0029024F
:1031E000250004022000E4011C00C8011900AF0101
:1031F000170098011400840113007101100061018F
:10320000100051010E0043010D0036010B002B018F
:103210000B0020010B00150109000C01090003013E
:103220000800FB000800F3000800EB000700E400C2
:103230000600DE000600D8000600D2000600CC0022
:103240000500C7000500C2000500BD000400B9006C
:103250000400B5000400B1000400AD000400A900A2
:103260000400A5000300A20003009F0004009B00CF
:1032700003009800030095000200930003009000F3
:1032800003008D0002008B0003008800020086000E
:10329000020084000300810002007F0002007D0024
:1032A00002007B0002007900020077000100760036
:1032B00002007400020072000100710002006F0041
:1032C00002006D0001006C0002006A00010069004C
:1032D0000200670001006600010065000100640053
:1032E00002006200010061000100600001005F0057
:1032F00002005D0001005C0001005B0001005A005B
:10330000010059000100580001005700010056005B
:10331000010055000100540001005300000053005B
:1033200001005200010051000100500001004F0057
:1033300001004E0000004E0001004D0001004C0055
:1033400001004B0000004B0001004A000100490051
:10335000010048000000480001004700010046004D
:103360000000460001004500000045000100440047
:103370000100430000004300010042000000420041
:1033800001004100000041000100400001003F0039
:1033900000003F0001003E0000003E0001003D0033
:1033A00000003D0001003C0000003C0000003C002B
:1033B00001003B0000003B0001003A0000003A0021
:1033C0000100390000003900010038000000380019
:1033D000000038000100370000003700010036000F
:1033E0000000360000003600010035000000350006
:1033F00000003500010034000000340000003400FB
:1034000001003300000033000000330001003200EF
:1034100000003200000032000100310000003100E5
:1034200000003100010030000000300000003000DA
:1034300001002F0000002F0000002F0000002F00CF
:1034400001002E0000002E0000002E0001002D00C3
:1034500000002D0000002D0000002D0001002C00B8
:1034600000002C0000002C0000002C0001002B00AC
:1034700000002B0000002B0000002B0001002A00A0
:1034800000002A0000002A0000002A000100290094
:103490000000290000002900000029000000290088
:1034A000010028000000280000002800000028007B
:1034B000000028000100270000002700000027006E
:1034C0000000270000002700010026000000260061
:1034D0000000260000002600000026000100250054
:1034E0000000250000002500000025000000250048
:1034F000000025000100240000002400000024003A
:10350000000024000000240001002300000023002C
:10351000000023000000230000002300000023001F
:103520000000230001002200000022000000220011
:103530000000220000002200000022000100210003
:1035400000002100000021000000210000002100F7
:1035500000002100000021000100200000002000E8
:1035600000002000000020000000200000002000DB
:10357000000020000000200001001F0000001F00CC
:1035800000001F0000001F0000001F0000001F00BF
:1035900000001F0001001E0000001E0000001E00B1
:1035A00000001E000000752A0000C21E0000D41397
:1035B0000000970B00005406000052030000B30106
:1035C0000000DC0000000920426164207265737015
:1035D0006F6E7365210048494748004572726F72EB
:1035E0003A20416C6C200020636F6E6E65637469D5
:1035F0006F6E2E2E2E200054657374696E67200046
:10360000544D4320434F4E4E454354494F4E204561
:1036100052524F5200303D2E33323500313D2E3163
:1036200038003F00496E697469616C697A652045AC
:103630004550524F4D005072696E742041626F7256
:10364000746564004D32350050617573696E672E84
:103650002E2E00454550524F4D2056657273696FAE
:103660006E204572726F7200454550524F4D204991
:103670006E646578204572726F7200454550524FF6
:103680004D20435243204572726F720049676E6F3E
:103690007265005761726E696E673A20436C6561AE
:1036A0006E20436972636C6520726571756972651D
:1036B000732058590A005761726E696E673A20523A
:1036C0006164697573204F7574206F662052616E56
:1036D00067650A000268747470733A2F2F6D617207
:1036E0006C696E66772E6F72670020627567666917
:1036F000782D322E302E78002020506C616E6E6551
:103700007242756666657242797465733A2000206C
:1037100046726565204D656D6F72793A2000436F82
:103720006D70696C65643A204175672033312032D1
:103730003032300A00204C6173742055706461741B
:1037400065643A20323032302D30382D3235207CCD
:1037500020417574686F723A20284D6172746F6EE3
:103760002042616B73612D30382E33312E3230326E
:1037700030290A006275676669782D322E302E78FE
:103780000A004D61726C696E0020536F6674776138
:1037900072652052657365740A002057617463680E
:1037A000646F672052657365740A002042726F77F8
:1037B0006E206F75742052657365740A0020457819
:1037C0007465726E616C2052657365740A00506F87
:1037D00077657255700A006175746F25632E6700F6
:1037E000473238004D31303031006572726F7220CF
:1037F00077726974696E6720746F2066696C650AF8
:1038000000446F6E6520736176696E672066696C2F
:10381000652E0A004D32390025532025632025638B
:103820002025632025630020583A00656E64737478
:103830006F7073206869743A200070012C01900148
:103840002701B0012201C0011D01F0011801100281
:10385000130130020E016002090190020401C0024E
:10386000FF000003FA004003F5008003F000D003DE
:10387000EB002004E6007004E100E004DC004005F9
:10388000D700C005D2004006CD00D006C800800792
:10389000C3003008BE00F008B900C009B400B00A87
:1038A000AF00B00BAA00D00CA500000EA000500F76
:1038B0009B00C01096005012910000148C00C0159F
:1038C0008700B0178200B0197D00D01B7800001E61
:1038D000730040206E0090226900F02464004027AD
:1038E0005F0090295A00E02B5500102E5000203028
:1038F0004B0010324600E033410090353C00103759
:10390000370070383200A0392D00B03A2800A03BB3
:103910002300603C1E00103D1900903D1400103E35
:103920000F00703E0A00C03E0500003F0000403F0F
:10393000FBFF803FF6FFC03FF1FF5072696E7420BD
:1039400066726F6D204D6564696100205A3A2000EF
:1039500020593A200042656420583A2000203A203D
:103960000A00202063757272656E745F706F7369F0
:1039700074696F6E3D002C20002E2E2E28004D6F96
:1039800076652025736D6D004D6F766520302E3184
:103990006D6D004D6F766520316D6D004D6F7665F4
:1039A0002031306D6D004D6F766520417869730070
:1039B000486F74656E6420746F6F20636F6C640071
:1039C0004578747275646572004D6F7665205A0093
:1039D0004D6F76652059004D6F7665205800486F11
:1039E0006D652025732573257320466972737400F5
:1039F0002044697363726570616E63793A00326E58
:103A0000642050726F6265205A3A00534C4F570041
:103A10003173742050726F6265205A3A00464153E8
:103A2000540050726F62653A3A72756E5F7A5F70D9
:103A3000726F62650050726F62696E6720466169DD
:103A40006C65640A0050726F62696E672046616936
:103A50006C656400506F736974696F6E204E6F748B
:103A600020526561636861626C650A005F72656C13
:103A70006174697665290A0050726F62653A3A701E
:103A8000726F62655F61745F706F696E74000000D1
:103A900020002300260029002C002F003200000106
:103AA0000000030106010901000022002500280092
:103AB0002B002E0031003400020100000501080136
:103AC0000B010505050507050808080802020202A2
:103AD0000A0A0808040404040101010101010101AA
:103AE0000303030303030303040707070C0C0C0C75
:103AF0000C0C0C0C0202020206060606060606065E
:103B00000B0B0B0B0B0B0B0B0102102020080810EA
:103B1000204010204080020102010804020101023D
:103B20000408102040808040201008040201800416
:103B30000201804020100804020108040201010271
:103B400004081020408001020408102040804465D1
:103B50006C6574696F6E206661696C65642C2046C3
:103B6000696C653A200046696C652064656C657413
:103B700065643A0057726974696E6720746F2066D5
:103B8000696C653A2000667265736800646F696EDF
:103B900067004E6F77200045310020433A002042F5
:103BA0003A0020436F756E7420413A0062656400EC
:103BB0002C2073797374656D2073746F70706564F5
:103BC00021204865617465725F49443A2000486568
:103BD0006174696E67204661696C6564004865615F
:103BE00074696E67206661696C656400202D2049E8
:103BF0006E76616C69642065787472756465722094
:103C00006E756D62657220210A00007879007A78FD
:103C100000797A00207A002079002078002E202078
:103C2000202000456E64204452592D52554E004EBE
:103C30006F20636F6E76657267656E6365004974A9
:103C400065726174696F6E203A20253032690053C5
:103C50006176652077697468204D35303020616E5B
:103C6000642F6F7220636F707920746F20436F6EC2
:103C700066696775726174696F6E2E680A00253017
:103C800033692E7800302E253033690043616C692A
:103C900062726174696F6E2073643A007374642099
:103CA0006465763A00726F6C6C696E67206261635E
:103CB0006B2E0043616C6962726174696F6E204F94
:103CC0004B00436F72726563742064656C7461208D
:103CD00073657474696E67732077697468204D36F4
:103CE000363520616E64204D3636360A0020284471
:103CF00052592D52554E2900436865636B696E67B2
:103D00002E2E2E204143003F4265642063616C6982
:103D100062726174696F6E20726164697573206983
:103D20006D706C61757369626C652E0A0047333380
:103D3000204175746F2043616C6962726174650A19
:103D4000003F2856296572626F7365206C65766541
:103D50006C20696D706C61757369626C65202830C8
:103D60002D33292E0A003F2846296F72636520698A
:103D70007465726174696F6E20696D706C617573C2
:103D800069626C652028302D3330292E0A003F28C7
:103D90004329616C6962726174696F6E207072652B
:103DA000636973696F6E20696D706C6175736962A8
:103DB0006C6520283E3D30292E0A003F2850296F8F
:103DC000696E747320696D706C61757369626C657E
:103DD0002028302D3130292E0A002053697A653A87
:103DE000200043616E6E6F74206F70656E20737576
:103DF000626469722000534420496E6974204661F0
:103E0000696C0053442063617264206F6B0A006F19
:103E100070656E526F6F74206661696C65640A002C
:103E2000766F6C756D652E696E6974206661696C5C
:103E300065640A004E6F20534420636172640A0077
:103E40004D3234004D32332025730046696C6520B5
:103E500073656C65637465640A0046696C65206F00
:103E600070656E65643A2000454E442053554252B9
:103E70004F5554494E450A002220706F730022208E
:103E8000706172656E743A2200535542524F555418
:103E9000494E452043414C4C207461726765743A29
:103EA000220053756263616C6C204F766572666C9C
:103EB0006F77004578636565646564206D6178207F
:103EC000535542524F5554494E45206465707468AD
:103ED0003A310A00426564204C6576656C696E670C
:103EE00020004661696C656420746F20656E6162B4
:103EF0006C6520426564204C6576656C696E670A66
:103F000000496E76616C6964206D6573682E0A00E5
:103F10003E3E3E0020636F72726563746564205A92
:103F20003A0047323920756E636F7272656374654B
:103F300064205A3A00203A203E2070726F62696E07
:103F40006720636F6D706C6574650A0050726F62F4
:103F5000696E6720506F696E740025532025692FA4
:103F600025690050726F62696E67206D6573682005
:103F7000706F696E742000202844525952554E29A2
:103F800000473239204175746F20426564204C65CA
:103F900076656C696E67003F20284C2C522C462CAD
:103FA0004229206F7574206F6620626F756E64738E
:103FB0002E0A003F2856296572626F7365206C6572
:103FC00076656C20696D706C61757369626C6520D3
:103FD00028302D34292E0A00426164205A2076614F
:103FE0006C75650A004E6F2062696C696E6561725E
:103FF00020677269640A003E204175746F2D6C65FC
:1040000076656C206E6F74206E65656465642C2027
:10401000736B69700A0020205261646975733A00FD
:104020002E4865696768743A006F70656E20666136
:10403000696C65642C2046696C653A20000000219B
:1040400010422063308440A550C660E77008812983
:10405000914AA16BB18CC1ADD1CEE1EFF13112101B
:104060000273325222B5529442F772D662399318D3
:10407000837BB35AA3BDD39CC3FFF3DEE362244327
:104080003420040114E664C774A44485546AA54B23
:10409000B528850995EEE5CFF5ACC58DD5533672BB
:1040A0002611163006D776F6669556B4465BB77A73
:1040B000A719973887DFF7FEE79DD7BCC7C448E547
:1040C000588668A7784008611802282338CCC9EDC3
:1040D000D98EE9AFF9488969990AA92BB9F55AD45B
:1040E0004AB77A966A711A500A333A122AFDDBDC13
:1040F000CBBFFB9EEB799B588B3BBB1AABA66C8767
:104100007CE44CC55C222C033C600C411CAEED8F62
:10411000FDECCDCDDD2AAD0BBD688D499D977EB6FA
:104120006ED55EF44E133E322E511E700E9FFFBEB2
:10413000EFDDDFFCCF1BBF3AAF599F788F8891A985
:1041400081CAB1EBA10CD12DC14EF16FE18010A15C
:1041500000C230E3200450254046706760B9839860
:1041600093FBA3DAB33DC31CD37FE35EF3B10290AC
:1041700012F322D2323542145277625672EAB5CB2C
:10418000A5A89589856EF54FE52CD50DC5E234C3FC
:1041900024A01481046674476424540544DBA7FA00
:1041A000B79987B8975FE77EF71DC73CD7D326F24C
:1041B000369106B01657667676154634564CD96D4C
:1041C000C90EF92FE9C899E9898AB9ABA94458659C
:1041D0004806782768C018E1088238A3287DCB5CA0
:1041E000DB3FEB1EFBF98BD89BBBAB9ABB754A54EC
:1041F0005A376A167AF10AD01AB32A923A2EFD0F6C
:10420000ED6CDD4DCDAABD8BADE89DC98D267C073B
:104210006C645C454CA23C832CE01CC10C1FEF3E3F
:10422000FF5DCF7CDF9BAFBABFD98FF89F176E368B
:104230007E554E745E932EB23ED10EF01E2052007B
:1042400048617264636F6465642044656661756C7F
:10425000742053657474696E6773204C6F61646574
:10426000640A003B200020204D3930360020204DCC
:104270003931330020204D35363920533100447216
:1042800069766572207374657070696E67206D6FF2
:1042900064653A0048796272696420546872657393
:1042A000686F6C643A002054302045005374657088
:1042B00070657220647269766572206375727265CA
:1042C0006E743A0020204D3835312058005A2D5058
:1042D000726F6265204F66667365740020204D34EE
:1042E0003133205300506F7765722D4C6F737320FC
:1042F0005265636F766572793A0020204D33303114
:104300002050005049442073657474696E67733A95
:104310000020460020204D3134352053004D61747B
:10432000657269616C206865617475702070617276
:10433000616D65746572733A0020480020204D3627
:104340003635204C0044656C746120736574746963
:104350006E67733A204C3C646961676F6E616C20D4
:10436000726F643E20523C7261646975733E2048EE
:104370003C6865696768743E20533C7365676D658A
:104380006E747320706572207365633E2058595AAD
:104390003C746F77657220616E676C65207472691A
:1043A0006D3E204142433C726F64207472696D3EE1
:1043B0000020204D363636205800456E6473746FE9
:1043C000702061646A7573746D656E743A00204A7A
:1043D000002020473239205720490020204D343218
:1043E000302053004175746F20426564204C65761F
:1043F000656C696E673A0020204D323035204200EE
:10440000416476616E6365643A20423C6D696E5F1B
:104410007365676D656E745F74696D655F75733E16
:1044200020533C6D696E5F66656564726174653EBC
:1044300020543C6D696E5F74726176656C5F666571
:104440006564726174653E20583C6D61785F785F89
:104450006A65726B3E20593C6D61785F795F6A6571
:10446000726B3E205A3C6D61785F7A5F6A65726B51
:104470003E20453C6D61785F655F6A65726B3E000A
:1044800020540020204D32303420500041636365B9
:104490006C65726174696F6E2028756E6974732F14
:1044A0007332293A20503C7072696E745F616363A5
:1044B000656C3E20523C726574726163745F616327
:1044C00063656C3E20543C74726176656C5F616319
:1044D00063656C3E0020204D3230312058004D6124
:1044E00078696D756D20416363656C65726174698F
:1044F0006F6E2028756E6974732F7332293A00200D
:10450000204D3230332058004D6178696D756D2033
:104510006665656472617465732028756E6974736D
:104520002F73293A0053746570732070657220757B
:104530006E69743A0020440020204D323030205300
:10454000002044697361626C65640A0046696C61AD
:104550006D656E742073657474696E67733A0020BC
:10456000204D3134392043203B20556E697473202F
:10457000696E2043656C736975730A0020286D6D40
:1045800029002020473231202020203B20556E6911
:10459000747320696E206D6D000000484300004870
:1045A0004300004843000048430000A0420000A030
:1045B000420000A04200005144B80B0000B80B00BC
:1045C00000B80B0000B80B0000496E76616C69649E
:1045D0002065787472756465720A005072696E7431
:1045E000205061757365640050726F62653A3A706D
:1045F000726F62655F646F776E5F746F5F7A0020C1
:10460000547269676765726564206561726C792EA2
:1046100000204E6F20747269676765722E0020500B
:10462000726F6265206661696C21202D0020573A07
:10463000003078003C3C3C00220A00556E6B6E6FE7
:10464000776E20636F6D6D616E643A20220048457D
:104650003344204B3238302052656164792E00504B
:1046600072696E74696E672E2E2E0050726F6265CD
:10467000204F66667365742058004361703A003FAE
:104680005A206F7574206F662072616E67652028EE
:10469000003F59206F7574206F662072616E6765E8
:1046A00020282D0020746F20003F58206F75742043
:1046B0006F662072616E676520282D000000210062
:1046C000240027002A002D003000330001010000E3
:1046D000040107010A0100000A0B02090C0D0E0873
:1046E00007030401000000000000000000000000BB
:1046F00000000000000000000000000000000000BA
:104700000000121110000000000000000000000076
:10471000000000000000000000000000BB02D70104
:1047200011241FBECFEFD1E2DEBFCDBF00E00CBF32
:1047300013E0A0E0B2E0E6E7FBE203E00BBF02C05B
:1047400007900D92A63BB107D9F729E1A6EBB3E09C
:1047500001C01D92AC3EB207E1F713E2CFE8D3E20D
:1047600000E006C021970109802FFE010F94889177
:10477000CE38D10780E00807A9F70F94CC760D94C6
:10478000A9950C9400002F923F924F925F926F92E6
:104790007F928F929F92AF92BF92CF92DF92EF92D1
:1047A000FF920F931F93CF93DF93CDB7DEB7E597BB
:1047B0000FB6F894DEBF0FBECDBF382E2090BF03DA
:1047C00021E02093BF038091D4198D3409F4CBC329
:1047D000843511F40C94E534873411F00C941435BD
:1047E0008091D2199091D3198A31910509F47BC136
:1047F000BCF4843091053CF4823091050CF03FC04C
:1048000097FF31C0ACC38C30910509F40BC18531E1
:10481000910511F40C941635049709F0A0C3C4C097
:104820008132910509F408C264F48D31910509F4CF
:104830007EC18E31910509F47EC14C9709F08FC37A
:1048400056C18A35910509F4FBC124F48A9709F40D
:10485000A6C285C38B35910509F4F6C18C35910547
:1048600009F4F7C17CC380912D10813011F00C94B4
:1048700016350E94F7AA0E94BD6F0C941635209140
:104880002D10213011F00C94163511E0029709F02B
:1048900010E00E94F7AA19821A821B821C821D82D4
:1048A0001E821F82188682E50E9441C7882309F470
:1048B0004BC00E94C1C66B017C0120E030E0A90121
:1048C0000F948D8A882309F455C080914E029091EF
:1048D0004F02A0915002B09151028AA79BA7ACA7AA
:1048E000BDA78091520290915302A0915402B091C1
:1048F00055028AAB9BABACABBDAB8090D010909017
:10490000D110A090D210B090D3104090D4105090FD
:10491000D5106090D6107090D710A50194016AA5AB
:104920007BA58CA59DA50F948D8A81110C9435359E
:10493000A30192016AA97BA98CA99DA90F948D8AD4
:104940008823C1F00C94353589E40E9441C788233F
:1049500031F00E94C1C669837A838B839C838AE489
:104960000E9441C7882331F00E94C1C66D837E83B7
:104970008F83988720E030E0A90169817A818B815B
:104980009C810F948D8A81110C94E93520E030E0F0
:10499000A9016D817E818F8198850F948D8A811107
:1049A0000C94E9350C94FC3580E50E9441C78823BE
:1049B00029F00F945D2B6B017C0103C0C12CD12C1D
:1049C000760183E50E9441C7882361F00E94C1C639
:1049D00020E030E04AE754E40F94F38A0F943B93CD
:1049E0006B017C010E947D698091300E811105C0B0
:1049F00060E084EB9AE00F9426100F948875C60E41
:104A0000D71EE81EF91E0F948875DC01CB018C19A6
:104A10009D09AE09BF09B7FD02C00C9416350E946E
:104A20003E3EF1CF0F940416F82E81110C941635EA
:104A300060E070E080E50E9484B289A76CE070E0DD
:104A400083E50E9484B288A763E070E084E50E9459
:104A500084B28C8F40E050E060ED70E482E50E940B
:104A6000CC5769837A838B839C838091D71987FF86
:104A700002C00C9403368091D819837011F00C9405
:104A8000033611E002E0012B882331F060E08AE573
:104A90000E945DC7882311F094E001C090E0092BCB
:104AA0001091350602FFF12E8F2D0E94496560E0BE
:104AB00085E40E945DC7F0902802809328029E0141
:104AC000245E3F4FAE014F5F5F4FBE01685D7F4F79
:104AD000CE0189960F940008F0922802812F0E943F
:104AE00049650C9416350E9472C70C941635409196
:104AF000770D45FB442740F960EE77E3CE01019640
:104B00000F9436538091770D85FD0E94CD3C8091A6
:104B1000E0108770873011F00C94133660E08FE45A
:104B20000E945DC781110C9446360C9413360F9485
:104B3000DA530C94163520917519309176194091FD
:104B400077195091781960914E0270914F028091BF
:104B50005002909151020F94C891AB01BC0188E5BD
:104B60000E94CC5769837A838B839C832091791927
:104B700030917A1940917B1950917C1960915202C1
:104B80007091530280915402909155020F94C891F4
:104B9000AB01BC0189E50E94CC576D837E838F8376
:104BA0009887BE016B5F7F4FCE0101960F944453EF
:104BB000882311F40C94163580E00E9449650E9408
:104BC00087B384E690E090932A028093290261E003
:104BD00085E40E945DC701E021E0482FBE016B5FC4
:104BE0007F4FCE0101960F941F186B017C019B0132
:104BF000AC010F940E95811119C049815A816B81C6
:104C00007C8185E599E30E94BC3C4D815E816F818A
:104C1000788580E599E30E94BC3CB701A6018BE44E
:104C200099E30E94BC3C8AE00E94BF380E946EB3A8
:104C30000E94C7B40C9416350F94052C0C941635AD
:104C4000109234060C9416358FE0809334060C9441
:104C500016358091D119882349F1893009F09BC01C
:104C600023EAA22E22E0B22E3EE4E32E32E0F32E1F
:104C7000D12C00E010E0D5018D915D010E9441C76B
:104C8000882369F00E94C1C6F70160837183828323
:104C90009383133011F401E002C0DD24D3941F5F2D
:104CA000F4E0EF0EF11C143031F76AC023EA32E071
:104CB0003BA72AA78BEEE82E86E0F82E9EE4C92EAD
:104CC00092E0D92E00E010E0AAA5BBA58D91BBA76C
:104CD000AAA70E9441C7882309F447C00E94C1C601
:104CE0002B013C01133049F0F701208131814281D1
:104CF00053810F94C7912B013C01D6012D913D9119
:104D00004D915C91C301B2010F94C7914B015C01BD
:104D10002DEB37E346E855EB0F947C9487FD0AC0F2
:104D20002DEB37E346E855E3C501B4010F948D8AB6
:104D30001816DCF4133051F440925A0250925B0280
:104D400060925C0270925D0201E00FC0A5019401C7
:104D5000F70160817181828193810F94C891D7019D
:104D60006D937D938D939C9313971F5FB4E0EB0E2F
:104D7000F11CE4E0CE0ED11C143009F0A5CF05C023
:104D8000DD2019F00E94B9B406C0002321F08AE5A5
:104D900092E00E94626D0E94C7B40C941635809117
:104DA0002D10813011F00C94163589E40E9441C712
:104DB000E82E882321F00E94BDC6082F01C000E024
:104DC0008AE40E9441C7F82E882321F00E94BDC6C4
:104DD000182F01C010E0EE2011F00B3020F4FF205E
:104DE00041F01B3030F088ED9AE00E94D1380C94ED
:104DF000163580E1EEE4F2E0A0EDB0E101900D9215
:104E00008A95E1F7EE2019F1602F000F770B880BE0
:104E1000990B0F94948A209147173091481740912D
:104E2000491750914A170F94F38A209164053091E5
:104E3000650540916605509167050F94C891609390
:104E4000D0107093D1108093D2109093D310FF2084
:104E500019F1612F110F770B880B990B0F94948A1E
:104E600020914B1730914C1740914D1750914E1790
:104E70000F94F38A209168053091690540916A0585
:104E800050916B050F94C8916093D4107093D51016
:104E90008093D6109093D71060E080E50E945DC7A4
:104EA0008823C1F1EE20D1F0209175193091761947
:104EB00040917719509178196091D0107091D1106C
:104EC0008091D2109091D3100F94C7916093D0101D
:104ED0007093D1108093D2109093D310FF20D1F013
:104EE0002091791930917A1940917B1950917C1950
:104EF0006091D4107091D5108091D6109091D710F8
:104F00000F94C7916093D4107093D5108093D610EE
:104F10009093D71040E050E0BA0186E40E94CC574D
:104F20006B017C0120E030E0A9010F947C941816FD
:104F30004CF420E030E040E752E4C701B6010F94A2
:104F4000C29203C060E070E0CB0169837A838B83F7
:104F50009C83CE0101960E94E3C30C9416350F94F6
:104F6000D7660C9416358091D2199091D319883751
:104F7000910511F40C94C72F0CF077C18E34910574
:104F800009F49FC40CF068C08A31910509F49EC3EE
:104F9000A4F58431910509F404C37CF481319105B1
:104FA00009F4DDC22CF4029708F47CC20C94E234BC
:104FB000429709F4A4C60C94E2348731910509F4B0
:104FC00015C394F48531910509F40CC3469711F08B
:104FD0000C94E2340F94244480918215877F806280
:104FE000809382150C9416358831910509F413C30A
:104FF000499709F44BC30C94E2348F31910509F4BD
:105000000EC47CF48C31910509F4C1C30CF46CC35B
:105010008D31910509F4C3C34E9709F4C7C30C94AD
:10502000E2348B34910509F433C44CF48032910599
:1050300009F4CCC38A9709F412C40C94E2348C347A
:10504000910509F429C48D34910511F00C94E234D2
:105050000E946D810C9416358C36910509F4B2C509
:105060000CF047C08535910509F47FC64CF58235B3
:10507000910509F436C6D4F48135910511F00C94EC
:10508000E2340E94BE8B0E946D810E948D690E9455
:105090007F3868EE73E080E090E00E94F53760E0D2
:1050A00089E29CE00F9426100C9416358335910507
:1050B00009F41EC68435910509F421C60C94E23426
:1050C0008936910509F4D3C454F48C35910509F45B
:1050D0006FC68836910509F486C40C94E2348A368A
:1050E000910509F4D4C48B36910509F40CC50C94D0
:1050F000E2348137910509F46DC5C4F48E3691050B
:1051000009F40AC50CF490C48F36910509F415C54D
:105110008037910511F00C94E23441E060E070E0DA
:1051200086EF9BE00E940E390C9416358537910569
:1051300009F4E3C60CF08CC08237910509F4D6C699
:105140008337910511F00C94E23483E89DE00E94CE
:10515000D13860E083E79DE00F94947160E08EE5C4
:105160009DE00F94947161E08FE296E30F94947147
:1051700061E083E59DE00F94947161E083E49DE03C
:105180000F94947160E08AE39DE00F94947161E064
:1051900080E39DE00F94947161E086E29DE00F94BE
:1051A000947160E08FE19DE00F94947161E087E17C
:1051B0009DE00F94947161E089E09DE00F949471FB
:1051C00060E08BEF9CE00F94947160E08CEE9CE0CB
:1051D0000F94947160E08EED9CE00F94947160E008
:1051E00088EC9CE00F94947160E087EB9CE00F9456
:1051F000947160E088EA9CE00F94947161E081EA28
:105200009CE00F94947160E08CE89CE00F949471A2
:1052100060E08EE79CE00F94947161E08BE69CE087
:105220000F94947160E08EE59CE00F94947161E0BE
:1052300089E59CE00F94947160E08CE49CE00F940D
:10524000947160E088E39CE00F9494710C9416359F
:105250008637910509F461C68737910511F00C94E2
:10526000E2340E9424B90C9416358039F1E09F078E
:1052700011F40C949C330CF06DC08B3C910509F437
:10528000ABC77CF58B39910509F405C58CF48A37D9
:10529000910511F40C9489340CF480C68C38910576
:1052A00009F4BAC48139910509F47FC60C94E2343B
:1052B0008E3B910509F4CFC454F4833A910509F467
:1052C000E8C6843A910509F40CC70C94E234883C92
:1052D000910509F419C7893C910509F45AC70C9442
:1052E000E2348D3D910511F40C9423328CF48D3C05
:1052F000910509F4C1C70CF48EC7833D910509F4EB
:10530000BEC78C3D910511F40C94FC310C94E23431
:105310008D32A1E09A0711F40C94D83264F4823EE5
:10532000910511F40C9478328C32914011F40C9464
:10533000C3320C94E2348E32F1E09F0711F40C94E6
:1053400058338F32914011F00C94E2340E94E357AD
:105350000C941635883F31E0930711F40C942734F0
:105360000CF047C0843AB1E09B0711F40C94AA33C7
:10537000ACF48239F1E09F0711F40C94A53314F4D6
:105380000C949F338A3931E0930709F420C48D3996
:10539000914011F40C94A0340C94E234853FB1E0B8
:1053A0009B0711F40C9421347CF4853AF1E09F07BB
:1053B00011F40C94AD33843F914011F00C94E2341D
:1053C0000E94DF740C941635863F31E0930711F488
:1053D0000C942434873F914011F00C94E23461E046
:1053E00083E50E945DC791E089270F94A6600C9425
:1053F00016358A38B3E09B0711F40C948C342CF5E5
:105400008939F2E09F0711F40C943F347CF48C301E
:1054100032E0930711F40C9437348933924011F041
:105420000C94E2340E9465AD0C9416358A39B2E0D2
:105430009B0711F40C9442348335934011F00C9483
:10544000E2340F94CD6A0C941635873EF3E09F0743
:1054500011F40C949234CCF4813933E0930711F4B5
:105460000C948F34803A934011F00C94E2342091E4
:10547000CF193091D0199091821592609093821536
:10548000C9010F9433440C941635883EB3E09B0752
:1054900011F40C94C134893E934011F40C94C4343B
:1054A0000C94E23480E50E9441C7882329F00F94D0
:1054B0005D2B6B017C0103C0C12CD12C760183E5EF
:1054C0000E9441C7882361F00E94C1C620E030E0FD
:1054D0004AE754E40F94F38A0F943B936B017C01E9
:1054E0000E947D698091CF199091D019009721F089
:1054F00061E00F949B1005C060E081EF9AE00F948B
:1055000026101091BF0383E08093BF0381E0809356
:105510005A0EC114D104E104F10431F00F948875DE
:10552000C60ED71EE81EF91E80915A0E882311F46C
:105530000C945336C114D104E104F10411F40C9419
:105540005A360F948875DC01CB018C199D09AE0980
:10555000BF09B7FF02C00C945A360C9453368091A1
:10556000D51984FF02C00C945E368091D71987FF4D
:1055700002C00C945E368091D819837011F00C949F
:105580005E3660E084E09BE00F9426105F988A9876
:10559000809108018170809306010E9436380C9436
:1055A00016358CE19BE00E94D13881EA95E10E949A
:1055B000F8838BE1E1EAF5E1DE01119601900D92AD
:1055C0008A95E1F760E070E0CE0101960F943E4CC1
:1055D000CE0101960E94AA628DE09BE00E94D13824
:1055E0000C9416350F9410460C941635E091CF1993
:1055F000F091D0198081882329F0803209F410823B
:105600003196F8CF60E08091CF199091D0190F9426
:1056100081440C94163583E50E9441C7882321F00C
:105620000E9489C60E94E15C84E50E9441C78823EC
:10563000A9F00E9489C66B017C010E9493BDC092B3
:105640005805D0925905E0925A05F0925B05CD2895
:10565000CE28CF2819F081E08093B4190E945F38DA
:10566000882381F00F9463450E94876889E796E05C
:105670000F94DA431092D9191092DA191092DB19AB
:105680001092DC190F945B650C941635809182158D
:1056900082FF03C08B7F8093821580914F178823F0
:1056A00019F081E00E947EF58091B419813051F7A4
:1056B00082E08093B4190F94887560935C057093B1
:1056C0005D0580935E0590935F05DCCF8091821528
:1056D00083FD02C00C94163583E50E9441C78111F9
:1056E0000C947B360C94163583E40E94F8C688230C
:1056F00019F187E39BE00E94D1388091E816882356
:1057000091F0BE016F5F7F4F85EE96E10E94BF82F0
:105710008E010F5F1F4FD8018D918D01882339F0C5
:105720000E94BF38F8CF8DE29BE00E94D1388AE01A
:105730000E94BF380C9416358091821582FF21C0DB
:1057400086E49BE00E94D13860917E1570917F15B0
:1057500080918015909181154AE00E94D5398FE2A1
:105760000E94BF3860917A1570917B1580917C15ED
:1057700090917D154AE00E94D5390E94173E0C9405
:10578000163588E59BE00E94D1380C94163580913F
:10579000CF199091D0190F9433440C941635809101
:1057A00082158E7F809382150C9416358091821518
:1057B00083FD02C00C9416350F94C0668091CF19FA
:1057C0009091D0190F941A240C941635809182155B
:1057D00082FD0E947D698091821583FD02C00C9438
:1057E000163560E080E50E945DC7182F682F809114
:1057F000CF199091D0190F94814483E50E9441C73D
:10580000882321F00E9489C60E94E15C0F946345C1
:1058100011110C9416350E9487680C9416350E945D
:105820005FBD6C8F7D8F8E8F9F8FBE016F5F7F4FAF
:10583000CE014C960E94025C60E0CE0101960F946E
:105840009B100E940A39BE016F5F7F4F89E69BE083
:105850000E94F3388AE00E94BF380C9416356DE040
:1058600070E080E50E944EC78C0197FF02C00C9447
:105870001635E82E60E089E40E945DC781110C9422
:105880008036802F0F94DE7581114FC60C948036C0
:105890000E9487680C9416358091B419813011F0FC
:1058A0000C94163582E08093B4190F948875609338
:1058B0005C0570935D0580935E0590935F050C9485
:1058C000163560E070E083E50E944EC78E34910586
:1058D00031F40E94E3680F945B650C9416358EEDED
:1058E0009BE00E94D13860918C0E70918D0E85EDF9
:1058F0009BE00E94E93860918E0E70918F0E88ECCB
:105900009BE00E94E93860918C0E70918D0E809121
:105910008E0E90918F0E681B790B8091B419815077
:1059200021E030E0823010F020E030E0621B730BA9
:105930008DEB9BE00E94E9388AE00E94BF388EED33
:105940009BE00E94D1388091900E9091910EA09191
:10595000920EB091930E8C8F9D8FAE8FBF8FBE0134
:105960006F5F7F4FCE014C960E94025CBE016F5F5D
:105970007F4F80EB9BE00E94F3388091940E9091D2
:10598000950EA091960EB091970E8C8F9D8FAE8F35
:10599000BF8FBE016F5F7F4FCE014C960E94025CAD
:1059A000BE016F5F7F4F80EA9BE00E94F33820E0EA
:1059B00030E04AE754E46091980E7091990E80911E
:1059C0009A0E90919B0E0F94C292AB01BC0188E895
:1059D0009BE00E94BC3C8DE60E94BF388AE00E949A
:1059E000BF380C9416358091770D83FF02C00C945C
:1059F000163589E40E9441C7882311F40C94B73608
:105A00000E9499C690E01816190614F481E090E0FF
:105A100026E0289FF001299FF00D1124E05BF84E4D
:105A2000808191810C94C1368091770D83FF02C0F3
:105A30000C94163589E40E9441C7082F882311F47D
:105A40000C94CA360E9499C690E01816190614F4F0
:105A500081E090E026E0289FF001299FF00D1124BD
:105A6000E05BF84E8081918110E00C94DA360E9460
:105A700007AC182F87FDDEC782E993E10E94D13879
:105A8000812F0E94A7888AE00E94BF38D3C760E0B8
:105A900080E50F94CE538111C9C781E40E94F8C6F6
:105AA000882329F060913007062F10E002C00FEF25
:105AB00010E089E40E9441C7882399F00E9499C6AA
:105AC00090E01816190614F481E090E026E0289F73
:105AD000F001299FF00D1124E05BF84E048115813F
