:100000000C94CE270C94FF270C94FF270C94FF2709
:100010000C94FF270C94FF270C94FF270C94FF27C8
:100020000C94FF270D9449100D9449100D9449101C
:100030000C94FF270C9462F90C94FF270C94FF2773
:100040000C94FF270C945BFA0C94FF270C94FF2769
:100050000C94FF270C94FF270D9450430C9418F92F
:100060000C94FF270C94E14B0C94D74B0C94FF2776
:100070000C94FF270C94FF270C94FF270C94FF2768
:100080000C94FF270C94FF270C94FF270C94FF2758
:100090000C94FF270C94FF270C94FF270C94FF2748
:1000A0000C94FF270C94FF270C94FF270C94FF2738
:1000B0000C94FF270C94FF270C94FF270C94FF2728
:1000C0000C94FF270C94FF270C94FF270C94FF2718
:1000D0000C94FF270C94FF270C94FF270C94FF2708
:1000E0000C94FF27944C9A4C9F4CAD4CB34CB54CA0
:1000F000BB4CC04CDC4CDC4CC74CDC4CCC4CD24C2C
:10010000D74CFC4C024D074D154D1B4D1D4D234D3D
:10011000284D444D444D2F4D444D344D3A4D3F4DA7
:10012000644D6A4D6F4D7D4D834D854D8B4D904D8A
:10013000AC4DAC4D974DAC4D9C4DA24DA74DCB4D0C
:10014000D14DD64DE44DEA4DEC4DF24DF74D134EE9
:10015000134EFE4D134E034E094E0E4E514E574E4A
:10016000614E6C4E774E824E8D4E984ECC4ECC4E9C
:10017000CC4ECC4EA34EEB4EF74E074F184F294FA7
:100180003A4F4B4F5C4F934F934F934F934F6A4F60
:10019000B24FBE4FCE4FDF4FF04F015012502350A1
:1001A0005A505A505A505A503150795082509050AB
:1001B0009B50A650B150BC50C650F650F650F65069
:1001C000F650D0502451ED512A5134513E514851EE
:1001D0005E516B51ED517851ED51ED51ED51ED51B5
:1001E000ED518651ED518E519851ED51ED51AC517B
:1001F000ED51B651C051CA51D951ED51E3510C5294
:100200000853155222522F523C52555265520853F0
:10021000755208530853085308530853865208531D
:100220009152A15208530853B8520853C552D252A2
:10023000DF52F1520853FE522753235430533D539B
:100240004A53575370538053235490532354235489
:10025000235423542354A1532354AC53BC53235449
:100260002354D3532354E053ED53FA530C542354E3
:1002700019544254FC5448545054585460547654C1
:100280008154FC548C54FC54FC54FC54FC54FC54D9
:100290009854FC54A054AB54FC54FC54C254FC5429
:1002A000CC54D454DC54EB54FC54F5548566896624
:1002B0009E66A966DF66B366DF66CC66BF66DF66EC
:1002C000DF66DF66DF66DF66DF66DF66DF66DF6606
:1002D000D766E703BB027302F1036B026904A10254
:1002E000ED018702CD03EB029D02F9032F0469049F
:1002F00087040D028D03A103CB0499032502C904D1
:10030000F50427043B04FF014903F302DD03450321
:10031000A904F5040B03AF0383040702FD03FB02EA
:1003200009037F04F30319049D0461047504F901B2
:100330004504CB021703F3033D02390389042D0260
:10034000A503D1035B0311024D03C7031302770317
:100350001104170243035F025D034D0301026102B2
:10036000AB04084AD73B3BCE016E84BCBFFDC12F16
:100370003D6C74319ABD56833DDA3D00C77F11BE96
:10038000D9E4BB4C3E916BAAAABE000000803F0599
:10039000A84CCDB2D44EB93836A9020C50B99186CA
:1003A00088083CA6AAAA2ABE000000803F000C9440
:1003B00071BD0C94E3510C94D7C80C94A1520C94C9
:1003C00058CD0C949B500C9490500D94AF160C94F7
:1003D000EB4E0C9421F10C94B8520D947B0F0C94BD
:1003E000134E0C9482F80C94B7920C94CE4F0C944C
:1003F000074D0D94843C0C94CC4E0C94FE520D94FD
:1004000020120D94213F0C94DF520D94FC810D9429
:10041000433B0C94D9510D944B150D94A10F0C94A2
:1004200063DA0D94023F0D94093F0D9416160D9456
:10043000133F0C9423540C94824E0C9453CD0C9483
:1004400075BD0D94001B0C9481540D94FC110C94FB
:1004500022520C94B1500C94FA530D94F53E0D9425
:1004600032150D9400150C94AC510C94FC540C9462
:10047000A0540C94AB540C94E9F80D94183D0C94D2
:100480003F4D0C946C4E0D94A6420C946FD90C9475
:1004900012500D94A6160C9407C50D9497160D9442
:1004A0005C170C940BC50D9464150C9474A80C94F3
:1004B0009C4D0C9409C50C948E510C949BA80D94E2
:1004C0001A3F0D94243F0C9486C80D9492150C94F9
:1004D00079F00D94B30E0D946C0F0C9466F60C9499
:1004E00089660C94FDCC0D94620F0C94B54C0C9461
:1004F000ACF80C94984E0C94F3C00D94FE150D942A
:10050000E6150C94B3CC0C944EC40C9417C60D9401
:10051000810F0C94AED60C949E660C94CA510C9428
:10052000D0500C94BC530C94D7660D9404160C94C4
:100530003A4D0C94AC4D0D94A5150D948F0F0C9461
:100540007EC80D94770F0C9430530C9448510C9442
:1005500076C80C949BF00C9406B90C94B7F80C94E4
:10056000F04F0C9405CD0C94A1530C9431500C9485
:1005700095A80C9484F00D94730F0D9488160C9428
:100580000DD00C9405AA0C946F4D0C94024D0C9454
:10059000D3F00C94774E0D94CE3C0C944EF60D9403
:1005A000CB0E0C945DDA0C945CF60C9499A80C9428
:1005B0007EF10D94FD1C0C943E510C948C540C94C3
:1005C000A6500C940AD60C9438DA0D946A160C9442
:1005D000074F0C94184F0D94890F0C948B4D0C946D
:1005E0002F520C94C6500D9434120C9423500C943A
:1005F00055520C9478F00D94853B0D94F2150C94A3
:10060000A1D20C94DF660C94CC540C94BFC40C940F
:10061000DF4F0D94AA3B0D9461120C946A4D0D941A
:100620000A160C94BECC0C94574E0C946DBD0D94D0
:10063000F33C0D94EC150C948ED60C9415520C943E
:10064000D64D0C94B7D00C9482500C9496F30C9425
:1006500001500C94CC4C0C94DBD90C94D2520D94D8
:1006600039190C94ED530C94A9660C941D4D0C94FF
:10067000B3660D943D3D0C947D4D0C9457DA0C946B
:10068000CDF80C9421DD0D94173F0D944D120C9470
:100690000DDA0D942A120C94ED510D942C3F0C940C
:1006A00027530C94F1520C949F4C0C94094E0C94CB
:1006B000F24D0C9439C70D94FF3E0D941D3F0D94DF
:1006C0000C1D0C94DC540C94F4D90C94D3530C945E
:1006D00008530C945A500C9409AA0C9407AA0C9431
:1006E0009CC40C940C520C94D24C0C943A4F0D9424
:1006F0000D3F0C94BE4F0C9424510C942A510C9431
:100700007CF00C94234D0C943C520C9476540C9435
:10071000BED00C94974D0C94D4540D94A50F0D9409
:1007200060160C9447CD0D9445500C945E510D9479
:100730005F750D94F2110C9403AA0C94FE4D0D9468
:10074000CC0E0D94E8110C94F1D50D94F83E0C9458
:10075000AD4C0C94F74D0C94B34C0C944DCD0D94C2
:100760006B120C94904D0C949A4C0C941B4D0C9461
:1007700088CA0C94C0C20C94DED50C94514E0C94D3
:100780000C540C9417D00C9486510C94BB4C0D94C3
:10079000063F0C94BBD10C94644D0D94850F0C94C2
:1007A000154D0D94FC3E0C9453F60C94EB540C94A4
:1007B0000E4E0C9496C80C9412D00D943E120C94CC
:1007C00041CD0C94CC660C94FABD0C9449F60D9472
:1007D000700F0C940BAA0C94C2540C94834D0C947F
:1007E00058540D94660F0D94863D0C9419540C9436
:1007F000294F0D94930F0C948D4E0D94653B0C94E2
:1008000044DA0C9478510D94BE160C94B6510C94A5
:10081000BFBD0C94F9B80C9426DA0C94F5F00C9446
:100820001CD00D94103F0C9409CB0C94C0670C9411
:1008300086520D94F43B0C94944C0C94A74D0C945C
:1008400023D60C945FA70C9467CD0C94AABF0D948B
:1008500010120C9498510C94B9F80C9491520D9478
:10086000970F0C9457530C9480530C94CB4D0C94CD
:10087000D74C0C9450540D9418120C94FBC40C9447
:10088000284D0C9442540D94BE150D94A93C0C9423
:10089000BF660D941C160D94F8150C9493A80D9436
:1008A000F2140C9415D60C94FC4C0C94B24F0C948E
:1008B000D14D0D9461750C9486CD0C9490530C948D
:1008C000B7BD0D943A3C0C94E44D0C943BC40C948D
:1008D000934F0D94AA0F0C94C04C0C94AC530C94F1
:1008E000DC4C0C94854D0C94C74C0D945F3C0C94DF
:1008F00034510C9448540C94A34E0C94EC4D0D942C
:10090000CF3B0C94344D0D9475120C9462CD0D9424
:100910009D0F0D94623D0C9435C60C94E0530D94DC
:10092000D7150C9485660C9460540C9498540C94D0
:100930000BD40C942FC60C94F6500D94173C0D94C8
:1009400019150C94F74E0C94034E0C9470D00C9423
:100950006B510D9457120D94273F0C94BC500C947E
:10096000B1F00C946A4F0D94340F0C942F4D0D94EC
:100970001C0F0C94C0510C94444D0C945C4F0D947E
:1009800010160C94614E0C9475520C9472A40C9435
:10099000C5520D9406120D94ED110D9479160C9418
:1009A0004B4F0C943D530C9470530C94D8C40D943D
:1009B0007F150C943BCD0C9422A60C9479500C948A
:1009C000A24D0C948EC80C94F5540C9465520C9462
:1009D000EA4D0C9429C60C944A530C945DCD0C94AA
:1009E000EBC40C94BD670C9497A80D947F124E41F4
:1009F0004E494E495459494E46CDCCCC3D0AD72399
:100A00003C17B7D13877CC2B329595E6241FB14FE0
:100A10000A000020410000C84200401C4620BCBE25
:100A20004CCA1B0E5AAEC59D7400407A10F35A0092
:100A3000A0724E18090010A5D4E80000E876481707
:100A40000000E40B54020000CA9A3B000000E1F5EC
:100A500005000080969800000040420F000000A0B2
:100A60008601000000102700000000E803000000DD
:100A7000006400000000000A000000000001000007
:100A80000000002C76D888DC674F0823DFC1DFAE7A
:100A900059E1B1B796E5E3E453C63AE65199769643
:100AA000E8E6C28426EB898C9B62ED407C6FFCEF0C
:100AB000BC9C9F40F2BAA56FA5F490055A2AF75C3A
:100AC000936B6CF9676DC11BFCE0E40D47FEF520EC
:100AD000E6B500D0ED902E030094357705008084B4
:100AE0001E080000204E0A000000C80C33333333C8
:100AF0000F986E12831141EF8D2114893BE6551634
:100B0000CFFEE6DB18D1844B381BF77C1D901DA46B
:100B1000BBE424203284725E228100C9F124ECA15E
:100B2000E53D274C4556454C494E4700434F4D4DFA
:100B3000554E49434154494F4E0044525952554E27
:100B4000004552524F525300494E464F00454348CC
:100B50004F0047322F473320626164207061726119
:100B60006D65746572730A00536C6565702E2E2E68
:100B7000003E20686F6D696E67206E6F74206E6531
:100B8000656465642C20736B69700A004D65736839
:100B900020706F696E74206F7574206F66207261AB
:100BA0006E67650A00436C69636B20746F20526541
:100BB00073756D652E2E2E00494E434F525245439C
:100BC00054205052494E5445520048453344204B1E
:100BD000323830004E6F204D6F76652E00456E64C2
:100BE0002066696C65206C6973740A0042656769E8
:100BF0006E2066696C65206C6973740A004E6F2004
:100C00006D656469610A00286E6F2066696C6529EC
:100C10000043757272656E742066696C653A2000D7
:100C20005344207072696E74696E672062797465CE
:100C300020004E6F74205344207072696E74696E88
:100C4000670A0044656C6574696F6E206661696C43
:100C500065642C2046696C653A200046696C652005
:100C600064656C657465643A005072696E742074D2
:100C7000696D653A2000496E76616C69642050693F
:100C80006E204D6F64650A000A53746174733A20D4
:100C900046696C616D656E7420757365643A2000F9
:100CA0002C204C6F6E67657374206A6F623A200067
:100CB000546F74616C2074696D653A20002C204675
:100CC00061696C65643A20002C2046696E6973681E
:100CD00065643A20005072696E74733A2000537450
:100CE0006174733A200045202553006F6666004406
:100CF000454255473A004D3131322053687574648E
:100D00006F776E004D3131332053004265642043CC
:100D10006F6F6C696E672E2E2E00426564204865E9
:100D20006174696E672E2E2E0050533A300A0050BF
:100D3000533A310A0048453344204B323830204F73
:100D400046462E002F2F20004D31343520533C696C
:100D50006E6465783E206F7574206F662072616ED8
:100D600067652028302D31290A00416363656C6571
:100D7000726174696F6E3A20500020204D61783A9C
:100D8000200020204D696E3A2000536F6674206564
:100D90006E6473746F70733A200046523A002046B6
:100DA0006C6F773A200050726F74656374656420CD
:100DB00050696E0A0020643A0020693A0020703AB7
:100DC000006469730043290A0061626C656420282D
:100DD0006D696E2074656D702000436F6C642065D2
:100DE000787472756465732061726520004D3432C9
:100DF0003120696E636F7272656374207061726115
:100E00006D657465722075736167650A00454550AC
:100E1000524F4D204F4B0A005D203D200064656C11
:100E200074615F656E6473746F705F61646A5B00A8
:100E30004D36363600446F6E65207072696E746987
:100E40006E672066696C650A004D3737004D333197
:100E5000004D0B480B410B3A0B2C0B230B457272C8
:100E60006F722077726974696E6720746F204545D0
:100E700050524F4D210A004D343130004D31313246
:100E8000004D3130380053544F505045442E20000F
:100E90005072696E7465722073746F70706564202F
:100EA00064756520746F206572726F72732E2046B0
:100EB000697820746865206572726F7220616E6453
:100EC00020757365204D39393920746F2072657330
:100ED000746172742E202854656D7065726174752A
:100EE00072652069732072657365742E2053657472
:100EF0002069742061667465722072657374617212
:100F000074696E67290A004E6F20436865636B73CE
:100F1000756D2077697468206C696E65206E756DDB
:100F20006265722C204C617374204C696E653A20A6
:100F300000636865636B73756D206D69736D6174B3
:100F400063682C204C617374204C696E653A2000F4
:100F50004C696E65204E756D626572206973206EF6
:100F60006F74204C617374204C696E65204E756DF2
:100F70006265722B312C204C617374204C696E6554
:100F80003A20004D313130005344207265616420B5
:100F90006572726F720A002121204B494C4C20630C
:100FA0006175736564206279204B494C4C206275F1
:100FB00074746F6E2F70696E0A002121204B494CAA
:100FC0004C2063617573656420627920746F6F20B3
:100FD0006D75636820696E616374697665207469F4
:100FE0006D65202D2063757272656E7420636F6D60
:100FF0006D616E643A2000627573793A2070617594
:1010000073656420666F7220696E7075740A006281
:101010007573793A2070617573656420666F72200C
:10102000757365720A00627573793A2070726F6326
:10103000657373696E670A004D6564696120496E66
:1010400073657274656400506C65617365205265E8
:10105000736574005052494E5445522048414C54D7
:1010600045440025533A202553004B494C4C4544F8
:101070002E20005072696E7465722068616C746510
:10108000642E206B696C6C28292063616C6C65642C
:10109000210A006563686F3A004572726F723A0008
:1010A00066616C73650074727565002028646973ED
:1010B00061626C6564290A0041424C2041646A7592
:1010C00073746D656E74205A002028656E61626CC1
:1010D0006564290A0041626F76650053616D652081
:1010E0005A2061730042656C6F77004175746F2000
:1010F000426564204C6576656C696E673A204249AA
:101100004C494E45415200204E6F7A7A6C65290A4F
:1011100000202620002D43656E746572002D4672F6
:101120006F6E74002D4261636B002028416C69670B
:101130006E656420576974680020284D6964646C8A
:10114000650020284C656674002028526967687421
:101150000050726F62653A204649585F4D4F554EB8
:101160005445445F50524F42450A004D61636869DF
:101170006E6520547970653A2044656C74610A008C
:101180005D0A004578747261706F6C617465205BF4
:101190000042696C696E656172204C6576656C69A8
:1011A0006E6720477269643A0A00203A202E2E2E7C
:1011B0004E6F77204F4E0A00203A204C6576656CC2
:1011C000696E67204F46460A00203A202E2E2E4E8A
:1011D0006F77204F46460A00203A204C6576656CB2
:1011E000696E67204F4E0A00363726023C3D380FA5
:1011F0002E303E12131A1C180AFF430C090708442C
:10120000000172657365745F6265645F6C65766525
:101210006C0A005072696E74696E67204F626A656D
:101220006374002553202569002F333100092042C3
:10123000616420726573706F6E7365210048494761
:1012400048004572726F723A20416C6C2000206336
:101250006F6E6E656374696F6E2E2E2E200054655E
:101260007374696E672000544D4320434F4E4E45C2
:101270004354494F4E204552524F5200303D2E3379
:10128000323500313D2E3138004732362048656115
:1012900074696E67204E6F7A7A6C6500473236202B
:1012A00048656174696E67204265640057616974BE
:1012B000696E6720666F72206865617475702E0AAA
:1012C000004669786564204C656E677468205072CA
:1012D000696D6500446F6E65205072696D696E6757
:1012E000004D616E75616C207072696D696E672E5C
:1012F0002E2E004732362043616E63656C656400B4
:101300004C656176696E6720473236003F537065E1
:1013100063696669656420582C5920636F6F726435
:10132000696E617465206F7574206F6620626F75D9
:101330006E64732E0A003F2852296570656174201F
:1013400076616C7565206E6F7420706C6175736961
:10135000626C653B206D757374206265206174203A
:101360006C6561737420312E0A003F5370656369A8
:1013700066696564206E6F7A7A6C652074656D703D
:1013800065726174757265206E6F7420706C617522
:101390007369626C652E0A003F5370656369666904
:1013A00065642066696C616D656E742073697A6529
:1013B000206E6F7420706C61757369626C652E0AA3
:1013C000003F537065636966696564207072696D7A
:1013D00065206C656E677468206E6F7420706C6138
:1013E000757369626C652E0A003F537065636966A8
:1013F000696564206E6F7A7A6C652073697A6520FE
:101400006E6F7420706C61757369626C652E0A0072
:101410003F52657472616374696F6E204D756C74B0
:1014200069706C696572206D7573742062652073D4
:1014300070656369666965642E0A003F5370656371
:1014400069666965642052657472616374696F6E60
:10145000204D756C7469706C696572206E6F7420B4
:10146000706C61757369626C652E0A003F5370651C
:10147000636966696564206C617965722068656975
:10148000676874206E6F7420706C61757369626C2C
:10149000652E0A0043292E0A003F53706563696672
:1014A000696564206265642074656D70657261743D
:1014B000757265206E6F7420706C61757369626CF3
:1014C00065202834302D00473236207374617274E1
:1014D000696E672E2E2E0A0050726F6265204F666D
:1014E000667365742058004361703A004348414D6B
:1014F0004245525F54454D50455241545552450066
:10150000424142595354455050494E47004152437D
:1015100053004D4F54494F4E5F4D4F444553005477
:101520004845524D414C5F50524F54454354494FEA
:101530004E004C4F4E475F46494C454E414D45008D
:101540004155544F5245504F52545F53445F53548A
:1015500041545553005344434152440050524F4D5F
:1015600050545F535550504F525400454D455247CB
:10157000454E43595F5041525345520043415345F4
:101580005F4C494748545F4252494748544E45537F
:101590005300544F47474C455F4C4947485453000C
:1015A000534F4654574152455F504F5745520042A2
:1015B00055494C445F50455243454E54004C4556A6
:1015C000454C494E475F44415441005A5F50524F89
:1015D00042450052554E4F5554004155544F4C45CD
:1015E00056454C005052494E545F4A4F42005052AB
:1015F0004F4752455353004155544F5245504F5257
:10160000545F54454D5000564F4C554D455452492A
:10161000430042494E4152595F46494C455F54523E
:10162000414E534645520053455249414C5F584F35
:101630004E5F584F4646004649524D574152455F0E
:101640004E414D453A4D61726C696E206275676618
:1016500069782D322E302E7820284465632020377B
:1016600020323032302032313A35373A3136292083
:10167000534F555243455F434F44455F55524C3A93
:1016800068747470733A2F2F6769746875622E637B
:101690006F6D2F4D61726C696E4669726D77617204
:1016A000652F4D61726C696E2050524F544F434FFD
:1016B0004C5F56455253494F4E3A312E30204D41E2
:1016C0004348494E455F545950453A4845334420B4
:1016D0004B3238302045585452554445525F434FA1
:1016E000554E543A3120555549443A636564653244
:1016F0006132662D343161322D343734382D396200
:1017000031322D6335356336326633363766660AD5
:10171000003F5A206F7574206F662072616E676596
:101720002028003F59206F7574206F662072616E0B
:10173000676520282D0020746F20003F58206F75AA
:1017400074206F662072616E676520282D00656EBB
:101750007175657565696E672022006F6B00526553
:1017600073656E643A200025697920256964202517
:1017700069682025696D20256973002364656669A1
:101780006E652044454641554C545F004B64200033
:101790004B6920004B702000504944204175746F04
:1017A00074756E652066696E697368656421205082
:1017B000757420746865206C617374204B702C20E4
:1017C0004B6920616E64204B6420636F6E7374619B
:1017D0006E74732066726F6D2062656C6F7720691E
:1017E0006E746F20436F6E66696775726174696F9E
:1017F0006E2E680A00504944204175746F74756EEE
:1018000065206661696C6564212074696D656F751A
:10181000740A000A20436C61737369632050494461
:10182000200A00204B643A2000204B693A20002017
:101830004B703A20002054753A2000204B753A2016
:1018400000206D61783A2000206D696E3A200020FA
:10185000643A200020626961733A200050494420B4
:101860004175746F74756E652073746172740A00CB
:10187000504944204175746F74756E6520666169C6
:101880006C6564212054656D706572617475726554
:1018900020746F6F20686967680A005049442041CE
:1018A00075746F74756E6500504944204175746F8E
:1018B00074756E65206661696C656421204261649F
:1018C000206578747275646572206E756D626572DC
:1018D0000A007C4D61726C696E7C002D2D2D2D2DC2
:1018E0002D00A10000006900A20000006300B0000C
:1018F00000000900C10000004100C20000004100DA
:10190000C30000004100C40000004100C500000009
:101910004100C60000004145C70000004300C80068
:1019200000004500C90000004500CD00000049004E
:10193000D10000004E00D50000004F00D60000008E
:101940004F00D70000007800DC0000005500DD00EB
:1019500000005900E00000006100E10000006100AB
:10196000E20000006100E30000006100E40000000C
:101970006100E50000006100E60000006165E7002D
:1019800000006300E80000006500E9000000650059
:10199000EA0000006500EB0000006500EC000000BC
:1019A0006900ED0000006900EE0000006900EF0032
:1019B00000006900F10000006E00F20000006F00FE
:1019C000F30000006F00F40000006F00F50000005D
:1019D0006F00F60000006F00F80000006F00F900D3
:1019E00000007500FA0000007500FB0000007500A3
:1019F000FC0000007500FD0000007900FF00000001
:101A000079000401000041000501000061000601A9
:101A1000000043000701000063000C0100004300C8
:101A20000D01000063000E01000044000F010000E2
:101A300064001101000064001901000065001A0132
:101A4000000045001B01000065001F010000670049
:101A5000300100004900310100006900410100002F
:101A60004C00420100006C00430100004E004401A4
:101A700000006E00480100006E0058010000520096
:101A80005901000072005A01000053005B01000080
:101A900073005F01000073006001000053006101EA
:101AA000000073006501000074006F010000750004
:101AB0007C0100007A007D0100005A007E010000D8
:101AC0007A00920100006600E30200007800222004
:101AD00000002E001E210000507822210000544DED
:101AE000902100003C2D922100002D3EB0210000ED
:101AF0000300BB21000004003C2200007E004822BD
:101B000000007E3D60220000213D612200003D007A
:101B1000642200003C3D652200003E3DF1230000B0
:101B20000700A03000003D0021F301000200C2F4D4
:101B300001000500A2000000EC00B0000000DF0082
:101B4000E4000000E100F6000000EF00F7000000F4
:101B5000FD00FC000000F500E3020000EB0087033D
:101B60000000A5008F030000F40098030000F200BD
:101B70009E030000E300A3030000F600A903000099
:101B8000F400AC030000E000AD030000E300B1038B
:101B90000000E000B2030000E200B5030000E30033
:101BA000B8030000F200BC030000E400BE03000024
:101BB000E300C0030000F700C1030000E600C30318
:101BC0000000E500902100007F00922100007E00CF
:101BD0001A220000E8001E220000F3008825000001
:101BE000FF0002300000A1000C300000A2000D3008
:101BF0000000A3009B300000DE009C300000DF00EE
:101C0000A03000003D00A1300000A700A23000007D
:101C1000B100A3300000A800A4300000B200A5303D
:101C20000000A900A6300000B300A7300000AA0001
:101C3000A8300000B400A9300000AB00AA300000BA
:101C4000B500AB300000B600AC300000B6DEAD3001
:101C50000000B700AE300000B7DEAF300000B800C3
:101C6000B0300000B8DEB1300000B900B230000082
:101C7000B9DEB3300000BA00B4300000BADEB530CF
:101C80000000BB00B6300000BBDEB7300000BC0077
:101C9000B8300000BCDEB9300000BD00BA30000032
:101CA000BDDEBB300000BE00BC300000BEDEBD307B
:101CB0000000BF00BE300000BFDEBF300000C0002B
:101CC000C0300000C0DEC1300000C100C2300000E2
:101CD000C1DEC3300000AF00C4300000C200C53018
:101CE0000000C2DEC6300000C300C7300000C3DE03
:101CF000C8300000C400C9300000C4DECA30000093
:101D0000C500CB300000C600CC300000C700CD308D
:101D10000000C800CE300000C900CF300000CA006B
:101D2000D0300000CADED1300000CADFD23000005F
:101D3000CB00D3300000CBDED4300000CBDFD53079
:101D40000000CC00D6300000CCDED7300000CCDF65
:101D5000D8300000CD00D9300000CDDEDA300000F0
:101D6000CDDFDB300000CE00DC300000CEDEDD3029
:101D70000000CEDFDE300000CF00DF300000D000FA
:101D8000E0300000D100E1300000D200E23000007D
:101D9000D300E3300000AC00E4300000D400E530B4
:101DA0000000AD00E6300000D500E7300000AE00D6
:101DB000E8300000D600E9300000D700EA3000002B
:101DC000D800EB300000D900EC300000DA00ED3034
:101DD0000000DB00EF300000DC00F2300000A60065
:101DE000F3300000DD00F4300000B3DEF730000017
:101DF000DCDEFA300000A6DEFB300000A500FC307F
:101E00000000B000FD300000A400074E0000FB0001
:101E100086510000FC0043530000FA0064FF0000FC
:101E2000A40065FF0000A50066FF0000A60067FF94
:101E30000000A70068FF0000A80069FF0000A900DB
:101E40006AFF0000AA006BFF0000AB006CFF0000FF
:101E5000AC006DFF0000AD006EFF0000AE006FFF34
:101E60000000AF0070FF0000B00071FF0000B10083
:101E700072FF0000B20073FF0000B30074FF0000A7
:101E8000B40075FF0000B50076FF0000B60077FFD4
:101E90000000B70078FF0000B80079FF0000B9002B
:101EA0007AFF0000BA007BFF0000BB007CFF00004F
:101EB000BC007DFF0000BD007EFF0000BE007FFF74
:101EC0000000BF0080FF0000C00081FF0000C100D3
:101ED00082FF0000C20083FF0000C30084FF0000F7
:101EE000C40085FF0000C50086FF0000C60087FF14
:101EF0000000C70088FF0000C80089FF0000C9007B
:101F00008AFF0000CA008BFF0000CB008CFF00009E
:101F1000CC008DFF0000CD008EFF0000CE008FFFB3
:101F20000000CF0090FF0000D00091FF0000D10022
:101F300092FF0000D20093FF0000D30094FF000046
:101F4000D40095FF0000D50096FF0000D60097FF53
:101F50000000D70098FF0000D80099FF0000D900CA
:101F60009AFF0000DA009BFF0000DB009CFF0000EE
:101F7000DC009DFF0000DD009EFF0000DE009FFFF3
:101F80000000DF00E5FF00005C00001C1F11111FB6
:101F900000000006191803130C00040E1F041C0097
:101FA0000000000E1315110E00001C101817050676
:101FB0000500040A0A0A0A11110E0C12120C000084
:101FC0000000001F1511151F000000000000010295
:101FD00004040000001C1C0C0404040201000000A6
:101FE0000000040810000000000020205261646915
:101FF00075733A002E4865696768743A007879000D
:102000007A7800797A00207A002079002078002EF2
:102010002020202000456E64204452592D52554EF8
:10202000004E6F20636F6E76657267656E63650044
:10203000497465726174696F6E203A202530326987
:1020400000536176652077697468204D3530302003
:10205000616E642F6F7220636F707920746F2043FC
:102060006F6E66696775726174696F6E2E680A00BB
:10207000253033692E7800302E25303369004361D6
:102080006C6962726174696F6E2073643A00737474
:1020900064206465763A00726F6C6C696E672062CA
:1020A00061636B2E0043616C6962726174696F6E6B
:1020B000204F4B00436F72726563742064656C74CB
:1020C000612073657474696E677320776974682022
:1020D0004D36363520616E64204D3636360A002086
:1020E000284452592D52554E2900436865636B6947
:1020F0006E672E2E2E204143003F426564206361AF
:102100006C6962726174696F6E2072616469757363
:1021100020696D706C61757369626C652E0A004789
:102120003333204175746F2043616C69627261744E
:10213000650A003F2856296572626F7365206C65D9
:1021400076656C20696D706C61757369626C652071
:1021500028302D33292E0A003F2846296F726365E7
:1021600020697465726174696F6E20696D706C614D
:10217000757369626C652028302D3330292E0A0072
:102180003F284329616C6962726174696F6E2070C7
:102190007265636973696F6E20696D706C617573C8
:1021A00069626C6520283E3D30292E0A003F285088
:1021B000296F696E747320696D706C6175736962E3
:1021C0006C652028302D3130292E0A00203A2073EA
:1021D000796E635F706C616E5F706F736974696F45
:1021E0006E0A00203A20707265706172655F6661E8
:1021F00073745F6D6F76655F746F5F646573746928
:102200006E6174696F6E0A00202064657374696E74
:102210006174696F6E3D00203A207A206C6F77659B
:1022200072206D6F76650A00203A207879206D6FF4
:1022300076650A00203A207A207261697365206D04
:102240006F76650A00203A207A6F6E6520626F72A1
:10225000646572206D6F76650A00203A2064616EB5
:10226000676572207A6F6E65206D6F76650A002053
:102270003A2064657374696E6174696F6E203D20E5
:1022800063757272656E745F706F736974696F6E77
:102290000A003E2000646F5F626C6F636B696E675B
:1022A0005F6D6F76655F746F00206D61783A002016
:1022B0006D696E3A00417869732000486F6D652042
:1022C00025732573257320466972737400576172F4
:1022D0006E696E673A20486F6D696E672042756D52
:1022E000702044697669736F72203C20310A005D6A
:1022F00000646F5F686F6D696E675F6D6F76650014
:102300003C3C3C20686F6D656178697328006164AE
:102310006A44697374616E63653A00486F6D652045
:102320003220536C6F773A0A004D6F766520417703
:1023300061793A0A00486F6D6520312046617374F7
:102340003A0A003E3E3E20686F6D656178697328E9
:102350000000000C4300000C430080184400000CF7
:10236000C300000CC3000000000A0A0A555585424C
:1023700055558542555585420000A0400000A040BB
:102380000000A04000008C4300008C4300801844F3
:102390000101010000000100000001000080005563
:1023A0005555000000400033333300AAAA2A0049E3
:1023B00092240000002000C7711C0099991900D1D7
:1023C000451700555515003BB11300244912001163
:1023D000111100000010000F0F0F00E3380E004332
:1023E000790D00CCCC0C00C3300C00E8A20B0064CB
:1023F000210B00AAAA0A00703D0A009DD8090042DC
:102400007B090092240900DCD308008888080010AA
:1024100042080000000800F0C10700878707007528
:10242000500700711C07003EEB0600A1BC060069C6
:1024300090060066660600703E06006118060017EA
:10244000F4050074D105005BB00500B29005006290
:102450007205005555050078390500B81E050005C0
:102460000505004EEC040087D40400A1BD040090D3
:10247000A7040049920400C17D0400EE690400C76E
:10248000560400444404005C320400082104004166
:10249000100400000004003FF00300F8E0030026F1
:1024A000D20300C3C30300CCB503003AA803000A5B
:1024B0009B0300388E0300C08103009F750300D08A
:1024C000690300505E03001D53030034480300916C
:1024D0003D03003333030016290300381F03009720
:1024E000150300300C0300030303000BFA0200493C
:1024F000F10200BAE802005CE002002DD802002DD3
:10250000D0020059C80200B0C0020031B90200DA9E
:10251000B10200AAAA0200A0A30200BC9C0200FA19
:102520009502005C8F0200DF880200828202004573
:102530007C02002776020027700200436A02007CBA
:10254000640200D05E02003F590200C853020049F5
:102550006E697469616C697A6520454550524F4DCA
:1025600000416D6178204500416D61782043004154
:102570006D6178204200416D6178204100412D5409
:10258000726176656C00412D5265747261637400EE
:10259000416363656C0056652D4A65726B00564356
:1025A0002D4A65726B0056422D4A65726B0056418A
:1025B0002D4A65726B0050726F62652059204F661C
:1025C000667365740050726F62652058204F6666AE
:1025D00073657400452073746570732F6D6D0043CF
:1025E0002053746570732F6D6D00422053746570B5
:1025F000732F6D6D00412053746570732F6D6D00E6
:10260000496E69740046696C616D656E7400507244
:102610006F6265204F66667365747300416363651E
:102620006C65726174696F6E0056656C6F63697476
:1026300079002062797465733B2063726320004ED9
:102640006F20454550524F4D2E0A00204600205223
:1026500000454550524F4D206461746173697A653D
:10266000206572726F722E0A002073746F72656437
:102670002073657474696E6773207265747269651E
:10268000766564202800202863616C63756C617432
:10269000656429210A0020213D2000454550524F04
:1026A0004D20435243206D69736D61746368202D22
:1026B000202873746F726564292000496E64657800
:1026C0003A200044494749504F5453204C6F6164AD
:1026D00065640A0044494749504F5453204C6F6188
:1026E00064696E670A00204D61726C696E3D5638F0
:1026F00032290A00454550524F4D20766572736964
:102700006F6E206D69736D61746368202845455054
:10271000524F4D3D0048617264636F6465642044AC
:10272000656661756C742053657474696E67732097
:102730004C6F616465640A003B200020204D3930F5
:10274000360020204D3536392053310044726976E9
:102750006572207374657070696E67206D6F646553
:102760003A00205430204500537465707065722023
:102770006472697665722063757272656E743A0070
:1027800020204D3835312058005A2D50726F626527
:10279000204F66667365740020204D333031205021
:1027A000005049442073657474696E67733A002061
:1027B000204D3134352053004D6174657269616C70
:1027C0002068656174757020706172616D657465F3
:1027D00072733A0020480020204D363635204C00D8
:1027E00044656C74612073657474696E67733A2014
:1027F0004C3C646961676F6E616C20726F643E204F
:10280000523C7261646975733E20483C6865696733
:1028100068743E20533C7365676D656E74732070F9
:102820006572207365633E2058595A3C746F776512
:102830007220616E676C65207472696D3E20414242
:10284000433C726F64207472696D3E0020204D36E7
:102850003636205800456E6473746F702061646A68
:102860007573746D656E743A00204A0020204732FB
:1028700039205720490020204D3432302053004168
:1028800075746F20426564204C6576656C696E676F
:102890003A0020204D323035204200416476616E8E
:1028A0006365643A20423C6D696E5F7365676D6570
:1028B0006E745F74696D655F75733E20533C6D691E
:1028C0006E5F66656564726174653E20543C6D6937
:1028D0006E5F74726176656C5F6665656472617463
:1028E000653E20583C6D61785F785F6A65726B3E2B
:1028F00020593C6D61785F795F6A65726B3E205A42
:102900003C6D61785F7A5F6A65726B3E20453C6D15
:1029100061785F655F6A65726B3E0020540020201D
:102920004D323034205000416363656C65726174D0
:10293000696F6E2028756E6974732F7332293A207F
:10294000503C7072696E745F616363656C3E2052C7
:102950003C726574726163745F616363656C3E2091
:10296000543C74726176656C5F616363656C3E00B4
:1029700020204D3230312058004D6178696D756DE1
:1029800020416363656C65726174696F6E202875A0
:102990006E6974732F7332293A0020204D32303320
:1029A0002058004D6178696D756D206665656472AB
:1029B000617465732028756E6974732F73293A00EA
:1029C00053746570732070657220756E69743A0077
:1029D00020440020204D32303020530020446973C1
:1029E00061626C65640A0046696C616D656E742095
:1029F00073657474696E67733A0020204D31343901
:102A00002043203B20556E69747320696E20436516
:102A10006C736975730A0020286D6D2900202047AA
:102A20003231202020203B20556E69747320696E5E
:102A3000206D6D000000FA430000FA430000FA43E5
:102A40000000F0420000A0420000A0420000A042AE
:102A500000005144B80B0000B80B0000B80B000098
:102A6000881300005072696E742041626F72746541
:102A700064004D32350050617573696E672E2E2EDD
:102A800000454550524F4D2056657273696F6E2058
:102A90004572726F7200454550524F4D20496E6429
:102AA0006578204572726F7200454550524F4D2037
:102AB000435243204572726F720049676E6F7265B0
:102AC000004D6F76696E672E2E2E0046696C2E20A3
:102AD0004469612E004520696E206D6DC2B30020EF
:102AE000022046616374002002204D6178002002BC
:102AF000204D696E004175746F74656D7000565499
:102B0000726176204D696E00566D696E00566D617A
:102B100078204500566D6178204300566D6178201D
:102B20004200566D617820410041425300504C41B3
:102B300000544D432044726976657273004D61699B
:102B40006E00436F6F6C646F776E005072656865DE
:102B5000617420240046616E205370656564207E98
:102B600000537465616C746843686F7020456E61D2
:102B7000626C6564005374657070696E67204D6F98
:102B80006465004472697665722043757272656E81
:102B90007400436F6E74726F6C004261627973747B
:102BA0006570205A00466C6F77002D2B292B3F0053
:102BB00043616E63656C004D6F74696F6E004D38D4
:102BC00034004175746F20486F6D650054656D70F9
:102BD000657261747572650053746172742050720D
:102BE000696E740043616E6E6F7420656E746572F9
:102BF000207375626469723A2000052E2E0004521B
:102C000065667265736800486F74656E6420746FE2
:102C10006F20636F6C640050726F6365656400467B
:102C20007265652058590044697361626C65205370
:102C300074657070657273005072656865617420A8
:102C40002420456E640050726568656174202420FC
:102C500042656400547A00547900547800457A0043
:102C600045790045780044656C74612043616C6966
:102C700062726174696F6E004C6F61642053657499
:102C800074696E67730053746F7265205365747452
:102C9000696E677300436F6E666967757261746908
:102CA0006F6E0043616E63656C204F626A6563748A
:102CB00000486F6D696E672058595A004469616712
:102CC00020526F64005261646975730048656967DA
:102CD00068740043616C696272617465205A0043D4
:102CE000616C69627261746520590043616C69624C
:102CF0007261746520580044656C7461205365747A
:102D000074696E67730043616C69627261746520F7
:102D100043656E746572004175746F2043616C6920
:102D200062726174696F6E004733330053746F7061
:102D3000004D32310052656C65617365204D6564EC
:102D40006961004D32320053776974636820506FB7
:102D5000776572204F6E004D383000537769746389
:102D60006820506F776572204F6666004D383100DD
:102D7000526573756D65205072696E74004174748C
:102D8000616368204D656469610054756E65005328
:102D9000746F70205072696E740050617573652095
:102DA0005072696E7400496E666F20536372656578
:102DB0006E005072696E74205061757365640020F6
:102DC000746F6F206C6F6E672065787472757369AD
:102DD0006F6E2070726576656E7465640A0020639C
:102DE0006F6C6420657874727573696F6E20707291
:102DF0006576656E7465640A0048453344204B323D
:102E000038302052656164792E005072696E7469A1
:102E10006E672E2E2E0020453A0020593A0020538E
:102E2000697A653A20006F70656E206661696C652D
:102E3000642C2046696C653A200046696C652073F5
:102E4000656C65637465640A0046696C65206F7023
:102E5000656E65643A2000454E4420535542524FFA
:102E60005554494E450A002220706F73002220708D
:102E70006172656E743A2200535542524F5554495F
:102E80004E452043414C4C207461726765743A2270
:102E90000053756263616C6C204F766572666C6F6F
:102EA00077004578636565646564206D61782053BB
:102EB0005542524F5554494E452064657074683AE6
:102EC0000057726974696E6720746F2066696C655B
:102ED0003A2000646F696E67004E6F7720000268C9
:102EE000747470733A2F2F6D61726C696E66772EF1
:102EF0006F726700206275676669782D322E302EFA
:102F000078002020506C616E6E6572427566666551
:102F10007242797465733A20002046726565204DCF
:102F2000656D6F72793A2000436F6D70696C6564EE
:102F30003A2044656320203720323032300A0020A6
:102F40004C61737420557064617465643A2032304A
:102F500032302D31312D3132207C20417574686F33
:102F6000723A20284D6172746F6E2042616B7361FA
:102F70002C2031322E30362E32303230290A006287
:102F800075676669782D322E302E780A004D617291
:102F90006C696E0020536F667477617265205265AC
:102FA0007365740A00205761746368646F67205208
:102FB000657365740A002042726F776E206F7574B6
:102FC0002052657365740A002045787465726E61DD
:102FD0006C2052657365740A00506F776572557086
:102FE0000A006175746F25632E6700473238004D03
:102FF00031303031006572726F7220777269746996
:103000006E6720746F2066696C650A00446F6E6598
:1030100020736176696E672066696C652E0A004DC3
:10302000323900456E6473746F7073002553202528
:10303000632025632025632025630020583A00651E
:103040006E6473746F7073206869743A2000700145
:103050002C0190012701B0012201C0011D01F001E6
:1030600018011002130130020E01600209019002E2
:103070000401C002FF000003FA004003F5008003D2
:10308000F000D003EB002004E6007004E100E0044F
:10309000DC004005D700C005D2004006CD00D006B8
:1030A000C8008007C3003008BE00F008B900C0099E
:1030B000B400B00AAF00B00BAA00D00CA500000EFF
:1030C000A000500F9B00C0109600501291000014F9
:1030D0008C00C0158700B0178200B0197D00D01B8E
:1030E0007800001E730040206E0090226900F024DA
:1030F000640040275F0090295A00E02B5500102EF5
:10310000500020304B0010324600E0334100903533
:103110003C001037370070383200A0392D00B03A2B
:103120002800A03B2300603C1E00103D1900903D8C
:103130001400103E0F00703E0A00C03E0500003F24
:103140000000403FFBFF803FF6FFC03FF1FF24F44B
:10315000D43050C38E20C2A24017828B7011127AD5
:10316000910D816CD90AA861E108C75866076151C1
:1031700043061E4B5D05C145A7041A411104093DD4
:103180009803713931034036DB0265339102D43044
:103190005402802E1D02632CEE01752AC501B02851
:1031A000A001102781018F2564012B244B01E0220F
:1031B0003401AC211F018D200D01801FFC00841EF5
:1031C000ED00971DDF00B81CD200E61BC600201BD7
:1031D000BC00641AB200B219A8000A19A0006A184B
:1031E0009900D117910040178B00B5168400311655
:1031F0007E00B31579003A157300C7146F00581498
:103200006A00EE1366008813630025135E00C71280
:103210005B006C12570015125400C111510070115F
:103220004F0021114B00D61049008D104700461069
:10323000440002104200C00F4000800F3E00420FC9
:103240003C00060F3B00CB0E3800930E37005C0E9F
:103250003500270E3400F30D3200C10D3100900D02
:103260003000600D2E00320D2D00050D2C00D90C04
:103270002B00AE0C2900850C29005C0C2700350CB6
:1032800027000E0C2600E80B2400C40B2400A00B22
:1032900023007D0B23005A0B2100390B2100180B52
:1032A0002000F80A1F00D90A1E00BB0A1E009D0A52
:1032B0001D00800A1D00630A1C00470A1B002C0A1F
:1032C0001B00110A1A00F7091A00DD091900C409C8
:1032D0001900AB091900920917007B09180063094E
:1032E00017004C09160036091600200916000A09B5
:1032F0001500F5081500E0081400CC081400B80803
:103300001400A4081400900813007D0812006B0834
:103310001300580812004608120034081100230850
:1033200011001208110001081100F0071000E00759
:103330001000D0071000C0071000B0070F00A10751
:10334000100091070E0083070F0074070F00650738
:103350000E0057070E0049070E003B070D002E0711
:103360000E0020070D0013070D0006070D00F906DB
:103370000C00ED060D00E0060C00D4060C00C8069B
:103380000C00BC060C00B0060C00A4060B0099064D
:103390000C008D060B0082060B0077060B006C06F6
:1033A0000B0061060A0057060B004C060A00420695
:1033B0000A0038060A002E060A0024060A001A0629
:1033C0000A001006090007060A00FD050900F405B9
:1033D0000900EB050900E2050900D9050900D0053F
:1033E0000900C7050900BE050900B5050800AD05BF
:1033F0000800A50509009C050800940508008C0537
:103400000800840508007C050800740508006C05A8
:103410000700650508005D050700560508004E0514
:10342000070047050700400508003805070031057B
:1034300007002A050700230507001C0506001605DE
:1034400007000F0507000805060002050700FB043A
:103450000600F5040700EE040600E8040600E20496
:103460000700DB040600D5040600CF040600C904EB
:103470000600C3040600BD040600B7040600B1043C
:103480000500AC040600A6040600A00405009B0489
:10349000060095040500900406008A0405008504D2
:1034A0000500800406007A04050075040500700418
:1034B00005006B04050066040500610405005C045A
:1034C000050057040500520405004D04050048049A
:1034D0000500430405003E0404003A0405003504D9
:1034E0000500300404002C04050027040400230414
:1034F00005001E0404001A0404001604050011044B
:1035000004000D0404000904050004040400000480
:103510000400FC030400F8030400F4030400F003B7
:103520000400EC030400E8030400E4030400E003E7
:103530000400DC030400D8030400D4030400D00317
:103540000400CC030400C8030300C503030024F4F3
:1035500004D9201BC40C5C0E9804C4095F026507E3
:103560007101F405F900FB04B30048048700C103AE
:1035700069005803550003034500BE023A00840267
:10358000310053022A002902250004022000E40130
:103590001C00C8011900AF01170098011400840134
:1035A0001300710110006101100051010E00430170
:1035B0000D0036010B002B010B0020010B00150143
:1035C00009000C01090003010800FB000800F300DA
:1035D0000800EB000700E4000600DE000600D8004B
:1035E0000600D2000600CC000500C7000500C2009E
:1035F0000500BD000400B9000400B5000400B100DE
:103600000400AD000400A9000400A5000300A2000E
:1036100003009F0004009B00030098000300950036
:10362000020093000300900003008D0002008B0055
:10363000030088000200860002008400030081006D
:1036400002007F0002007D0002007B000200790082
:103650000200770001007600020074000200720090
:103660000100710002006F0002006D0001006C009B
:1036700002006A00010069000200670001006600A4
:1036800001006500010064000200620001006100A9
:103690000100600001005F0002005D0001005C00AD
:1036A00001005B0001005A000100590001005800B0
:1036B00001005700010056000100550001005400B0
:1036C00001005300000053000100520001005100AE
:1036D0000100500001004F0001004E0000004E00AC
:1036E00001004D0001004C0001004B0000004B00A8
:1036F00001004A00010049000100480000004800A4
:10370000010047000100460000004600010045009E
:103710000000450001004400010043000000430098
:103720000100420000004200010041000000410091
:103730000100400001003F0000003F0001003E008A
:1037400000003E0001003D0000003D0001003C0083
:1037500000003C0000003C0001003B0000003B007A
:1037600001003A0000003A00010039000000390071
:103770000100380000003800000038000100370068
:10378000000037000100360000003600000036005F
:103790000100350000003500000035000100340054
:1037A000000034000000340001003300000033004A
:1037B000000033000100320000003200000032003F
:1037C0000100310000003100000031000100300034
:1037D000000030000000300001002F0000002F002A
:1037E00000002F0000002F0001002E0000002E001E
:1037F00000002E0001002D0000002D0000002D0013
:1038000000002D0001002C0000002C0000002C0006
:1038100000002C0001002B0000002B0000002B00FA
:1038200000002B0001002A0000002A0000002A00EE
:1038300000002A00010029000000290000002900E2
:1038400000002900000029000100280000002800D5
:1038500000002800000028000000280001002700C8
:1038600000002700000027000000270000002700BC
:1038700001002600000026000000260000002600AF
:1038800000002600010025000000250000002500A2
:103890000000250000002500000025000100240094
:1038A0000000240000002400000024000000240088
:1038B000010023000000230000002300000023007B
:1038C000000023000000230000002300010022006C
:1038D0000000220000002200000022000000220060
:1038E0000000220001002100000021000000210052
:1038F0000000210000002100000021000000210044
:103900000100200000002000000020000000200036
:103910000000200000002000000020000000200027
:1039200001001F0000001F0000001F0000001F001A
:1039300000001F0000001F0000001F0001001E000B
:1039400000001E0000001E0000001E0000003930B4
:1039500000003325000087190000B00F0000DB08CD
:103960000000BD040000740200003F010000FFFDE4
:10397000FCFAF8F6F4F2F0EEECEAE9E7E5E3E1E070
:10398000DEDCDAD9D7D5D4D2D0CFCDCBCAC8C7C523
:10399000C3C2C0BFBDBCBAB9B7B6B4B3B2B0AFADA5
:1039A000ACAAA9A8A6A5A4A2A1A09E9D9C9A9998FC
:1039B0009795949392908F8E8D8B8A898887868431
:1039C000838281807F7E7D7B7A7978777675747348
:1039D0007271706F6E6D6C6B6A696867666564633F
:1039E0006261605F5E5D5C5B5A595858575655542A
:1039F00053525150504F4E4D4C4B4A4A49484746FE
:103A000046454443424241403F3E3E3D3C3B3B3ABB
:103A100039383837363535343332323130302F2E6D
:103A20002E2D2C2B2B2A2929282727262525242310
:103A30002322212120201F1E1E1D1C1C1B1B1A19A6
:103A40001918181716161515141313121211111030
:103A50000F0F0E0E0D0D0C0C0B0A0A0909080807B2
:103A60000706060505040403030202010000507264
:103A70006F62653A3A646F5F7A5F72616973652855
:103A8000006465706C6F793A2000203A2050726FA4
:103A900062653A3A7365745F6465706C6F796564EA
:103AA0000A0053657474696E67732053746F72658E
:103AB000640053657474696E67732053746F726524
:103AC0006420280000002100240027002A002D0087
:103AD0003000330001010000040107010A01000069
:103AE0000A0B02090C0D0E08070304010000000078
:103AF00000000000000000000000000000000000C6
:103B00000000000000000000000012111000000082
:103B100000000000000000000000000000000000A5
:103B200000000000000020002300260029002C00D7
:103B30002F0032000001000003010601090100000E
:103B40002200250028002B002E0031003400020145
:103B50000000050108010B0105050505070508081A
:103B60000808020202020A0A080804040404010107
:103B7000010101010101030303030303030304071C
:103B800007070C0C0C0C0C0C0C0C020202020606B3
:103B90000606060606060B0B0B0B0B0B0B0B0102A6
:103BA000102020080810204010204080020102014F
:103BB0000804020101020408102040808040201007
:103BC0000804020180040201804020100804020160
:103BD00008040201010204081020408001020408C8
:103BE000102040804D6F76652025736D6D004D6F00
:103BF000766520302E316D6D004D6F766520316D0C
:103C00006D004D6F76652031306D6D004D6F7665BE
:103C10002041786973004578747275646572004D4F
:103C20006F7665205A004D6F76652059004D6F768E
:103C30006520580050726F6265205A204F66667387
:103C4000657400416476616E6365642053657474C5
:103C5000696E6773004C6576656C20426564004749
:103C600032380A473239004E4F00594553004361FC
:103C70006E63656C204F626A656374203D00466127
:103C80006E20537065656400526573746F726520B1
:103C900044656661756C7473005072656865617423
:103CA000202420436F6E66003C3C3C207365745FAB
:103CB000617869735F69735F61745F686F6D6528B0
:103CC000003E3E3E207365745F617869735F69737F
:103CD0005F61745F686F6D652800686F6D655F6414
:103CE000656C746100486F6D696E67204661696C30
:103CF0006564006F70656E005452494747455245F0
:103D000044007A5F6D6178007A5F6D696E00795F5B
:103D10006D617800785F6D6178005265706F7274C4
:103D2000696E6720656E6473746F7020737461745C
:103D300075730A00000000000000000000801844B5
:103D4000446F6E652E0A0050756C73696E67202093
:103D50002000556E746F756368656420005345528A
:103D6000564F206E6F74207365742075702E0A0094
:103D70005761746368696E672070696E730A0065C5
:103D80006E6473746F70206D6F6E69746F72200053
:103D9000204D39322058004452565F5354415455F7
:103DA00053090050574D5F5343414C45090050574C
:103DB0004D434F4E460900434F4F4C434F4E46092B
:103DC0000043484F50434F4E460900544849474826
:103DD00009090054434F4F4C544852530900545062
:103DE000574D544852530900545354455009090043
:103DF00054504F574552444F574E0900494F494E72
:103E0000090900475354415409090049484F4C449B
:103E10005F4952554E090047434F4E460909004439
:103E20007269766572207265676973746572733A38
:103E30000A00733276736209007332767361090087
:103E400031323043090031343343090031353043D6
:103E500009003135374309006F7409006F747077BA
:103E600009007332676109007332676209006F6C81
:103E70006109006F6C6209007374737409007367E1
:103E80005F726573756C74004452565354415455B7
:103E90005300755374657020636F756E74005374AE
:103EA000616C6C6775617264207468727300202D98
:103EB00073746172740900687973746572657369EB
:103EC000730A202D656E640900626C616E6B20744C
:103ED000696D65006F66662074696D650070776D49
:103EE0002067726164206175746F0070776D206F58
:103EF0006666736574206175746F0070776D2073EA
:103F000063616C65206175746F0070776D207363F9
:103F1000616C652073756D004F5420707265776118
:103F2000726E005B6D6D2F735D090050574D2074EC
:103F300068726573682E0074737465700900696E29
:103F40007465727009006D73746570730900737421
:103F500065616C746843686F70007673656E736535
:103F6000090050574D207363616C65004353206115
:103F7000637475616C00486F6C6420637572726560
:103F80006E740052756E2063757272656E74004DAA
:103F900041582063757272656E7400524D532063F0
:103FA000757272656E740053657420637572726504
:103FB0006E7400456E61626C6564090041646472F0
:103FC00065737309007370726561644379636C652E
:103FD0000020647269766572206D6F64653A09002D
:103FE000206472697665722063757272656E743AC8
:103FF000200020496E76616C696420657874727562
:10400000646572200020573A007C3C3E5E2B3D3FA9
:104010002F5B5D3B2C2A225C000009121B242D36ED
:104020003F48415A536C657E7719100B023D342F7F
:10403000265158434A757C676E323B2029161F046F
:104040000D7A7368615E574C452B2239300F061D7F
:1040500014636A7178474E555C646D767F404952AF
:104060005B2C253E3708011A137D746F6659504B3F
:1040700042353C272E1118030A565F444D727B606F
:10408000691E170C053A3328214F465D546B62793F
:1040900070070E151C232A31384148535A656C7736
:1040A0007E09001B122D243F3658514A437C756E01
:1040B000671019020B343D262F737A6168575E45ED
:1040C0004C3B3229201F160D046A6378714E475C01
:1040D00055222B3039060F141D252C373E010813AD
:1040E0001A6D647F7649405B523C352E2718110AC1
:1040F00003747D666F5059424B171E050C333A21ED
:10410000285F564D447B7269600E071C152A2338C0
:1041100031464F545D626B707945305F534552496B
:10412000414C5F52585F50494E0045305F534552F5
:1041300049414C5F54585F50494E005A5F534552B5
:1041400049414C5F52585F50494E005A5F534552A7
:1041500049414C5F54585F50494E00595F53455296
:1041600049414C5F52585F50494E00595F53455288
:1041700049414C5F54585F50494E00585F53455277
:1041800049414C5F52585F50494E00585F53455269
:1041900049414C5F54585F50494E005A5F53544F49
:1041A000505F50494E005A5F535445505F50494E3E
:1041B000005A5F4D494E5F50494E005A5F4D41587D
:1041C0005F50494E005A5F454E41424C455F504951
:1041D0004E005A5F4449525F50494E00595F535454
:1041E0004F505F50494E00595F535445505F5049FE
:1041F0004E00595F4D41585F50494E00595F454E42
:1042000041424C455F50494E00595F4449525F500E
:10421000494E00585F53544F505F50494E00585F0D
:10422000535445505F50494E00585F4D41585F50C0
:10423000494E00585F454E41424C455F50494E0043
:10424000585F4449525F50494E00534552564F33D0
:104250005F50494E00534552564F325F50494E0011
:10426000534552564F315F50494E00534552564FB9
:10427000305F50494E00534453530052414D505308
:104280005F44395F50494E0052414D50535F4438AE
:104290005F50494E0052414D50535F4431305F50A2
:1042A000494E0050535F4F4E5F50494E004D4F53A3
:1042B0004645545F445F50494E004D4158363637AD
:1042C000355F53535F50494E004C45445F50494E53
:1042D000004C43445F50494E535F5253004C43449B
:1042E0005F50494E535F454E41424C45004C43445C
:1042F0005F50494E535F4437004C43445F50494E32
:10430000535F4436004C43445F50494E535F44353D
:10431000004C43445F50494E535F4434004B494C7A
:104320004C5F50494E004845415445525F42454418
:104330005F50494E004845415445525F305F5049F7
:104340004E0046414E315F50494E0046414E5F504F
:10435000494E0045315F535445505F50494E00452A
:10436000315F454E41424C455F50494E0045315FFB
:104370004449525F50494E0045315F43535F5049B5
:104380004E0045305F535445505F50494E00453014
:104390005F454E41424C455F50494E0045305F44B9
:1043A00049525F50494E00455F4D5558325F504964
:1043B0004E00455F4D5558315F50494E00455F4DA9
:1043C0005558305F50494E0042544E5F454E4300B1
:1043D00042544E5F454E320042544E5F454E3100CE
:1043E0004245455045525F50494E004156525F5339
:1043F000535F50494E004156525F53434B5F504903
:104400004E004156525F4D4F53495F50494E004157
:1044100056525F4D49534F5F50494E0054454D50E1
:104420005F4245445F50494E0054454D505F315FF7
:1044300050494E0054454D505F305F50494E004644
:10444000494C57494454485F50494E0054584430F1
:104450000052584430005741524E494E4721204C9B
:104460006F77205A204A65726B206D6179206C65E8
:10447000616420746F20756E77616E74656420705E
:1044800061757365732E0A0050574D3A202025340C
:10449000640020202020434F4D002020206E6F6EAE
:1044A0002D7374616E646172642050574D206D6F7E
:1044B000646500202020636F6D7061726520696EF5
:1044C0007465727275707420656E61626C656400EB
:1044D0002020206F766572666C6F7720696E746538
:1044E000727275707420656E61626C656400202064
:1044F000202054494D534B00423A2000413A2000BD
:104500002020202054434352002020202043533AAF
:1045100020002020202057474D3A20002020202036
:1045200054494D45520020697320616C736F2074AB
:1045300069656420746F20746869732070696E0007
:1045400054494D45523143000A202E002020506F1F
:1045500072743A2000202020416E616C6F672069E0
:104560006E203D2025356C64003C756E7573656466
:104570002F756E6B6E6F776E3E004F75747075742D
:10458000203D2000496E70757420203D200070721F
:104590006F746563746564200020284125326429A6
:1045A000202000253364200050494E3A2000470067
:1045B0004800000088008A008C00B300B4000000AE
:1045C00098009A009C00A800AA00AC0028012A01CB
:1045D0002C01440045006E00800081006F00B00097
:1045E000B1007000900091007100A000A100720065
:1045F000200121017300514400014C4401013F445A
:104600003B0034444300294445001C4444000F440B
:10461000320102443301F6433401EB433501E043F8
:104620002501D8431F01D0432101C8432301BD43C5
:104630002801B2432A01A7432C019C431C018E434D
:10464000180182431A0178432C016D4322015F4314
:104650001E01534324014B430901424307013543E3
:104660000A01264308011D4329011143170105438F
:104670001901F9421B01ED421D01DD421101D14238
:104680001001C9420D01BA42420113443201AD4248
:10469000070106443301A3420C0195420A018842F6
:1046A00008017B420901FA433401764235016B422D
:1046B0000B0160420601554205014A420401C24213
:1046C00035014042370133422601294202011E4290
:1046D00036011342020109423D01FC413801F24119
:1046E0000F01E7413C01DC410F01D2413001C541DE
:1046F0003E01BB411301B1411201A6412E019B4174
:1047000013018B4128017B413F016B413B015B4120
:1047100040014B412A013B4141012A412C011941F1
:104720004201453100626564002C20737973746521
:104730006D2073746F7070656421204865617465C5
:10474000725F49443A200048656174696E6720468B
:1047500061696C65640048656174696E67206661B3
:10476000696C656400202D20496E76616C69642057
:104770006578747275646572206E756D62657220FD
:10478000210A00544845524D414C2052554E415744
:10479000415900546865726D616C2052756E617785
:1047A0006179004572723A204D415854454D500090
:1047B0004D415854454D5020747269676765726564
:1047C00064004572723A204D494E54454D50004D9B
:1047D000494E54454D50207472696767657265642F
:1047E0000020205A5F4D41583A0020205A5F4D4921
:1047F0004E3A002020595F4D41583A002020585F22
:104800004D41583A00202F002042403A0020403AC3
:1048100000456E636C6F73757265002568753A2587
:10482000303268750025303268753A253032687547
:104830000053440020202020202020005072696E68
:10484000742066726F6D204D6564696100205A3A6C
:10485000200020593A200042656420583A20002068
:104860003A200A00202063757272656E745F706F63
:10487000736974696F6E3D002C20002E2E2E280067
:10488000496E76616C6964206578747275646572CE
:104890000A002044697363726570616E63793A003F
:1048A000326E642050726F6265205A3A00534C4F4A
:1048B00057003173742050726F6265205A3A004677
:1048C0004153540050726F62653A3A72756E5F7A66
:1048D0005F70726F62650050726F62696E6720462A
:1048E00061696C65640A0050726F62696E67204688
:1048F00061696C656400506F736974696F6E204EF6
:104900006F7420526561636861626C650A005F7252
:10491000656C6174697665290A0050726F62653A48
:104920003A70726F62655F61745F706F696E740078
:1049300050726F62653A3A70726F62655F646F774A
:104940006E5F746F5F7A0020547269676765726585
:1049500064206561726C792E00204E6F207472693C
:10496000676765722E002050726F6265206661690C
:104970006C21202D003078003C3C3C00220A005580
:104980006E6B6E6F776E20636F6D6D616E643A2033
:104990002200426564204C6576656C696E67200074
:1049A0004661696C656420746F20656E61626C6538
:1049B00020426564204C6576656C696E670A004923
:1049C0006E76616C6964206D6573682E0A003E3EE8
:1049D0003E0020636F72726563746564205A3A000A
:1049E00047323920756E636F727265637465642037
:1049F0005A3A00203A203E2070726F62696E67203A
:104A0000636F6D706C6574650A0050726F62696ED9
:104A10006720506F696E740025532025692F256922
:104A20000050726F62696E67206D65736820706FE9
:104A3000696E742000202844525952554E2900476F
:104A40003239204175746F20426564204C6576656B
:104A50006C696E67003F20284C2C522C462C422952
:104A6000206F7574206F6620626F756E64732E0AF6
:104A700000473239204C003F2856296572626F7317
:104A800065206C6576656C20696D706C6175736905
:104A9000626C652028302D34292E0A004261642082
:104AA0005A2076616C75650A004E6F2062696C69E8
:104AB0006E65617220677269640A003E20417574F8
:104AC0006F2D6C6576656C206E6F74206E65656405
:104AD00065642C20736B69700A0043616E6E6F749D
:104AE000206F70656E207375626469722000534494
:104AF0002063617264206F6B0A006F70656E526F85
:104B00006F74206661696C65640A00766F6C756D00
:104B1000652E696E6974206661696C65640A004E71
:104B20006F20534420636172640A004D3234004D9B
:104B3000323320257300000021104220633084406E
:104B4000A550C660E770088129914AA16BB18CC15C
:104B5000ADD1CEE1EFF13112100273325222B552D3
:104B60009442F772D662399318837BB35AA3BDD3AC
:104B70009CC3FFF3DEE36224433420040114E664A3
:104B8000C774A44485546AA54BB528850995EEE5FC
:104B9000CFF5ACC58DD55336722611163006D776B3
:104BA000F6669556B4465BB77AA719973887DFF74C
:104BB000FEE79DD7BCC7C448E5588668A77840087B
:104BC000611802282338CCC9EDD98EE9AFF948899C
:104BD00069990AA92BB9F55AD44AB77A966A711A13
:104BE000500A333A122AFDDBDCCBBFFB9EEB799BEC
:104BF000588B3BBB1AABA66C877CE44CC55C222C63
:104C0000033C600C411CAEED8FFDECCDCDDD2AAD3B
:104C10000BBD688D499D977EB66ED55EF44E133EF2
:104C2000322E511E700E9FFFBEEFDDDFFCCF1BBF8B
:104C30003AAF599F788F8891A981CAB1EBA10CD165
:104C40002DC14EF16FE18010A100C230E32004506D
:104C5000254046706760B9839893FBA3DAB33DC3E0
:104C60001CD37FE35EF3B1029012F322D2323542BD
:104C7000145277625672EAB5CBA5A89589856EF570
:104C80004FE52CD50DC5E234C324A014810466740D
:104C9000476424540544DBA7FAB79987B8975FE7C0
:104CA0007EF71DC73CD7D326F2369106B01657665D
:104CB0007676154634564CD96DC90EF92FE9C89948
:104CC000E9898AB9ABA94458654806782768C018AD
:104CD000E1088238A3287DCB5CDB3FEB1EFBF98B20
:104CE000D89BBBAB9ABB754A545A376A167AF10AFD
:104CF000D01AB32A923A2EFD0FED6CDD4DCDAABD30
:104D00008BADE89DC98D267C076C645C454CA23C4C
:104D1000832CE01CC10C1FEF3EFF5DCF7CDF9BAFFF
:104D2000BABFD98FF89F176E367E554E745E932E9C
:104D3000B23ED10EF01E20433A0020423A002043FA
:104D40006F756E7420413A003F2061646472657330
:104D500073203A2000206279746573206F66206D9D
:104D6000656D6F727920696E697469616C697A65C5
:104D7000642E0A0A00556E61626C6520746F2069AA
:104D80006E697469616C697A652E0A0A00496E69F8
:104D90007469616C697A696E672066726565206DF9
:104DA000656D6F727920626C6F636B2E0A0A0A0060
:104DB000747275650A002072657475726E3D000A22
:104DC0004D656D6F727920436F7272757074696F83
:104DD0006E20646574656374656420696E20667214
:104DE0006565206D656D6F727920617265612E0A4F
:104DF000002020626C6F636B5F666F756E643D00B0
:104E00002020200A002920666F756E643D00202056
:104E1000204D656D6F727920636F72727570746961
:104E20006F6E206465746563746564207769746867
:104E300020656E645F667265655F6D656D6F727922
:104E40003C486561700A0020656E645F6672656546
:104E50005F6D656D6F7279203C2048656170200040
:104E60002020656E645F667265655F6D656D6F724B
:104E7000793D000A667265655F6D656D6F72795F79
:104E800073746172743D000A666D632829206E3D5B
:104E900000636865636B5F666F725F667265655F0E
:104EA0006D656D6F72795F636F7272757074696F23
:104EB0006E2829203D20004D313030204620002032
:104EC000627974657320617420000A4C61726765B1
:104ED0007374206672656520626C6F636B20697302
:104EE00020002062797465732066726565206174A4
:104EF0002000466F756E6420000A436F72727570F1
:104F000074696E6720616464726573733A2000434C
:104F10006F7272757074696E672066726565206D58
:104F2000656D6F727920626C6F636B2E0A0A000ADE
:104F3000537461636B20506F696E7465722020201A
:104F40002020202020203A20000A667265655F6DCF
:104F5000656D6F72795F656E6420202020202020AF
:104F60003A20000A667265655F6D656D6F72795FE4
:104F7000737461727420202020203A20000A62732A
:104F8000735F656E642020202020202020202020B8
:104F9000202020203A2000000502590411241FBEC1
:104FA000CFEFD1E2DEBFCDBF00E00CBF13E0A0E049
:104FB000B2E0E2ECFAE203E00BBF02C007900D9210
:104FC000AC39B107D9F728E1ACE9B3E001C01D92D3
:104FD000AB35B207E1F717E2CDECD7E200E006C04F
:104FE00021970109802FFE010F942791CC3CD10716
:104FF00080E00807A9F70F947B750D944F950C94EA
:1050000000002F923F924F925F926F927F928F9209
:105010009F92AF92BF92CF92DF92EF92FF920F9347
:105020001F93CF93DF93CDB7DEB7E3970FB6F89416
:10503000DEBF0FBECDBF382E2090A60381E0809347
:10504000A6038091D9048D3409F4F9C1843511F493
:105050000C94E137873411F00C941038E090D704A9
:10506000F090D8042CE1E216F10409F4BAC0ECF493
:1050700084E0E816F10444F492E0E916F1040CF03F
:1050800060C0F7FE3BC0D7C1A5E1EA16F10411F4F8
:105090000C941238BAE1EB16F10409F49EC0E4E076
:1050A000EE16F10409F0C7C15AC0FAE2EF16F10496
:1050B00009F4B3C184F43EE1E316F10409F4B5C088
:1050C0000CF4AFC091E2E916F10409F0B4C10E94FA
:1050D000FA7A0C941238ABE5EA16F10409F426C109
:1050E000BCE5EB16F10409F426C1EAE5EE16F1047D
:1050F00009F0A1C11092A5030C94123880914411BB
:10510000813011F00C94123888E50E94E658182F6F
:1051100089E50E94E658882311F082E001C080E012
:10512000182B8AE50E94E658882311F084E001C01C
:1051300080E0812B0E946C9681110C9412380C94A3
:10514000313880914411813011F00C94123887E08D
:105150000E946C9681110C9412380C94363880E5BC
:105160000E943459882329F00F9449416B017C0136
:1051700003C0C12CD12C760183E50E9434598823C9
:1051800061F00E94AF5820E030E04AE754E40F9409
:10519000928A0F94DA926B017C010F94BD0C80917E
:1051A000E507811105C060E088E69BE00E9404C429
:1051B0000F94E112C60ED71EE81EF91E0F94E112DD
:1051C000DC01CB018C199D09AE09BF09B7FD02C0F6
:1051D0000C9412380E947946F1CF0E9465590C94C4
:1051E000123840918A0E45FB442740F96BEE7FE26E
:1051F000CE0101960F94C25F80918A0E85FD0E94B8
:10520000994480918A058770873011F00C949C39FD
:1052100060E08FE40E94505981110C948F390C94F6
:105220009C390F9466600C9412382091F9123091D9
:10523000FA124091FB125091FC1260913A02709167
:105240003B0280913C0290913D020F946791AB012B
:10525000BC0188E50E94B26B69837A838B839C834F
:105260002091FD123091FE124091FF1250910013D7
:1052700060913E0270913F02809140029091410204
:105280000F946791AB01BC0189E50E94B26B6D83FD
:105290007E838F839887BE016B5F7F4FCE0101961F
:1052A0000F94D05F882311F40C94123880E00E9490
:1052B000F2450E94A29B84E690E09093790280934D
:1052C000780261E085E40E94505901E021E0482F16
:1052D000BE016B5F7F4FCE0101960F94985C6B010E
:1052E0007C019B01AC010F94AD94811119C04981DF
:1052F0005A816B817C8187E598E40E9488444D81C6
:105300005E816F81788582E598E40E948844B701C8
:10531000A6018DE498E40E9488448AE00E94EF3F51
:105320000E94899B0F942D1D0C9412388FE080935E
:10533000A5030C941238A7EAB2E0B9A7A8A740E8E1
:10534000E42E48E0F42E5AE3C52E52E0D52E00E0BC
:1053500010E0E8A5F9A58191F9A7E8A70E943459C2
:10536000882309F446C00E94AF582B013C0113303A
:1053700049F0D7012D913D914D915C910F9466912B
:105380002B013C01F6012081318142815381C3010F
:10539000B2010F9466914B015C012DEB37E346E8B7
:1053A00055EB0F941B9487FD0AC02DEB37E346E8BD
:1053B00055E3C501B4010F942C8A1816D4F41330A8
:1053C00051F4409246025092470260924802709215
:1053D000490201E00EC0A5019401D7016D917D91B4
:1053E0008D919C910F946791F70160837183828303
:1053F00093831F5FF4E0EF0EF11C24E0C20ED11C7A
:10540000143009F0A6CF002321F086E492E00F9437
:10541000CD0C0F942D1D0C941238809144118130C5
:1054200011F00C94123887E00E946C9681110C9454
:1054300012380C94D1390F9433550C941238809152
:10544000D7049091D8048537910509F4DCC70CF096
:10545000FBC08C34910509F45AC40CF064C0893146
:10546000910509F4F1C254F58231910509F4CDC6D4
:105470005CF48031910509F462C20CF075C20297A8
:1054800008F400C20C94DE378631910509F4B1C2EC
:1054900064F48431910509F47BC2459711F00C94B2
:1054A000DE370F9427680C9412388731910509F480
:1054B000AAC2489709F4BCC20C94DE378E3191051C
:1054C00009F444C3ACF48B31910509F4E4C20CF443
:1054D000D4C28C31910509F431C34D9711F00C946D
:1054E000DE37809131188E7F809331180C941238FA
:1054F0008A32910509F4EEC34CF48F31910509F419
:10550000C9C3809709F483C30C94DE378B329105AD
:1055100009F4F9C38B34910511F00C94DE370E9425
:105520009A3F0C9412388836910509F49BC40CF00C
:1055300049C08235910509F45AC644F58E34910567
:1055400009F4FEC30CF4F8C38035910509F428C6AC
:105550008135910511F00C94DE370F9488430F9438
:10556000250A0F94480E0E94AD3F68EE73E080E07C
:1055700090E00E94F13E269A2E9A10929F0F60E0D2
:1055800085E39DE00E9404C40C9412388535910592
:1055900009F471C654F48335910509F42FC6843596
:1055A000910509F432C60C94DE378C35910509F467
:1055B00085C68436910511F00C94DE370F94CA72BB
:1055C0000C9412388E36910509F403C5CCF48B3651
:1055D000910509F4EFC454F48936910509F493C494
:1055E0008A36910509F4A2C40C94DE378C369105F5
:1055F00009F447C58D36910509F45BC40C94DE3778
:105600008137910509F445C594F48F36910509F465
:10561000F3C48037910511F00C94DE3741E060E06F
:1056200070E086EF9CE00E943E400C941238823776
:10563000910509F4E1C68337910511F00C94DE372A
:105640000E9452740C9412388E3231E0930711F498
:105650000C9409360CF078C0893C910509F4E3C735
:10566000B4F58A37910511F40C94B037BCF4873740
:10567000910509F412C70CF4D6C68837910509F4D0
:105680000FC78937910511F00C94DE371092BC0FCB
:105690001092BB0F0F941F1E0C9412388B3991057A
:1056A00009F458C554F48C38910509F414C58139AE
:1056B000910509F4FDC60C94DE378E3B910509F483
:1056C00029C5883C910509F467C70C94DE378C3DE9
:1056D000910511F40C944C34BCF48C3C910509F404
:1056E000E7C734F48B3C910509F4C3C70C94DE374B
:1056F0008D3C910511F40C948C33833D910511F48C
:105700000C948F330C94DE378232B1E09B0711F496
:105710000C94133564F48D3D910511F40C9473349D
:10572000823E910511F40C94C8340C94DE378C320F
:10573000F1E09F0711F40C946A358D32914011F419
:105740000C9489350C94DE37863F31E0930711F4D1
:105750000C943C370CF04AC08A39B1E09B0709F43D
:1057600095C40CF58039F1E09F0711F40C944D3687
:105770004CF48F32914011F00C94DE370E94C96BCB
:105780000C9412388139A1E09A0711F40C94503628
:105790008239914011F00C94DE370F94CD5F0F9455
:1057A0002D1D0C941238863EE1E09E0711F40C94F6
:1057B000CD366CF4843A21E0920711F40C945636FD
:1057C000853A914011F40C9459360C94DE37843F9D
:1057D000A1E09A0711F40C943937853F914011F0FC
:1057E0000C94DE370E94E5B80C9412388A39E2E056
:1057F0009E0711F40C9466371CF58C3022E092075A
:1058000011F40C9459376CF4873FA1E09A0711F416
:105810000C943F37883F914011F40C9448370C9416
:10582000DE378933E2E09E0711F40C94B3378939EF
:10583000924011F00C94DE370F94DD410C94123835
:10584000803A23E0920709F417C27CF48335A3E081
:105850009A0711F40C94AD378A38934011F00C94E8
:10586000DE370F94062B0C941238873EE3E09E0738
:1058700011F40C94B637893E934011F40C94C4375C
:105880000C94DE3780E50E943459882329F00F9468
:1058900049416B017C0103C0C12CD12C760183E509
:1058A0000E943459882361F00E94AF5820E030E014
:1058B0004AE754E40F94928A0F94DA926B017C01C8
:1058C0000F94BD0C8091D5049091D604009721F0DF
:1058D00061E00E9479C405C060E085EA9BE00E9417
:1058E00004C41091A60383E08093A60381E0809313
:1058F0000F08C114D104E104F10431F00F94E11256
:10590000C60ED71EE81EF91E80910F08882311F4D9
:105910000C94AE3AC114D104E104F10411F40C94D6
:10592000AA3A0F94E112DC01CB018C199D09AE0952
:10593000BF09B7FF02C00C94AA3A0C94AE3A6AECC5
:105940007BE08091D5049091D6040F946A89892BCD
:1059500011F40C94123840E060E070E088EB9BE0BA
:105960000E943E400C9412388091DA0484FF02C0F9
:105970000C94B53A8091DC0487FF02C00C94B53AD0
:105980008091DD04837011F00C94B53A0C94D13AF7
:105990008091311883FF25C08CEE9BE00E9401406E
:1059A0008091311883FF17C08FE895E10F946E3214
:1059B0008BE1EFE8F5E1DE01119601900D928A95F9
:1059C000E1F760E070E0CE0101960F94C46CCE0167
:1059D00001960F9473328DED9BE00E9401400C9470
:1059E00012380E943A408DEF9BE00E9401400C94D7
:1059F00012380F946B6780913118877F8062809393
:105A000031180C941238E091D504F091D6048081BD
:105A1000882329F0803209F410823196F8CF60E0B3
:105A20008091D5049091D6040E9464F70C941238AA
:105A30000E947A3F882321F00F947A670E949A3F50
:105A40000E94B7EF0C9412388091311882FF03C086
:105A50008B7F8093311880917F08813089F782E0B5
:105A600080937F080F94E1126093DF117093E0112F
:105A70008093E1119093E211E3CF8091311883FD7F
:105A800002C00C94123883E50E94345981110C94A1
:105A9000DF3A0C94123883E40E94E658882319F107
:105AA00081E19CE00E94014080913915882391F0AA
:105AB000BE016F5F7F4F86E395E10F9435318E0114
:105AC0000F5F1F4FD8018D918D01882339F00E94FF
:105AD000EF3FF8CF87E09CE00E9401408AE00E94FF
