:100000000C94371F0C94681F0C94681F0C94681F85
:100010000C94681F0C94681F0C94681F0C94681F44
:100020000C94681F0C94681F0C94681F0C94681F34
:100030000C94681F0C94EAC20C94681F0C94681FFF
:100040000C94681F0D94AF2E0C94681F0C94681FBD
:100050000C94681F0C94681F0C9495840D9469503F
:100060000C94681F0C940E470C9404470C94681F62
:100070000C94681F0C94681F0C94681F0C94681FE4
:100080000C94681F0C94681F0C94681F0C94681FD4
:100090000C94681F0C94681F0C94681F0C94681FC4
:1000A0000C94681F0C94681F0C94681F0C94681FB4
:1000B0000C94681F0C94681F0C94681F0C94681FA4
:1000C0000C94681F0C94681F0C94681F0C94681F94
:1000D0000C94681F0C94681F0C94681F0C94681F84
:1000E0000C94681FAA01BE01CE003601F201DA01AC
:1000F000BE00BA01EC00B0013C01F2008A01FA0135
:10010000DA0196012E01FA006401C8012A01980162
:10011000E400F000E0000801C800AE011001260173
:100120006201A401F0008001FE011A01084AD73BD8
:100130003BCE016E84BCBFFDC12F3D6C74319ABDB6
:1001400056833DDA3D00C77F11BED9E4BB4C3E91DA
:100150006BAAAABE000000803F05A84CCDB2D44EC9
:10016000B93836A9020C50B9918688083CA6AAAACB
:100170002ABE000000803F000C9487490D94BB4EBE
:100180000C9482490C94C0750C9478AE0C94C3778F
:100190000D94BB4F0C9461C70C94C3490D94A64EAB
:1001A0000D9411220C945C5C0C942B640C94BFC3D2
:1001B0000C94A5490C94C0470C9424AB0D94CF0328
:1001C0000D94AB4F0C94BD770D94A14F0C9454C279
:1001D0000C94F9AD0C9491C30D94C54E0C94F65B40
:1001E0000D941A500D94D34E0D9432220C944BAFB3
:1001F0000C949F330D94E94E0C94E7C30C94F4AD2A
:100200000C94F4470C9418360C94D14F0C9490C76E
:100210000D94B34F0C94605C0D947A5A0D94231E88
:100220000D94CF4F0C946D390C9428760C941A4889
:100230000C944B5C0D9410500D945C5A0C94D5C9E1
:100240000C9467480D94D8030C949D330D94D94FAA
:100250000D94FC200D948D4F0C94E3750D94E54E98
:100260000C947EC20C94047A0C940C780D94AA4ED3
:100270000C9405AB0C94B6AE0D94CD4E0C9484C783
:100280000D94051E0C9495E40D940B1E0C94AE7BFE
:100290000C94475C0C94EE750C94F54B0C949FC237
:1002A0000C9413780C941DAE0C94F5E40D94382244
:1002B0000C9401760C94F4B00C9453AF0C94186425
:1002C0000C94BBC20D94E84F0D94834F0D941D1EEA
:1002D0000C944C480C941C760D9430220D94BB0762
:1002E0000C9471C70C94BDC30C94B4490C9463472F
:1002F0000C94DD490C9482480C94D1CB0C949B3324
:100300000D94FC4F0C94CCAB0D94171E0C946D48BF
:100310000C94DEAB0D94D74E0C94B9770C948AC72D
:100320000D94BF1F0C94FEAD0C9429AB0D94E14EBF
:100330000D94974F0C94F7AE0C945B480C94734853
:100340000C942EAB0C94A0C40D94F24F0D94291E66
:100350000C9433480D94B44E0C94BB770D94C54F58
:100360000D94C94E0D94351E0C9499330C94C63BD4
:100370000C94E04F0D94BF4E0D9436220D94B74E61
:100380000D94CC030C94DEC30C94EFC30C94A747DC
:100390000D94884F0D94023F0C941FAB0C946FAEDC
:1003A0000C94D2AB0C94D8AB0C9455470D943422DA
:1003B0000C94C14D0D94EE4E0C9475470C9496E43C
:1003C0000C9407480C94EFAD0C9449B20C948E47F2
:1003D0000C94763D0C94765C0D942F1E0D94111E9A
:1003E0000C94A4C30D94B04E0C9496490C94D94728
:1003F0000C9465C70D94DB4E0C94645C0D94065010
:100400000C9433AB0C948BC24E414E494E49545917
:10041000494E46CDCCCC3D0AD7233C17B7D13877CF
:10042000CC2B329595E6241FB14F0A0000204100E5
:1004300000C84200401C4620BCBE4CCA1B0E5AAE2F
:10044000C59D7400407A10F35A00A0724E1809003E
:1004500010A5D4E80000E87648170000E40B540229
:100460000000CA9A3B000000E1F505000080969864
:1004700000000040420F000000A0860100000010B4
:100480002700000000E803000000006400000000F6
:10049000000A00000000000100000000002C76D8D7
:1004A00088DC674F0823DFC1DFAE59E1B1B796E5BD
:1004B000E3E453C63AE651997696E8E6C28426EB21
:1004C000898C9B62ED407C6FFCEFBC9C9F40F2BA34
:1004D000A56FA5F490055A2AF75C936B6CF9676DCC
:1004E000C11BFCE0E40D47FEF520E6B500D0ED9021
:1004F0002E0300943577050080841E080000204EEE
:100500000A000000C80C333333330F986E12831186
:1005100041EF8D2114893BE65516CFFEE6DB18D15D
:10052000844B381BF77C1D901DA4BBE4242032842F
:10053000725E228100C9F124ECA1E53D274C4556AD
:10054000454C494E4700434F4D4D554E494341544C
:10055000494F4E0044525952554E004552524F5247
:100560005300494E464F004543484F0047322F47FE
:10057000332062616420706172616D6574657273AD
:100580000A00536C6565702E2E2E003E20686F6D3C
:10059000696E67206E6F74206E65656465642C20DB
:1005A000736B69700A004D65736820706F696E74B3
:1005B000206F7574206F662072616E67650A004354
:1005C0006C69636B20746F20526573756D652E2E98
:1005D0002E004E6F204D6F76652E00456E642066AE
:1005E000696C65206C6973740A00426567696E20E6
:1005F00066696C65206C6973740A00286E6F2066EA
:10060000696C65290043757272656E742066696C49
:10061000653A20005344207072696E74696E6720D9
:100620006279746520004E6F7420534420707269A3
:100630006E74696E670A005072696E742074696D19
:10064000653A2000496E76616C69642050696E20BD
:100650004D6F64650A000A53746174733A204669E9
:100660006C616D656E7420757365643A20002C2092
:100670004C6F6E67657374206A6F623A2000546F26
:1006800074616C2074696D653A20002C20466169A4
:100690006C65643A20002C2046696E697368656455
:1006A0003A20005072696E74733A2000537461747A
:1006B000733A200045202553006F6666004445428A
:1006C00055473A004D3131322053687574646F7765
:1006D0006E004D31313320530042656420436F6F0B
:1006E0006C696E672E2E2E00426564204865617429
:1006F000696E672E2E2E0048453344204B32383029
:10070000204F46462E004348414D4245525F5445D6
:100710004D5045524154555245004241425953545F
:10072000455050494E470041524353004D4F5449A4
:100730004F4E5F4D4F44455300544845524D414C38
:100740005F50524F54454354494F4E004C4F4E4713
:100750005F46494C454E414D45004155544F524529
:10076000504F52545F53445F5354415455530053B8
:1007700044434152440050524F4D50545F535550E2
:10078000504F525400454D455247454E43595F50D6
:10079000415253455200434153455F4C49474854E9
:1007A0005F4252494748544E45535300544F4747C0
:1007B0004C455F4C494748545300534F46545741AA
:1007C00052455F504F574552004255494C445F5087
:1007D000455243454E54004C4556454C494E475FA3
:1007E00044415441005A5F50524F42450052554EC9
:1007F0004F5554004155544F4C4556454C005052AE
:10080000494E545F4A4F420050524F47524553534E
:10081000004155544F5245504F52545F54454D502E
:1008200000564F4C554D45545249430042494E41A4
:1008300052595F46494C455F5452414E53464552CA
:100840000053455249414C5F584F4E5F584F464602
:10085000004649524D574152455F4E414D453A4D34
:1008600061726C696E206275676669782D322E3010
:100870002E782028536570202032203230323020EC
:1008800030363A35363A33352920534F55524345A1
:100890005F434F44455F55524C3A68747470733AE5
:1008A0002F2F6769746875622E636F6D2F4D6172AB
:1008B0006C696E4669726D776172652F4D61726CFD
:1008C000696E2050524F544F434F4C5F5645525320
:1008D000494F4E3A312E30204D414348494E455FF5
:1008E000545950453A48453344204B32383020451E
:1008F000585452554445525F434F554E543A312057
:10090000555549443A63656465326132662D343128
:1009100061322D343734382D396231322D6335351B
:100920006336326633363766660A002F2F20004D55
:1009300031343520533C696E6465783E206F7574A0
:10094000206F662072616E67652028302D31290A7C
:1009500000416363656C65726174696F6E3A205023
:100960000020204D61783A200020204D696E3A2009
:1009700000536F667420656E6473746F70733A20F1
:100980000046523A0020466C6F773A200050726F52
:100990007465637465642050696E0A0020643A00CF
:1009A00020693A0020703A006469730043290A0004
:1009B00061626C656420286D696E2074656D7020BD
:1009C00000436F6C64206578747275646573206190
:1009D000726520004D34323120696E636F7272652A
:1009E000637420706172616D6574657220757361E6
:1009F00067650A00454550524F4D204F4B0A005D38
:100A0000203D200064656C74615F656E6473746F73
:100A1000705F61646A5B004D36363600506F7765F3
:100A2000722D6C6F7373207265636F7665727920B7
:100A300000446F6E65207072696E74696E6720661F
:100A4000696C650A004D3737004D33310067056228
:100A5000055B05540546053D0546696C2E20446935
:100A6000612E004520696E206D6DC2B3002002200A
:100A700046616374002002204D6178002002204D01
:100A8000696E004175746F74656D700056547261C3
:100A900076204D696E00566D696E00566D61782046
:100AA0004500566D6178204300566D617820420004
:100AB000566D6178204100416D6178204500416D9F
:100AC0006178204300416D6178204200416D61787A
:100AD000204100412D54726176656C00412D5265B4
:100AE000747261637400416363656C004572726F78
:100AF000722077726974696E6720746F2045455063
:100B0000524F4D210A004D343130004D3131320009
:100B10004D3130380053544F505045442E20005032
:100B200072696E7465722073746F7070656420648E
:100B3000756520746F206572726F72732E2046691E
:100B40007820746865206572726F7220616E64200F
:100B5000757365204D39393920746F20726573744F
:100B60006172742E202854656D706572617475729F
:100B7000652069732072657365742E205365742037
:100B80006974206166746572207265737461727431
:100B9000696E67290A004E6F20436865636B737541
:100BA0006D2077697468206C696E65206E756D6262
:100BB00065722C204C617374204C696E653A20007C
:100BC000636865636B73756D206D69736D617463C4
:100BD000682C204C617374204C696E653A20004C7F
:100BE000696E65204E756D626572206973206E6F47
:100BF00074204C617374204C696E65204E756D6273
:100C000065722B312C204C617374204C696E653AEF
:100C100020004D31313000534420726561642065FD
:100C200072726F720A002121204B494C4C20636183
:100C300075736564206279204B494C4C2062757451
:100C4000746F6E2F70696E0A002121204B494C4C45
:100C50002063617573656420627920746F6F206D05
:100C600075636820696E6163746976652074696D67
:100C700065202D2063757272656E7420636F6D6DD3
:100C8000616E643A2000627573793A207061757301
:100C9000656420666F7220696E7075740A006275F3
:100CA00073793A2070617573656420666F72207580
:100CB0007365720A00627573793A2070726F6365AA
:100CC0007373696E670A004D656469612052656DD2
:100CD0006F766564004D6564696120496E73657265
:100CE000746564004D31303030205300506C6561C4
:100CF0007365205265736574005052494E544552D5
:100D00002048414C5445440025533A202553004B7C
:100D1000494C4C45442E20005072696E7465722017
:100D200068616C7465642E206B696C6C2829206383
:100D3000616C6C6564210A00363726023C3D380F31
:100D40002E303E12131A1C1824221E0AFF430809D3
:100D5000070844000150726F6265205A204F666692
:100D600073657400416476616E63656420536574D5
:100D700074696E6773005A2056616C756500496E20
:100D8000646578205900496E646578205800456490
:100D90006974204D657368004C6576656C2042650A
:100DA00064004732380A4732390046616E2053707A
:100DB00065656400526573746F7265204465666191
:100DC000756C7473005072656865617420242043EB
:100DD0006F6E660050726F62653A3A646F5F7A5F59
:100DE000726169736528006465706C6F793A2000E0
:100DF000203A2050726F62653A3A7365745F646599
:100E0000706C6F7965640A0053657474696E6773FA
:100E10002053746F726564002062797465733B209F
:100E2000637263200053657474696E677320537432
:100E30006F726564202800454550524F4D20646113
:100E4000746173697A65206572726F722E0A002070
:100E500073746F7265642073657474696E67732050
:100E60007265747269657665642028002028636164
:100E70006C63756C6174656429210A0020213D2032
:100E800000454550524F4D20435243206D69736DCC
:100E900061746368202D202873746F726564292043
:100EA00000496E6465783A2000204D61726C696E6D
:100EB0003D563831290A00454550524F4D20766540
:100EC0007273696F6E206D69736D61746368202839
:100ED000454550524F4D3D003F00496E6974696170
:100EE0006C697A6520454550524F4D002568753A2A
:100EF00025303268750025303268753A2530326801
:100F0000750053440020202020202020002573203D
:100F100025643B2564252520005072696E742041AC
:100F2000626F72746564004D32350050617573698B
:100F30006E672E2E2E00454550524F4D205665723D
:100F400073696F6E204572726F7200454550524F43
:100F50004D20496E646578204572726F7200454578
:100F600050524F4D20435243204572726F720049D8
:100F7000676E6F726500486F6D696E6720466169C4
:100F80006C6564006F70656E005452494747455266
:100F90004544007A5F6D6178007A5F6D696E007913
:100FA0005F6D617800785F6D6178005265706F7277
:100FB00074696E6720656E6473746F7020737461FA
:100FC0007475730A00203A2073796E635F706C61E8
:100FD0006E5F706F736974696F6E0A00203A2070DB
:100FE0007265706172655F666173745F6D6F76655F
:100FF0005F746F5F64657374696E6174696F6E0AA4
:1010000000202064657374696E6174696F6E3D00C1
:10101000203A207A206C6F776572206D6F76650AB2
:1010200000203A207879206D6F76650A00203A20FA
:101030007A207261697365206D6F76650A00203AC7
:10104000207A6F6E6520626F72646572206D6F76B4
:10105000650A00203A2064616E676572207A6F6EBF
:1010600065206D6F76650A00203A206465737469A7
:101070006E6174696F6E203D2063757272656E7467
:101080005F706F736974696F6E0A003E2000646F51
:101090005F626C6F636B696E675F6D6F76655F74BF
:1010A0006F00206D61783A00206D696E3A004178DA
:1010B000697320005761726E696E673A20486F6DE0
:1010C000696E672042756D702044697669736F722E
:1010D000203C20310A005D00646F5F686F6D696EAF
:1010E000675F6D6F76650000000C4300000C4300E5
:1010F00080184400000CC300000CC3000000000A6C
:101100000A0A5555854255558542555585424D38F3
:1011100034004175746F20486F6D650054656D70C3
:10112000657261747572650041425300504C410014
:101130004D61696E0044697361626C65205374652A
:101140007070657273005072656865617420242048
:10115000456E6400507265686561742024204265A4
:101160006400436F6F6C646F776E005072656865E2
:10117000617420240046616E205370656564207E92
:1011800000466C6F77002C1128114572723A204D81
:10119000415854454D50004D415854454D502074D0
:1011A0007269676765726564004572723A204D49DD
:1011B0004E54454D50004D494E54454D502074728B
:1011C0006967676572656400202F002042403A001D
:1011D00020403A007C3C3E5E2B3D3F2F5B5D3B2C2C
:1011E0002A225C000009121B242D363F48415A5325
:1011F0006C657E7719100B023D342F265158434AF7
:10120000757C676E323B2029161F040D7A73686166
:101210005E574C452B2239300F061D14636A7178D6
:10122000474E555C646D767F4049525B2C253E37B6
:1012300008011A137D746F6659504B42353C272EB6
:101240001118030A565F444D727B60691E170C0526
:101250003A3328214F465D546B627970070E151C96
:10126000232A31384148535A656C777E09001B1296
:101270002D243F3658514A437C756E671019020B76
:10128000343D262F737A6168575E454C3B322920E6
:101290001F160D046A6378714E475C55222B303956
:1012A000060F141D252C373E0108131A6D647F7636
:1012B00049405B523C352E2718110A03747D666F36
:1012C0005059424B171E050C333A21285F564D44A6
:1012D0007B7269600E071C152A233831464F545D16
:1012E000626B707950726F6265204F6666736574C9
:1012F0002058004361703A003F5A206F7574206F88
:10130000662072616E67652028003F59206F7574F2
:10131000206F662072616E676520282D0020746F33
:1013200020003F58206F7574206F662072616E67D1
:101330006520282D00656E7175657565696E67207D
:1013400022006F6B00526573656E643A2000256958
:101350007920256964202569682025696D20256923
:10136000730023646566696E652044454641554CAB
:10137000545F004B6420004B6920004B70200050EC
:101380004944204175746F74756E652066696E6995
:1013900073686564212050757420746865206C61E1
:1013A0007374204B702C204B6920616E64204B6459
:1013B00020636F6E7374616E74732066726F6D203C
:1013C00062656C6F7720696E746F20436F6E66691B
:1013D0006775726174696F6E2E680A005049442007
:1013E0004175746F74756E65206661696C65642102
:1013F0002074696D656F75740A000A20436C61730F
:1014000073696320504944200A00204B643A20004D
:10141000204B693A2000204B703A20002054753A46
:101420002000204B753A2000206D61783A20002082
:101430006D696E3A200020643A2000206269617371
:101440003A2000504944204175746F74756E6520D0
:1014500073746172740A00504944204175746F744A
:10146000756E65206661696C6564212054656D70D8
:101470006572617475726520746F6F206869676842
:101480000A00504944204175746F74756E650050B0
:101490004944204175746F74756E65206661696C8E
:1014A0006564212042616420657874727564657298
:1014B000206E756D6265720A0024F4D43050C38EBC
:1014C00020C2A24017828B7011127A910D816CD9C3
:1014D0000AA861E108C7586607615143061E4B5DC3
:1014E00005C145A7041A411104093D98037139311A
:1014F000034036DB0265339102D4305402802E1D46
:1015000002632CEE01752AC501B028A001102781C5
:10151000018F2564012B244B01E0223401AC211FF3
:10152000018D200D01801FFC00841EED00971DDF42
:1015300000B81CD200E61BC600201BBC00641AB217
:1015400000B219A8000A19A0006A189900D11791D1
:101550000040178B00B516840031167E00B3157954
:10156000003A157300C7146F0058146A00EE136632
:10157000008813630025135E00C7125B006C1257CE
:101580000015125400C111510070114F0021114B70
:1015900000D61049008D104700461044000210424A
:1015A00000C00F4000800F3E00420F3C00060F3B82
:1015B00000CB0E3800930E37005C0E3500270E343A
:1015C00000F30D3200C10D3100900D3000600D2E82
:1015D00000320D2D00050D2C00D90C2B00AE0C296E
:1015E00000850C29005C0C2700350C27000E0C260A
:1015F00000E80B2400C40B2400A00B23007D0B2368
:10160000005A0B2100390B2100180B2000F80A1F8B
:1016100000D90A1E00BB0A1E009D0A1D00800A1D7B
:1016200000630A1C00470A1B002C0A1B00110A1A3F
:1016300000F7091A00DD091900C4091900AB0919DE
:1016400000920917007B091800630917004C09165E
:101650000036091600200916000A091500F50815BC
:1016600000E0081400CC081400B8081400A4081402
:1016700000900813007D0812006B08130058081230
:101680000046081200340811002308110012081146
:101690000001081100F0071000E0071000D007104B
:1016A00000C0071000B0070F00A107100091070E3F
:1016B0000083070F0074070F0065070E0057070E21
:1016C0000049070E003B070D002E070E0020070DF6
:1016D0000013070D0006070D00F9060C00ED060DBE
:1016E00000E0060C00D4060C00C8060C00BC060C7A
:1016F00000B0060C00A4060B0099060C008D060B2A
:101700000082060B0077060B006C060B0061060AD0
:101710000057060B004C060A0042060A0038060A6B
:10172000002E060A0024060A001A060A00100609FE
:101730000007060A00FD050900F4050900EB05098C
:1017400000E2050900D9050900D0050900C705090F
:1017500000BE050900B5050800AD050800A505098E
:10176000009C050800940508008C05080084050805
:10177000007C050800740508006C05070065050875
:10178000005D050700560508004E050700470507E0
:10179000004005080038050700310507002A050745
:1017A00000230507001C050600160507000F0507A6
:1017B000000805060002050700FB040600F5040703
:1017C00000EE040600E8040600E2040700DB04065D
:1017D00000D5040600CF040600C9040600C30406B1
:1017E00000BD040600B7040600B1040500AC040601
:1017F00000A6040600A00405009B0406009504054D
:1018000000900406008A0405008504050080040693
:10181000007A04050075040500700405006B0405DA
:101820000066040500610405005C0405005704051A
:1018300000520405004D040500480405004304055A
:10184000003E0404003A0405003504050030040499
:10185000002C04050027040400230405001E0404D2
:10186000001A04040016040500110404000D040409
:1018700000090405000404040000040400FC03043F
:1018800000F8030400F4030400F0030400EC030474
:1018900000E8030400E4030400E0030400DC0304A4
:1018A00000D8030400D4030400D0030400CC0304D4
:1018B00000C8030300C503030024F404D9201BC49B
:1018C0000C5C0E9804C4095F0265077101F405F908
:1018D00000FB04B30048048700C1036900580355A6
:1018E0000003034500BE023A008402310053022A7D
:1018F000002902250004022000E4011C00C801198F
:1019000000AF011700980114008401130071011049
:10191000006101100051010E0043010D0036010B62
:10192000002B010B0020010B00150109000C01091F
:101930000003010800FB000800F3000800EB0007AB
:1019400000E4000600DE000600D8000600D2000613
:1019500000CC000500C7000500C2000500BD000462
:1019600000B9000400B5000400B1000400AD00049B
:1019700000A9000400A5000300A20003009F0004CA
:10198000009B0003009800030095000200930003F1
:1019900000900003008D0002008B0003008800020D
:1019A000008600020084000300810002007F000224
:1019B000007D0002007B0002007900020077000138
:1019C0000076000200740002007200010071000243
:1019D000006F0002006D0001006C0002006A00014F
:1019E0000069000200670001006600010065000157
:1019F000006400020062000100610001006000015B
:101A0000005F0002005D0001005C0001005B00015E
:101A1000005A000100590001005800010057000160
:101A20000056000100550001005400010053000061
:101A3000005300010052000100510001005000015C
:101A4000004F0001004E0000004E0001004D00015B
:101A5000004C0001004B0000004B0001004A000157
:101A60000049000100480000004800010047000153
:101A7000004600000046000100450000004500014E
:101A80000044000100430000004300010042000048
:101A9000004200010041000000410001004000013F
:101AA000003F0000003F0001003E0000003E00013A
:101AB000003D0000003D0001003C0000003C000033
:101AC000003C0001003B0000003B0001003A000028
:101AD000003A000100390000003900010038000020
:101AE0000038000000380001003700000037000116
:101AF000003600000036000000360001003500000E
:101B00000035000000350001003400000034000002
:101B100000340001003300000033000000330001F6
:101B200000320000003200000032000100310000ED
:101B300000310000003100010030000000300000E2
:101B400000300001002F0000002F0000002F0000D7
:101B5000002F0001002E0000002E0000002E0001CA
:101B6000002D0000002D0000002D0000002D0001C0
:101B7000002C0000002C0000002C0000002C0001B4
:101B8000002B0000002B0000002B0000002B0001A8
:101B9000002A0000002A0000002A0000002A00019C
:101BA0000029000000290000002900000029000091
:101BB0000029000100280000002800000028000083
:101BC0000028000000280001002700000027000076
:101BD0000027000000270000002700010026000069
:101BE000002600000026000000260000002600015C
:101BF0000025000000250000002500000025000051
:101C00000025000000250001002400000024000041
:101C10000024000000240000002400010023000034
:101C20000023000000230000002300000023000028
:101C30000023000000230001002200000022000019
:101C4000002200000022000000220000002200010B
:101C50000021000000210000002100000021000000
:101C600000210000002100000021000100200000F0
:101C700000200000002000000020000000200000E4
:101C8000002000000020000000200001001F0000D4
:101C9000001F0000001F0000001F0000001F0000C8
:101CA000001F0000001F0001001E0000001E0000B9
:101CB000001E0000001E000000752A0000C21E0069
:101CC00000D4130000970B000054060000520300DC
:101CD00000B3010000DC000000426564204C657622
:101CE000656C696E6720004661696C656420746F7D
:101CF00020656E61626C6520426564204C65766586
:101D00006C696E670A00496E76616C6964206D6566
:101D100073682E0A003E3E3E0020636F7272656358
:101D2000746564205A3A0047323920756E636F72C9
:101D3000726563746564205A3A00203A203E207030
:101D4000726F62696E6720636F6D706C6574650A8F
:101D50000050726F62696E6720506F696E74002563
:101D6000532025692F25690050726F62696E6720C4
:101D70006D65736820706F696E742000202844526E
:101D80005952554E2900473239204175746F20420F
:101D90006564204C6576656C696E67003F20284C51
:101DA0002C522C462C4229206F7574206F662062BD
:101DB0006F756E64732E0A003F2856296572626F34
:101DC0007365206C6576656C20696D706C617573E8
:101DD00069626C652028302D34292E0A0042616426
:101DE000205A2076616C75650A004E6F2062696C1E
:101DF000696E65617220677269640A003E204175F0
:101E0000746F2D6C6576656C206E6F74206E6565E1
:101E10006465642C20736B69700A00202052616431
:101E20006975733A002E4865696768743A004361C2
:101E30006E63656C004F6666004F6E004D6F74698F
:101E40006F6E005374617274205072696E74004337
:101E5000616E6E6F7420656E746572207375626456
:101E600069723A2000052E2E002533642525202591
:101E70003364252500562D746F6F6C73205765727F
:101E80006520526573657400526573657420562D24
:101E9000746F6F6C7300546F67676C65204D697861
:101EA000002533643B25336425250041637469763E
:101EB0006520562D746F6F6C004672656520585909
:101EC00000536F667420456E6473746F70730047BF
:101ED00032362048656174696E67204E6F7A7A6C7D
:101EE00065004732362048656174696E6720426537
:101EF000640057616974696E6720666F7220686557
:101F0000617475702E0A004669786564204C656EB0
:101F1000677468205072696D6500446F6E6520506B
:101F200072696D696E67004D616E75616C207072CB
:101F3000696D696E672E2E2E004732362043616E22
:101F400063656C6564004C656176696E6720473235
:101F500036003F53706563696669656420582C5983
:101F600020636F6F7264696E617465206F75742091
:101F70006F6620626F756E64732E0A003F285229C7
:101F800065706561742076616C7565206E6F742074
:101F9000706C61757369626C653B206D757374203C
:101FA0006265206174206C6561737420312E0A00B3
:101FB0003F537065636966696564206E6F7A7A6CF9
:101FC000652074656D7065726174757265206E6FE1
:101FD0007420706C61757369626C652E0A003F53E2
:101FE00070656369666965642066696C616D656EBC
:101FF000742073697A65206E6F7420706C617573DC
:1020000069626C652E0A003F537065636966696595
:1020100064207072696D65206C656E677468206EEF
:102020006F7420706C61757369626C652E0A003F75
:10203000537065636966696564206E6F7A7A6C6552
:102040002073697A65206E6F7420706C6175736996
:10205000626C652E0A003F52657472616374696F29
:102060006E204D756C7469706C696572206D757346
:1020700074206265207370656369666965642E0A01
:10208000003F5370656369666965642052657472C8
:10209000616374696F6E204D756C7469706C6965ED
:1020A00072206E6F7420706C61757369626C652E3E
:1020B0000A003F537065636966696564206C6179E5
:1020C000657220686569676874206E6F7420706C33
:1020D00061757369626C652E0A0043292E0A003F00
:1020E0005370656369666965642062656420746520
:1020F0006D7065726174757265206E6F7420706C9E
:1021000061757369626C65202834302D0047323662
:10211000207374617274696E672E2E2E0A00026835
:10212000747470733A2F2F6D61726C696E66772EBE
:102130006F726700206275676669782D322E302EC7
:1021400078002020506C616E6E657242756666651F
:102150007242797465733A20002046726565204D9D
:10216000656D6F72793A2000436F6D70696C6564BC
:102170003A2053657020203220323032300A00205D
:102180004C61737420557064617465643A20323018
:1021900032302D30382D3235207C20417574686FF7
:1021A000723A20284D6172746F6E2042616B7361C8
:1021B000202D2030382E32382E32303230290A008D
:1021C0006275676669782D322E302E780A004D616F
:1021D000726C696E0020536F66747761726520526D
:1021E000657365740A00205761746368646F6720C3
:1021F00052657365740A002042726F776E206F75A6
:10220000742052657365740A002045787465726E97
:10221000616C2052657365740A00506F7765725562
:10222000700A006175746F25632E670047323800AD
:102230004D31303031006572726F7220777269747F
:10224000696E6720746F2066696C650A00446F6E62
:102250006520736176696E672066696C652E0A0079
:102260004D32390025532025632025632025632026
:1022700025630020583A00656E6473746F70732094
:102280006869743A200070012C0190012701B001A7
:102290002201C0011D01F0011801100213013002DA
:1022A0000E016002090190020401C002FF00000358
:1022B000FA004003F5008003F000D003EB00200497
:1022C000E6007004E100E004DC004005D700C00532
:1022D000D2004006CD00D006C8008007C3003008F9
:1022E000BE00F008B900C009B400B00AAF00B00BDE
:1022F000AA00D00CA500000EA000500F9B00C0103B
:1023000096005012910000148C00C0158700B01781
:102310008200B0197D00D01B7800001E73004020A1
:102320006E0090226900F024640040275F0090292D
:102330005A00E02B5500102E500020304B00103278
:102340004600E033410090353C00103737007038CC
:102350003200A0392D00B03A2800A03B2300603C99
:102360001E00103D1900903D1400103E0F00703EFD
:102370000A00C03E0500003F0000403FFBFF803FD9
:10238000F6FFC03FF1FF547A0054790054780045BD
:102390007A0045790045780044656C74612043619A
:1023A0006C6962726174696F6E004C6F6164205376
:1023B000657474696E67730053746F72652053653A
:1023C0007474696E677300506F776572204F75740F
:1023D00061676500436F6E66696775726174696FE6
:1023E0006E004469616720526F64005261646975D0
:1023F00073004865696768740044656C74612053B4
:10240000657474696E6773004175746F2043616C05
:102410006962726174696F6E00473333004D313009
:1024200030300053746F70205072696E74005265C2
:1024300073756D65205072696E740053746F70000F
:102440004368616E6765204D65646961004D323196
:10245000004D69786572004E6F204D6564696100BA
:1024600054756E65005061757365205072696E74A5
:1024700000496E666F2053637265656E003C3C3C9C
:1024800020686F6D6561786973280061646A4469CA
:102490007374616E63653A00486F6D652032205336
:1024A0006C6F773A0A004D6F766520417761793A13
:1024B0000A00486F6D65203120466173743A0A0046
:1024C0003E3E3E20686F6D656178697328000000AC
:1024D000A0400000A0400000A04000008C4300008D
:1024E0008C4300801844010101000000010000003D
:1024F0000100008000555555000000400033333383
:1025000000AAAA2A004992240000002000C7711CDA
:102510000099991900D1451700555515003BB11385
:10252000002449120011111100000010000F0F0FBC
:1025300000E3380E0043790D00CCCC0C00C3300C06
:1025400000E8A20B0064210B00AAAA0A00703D0A51
:10255000009DD80900427B090092240900DCD308C1
:1025600000888808001042080000000800F0C10739
:10257000008787070075500700711C07003EEB06B7
:1025800000A1BC06006990060066660600703E0663
:10259000006118060017F4050074D105005BB00552
:1025A00000B29005006272050055550500783905A6
:1025B00000B81E0500050505004EEC040087D40494
:1025C00000A1BD040090A7040049920400C17D044D
:1025D00000EE690400C7560400444404005C320461
:1025E000000821040041100400000004003FF00333
:1025F00000F8E0030026D20300C3C30300CCB503F8
:10260000003AA803000A9B0300388E0300C0810330
:10261000009F750300D0690300505E03001D530343
:102620000034480300913D030033330300162903AF
:1026300000381F030097150300300C030003030349
:10264000000BFA020049F10200BAE802005CE00265
:10265000002DD802002DD0020059C80200B0C002DF
:102660000031B90200DAB10200AAAA0200A0A30256
:1026700000BC9C0200FA9502005C8F0200DF880219
:102680000082820200457C02002776020027700249
:1026900000436A02007C640200D05E02003F5902DF
:1026A00000C8530200FFFDFCFAF8F6F4F2F0EEEC7D
:1026B000EAE9E7E5E3E1E0DEDCDAD9D7D5D4D2D048
:1026C000CFCDCBCAC8C7C5C3C2C0BFBDBCBAB9B7DE
:1026D000B6B4B3B2B0AFADACAAA9A8A6A5A4A2A146
:1026E000A09E9D9C9A99989795949392908F8E8D89
:1026F0008B8A8988878684838281807F7E7D7B7AAE
:10270000797877767574737271706F6E6D6C6B6AB1
:10271000696867666564636261605F5E5D5C5B5AA1
:102720005958585756555453525150504F4E4D4C7E
:102730004B4A4A4948474646454443424241403F46
:102740003E3E3D3C3B3B3A393838373635353433FD
:1027500032323130302F2E2E2D2C2B2B2A292928A6
:10276000272726252524232322212120201F1E1E42
:102770001D1C1C1B1B1A19191818171616151514D1
:10278000131312121111100F0F0E0E0D0D0C0C0B56
:102790000A0A0909080807070606050504040303D1
:1027A000020201000020746F6F206C6F6E6720655D
:1027B0007874727573696F6E2070726576656E7469
:1027C00065640A0020636F6C6420657874727573A9
:1027D000696F6E2070726576656E7465640A00209C
:1027E000453A0020593A002053697A653A2000435F
:1027F000616E6E6F74206F70656E207375626469B0
:10280000722000534420496E6974204661696C004F
:1028100053442063617264206F6B0A006F70656EB1
:10282000526F6F74206661696C65640A00766F6C24
:10283000756D652E696E6974206661696C65640AE0
:10284000004E6F20534420636172640A004D32349D
:10285000004D32332025730046696C652073656C2A
:1028600065637465640A0046696C65206F70656E07
:1028700065643A2000454E4420535542524F55540A
:10288000494E450A002220706F7300222070617249
:10289000656E743A2200535542524F5554494E4585
:1028A0002043414C4C207461726765743A22005396
:1028B000756263616C6C204F766572666C6F770031
:1028C0004578636565646564206D61782053554281
:1028D000524F5554494E452064657074683A310A28
:1028E0000044656C6574696F6E206661696C65642F
:1028F0002C2046696C653A200046696C6520646549
:102900006C657465643A0057726974696E67207407
:102910006F2066696C653A200066726573680064B2
:102920006F696E67004E6F7720007879007A7800C3
:10293000797A00207A002079002078002E2020204B
:102940002000456E64204452592D52554E004E6F62
:1029500020636F6E76657267656E636500497465A6
:10296000726174696F6E203A2025303269005361BC
:1029700076652077697468204D35303020616E644B
:102980002F6F7220636F707920746F20436F6E66B3
:10299000696775726174696F6E2E680A002530333D
:1029A000692E7800302E253033690043616C6962EE
:1029B000726174696F6E2073643A0073746420648A
:1029C00065763A00726F6C6C696E67206261636B4A
:1029D0002E0043616C6962726174696F6E204F4BA7
:1029E00000436F72726563742064656C7461207358
:1029F000657474696E67732077697468204D363624
:102A00003520616E64204D3636360A002028445247
:102A1000592D52554E2900436865636B696E672EC8
:102A20002E2E204143003F4265642063616C696241
:102A3000726174696F6E2072616469757320696D6B
:102A4000706C61757369626C652E0A0047333320C0
:102A50004175746F2043616C6962726174650A002C
:102A60003F2856296572626F7365206C6576656CC8
:102A700020696D706C61757369626C652028302DFA
:102A800033292E0A003F2846296F72636520697436
:102A900065726174696F6E20696D706C61757369C0
:102AA000626C652028302D3330292E0A003F2843E0
:102AB00029616C6962726174696F6E2070726563FE
:102AC0006973696F6E20696D706C61757369626C92
:102AD0006520283E3D30292E0A003F2850296F6985
:102AE0006E747320696D706C61757369626C6520BA
:102AF00028302D3130292E0A00A10000006900A2E3
:102B00000000006300B00000000900C100000041A7
:102B100000C20000004100C30000004100C40000EA
:102B2000004100C50000004100C60000004145C74B
:102B30000000004300C80000004500C90000004537
:102B400000CD0000004900D10000004E00D500007B
:102B5000004F00D60000004F00D70000007800DCD6
:102B60000000005500DD0000005900E00000006199
:102B700000E10000006100E20000006100E30000ED
:102B8000006100E40000006100E50000006100E673
:102B90000000006165E70000006300E800000065D8
:102BA00000E90000006500EA0000006500EB00009D
:102BB000006500EC0000006900ED0000006900EE17
:102BC0000000006900EF0000006900F10000006EE5
:102BD00000F20000006F00F30000006F00F400003E
:102BE000006F00F50000006F00F60000006F00F8B5
:102BF0000000006F00F90000007500FA0000007589
:102C000000FB0000007500FC0000007500FD0000E6
:102C1000007900FF00000079000401000041000578
:102C2000010000610006010000430007010000638D
:102C3000000C01000043000D01000063000E0100C4
:102C40000044000F0100006400110100006400193D
:102C500001000065001A01000045001B010000652D
:102C6000001F010000670030010000490031010031
:102C7000006900410100004C00420100006C00436B
:102C80000100004E00440100006E00480100006E8B
:102C9000005801000052005901000072005A010062
:102CA0000053005B01000073005F010000730060CF
:102CB0000100005300610100007300650100007411
:102CC000006F01000075007C0100007A007D0100AA
:102CD000005A007E0100007A00920100006600E3C5
:102CE0000200007800222000002E001E210000506B
:102CF0007822210000544D902100003C2D922100AB
:102D0000002D3EB02100000300BB21000004003C68
:102D10002200007E00482200007E3D60220000214B
:102D20003D612200003D00642200003C3D65220020
:102D3000003E3DF12300000700A03000003D0021CF
:102D4000F301000200C2F401000500A2000000EC43
:102D500000B0000000DF00E4000000E100F6000029
:102D600000EF00F7000000FD00FC000000F500E3AC
:102D7000020000EB0087030000A5008F030000F4B1
:102D80000098030000F2009E030000E300A303008C
:102D900000F600A9030000F400AC030000E000AD61
:102DA000030000E300B1030000E000B2030000E212
:102DB00000B5030000E300B8030000F200BC03000C
:102DC00000E400BE030000E300C0030000F700C100
:102DD000030000E600C3030000E500902100007F2F
:102DE00000922100007E001A220000E8001E22004E
:102DF00000F30088250000FF0002300000A1000C55
:102E0000300000A2000D300000A3009B300000DE67
:102E1000009C300000DF00A03000003D00A1300029
:102E200000A700A2300000B100A3300000A800A459
:102E3000300000B200A5300000A900A6300000B3A9
:102E400000A7300000AA00A8300000B400A930009C
:102E500000AB00AA300000B500AB300000B600ACFB
:102E6000300000B6DEAD300000B700AE300000B775
:102E7000DEAF300000B800B0300000B8DEB1300086
:102E800000B900B2300000B9DEB3300000BA00B4BF
:102E9000300000BADEB5300000BB00B6300000BB29
:102EA000DEB7300000BC00B8300000BCDEB9300036
:102EB00000BD00BA300000BDDEBB300000BE00BC6B
:102EC000300000BEDEBD300000BF00BE300000BFDD
:102ED000DEBF300000C000C0300000C0DEC13000E6
:102EE00000C100C2300000C1DEC3300000AF00C42A
:102EF000300000C200C5300000C2DEC6300000C392
:102F000000C7300000C3DEC8300000C400C9300074
:102F100000C4DECA300000C500CB300000C600CCC3
:102F2000300000C700CD300000C800CE300000C91E
:102F300000CF300000CA00D0300000CADED130001F
:102F400000CADFD2300000CB00D3300000CBDED48B
:102F5000300000CBDFD5300000CC00D6300000CCF4
:102F6000DED7300000CCDFD8300000CD00D93000F3
:102F700000CDDEDA300000CDDFDB300000CE00DC3B
:102F8000300000CEDEDD300000CEDFDE300000CFCE
:102F900000DF300000D000E0300000D100E1300060
:102FA00000D200E2300000D300E3300000AC00E4C7
:102FB000300000D400E5300000AD00E6300000D560
:102FC00000E7300000AE00E8300000D600E9300035
:102FD00000D700EA300000D800EB300000D900EC48
:102FE000300000DA00ED300000DB00EF300000DCE4
:102FF00000F2300000A600F3300000DD00F43000E5
:1030000000B3DEF7300000DCDEFA300000A6DEFBA5
:10301000300000A500FC300000B000FD300000A42E
:1030200000074E0000FB0086510000FC00435300E7
:1030300000FA0064FF0000A40065FF0000A5006620
:10304000FF0000A60067FF0000A70068FF0000A8BF
:103050000069FF0000A9006AFF0000AA006BFF00E2
:1030600000AB006CFF0000AC006DFF0000AD006E17
:10307000FF0000AE006FFF0000AF0070FF0000B067
:103080000071FF0000B10072FF0000B20073FF008A
:1030900000B30074FF0000B40075FF0000B50076B7
:1030A000FF0000B60077FF0000B70078FF0000B80F
:1030B0000079FF0000B9007AFF0000BA007BFF0032
:1030C00000BB007CFF0000BC007DFF0000BD007E57
:1030D000FF0000BE007FFF0000BF0080FF0000C0B7
:1030E0000081FF0000C10082FF0000C20083FF00DA
:1030F00000C30084FF0000C40085FF0000C50086F7
:10310000FF0000C60087FF0000C70088FF0000C85E
:103110000089FF0000C9008AFF0000CA008BFF0081
:1031200000CB008CFF0000CC008DFF0000CD008E96
:10313000FF0000CE008FFF0000CF0090FF0000D006
:103140000091FF0000D10092FF0000D20093FF0029
:1031500000D30094FF0000D40095FF0000D5009636
:10316000FF0000D60097FF0000D70098FF0000D8AE
:103170000099FF0000D9009AFF0000DA009BFF00D1
:1031800000DB009CFF0000DC009DFF0000DD009ED6
:10319000FF0000DE009FFF0000DF00E5FF00005C95
:1031A00000001C1F11111F00000006191803130C4A
:1031B00000040E1F041C000000000E1315110E0069
:1031C000001C10181705060500040A0A0A0A111146
:1031D0000E0C12120C00000000001F1511151F002C
:1031E0000000000000010204040000001C1C0C048C
:1031F00004040201000000000004081000000000A8
:10320000007C4D61726C696E7C002D2D2D2D2D2D55
:1032100000456E636C6F73757265004D6F76696EF5
:10322000672E2E2E005072696E742066726F6D20AC
:103230004D6564696100205A3A200020593A200007
:1032400042656420583A2000203A200A002020637A
:10325000757272656E745F706F736974696F6E3DBD
:10326000002C20002E2E2E28004D6F766520257311
:103270006D6D004D6F766520302E316D6D004D6F98
:10328000766520316D6D004D6F76652031306D6D46
:10329000004D6F7665204178697300486F74656EE4
:1032A0006420746F6F20636F6C640045787472756E
:1032B000646572004D6F7665205A004D6F7665200B
:1032C00059004D6F7665205800486F6D6520257355
:1032D00025732573204669727374002044697363F3
:1032E000726570616E63793A00326E642050726F5D
:1032F0006265205A3A00534C4F5700317374205086
:10330000726F6265205A3A00464153540050726F02
:1033100062653A3A72756E5F7A5F70726F626500CD
:1033200050726F62696E67204661696C65640A005D
:1033300050726F62696E67204661696C6564005007
:103340006F736974696F6E204E6F7420526561638C
:103350006861626C650A005F72656C6174697665AC
:10336000290A0050726F62653A3A70726F62655F47
:1033700061745F706F696E74000000200023002686
:103380000029002C002F003200000100000301067C
:1033900001090105050505070508080808020202DC
:1033A000020A0A08080404040401010101010101E0
:1033B000010303030303030303040707070C0C0CB7
:1033C0000C0C0C0C0C02020202060606060606068F
:1033D000060B0B0B0B0B0B0B0B010210202008082C
:1033E0001020401020408002010201080402010167
:1033F0000204081020408080402010080402018050
:1034000004020180402010080402010804020101A6
:1034100002040810204080010204081020408000AF
:10342000000A0B02090C0D0E08070304010000003E
:10343000000000000000000000000000000000008C
:103440000000000000000000000000121110000049
:10345000000000000000000000000000000000006C
:1034600000000000006563686F3A004572726F7279
:103470003A00202864697361626C6564290A00411E
:10348000424C2041646A7573746D656E74205A00F5
:103490002028656E61626C6564290A0041626F765E
:1034A000650053616D65205A2061730042656C6F41
:1034B00077004175746F20426564204C6576656CB9
:1034C000696E673A2042494C494E45415200204EB0
:1034D0006F7A7A6C65290A00202620002D43656EDC
:1034E000746572002D46726F6E74002D4261636BBD
:1034F000002028416C69676E656420576974680014
:1035000020284D6964646C650020284C6566740051
:10351000202852696768740050726F62653A2046CD
:1035200049585F4D4F554E5445445F50524F4245A8
:103530000A004D616368696E6520547970653A20B0
:1035400044656C74610A005D0A00457874726170AC
:103550006F6C617465205B0042696C696E656172B5
:10356000204C6576656C696E6720477269643A0A1B
:1035700000203A202E2E2E4E6F77204F4E0A00202C
:103580003A204C6576656C696E67204F46460A00A6
:10359000203A202E2E2E4E6F77204F46460A0020CE
:1035A0003A204C6576656C696E67204F4E0A007252
:1035B000657365745F6265645F6C6576656C0A004F
:1035C00056652D4A65726B0056432D4A65726B0035
:1035D00056422D4A65726B0056412D4A65726B004A
:1035E00050726F62652059204F6666736574005093
:1035F000726F62652058204F6666736574004520BF
:1036000073746570732F6D6D004320537465707310
:103610002F6D6D00422053746570732F6D6D0041E6
:103620002053746570732F6D6D00496E6974004688
:10363000696C616D656E740050726F6265204F66D3
:10364000667365747300416363656C657261746968
:103650006F6E0056656C6F63697479005761726EA6
:10366000696E673A20436C65616E20436972636CD2
:10367000652072657175697265732058590A005723
:1036800061726E696E673A20526164697573204F8A
:103690007574206F662052616E67650A003C3C3C81
:1036A000207365745F617869735F69735F61745FCC
:1036B000686F6D6528003E3E3E207365745F6178DB
:1036C00069735F69735F61745F686F6D6528006817
:1036D0006F6D655F64656C74610000000000000040
:1036E00000000080184420520048617264636F64D7
:1036F00065642044656661756C74205365747469F3
:103700006E6773204C6F616465640A003B20002083
:10371000204D3835312058005A2D50726F62652087
:103720004F66667365740020204D3431332053009A
:10373000506F7765722D4C6F7373205265636F768F
:103740006572793A0020204D3330312050005049C5
:10375000442073657474696E67733A0020460020D4
:10376000204D3134352053004D6174657269616CB0
:103770002068656174757020706172616D65746533
:1037800072733A0020480020204D363635204C0018
:1037900044656C74612073657474696E67733A2054
:1037A0004C3C646961676F6E616C20726F643E208F
:1037B000523C7261646975733E20483C6865696774
:1037C00068743E20533C7365676D656E747320703A
:1037D0006572207365633E2058595A3C746F776553
:1037E0007220616E676C65207472696D3E20414283
:1037F000433C726F64207472696D3E0020204D3628
:103800003636205800456E6473746F702061646AA8
:103810007573746D656E743A00204A00202047323B
:1038200039205720490020204D34323020530041A8
:1038300075746F20426564204C6576656C696E67AF
:103840003A0020204D323035204200416476616ECE
:103850006365643A20423C6D696E5F7365676D65B0
:103860006E745F74696D655F75733E20533C6D695E
:103870006E5F66656564726174653E20543C6D6977
:103880006E5F74726176656C5F66656564726174A3
:10389000653E20583C6D61785F785F6A65726B3E6B
:1038A00020593C6D61785F795F6A65726B3E205A82
:1038B0003C6D61785F7A5F6A65726B3E20453C6D56
:1038C00061785F655F6A65726B3E0020540020205E
:1038D0004D323034205000416363656C6572617411
:1038E000696F6E2028756E6974732F7332293A20C0
:1038F000503C7072696E745F616363656C3E205208
:103900003C726574726163745F616363656C3E20D1
:10391000543C74726176656C5F616363656C3E00F4
:1039200020204D3230312058004D6178696D756D21
:1039300020416363656C65726174696F6E202875E0
:103940006E6974732F7332293A0020204D32303360
:103950002058004D6178696D756D206665656472EB
:10396000617465732028756E6974732F73293A002A
:1039700053746570732070657220756E69743A00B7
:1039800020440020204D3230302053002044697301
:1039900061626C65640A0046696C616D656E7420D5
:1039A00073657474696E67733A0020204D31343941
:1039B0002043203B20556E69747320696E20436557
:1039C0006C736975730A0020286D6D2900202047EB
:1039D0003231202020203B20556E69747320696E9F
:1039E000206D6D000000484300004843000048433C
:1039F000000048430000A0420000A0420000A04296
:103A000000005144B80B0000B80B0000B80B0000D8
:103A1000B80B00006F70656E206661696C65642C80
:103A20002046696C653A2000000021104220633076
:103A30008440A550C660E770088129914AA16BB106
:103A40008CC1ADD1CEE1EFF13112100273325222AE
:103A5000B5529442F772D662399318837BB35AA356
:103A6000BDD39CC3FFF3DEE362244334200401147E
:103A7000E664C774A44485546AA54BB528850995A6
:103A8000EEE5CFF5ACC58DD553367226111630064E
:103A9000D776F6669556B4465BB77AA719973887F6
:103AA000DFF7FEE79DD7BCC7C448E5588668A7780E
:103AB0004008611802282338CCC9EDD98EE9AFF946
:103AC000488969990AA92BB9F55AD44AB77A966AEE
:103AD000711A500A333A122AFDDBDCCBBFFB9EEB96
:103AE000799B588B3BBB1AABA66C877CE44CC55CBE
:103AF000222C033C600C411CAEED8FFDECCDCDDDE6
:103B00002AAD0BBD688D499D977EB66ED55EF44E8D
:103B1000133E322E511E700E9FFFBEEFDDDFFCCF35
:103B20001BBF3AAF599F788F8891A981CAB1EBA189
:103B30000CD12DC14EF16FE18010A100C230E32005
:103B40000450254046706760B9839893FBA3DAB3AD
:103B50003DC31CD37FE35EF3B1029012F322D23255
:103B60003542145277625672EAB5CBA5A89589857D
:103B70006EF54FE52CD50DC5E234C324A0148104A5
:103B80006674476424540544DBA7FAB79987B8974D
:103B90005FE77EF71DC73CD7D326F2369106B016F5
:103BA00057667676154634564CD96DC90EF92FE90D
:103BB000C899E9898AB9ABA9445865480678276845
:103BC000C018E1088238A3287DCB5CDB3FEB1EFBED
:103BD000F98BD89BBBAB9ABB754A545A376A167A95
:103BE000F10AD01AB32A923A2EFD0FED6CDD4DCDBD
:103BF000AABD8BADE89DC98D267C076C645C454CE5
:103C0000A23C832CE01CC10C1FEF3EFF5DCF7CDF8C
:103C10009BAFBABFD98FF89F176E367E554E745E34
:103C2000932EB23ED10EF01E20433A0020423A00BD
:103C300020436F756E7420413A004531006265641F
:103C4000002C2073797374656D2073746F707065C8
:103C50006421204865617465725F49443A200048D8
:103C6000656174696E67204661696C6564004865CA
:103C70006174696E67206661696C656400202D203F
:103C8000496E76616C6964206578747275646572DA
:103C9000206E756D62657220210A00544845524DB0
:103CA000414C2052554E4157415900546865726D40
:103CB000616C2052756E61776179005741524E49AF
:103CC0004E4721204C6F77205A204A65726B206D39
:103CD0006179206C65616420746F20756E77616E08
:103CE000746564207061757365732E0A00204D3908
:103CF000322058004D32342053256C642054256CFA
:103D000064004739322E392045257300473120465B
:103D10002564004731205A25732046323030004751
:103D20003120582573205925732046333030300018
:103D3000473132004D34323020532569205A2573E3
:103D4000004D3130362050256920532569004D3112
:103D5000303920532569004D313930205325690011
:103D60004D32303020442573004739322E392045FA
:103D7000300A4732385230004D3432302053302030
:103D80005A300020496E76616C69642065787472DF
:103D9000756465722000496E76616C69642065788F
:103DA0007472756465720A005072696E7420506195
:103DB000757365640050726F62653A3A70726F6233
:103DC000655F646F776E5F746F5F7A00205472690D
:103DD000676765726564206561726C792E00204E9C
:103DE0006F20747269676765722E002050726F626F
:103DF00065206661696C21202D0020573A003C3C0B
:103E00003C00220A00556E6B6E6F776E20636F6DFB
:103E10006D616E643A20220048453344204B3238AD
:103E2000302052656164792E005072696E74696E3B
:103E3000672E2E2E0000002100240027002A002DCE
:103E4000003000330001010000040107010A0100F5
:103E5000002200250028002B002E00310034000233
:103E6000010000050108010B01000C011C011124D7
:103E70001FBECFEFD1E2DEBFCDBF00E00CBF13E02D
:103E8000A0E0B2E0E0EDF7ED02E00BBF02C007906A
:103E90000D92A835B107D9F728E1A8E5B3E001C034
:103EA0001D92A436B207E1F71FE1C6E3DFE100E0AF
:103EB00006C021970109802FFE010F94EC67C533DE
:103EC000D10780E00807A9F70F94F1500D94D66B45
:103ED0000C9400002F923F924F925F926F927F92CC
:103EE0008F929F92AF92BF92CF92DF92EF92FF920A
:103EF0000F931F93CF93DF93CDB7DEB7E5970FB640
:103F0000F894DEBF0FBECDBF382E2090610381E054
:103F1000809361038091C8048D3409F4CBC3843548
:103F200011F40C948330873411F00C94B2308091EA
:103F3000C6049091C7048A31910509F47BC1BCF491
:103F4000843091053CF4823091050CF03FC097FF1E
:103F500031C0ACC38C30910509F40BC1853191059A
:103F600011F40C94B430049709F0A0C3C4C081329A
:103F7000910509F408C264F48D31910509F47EC1FC
:103F80008E31910509F47EC14C9709F08FC356C15B
:103F90008A35910509F4FBC124F48A9709F4A6C275
:103FA00085C38B35910509F4F6C18C35910509F46B
:103FB000F7C17CC38091B507813011F00C94B43007
:103FC0000F9476450E9476680C94B4302091B50722
:103FD000213011F00C94B43011E0029709F010E098
:103FE0000F94764519821A821B821C821D821E82C2
:103FF0001F82188682E50F94C515882309F44BC0EB
:104000000F9445156B017C0120E030E0A9010F946D
:10401000F160882309F455C080914D0290914E02C1
:10402000A0914F02B09150028AA79BA7ACA7BDA751
:104030008091510290915202A0915302B09154028A
:104040008AAB9BABACABBDAB8090011090900210E3
:10405000A0900310B09004104090051050900610EE
:104060006090071070900810A50194016AA57BA5C7
:104070008CA59DA50F94F16081110C94D330A30100
:1040800092016AA97BA98CA99DA90F94F16088234C
:10409000C1F00C94D33089E40F94C515882331F016
:1040A0000F94451569837A838B839C838AE40F94EC
:1040B000C515882331F00F9445156D837E838F835A
:1040C000988720E030E0A90169817A818B819C8109
:1040D0000F94F16081110C94873120E030E0A90148
:1040E0006D817E818F8198850F94F16081110C9490
:1040F00087310C949A3180E50F94C515882329F0F7
:104100000F94D3486B017C0103C0C12CD12C7601E4
:1041100083E50F94C515882361F00F94451520E0C1
:1041200030E04AE754E40F9457610F9468696B01DB
:104130007C010E94DCCD80910E04811105C060E0FD
:1041400082E895E00E94E1630F945D50C60ED71E91
:10415000E81EF91E0F945D50DC01CB018C199D09FE
:10416000AE09BF09B7FD02C00C94B4300E9468418B
:10417000F1CF0F944A0CF82E81110C94B43060E00A
:1041800070E080E50F94854889A76CE070E083E5D6
:104190000F94854888A763E070E084E50F94854814
:1041A0008C8F40E050E060ED70E482E50E94D8859D
:1041B00069837A838B839C838091CB0487FF02C0C1
:1041C0000C94A1318091CC04837011F00C94A13136
:1041D00011E002E0012B882331F060E08AE50F94C2
:1041E000E115882311F094E001C090E0092B1091B3
:1041F0009E1702FFF12E8F2D0F942E1D60E085E497
:104200000F94E115F0902402809324029E01245E15
:104210003F4FAE014F5F5F4FBE01685D7F4FCE01E4
:1042200089960F944629F0922402812F0F942E1D17
:104230000C94B4300E946AB50C94B4304091A90E2D
:1042400045FB442740F96CE272E2CE0101960E94E0
:104250001DA38091A90E85FD0F94D51B809111108F
:104260008770873011F00C94B13160E08FE40F94C7
:10427000E11581110C94E4310C94B1310E94C1A379
:104280000C94B43020915F17309160174091611702
:104290005091621760914D0270914E0280914F02D1
:1042A000909150020F94F567AB01BC0188E50E9424
:1042B000D88569837A838B839C832091631730919F
:1042C0006417409165175091661760915102709183
:1042D000520280915302909154020F94F567AB0102
:1042E000BC0189E50E94D8856D837E838F83988782
:1042F000BE016B5F7F4FCE0101960E942BA38823E6
:1043000011F40C94B43080E00F942E1D0E940B6DBC
:1043100084E690E0909326028093250261E085E494
:104320000F94E11501E021E0482FBE016B5F7F4F44
:10433000CE0101960F94140F6B017C019B01AC011F
:104340000F943B6B811119C049815A816B817C812B
:1043500080E492E30F94C41B4D815E816F81788568
:104360008BE392E30F94C41BB701A60186E392E3AB
:104370000F94C41B8AE00E943C400E94F26C0E9491
:10438000DF710C94B4300E942CEC0C94B430109279
:104390009D170C94B4308FE080939D170C94B4302B
:1043A0008091C504882349F1893009F09BC023EC32
:1043B000A22E22E0B22E3DE4E32E32E0F32ED12CE9
:1043C00000E010E0D5018D915D010F94C5158823A3
:1043D00069F00F944515F70160837183828393839D
:1043E000133011F401E002C0DD24D3941F5FF4E028
:1043F000EF0EF11C143031F76AC023EC32E03BA71A
:104400002AA78CE0E82E88E0F82E9DE4C92E92E0E1
:10441000D92E00E010E0AAA5BBA58D91BBA7AAA745
:104420000F94C515882309F447C00F9445152B0137
:104430003C01133049F0F7012081318142815381E1
:104440000F94F4672B013C01D6012D913D914D91C4
:104450005C91C301B2010F94F4674B015C012DEB39
:1044600037E346E855EB0F94A96A87FD0AC02DEBA8
:1044700037E346E855E3C501B4010F94F16018161F
:10448000DCF4133051F44092590250925A02609277
:104490005B0270925C0201E00FC0A5019401F7017C
:1044A00060817181828193810F94F567D7016D934B
:1044B0007D938D939C9313971F5FB4E0EB0EF11CDB
:1044C000E4E0CE0ED11C143009F0A5CF05C0DD20EC
:1044D00019F00E94D17106C0002321F089E592E015
:1044E0000E94C1D10E94DF710C94B4308091B50755
:1044F000813011F00C94B43089E40F94C515E82E86
:10450000882321F00F944115082F01C000E08AE4B0
:104510000F94C515F82E882321F00F944115182FFC
:1045200001C010E0EE2011F00B3020F4FF2041F02C
:104530001B3030F086EA95E00F9434190C94B430B7
:1045400080E1EDE4F2E0A1E0B0E101900D928A9506
:10455000E1F7EE2019F1602F000F770B880B990B14
:104560000F94F8602091491030914A1040914B10FF
:1045700050914C100F9457612091ED033091EE0350
:104580004091EF035091F0030F94F5676093011091
:10459000709302108093031090930410FF2019F180
:1045A000612F110F770B880B990B0F94F8602091F6
:1045B0004D1030914E1040914F10509150100F946B
:1045C00057612091F1033091F2034091F303509130
:1045D000F4030F94F56760930510709306108093B1
:1045E00007109093081060E080E50F94E115882390
:1045F000C1F1EE20D1F020915F173091601740910A
:1046000061175091621760910110709102108091B2
:104610000310909104100F94F4676093011070934D
:1046200002108093031090930410FF20D1F020918A
:104630006317309164174091651750916617609128
:1046400005107091061080910710909108100F943A
:10465000F467609305107093061080930710909391
:10466000081040E050E0BA0186E40E94D8856B0152
:104670007C0120E030E0A9010F94A96A18164CF4DF
:1046800020E030E040E752E4C701B6010F94EF6844
:1046900003C060E070E0CB0169837A838B839C83E5
:1046A000CE0101960F941E140C94B4300F947A4BE3
:1046B0000C94B4308091C6049091C704863791055C
:1046C00009F4CFC70CF0C9C08D34910509F4EFC3CC
:1046D0000CF05AC08931910509F4D5C21CF584311A
:1046E000910509F451C27CF48131910509F42AC283
:1046F0002CF4029708F4C9C10C948030429709F455
:1047000020C60C9480308631910509F462C20CF405
:104710005CC28731910509F466C2489709F478C2F2
:104720000C9480308E31910509F436C3ACF48B3192
:10473000910509F4D6C20CF4C6C28C31910509F476
:1047400023C34D9711F00C948030809147158E7FD4
:10475000809347150C94B4308A32910509F475C3DF
:104760004CF48F31910509F450C3809709F424C3A8
:104770000C9480308B34910509F480C38C349105FE
:1047800009F480C30C9480308A36910509F47CC406
:10479000B4F58435910509F4D4C5E4F48135910567
:1047A00009F4B4C534F48E34910509F484C30C942F
:1047B00080308235910509F4BDC58335910511F02E
:1047C0000C94803080919D178F7E806280939D171E
:1047D0000C94B4308C35910509F40CC634F485354D
:1047E000910509F4E4C50C9480308836910509F4EC
:1047F000F4C38936910509F434C40C9480308F36A3
:10480000910509F4A7C484F48C36910509F4E7C432
:104810000CF47EC48D36910509F400C48E369105E2
:1048200009F485C40C9480308237910509F480C660
:1048300054F48037910509F4D7C48137910509F400
:10484000DEC40C9480308337910509F478C685372F
:10485000910509F4F6C60C9480308E32F1E09F0782
:1048600011F40C94FD2E0CF070C0883C910511F4ED
:104870000C942C2C54F58139910509F43EC784F42D
:104880008837910509F42AC70CF425C789379105A3
:1048900009F42CC78C38910509F4D3C40C948030EA
:1048A000833A910509F49DC734F48B39910509F4D5
:1048B00007C50C948030843A910509F4BAC78E3B41
:1048C000910509F4DDC40C948030833D910511F409
:1048D0000C94E42CDCF48B3C910511F40C94942C96
:1048E0003CF4893C910511F40C94712C0C948030AB
:1048F0008C3C910511F40C94B32C8D3C910511F076
:104900000C9480300F94E3480C94B430823E9105AF
:1049100011F40C941D2E64F48C3D910511F40C944B
:10492000A12D8D3D910511F40C94C82D0C9480306F
:104930008C3231E0930711F40C94682E8D32914043
:1049400011F40C947D2E0C948030863FB1E09B07CF
:1049500011F40C94C12F0CF04CC08A39F1E09F0780
:1049600009F44AC40CF5803931E0930711F40C9432
:10497000412F4CF48F32914011F00C9480300E9402
:10498000EF850C94B4308139E1E09E0711F40C946A
:10499000442F8239914011F00C9480300E9428A35A
:1049A0000E94DF710C94B430853A21E0920711F433
:1049B0000C944A2F7CF48D39A1E09A0711F40C94E1
:1049C0003E30843A914011F00C9480300E94EFA860
:1049D0000C94B430843FE1E09E0711F40C94BE2F98
:1049E000853F914011F00C9480300F942D310C9440
:1049F000B4308A3922E0920711F40C94E62FC4F403
:104A0000883FA1E09A0711F40C94CD2F14F40C9474
:104A1000C42F8C30E2E09E0711F40C94DE2F89390C
:104A2000924011F00C9480300F9467490C94B4308C
:104A3000873E23E0920711F40C943030CCF4833598
:104A4000A3E09A0711F40C942D30803A934011F0B2
:104A50000C9480302091C3043091C4049091471588
:104A6000926090934715C9010E9451E70C94B430AD
:104A7000883EE3E09E0711F40C945F30893E93403A
:104A800011F40C9462300C94803080E50F94C515BD
:104A9000882329F00F94D3486B017C0103C0C12CFB
:104AA000D12C760183E50F94C515882361F00F940E
:104AB000451520E030E04AE754E40F9457610F9425
:104AC00068696B017C010E94DCCD8091C3049091E8
:104AD000C404009721F061E00E94566405C060E0C4
:104AE0008FEB95E00E94E1631091610383E0809376
:104AF000610381E080933804C114D104E104F1041E
:104B000031F00F945D50C60ED71EE81EF91E80913D
:104B10003804882311F40C94F131C114D104E10458
:104B2000F10411F40C94F8310F945D50DC01CB01C9
:104B30008C199D09AE09BF09B7FF02C00C94F8316A
:104B40000C94F1318091C90484FF02C00C94FC31B3
:104B50008091CB0487FF02C00C94FC318091CC047F
:104B6000837011F00C94FC3160E082ED95E00E94BE
:104B7000E1635F988A9880910801817080930601B3
:104B80000E945D3F0C94B4308AEE95E00F94341986
:104B900086E695E10E94237E8BE1E6E6F5E1DE0103
:104BA000119601900D928A95E1F760E070E0CE01D8
:104BB00001960E9438EBCE0101960F9418168BEDEA
:104BC00095E00F9434190C94B4300E94F9E90C94D8
:104BD000B4300E9410E680914715877F80628093F1
:104BE00047150C94B430E091C304F091C404808163
:104BF000882329F0803209F410823196F8CF60E0E2
:104C00008091C3049091C4040E949FE70C94B43037
:104C100083E50F94C515882321F00F940D150E948C
:104C2000BF8A84E50F94C5158823A9F00F940D154C
:104C30006B017C010F948326C0920008D09201087A
:104C4000E0920208F0920308CD28CE28CF2819F070
:104C500081E080939C170E94863F882381F00E9408
:104C60001FE60E9436CC83EE97E10E94C6E51092C3
:104C7000CD041092CE041092CF041092D0040F9461
:104C8000BA4A0C94B4308091471582FF03C08B7FE1
:104C90008093471580915110882319F081E00F947B
:104CA000FF4980919C17813051F782E080939C17D7
:104CB0000F945D5060930408709305088093060874
:104CC00090930708DCCF8091471583FD02C00C94B8
:104CD000B43083E50F94C51581110C9419320C94EE
:104CE000B43083E40F947C15882319F185E096E0B5
:104CF0000F9434198091AD16882391F0BE016F5F37
:104D00007F4F8AEA96E10E94EA7C8E010F5F1F4F77
:104D1000D8018D918D01882339F00E943C40F8CF55
:104D20008BEF95E00F9434198AE00E943C400C947C
:104D3000B4308091471582FF21C084E196E00F9442
:104D400034196091431570914415809145159091E7
:104D500046154AE00E9443408FE20E943C40609129
:104D60003F157091401580914115909142154AE090
:104D70000E9443400E9441410C94B43086E296E088
:104D80000F9434190C94B4308091C3049091C404EE
:104D90000E9451E70C94B4308091471583FD02C006
:104DA0000C94B4300F94634B8091C3049091C4046D
:104DB0000E9483E90C94B4308091471582FD0E94D3
:104DC000DCCD8091471583FD02C00C94B43060E0C7
:104DD00080E50F94E115182F682F8091C3049091FE
:104DE000C4040E949FE783E50F94C515882321F032
:104DF0000F940D150E94BF8A0E941FE611110C949A
:104E0000B4300E9436CC0C94B4300F944F266C8F83
:104E10007D8F8E8F9F8FBE016F5F7F4FCE014C962F
:104E20000E94E08960E0CE0101960E9456640F94D2
:104E3000011EBE016F5F7F4F87E396E00F94EA1D6E
:104E40008AE00E943C400C94B4306DE070E080E554
:104E50000F94D2158C0197FF02C00C94B430E82E49
:104E600060E089E40F94E11581110C941E32802FCB
:104E70000F94B3508111FEC60C941E320E9436CCA2
:104E80000C94B43080919C17813011F00C94B430A4
:104E900082E080939C170F945D5060930408709398
:104EA000050880930608909307080C94B4300E947C
:104EB00092CC0C94B43060E070E083E50F94D2158E
:104EC0008E34910531F40E9403CD0F94BA4A0C94AC
:104ED000B4308CEA96E00F94341960911406709106
:104EE000150683EA96E00F94B71B60911606709141
:104EF000170686E996E00F94B71B6091140670912F
:104F000015068091160690911706681B790B809103
:104F10009C17815021E030E0823010F020E030E03A
:104F2000621B730B8BE896E00F94B71B8AE00E941C
:104F30003C408CEA96E00F943419809118069091C9
:104F40001906A0911A06B0911B068C8F9D8FAE8F0B
:104F5000BF8FBE016F5F7F4FCE014C960E94E089EC
:104F6000BE016F5F7F4F8EE796E00F94EA1D809140
:104F70001C0690911D06A0911E06B0911F068C8FF5
:104F80009D8FAE8FBF8FBE016F5F7F4FCE014C965E
:104F90000E94E089BE016F5F7F4F8EE696E00F941E
:104FA000EA1D20E030E04AE754E460912006709169
:104FB000210680912206909123060F94EF68AB01A1
:104FC000BC0186E596E00F94C41B8DE60E943C4030
:104FD0008AE00E943C400C94B4308091A90E83FF7B
:104FE00002C00C94B43089E40F94C515882311F4E1
:104FF0000C945B320F941D1590E01816190614F4EA
:1050000081E090E026E0289FF001299FF00D112417
:10501000EE5AFF4E808191810C9465328091A90EE9
:1050200083FF02C00C94B43089E40F94C515082F97
:10503000882311F40C946E320F941D1590E018160D
:10504000190614F481E090E026E0289FF001299FE2
:10505000F00D1124EE5AFF4E8081918110E00C94E6
:105060007E320F948646182F87FF02C00C94B8300A
:1050700082E493E10F943419812F0E94B6818AE073
:105080000E943C400C94B83060E080E50E94B5A3DB
:10509000F82EF1E0F81710F40C94B43081E40F947A
:1050A0007C15882329F060915108062F10E002C07A
:1050B0000FEF10E089E40F94C515882399F00F9441
:1050C0001D1590E01816190614F481E090E026E012
:1050D000289FF001299FF00D1124EE5AFF4E048104
:1050E000158108C083E50F94C515882319F00F9426
:1050F0000D158B01EF2DF0E0EF5AF74FB8010F3F80
:10510000110519F010F06FEF70E060830C94B4306B
:1051100060E080E50E94B5A3823010F00C94B430BA
:10512000E82FF0E0EF5AF74F10820C94B4308EE481
:105130000F94C515882311F40C94B4300F940D15F9
:1051400060935505709356058093570590935805C5
:105150000C94B43083E50F947C15882331F060E023
:1051600083E50E94B5A38093A90E0F94011E8DEBD9
:1051700096E00F9434198091A90E882369F10DE40B
:10518000E02E0AE0F02E00E010E020E08091A90E71
:1051900090E0A0E0B0E0002E04C0B695A7959795EA
:1051A00087950A94D2F780FF0EC0DD24D394D20EE7
:1051B000222319F08CE20E943C40F70185919491E2
:1051C0000F9434192D2D0F5F1F4F32E0E30EF11CA9
:1051D00006301105D9F6A8CD89EB96E0A3CD109243
:1051E000380410927902C0C741E060E070E084ECBE
:1051F00096E00E94EA3EB8C70E94613FB5C783E5CA
:105200000F94C515882371F00F941D15282F30E0D9
:105210002D3331051CF480930002A6C78CE38093E4
:105220000002A2C70F94011E4091000250E060E00E
:1052300070E082ED96E00F94A61B8AE00E943C404D
:1052400093C78091A90E83FD8FC789E40F94C5157C
:10525000882311F40C94C7320F941D1590E0181692
:10526000190614F481E090E026E0289FF001299FC0
:10527000F00D1124EE5AFF4E828193810C94D232AC
:105280008091A90E83FD70C789E40F94C51588230A
:1052900011F40C94D9320F941D1590E018161906CC
:1052A00014F481E090E026E0289FF001299FF00DA2
:1052B0001124EE5AFF4E8281938110E00C94EA3261
:1052C00083E50F94C515882309F44EC70F941D1567
:1052D000182F90E0CD970CF01CE310935C030F9413
:1052E0005D506B017C01212F30E0A8EEB3E00F94FC
:1052F0009B67C60ED71EE81EF91EC0925803D092B7
:105300005903E0925A03F0925B032EC70E94CD84AA
:105310000E9492CC0E94ECCD0E94A63F68EE73E002
:1053200080E090E00F94051960E087EF96E00E941E
:10533000E1631AC780919D178F7D806180939D17CF
:1053400013C783E50F94C5158823E9F00F945D50CA
:1053500060936C1770936D1780936E1790936F170F
:105360000F94451520E030E04AE754E40F9457616C
:105370000F946869609301027093020280930302A4
:1053800090930402F1C68091C90484FF02C00C947A
:1053900013338091CB0487FF02C00C9413338091A8
:1053A000CC04837011F00C9413330C94443383E5D4
:1053B0000F947C15882309F4D7C60F945D50609331
:1053C0006C1770936D1780936E1790936F170F94EF
:1053D000451520E030E04AE754E40F9457610F94FC
:1053E000686960935D0370935E0380935F0390939D
:1053F0006003BAC60F94864687FDB6C69091C9046D
:1054000094FD04C09091CB0497FF0AC0B3ECCB2E5F
:10541000B2E0DB2E1AEAE12E1EE0F12E10E009C008
:105420009091CC04937091F7682F81E00F94984885
:105430009BC6D6018D916D010F94C515882309F483
:105440006DC0133009F063C00F9445154B015C012A
:1054500020E030E040EA51E40F94F16087FF4EC055
:10546000A50194016091CA0E7091CB0E8091CC0E73
:105470009091CD0E0F94EF682B013C019B01AC0184
:1054800060913508709136088091370890913808FE
:105490000F945761609335087093360880933708EE
:1054A00090933808A30192016091DA0E7091DB0E9F
:1054B0008091DC0E9091DD0E0F9457616093DA0EAF
:1054C0007093DB0E8093DC0E9093DD0E60914508A7
:1054D0007091460880914708909148080F94F660B3
:1054E000A30192010F9457610F9468696093450876
:1054F0007093460880934708909348088092CA0E9C
:105500009092CB0EA092CC0EB092CD0E07C00F940D
:105510004515F701648B758B868B978B1F5FF4E0C5
:10552000EF0EF11C143009F084CF0E94B8CD1CC6D8
:105530000E942EE483EF94E10F94F54415C681E5B3
:1055400098E00F94341960E081E498E00E9494920E
:1055500060E08CE298E00E94949261E085EE9EE02B
:105560000E94949261E081E298E00E94949261E04E
:1055700081E198E00E94949260E088E098E00E94C7
:10558000949261E08EEF97E00E94949261E084EF44
:1055900097E00E94949260E08DEE97E00E949492D2
:1055A00061E085EE97E00E94949261E087ED97E0DC
:1055B0000E94949260E089EC97E00E94949260E0EF
:1055C0008AEB97E00E94949260E08CEA97E00E9458
:1055D000949260E086E997E00E94949260E085E80A
:1055E00097E00E94949260E086E797E00E94949290
:1055F00061E08FE697E00E94949260E08AE597E090
:105600000E94949260E08CE497E00E94949261E0A2
:1056100089E397E00E94949260E08CE297E00E9418
:10562000949261E087E297E00E94949260E08AE1C0
:1056300097E00E94949260E086E097E00E94949246
:1056400093C58091C3049091C404009709F417CBCB
:10565000DC012C91222309F412CB60E00E945664F5
:1056600083C50091C3041091C40494E0F12C40E080
:10567000915021F1F8018081282F2B7F213421F4D2
:1056800021812133D9F407C08035C1F48181805351
:105690008A3048F013C0813421F0853421F441E090
:1056A00002C0FF24F39498012E5F3F4F89012F5FC2
:1056B0003F4FF80180818032C9F3DACF41110F9456
:1056C000011EFF2021F08BE299E00F943419C801EC
:1056D0000E94474149C50E94857246C581E080937A
:1056E0002506809324060E94AE723EC510922506C0
:1056F000109224060E94AE7237C560E070E083E528
:105700000F94D215823038F00F94FD1D8FE299E08E
:105710000F94341929C58C01112788E40F94C515FD
:105720008823E1F00F9441158A3A910544F00F94D3
:1057300041158530914034F40F94411505C08AEA33
:1057400090E002C084E091E026E0209FF001219FDC
:10575000F00D1124EE5AFF4E9183808382E40F9462
:10576000C5158823D9F00F944115059744F00F947F
:1057700041158D38910534F40F94411505C085E02D
:1057800090E002C08CE890E026E0209FF001219F8D
:10579000F00D1124EE5AFF4E9383828386E40F941A
:1057A000C515882309F4E0C40F94411597FD09C07D
:1057B0000F9441158F3F910509F034F40F94411572
:1057C00005C080E090E002C08FEF90E026E0209FCF
:1057D000F001219FF00D1124EE5AFF4E9583848332
:1057E000C3C460E070E083E50F94D2158C0102978A
:1057F0000CF0BAC440E050E0BA0180E50E94D885C0
:105800006B017C01112720E030E0A9010F94A96A07
:1058100018161CF0C12CD12C7601000F111F000F9F
:10582000111FF801E85DF94FC082D182E282F38254
:105830009BC46FEF7FEF83E50F94D21597FD07C0F0
:10584000803191050CF090C40F94EB598DC4809178
:1058500085080F94EB5988C40F948646182F87FD4E
:1058600083C40091AE1784E40F94C515882309F40E
:105870000EC70F9445156B017C0120E030E0A901B3
:105880000F94F160882339F124E01202F001112411
:10589000E655F84EC082D182E282F38220E030E009
:1058A000A9016091AA177091AB178091AC179091E4
:1058B000AD170F94F16081110CC080E090E0A0EE74
:1058C000BFE38093AA179093AB17A093AC17B09344
:1058D000AD1701E0DCC680E08093AE170E94D1CB0B
:1058E00043C40F94864687FD3FC4F3ECEF2EF2E0ED
:1058F000FF2E0AEA1EE0D7018D917D010F947C15E1
:10590000882359F00F9445150F946869F801608356
:105910007183828393830E9471CD0C5F1F4FFEE0E1
:105920000A3B1F0741F720C40F94864687FD1CC41D
:10593000E3ECEE2EE2E0FE2E0AEA1EE0D7018D91A6
:105940007D010F947C15882339F00F944515F801DB
:1059500064A375A386A397A30C5F1F4FFEE00A3BC9
:105960001F0761F701C48091CA0487FD95C6809125
:10597000CB048E7009F090C64091DE0E5091DF0E80
:105980006091E00E7091E10E81E599E00F94C41BE7
:105990004091E20E5091E30E6091E40E7091E50E9D
:1059A00086EE96E30F94C41B4091E60E5091E70EED
:1059B0006091E80E7091E90E8BEC98E30F94C41B94
:1059C0008AE00E943C40D0C3C0901002D0901102E7
:1059D000E0901202F090130280911402909115024F
:1059E000A0911602B09117028AA79BA7ACA7BDA7EA
:1059F00040900C0850900D0860900E0870900F08B1
:105A0000A301920160910C0270910D0280910E022F
:105A100090910F020F94F5676C8F7D8F8E8F9F8F03
:105A20008090100890901108A0901208B090130870
:105A3000A5019401C701B6010F94F56768A379A386
:105A40008AA39BA3C0901408D0901508E090160874
:105A5000F0901708A70196016AA57BA58CA59DA5C6
:105A60000F94F5676CA37DA38EA39FA380911C0266
:105A700090911D02A0911E02B0911F028AA79BA7C0
:105A8000ACA7BDA78091200290912102A091220293
:105A9000B09123028EA79FA7A8ABB9ABA301920137
:105AA000609118027091190280911A0290911B0264
:105AB0000F94F56769837A838B839C832AA53BA522
:105AC0004CA55DA5C501B4010F94F5676D837E8378
:105AD0008F8398872EA53FA548A959A9C701B6016C
