:100000000C94F4130C9425140C9425140C942514BE
:100010000C9425140C9425140C9425140C9425147C
:100020000C9425140C9425140C9425140C9425146C
:100030000C9425140C94417C0C9425140C942514D8
:100040000C9425140C94E6880C9425140C94251417
:100050000C9425140C9425140C94F8A80C94D869CD
:100060000C9425140C9498340C948E340C94251410
:100070000C9425140C9425140C9425140C9425141C
:100080000C9425140C9425140C9425140C9425140C
:100090000C9425140C9425140C9425140C942514FC
:1000A0000C9425140C9425140C9425140C942514EC
:1000B0000C9425140C9425140C9425140C942514DC
:1000C0000C9425140C9425140C9425140C942514CC
:1000D0000C9425140C9425140C9425140C942514BC
:1000E0000C942514C732CC32D132DB32E5325E3388
:1000F000EF32F732FF32093313331D332C333633EB
:100100005E3340334A335433BFAFC2AFB1AFB5AF44
:10011000B9AFF9AFC6AFCAAFD0AFD4AFD8AFDEAFCB
:10012000E2AFE6AFF9AFECAFF0AFF4AF084AD73BC0
:100130003BCE016E84BCBFFDC12F3D6C74319ABDB6
:1001400056833DDA3D00C77F11BED9E4BB4C3E91DA
:100150006BAAAABE000000803F05A84CCDB2D44EC9
:10016000B93836A9020C50B9918688083CA6AAAACB
:100170002ABE000000803F000C942C9C0C946999CE
:100180000C94064E0C94367B0C9401930C941D3306
:100190000C94C6810C94EF320C949D950C942C33E6
:1001A0000C94ECAF0C94437B0C94F9AF0C946193DA
:1001B0000C94E5930C94E6AF0C944C9A0C94E99F44
:1001C0000C94D8AF0C9443870C94F7320C94C792DC
:1001D0000C9409330C942A9C0C94C7320C94BA8268
:1001E0000C94C5780C94099C0C94EB930C94CD93CF
:1001F0000C9436330C94349C0C941A930C94F0AFFA
:100200000C9413330C9411BF0C94DA920C94B1AF8C
:100210000C94FD930C94DF930C94D0AF0C942AA40F
:100220000C94447B0C94D3930C940C7B0C948F9380
:100230000C945B7B0C9433930C94DB320C949E8671
:100240000C944E930C946A730C94D49F0C94B9AF95
:100250000C94289C0C94329C0C945AA40C94839F6C
:100260000C948C850C944A330C9472990C94977767
:100270000C94E0820C94E6820C94BA930C94CAAF6E
:100280000C9454330C94D9930C94DA820C94F79315
:100290000C94D4820C94B3790C945A990C94ED9FDD
:1002A0000C94F1970C940E820C94F07C0C94BFAFDC
:1002B0000C94E5850C94CF810C94C3540C94CC32EF
:1002C0000C94D4AF0C94D0BC0C94F3920C94828513
:1002D0000C94E5320C94F4AF0C94ED850C94C6AFFD
:1002E0000C945E330C94477B0C94B5820C94767B13
:1002F0000C94C2AF0C94F19F0C9491850C94BB9517
:100300000C94094E0C94C4950C9474930C94309CEA
:100310000C94D89F0C9440330C942E9C0C94E14F79
:100320000C9447730C945D950C94B0820C94FF323E
:100330000C94AC950C94F1930C94DEAF0C940C4E91
:100340000C94CB780C944DA70C94E2AF0C948D9345
:100350000C9487850C94AE930C94B5AF0C94767383
:100360000C94D1324E414E494E495459494E46CDD6
:10037000CCCC3D0AD7233C17B7D13877CC2B32955C
:1003800095E6241FB14F0A000020410000C842003A
:10039000401C4620BCBE4CCA1B0E5AAEC59D740004
:1003A000407A10F35A00A0724E18090010A5D4E844
:1003B0000000E87648170000E40B54020000CA9AD7
:1003C0003B000000E1F50500008096980000004029
:1003D000420F000000A0860100000010270000006E
:1003E00000E803000000006400000000000A0000B4
:1003F0000000000100000000002C76D888DC674F68
:100400000823DFC1DFAE59E1B1B796E5E3E453C697
:100410003AE651997696E8E6C28426EB898C9B628F
:10042000ED407C6FFCEFBC9C9F40F2BAA56FA5F439
:1004300090055A2AF75C936B6CF9676DC11BFCE061
:10044000E40D47FEF520E6B500D0ED902E030094B4
:100450003577050080841E080000204E0A00000049
:10046000C80C333333330F986E12831141EF8D2153
:1004700014893BE65516CFFEE6DB18D1844B381BBA
:10048000F77C1D901DA4BBE424203284725E22817F
:1004900000C9F124ECA1E53D27434F4D4D554E4990
:1004A000434154494F4E0044525952554E00455213
:1004B000524F525300494E464F004543484F004764
:1004C000322F47332062616420706172616D657400
:1004D0006572730A00536C6565702E2E2E00436C96
:1004E00069636B20746F20526573756D652E2E2EB7
:1004F000004E6F204D6F76652E00456E6420666954
:100500006C65206C6973740A00426567696E2066C9
:10051000696C65206C6973740A004E6F206D6564A8
:1005200069610A00286E6F2066696C652900437551
:100530007272656E742066696C653A2000534420BF
:100540007072696E74696E67206279746520004EFE
:100550006F74205344207072696E74696E670A006C
:1005600044656C6574696F6E206661696C65642CA6
:100570002046696C653A200046696C652064656CAC
:10058000657465643A0025697920256964202569C8
:10059000682025696D20256973005072696E74208A
:1005A00074696D653A20006F6666004445425547A0
:1005B0003A004D3131322053687574646F776E00A4
:1005C0004D31313320530020573A004265642043B7
:1005D0006F6F6C696E672E2E2E0042656420486531
:1005E0006174696E672E2E2E004646322048656182
:1005F00074656420426564204F46462E004348419E
:100600004D4245525F54454D504552415455524517
:1006100000424142595354455050494E47004152BF
:100620004353004D4F54494F4E5F4D4F4445530087
:10063000544845524D414C5F50524F5445435449E4
:100640004F4E004C4F4E475F46494C454E414D453D
:10065000004155544F5245504F52545F53445F53DD
:100660005441545553005344434152440050524F57
:100670004D50545F535550504F525400454D4552C4
:1006800047454E43595F50415253455200434153F1
:10069000455F4C494748545F4252494748544E458C
:1006A000535300544F47474C455F4C4947485453B8
:1006B00000534F4654574152455F504F57455200E3
:1006C0004255494C445F50455243454E54004C45B9
:1006D00056454C494E475F44415441005A5F505281
:1006E0004F42450052554E4F5554004155544F4CC2
:1006F0004556454C005052494E545F4A4F420050B7
:10070000524F4752455353004155544F5245504F55
:1007100052545F54454D5000564F4C554D45545220
:1007200049430042494E4152595F46494C455F5446
:1007300052414E534645520053455249414C5F5831
:100740004F4E5F584F4646004649524D574152451D
:100750005F4E414D453A4D61726C696E20322E30CC
:100760002E372E3220284E6F76202036203230321F
:10077000302031393A31353A32332920534F5552EE
:1007800043455F434F44455F55524C3A687474701B
:10079000733A2F2F6769746875622E636F6D2F4DE2
:1007A00061726C696E4669726D776172652F4D6119
:1007B000726C696E2050524F544F434F4C5F5645F8
:1007C0005253494F4E3A312E30204D414348494E05
:1007D000455F545950453A46463220486561746534
:1007E00064204265642045585452554445525F4345
:1007F0004F554E543A3020555549443A6365646527
:10080000326132662D343161322D343734382D392E
:100810006231322D6335356336326633363766667C
:100820000A002F2F20004D31343520533C696E646F
:1008300065783E206F7574206F662072616E676503
:100840002028302D31290A00416363656C6572618F
:1008500074696F6E3A2050003F4A206F7574206FA4
:10086000662072616E67652028302E303120746FEB
:1008700020302E33290A0020204D61783A200020B4
:10088000204D696E3A2000536F667420656E647364
:10089000746F70733A200046523A0020643A002088
:1008A000693A0020703A00486F6D65202573257302
:1008B0002573204669727374004F6666736574739E
:1008C000204170706C696564004572723A20546F03
:1008D0006F206661722100546F6F2066617220661E
:1008E000726F6D207265666572656E636520706FEC
:1008F000696E740A00454550524F4D204F4B0A0017
:10090000446F6E65207072696E74696E67206669E7
:100910006C650A004D3737004D333100BA04B50419
:10092000AE04A70499044572726F722077726974DD
:10093000696E6720746F20454550524F4D210A0063
:100940004D343130004D313132004D3130380053AB
:10095000544F505045442E20005072696E74657299
:100960002073746F707065642064756520746F20E7
:100970006572726F72732E204669782074686520E4
:100980006572726F7220616E6420757365204D39D7
:10099000393920746F20726573746172742E202847
:1009A00054656D706572617475726520697320722B
:1009B000657365742E2053657420697420616674B4
:1009C00065722072657374617274696E67290A00BA
:1009D0004E6F20436865636B73756D20776974682B
:1009E000206C696E65206E756D6265722C204C619D
:1009F0007374204C696E653A2000636865636B739D
:100A0000756D206D69736D617463682C204C617322
:100A100074204C696E653A20004C696E65204E75F5
:100A20006D626572206973206E6F74204C617374FF
:100A3000204C696E65204E756D6265722B312C20DD
:100A40004C617374204C696E653A20004D31313031
:100A50000053442072656164206572726F720A00EF
:100A60002121204B494C4C206361757365642062E1
:100A700079204B494C4C20627574746F6E2F7069ED
:100A80006E0A002121204B494C4C2063617573652F
:100A90006420627920746F6F206D75636820696EC1
:100AA0006163746976652074696D65202D206375B6
:100AB0007272656E7420636F6D6D616E643A2000B2
:100AC000627573793A2070617573656420666F7220
:100AD00020696E7075740A00627573793A207061CE
:100AE0007573656420666F7220757365720A0062A3
:100AF0007573793A2070726F63657373696E670AF4
:100B0000004D656469612052656D6F766564004DC6
:100B10006564696120496E73657274656400506C28
:100B200065617365205265736574005052494E5477
:100B300045522048414C5445440025533A20255302
:100B4000004B494C4C45442E20005072696E746530
:100B5000722068616C7465642E206B696C6C282946
:100B60002063616C6C6564210A006563686F3A00FC
:100B70004572726F723A00204D3932205800204978
:100B80006E76616C69642065787472756465722034
:100B9000005072696E74205061757365640046463A
:100BA0003220486561746564204265642052656145
:100BB00064792E005072696E74696E672E2E2E0055
:100BC0003B200020453A00205A3A0020593A00DBE9
:100BD0000FC93F45BCDA3F8FB30240FCF0274056B7
:100BE000946140FE4B9B4084A5D840E023184134DB
:100BF0006A5641E859974164DBD5416E271742B4E4
:100C0000B75542CE1A9742C8AED542B5885A43D49A
:100C10000684BFA65FA7BF7443E0BF10B11AC01C13
:100C20002C58C0E8F697C0B849D6C04E4E17C1241C
:100C3000D355C1802497C1A0B5D5C1121A17C2449B
:100C4000AE55C2781797C26CACD5C267885AC36FCD
:100C500070656E00545249474745524544007A5FDB
:100C60006D696E00795F6D696E00785F6D696E0009
:100C70005265706F7274696E6720656E6473746F0D
:100C800070207374617475730A00486F6D696E67C4
:100C9000204661696C6564005761726E696E673ADF
:100CA00020486F6D696E672042756D7020446976CB
:100CB00069736F72203C20310A0000004842000036
:100CC0004842000080400202040000A0400000A052
:100CD0004000000040FFFFFF7C4D61726C696E7C3C
:100CE000002D2D2D2D2D2D00456E636C6F737572AB
:100CF00065005654726176204D696E00566D696EBE
:100D000000566D6178205A00566D61782059005662
:100D10006D6178205800000000000102040400000A
:100D2000001C1C0C04040402010000000000040864
:100D300010000000000000000000000000000000A3
:100D4000000053657474696E67732053746F726525
:100D500064002062797465733B20637263200053E2
:100D6000657474696E67732053746F7265642028AC
:100D700000454550524F4D206461746173697A6536
:100D8000206572726F722E0A002073746F72656430
:100D90002073657474696E67732072657472696517
:100DA000766564202800202863616C63756C61742B
:100DB000656429210A0020213D2000454550524FFD
:100DC0004D20435243206D69736D61746368202D1B
:100DD000202873746F726564292000496E646578F9
:100DE0003A200044494749504F5453204C6F6164A6
:100DF00065640A0044494749504F5453204C6F6181
:100E000064696E670A00204D61726C696E3D5638E8
:100E100032290A00454550524F4D2076657273695C
:100E20006F6E206D69736D6174636820284545504D
:100E3000524F4D3D004361703A00656E71756575A6
:100E400065696E672022006F6B00526573656E6482
:100E50003A200023646566696E6520444546415525
:100E60004C545F006265644B6420006265644B69AA
:100E700020006265644B7020005049442041757425
:100E80006F74756E652066696E697368656421208C
:100E900050757420746865206C617374204B702CDD
:100EA000204B6920616E64204B6420636F6E737405
:100EB000616E74732066726F6D2062656C6F77204F
:100EC000696E746F20436F6E6669677572617469CD
:100ED0006F6E2E680A00504944204175746F747516
:100EE0006E65206661696C6564212074696D656F4B
:100EF00075740A00204B643A2000204B693A2000A8
:100F0000204B703A20000A204E6F206F7665727376
:100F1000686F6F740A002054753A2000204B753AB0
:100F20002000206D61783A2000206D696E3A200023
:100F300020643A200020626961733A2000504944DD
:100F4000204175746F74756E652073746172740AD4
:100F500000504944204175746F74756E6520666158
:100F6000696C6564212054656D7065726174757279
:100F70006520746F6F20686967680A0050494420D3
:100F80004175746F74756E650050494420417574E5
:100F90006F74756E65206661696C656421204261BD
:100FA00064206578747275646572206E756D626513
:100FB000720A00A10000006900A20000006300B0F6
:100FC0000000000900C10000004100C20000004113
:100FD00000C30000004100C40000004100C5000043
:100FE000004100C60000004145C70000004300C8A2
:100FF0000000004500C90000004500CD0000004988
:1010000000D10000004E00D50000004F00D60000C7
:10101000004F00D70000007800DC0000005500DD24
:101020000000005900E00000006100E100000061E4
:1010300000E20000006100E30000006100E4000045
:10104000006100E50000006100E60000006165E766
:101050000000006300E80000006500E90000006592
:1010600000EA0000006500EB0000006500EC0000F5
:10107000006900ED0000006900EE0000006900EF6B
:101080000000006900F10000006E00F20000006F37
:1010900000F30000006F00F40000006F00F5000096
:1010A000006F00F60000006F00F80000006F00F90C
:1010B0000000007500FA0000007500FB00000075DC
:1010C00000FC0000007500FD0000007900FF00003A
:1010D00000790004010000410005010000610006E4
:1010E00001000043000701000063000C0100004301
:1010F000000D01000063000E01000044000F01001C
:101100000064001101000064001901000065001A6C
:1011100001000045001B01000065001F0100006781
:101120000030010000490031010000690041010068
:10113000004C00420100006C00430100004E0044DE
:101140000100006E00480100006E005801000052CE
:10115000005901000072005A01000053005B0100B9
:101160000073005F01000073006001000053006124
:1011700001000073006501000074006F010000753C
:10118000007C0100007A007D0100005A007E010011
:10119000007A00920100006600E30200007800225D
:1011A0002000002E001E2100005078222100005453
:1011B0004D902100003C2D922100002D3EB02100D9
:1011C000000300BB21000004003C2200007E004818
:1011D0002200007E3D60220000213D612200003D92
:1011E00000642200003C3D652200003E3DF12300EA
:1011F000000700A03000003D0021F301000200C202
:10120000F401000500A1000000A900A2000000A454
:1012100000A3000000A500A5000000A600A7000094
:1012200000D200A9000000CF00AA0000009D00AB82
:10123000000000BB00AE000000CE00B0000000B215
:1012400000B10000001000B20000001E00B300005A
:10125000001F00B6000000D300BA0000009E00BBD3
:10126000000000BC00BC000000B600BD000000B5DE
:1012700000BF0000009F00C20000008F00C30000FC
:1012800000AA00C40000008E00C60000009200C743
:101290000000008000C90000009000D10000009C08
:1012A00000D5000000AC00D60000009900D7000077
:1012B00000B700D8000000AE00DC0000009A00E09B
:1012C0000000008500E1000000A000E200000083B3
:1012D00000E3000000AB00E40000008400E5000033
:1012E000008600E60000009100E70000008700E8AB
:1012F0000000008A00E90000008200EA0000008887
:1013000000EB0000008900EC0000008D00ED000003
:1013100000A100EE0000008C00EF0000008B00F147
:101320000000009B00F20000009500F3000000A206
:1013300000F40000009300F5000000AD00F600008E
:10134000009400F7000000B800F8000000AF00F9BA
:101350000000009700FA000000A300FB00000096C8
:1013600000FC0000008100FF0000009800920100D6
:1013700000A8008E030000DB008F030000DE009059
:10138000030000E70093030000D40094030000D59D
:101390000098030000D6009B030000D7009E0300C6
:1013A00000D800A0030000D900A3030000DA00A5C4
:1013B000030000DB00A6030000DC00A8030000DD42
:1013C00000A9030000DE00AC030000DF00AD030055
:1013D00000E300AE030000E500AF030000E700B04B
:1013E000030000F100B1030000DF00B2030000E0E1
:1013F00000B3030000E100B4030000E200B5030005
:1014000000E300B6030000E400B7030000E500B805
:10141000030000E600B9030000E700BA030000E89B
:1014200000BB030000E900BC030000EA00BD0300AC
:1014300000EB00BE030000EC00C0030000ED00C1A3
:10144000030000EE00C3030000EF00C4030000F03F
:1014500000C5030000F100C7030000F200C803004C
:1014600000F300C9030000F400CA030000E700CB4A
:10147000030000F100CD030000F100CE030000F4F2
:101480000022200000CD001E210000A70022210024
:1014900000D000A4210000F900B5210000C400BB69
:1014A0002100000400E5210000FB001A220000BE1C
:1014B000001E220000C2002B2200001B003C220064
:1014C000001D00482200001A0060220000BD0061DB
:1014D000220000110064220000B90065220000BA59
:1014E0000020230000C00021230000C100A723002A
:1014F000001400A92300001500AB2300001600AD66
:101500002300001700B02300001800B123000019C9
:1015100000B22300001200B32300001300F12300E7
:101520000007000C250000C90010250000CA0014A7
:10153000250000CB0018250000CC00F8250000C3D2
:1015400000602B0000C800612B0000C500622B006A
:1015500000C700632B0000C600C62B0000F500C7C3
:101560002B0000F700C82B0000F600001C1F111113
:101570001F00000006191803130C00040E1F041CA2
:10158000000000000E1315110E00001C10181705A6
:10159000060500040A0A0A0A11110E0C12120C00A8
:1015A000000000001F1511151F000068747470738F
:1015B0003A2F2F6D61726C696E66772E6F726700BD
:1015C00020322E302E372E32002020506C616E6E6D
:1015D000657242756666657242797465733A200079
:1015E0002046726565204D656D6F72793A20004323
:1015F0006F6D70696C65643A204E6F7620203620DE
:10160000323032300A00204C6173742055706461AE
:101610007465643A20323032302D31302D3135202E
:101620007C20417574686F723A20284D6172746F26
:101630006E2042616B7361202D2031312E30322EAD
:1016400032303230290A00322E302E372E320A0044
:101650004D61726C696E0020536F667477617265BC
:101660002052657365740A00205761746368646F63
:10167000672052657365740A002042726F776E208E
:101680006F75742052657365740A0020457874651F
:10169000726E616C2052657365740A00506F7765D5
:1016A0007255700A006175746F25632E67004732AA
:1016B000385859004D31303031006572726F7220E8
:1016C00077726974696E6720746F2066696C650A49
:1016D00000446F6E6520736176696E672066696C81
:1016E000652E0A004D323900456E6473746F707355
:1016F00000255320256320256320256320256300D2
:10170000656E6473746F7073206869743A20007C2E
:101710003C3E5E2B3D3F2F5B5D3B2C2A225C004113
:10172000425300504C410046616E20537065656421
:10173000004D61696E00436F6F6C646F776E00508F
:101740007265686561742024002568753A25303219
:1017500068750025303268753A2530326875005357
:101760004400202020202020200023171F17205372
:10177000697A653A200043616E6E6F74206F706500
:101780006E207375626469722000534420496E694B
:1017900074204661696C0053442063617264206F59
:1017A0006B0A006F70656E526F6F74206661696CB2
:1017B00065640A00766F6C756D652E696E697420BC
:1017C0006661696C65640A004E6F20534420636152
:1017D00072640A004D3234004D3233202573006F9D
:1017E00070656E206661696C65642C2046696C6565
:1017F0003A200046696C652073656C6563746564A6
:101800000A0046696C65206F70656E65643A200059
:10181000454E4420535542524F5554494E450A00B7
:101820002220706F73002220706172656E743A22FC
:1018300000535542524F5554494E452043414C4C5C
:10184000207461726765743A220053756263616C3B
:101850006C204F766572666C6F77004578636565BE
:10186000646564206D617820535542524F55544948
:101870004E452064657074683A310A005772697485
:10188000696E6720746F2066696C653A2000667225
:1018900065736800646F696E67004E6F77200002A1
:1018A00043616E63656C004D6F74696F6E004D38F7
:1018B000340054656D70657261747572650053749F
:1018C000617274205072696E740043616E6E6F7441
:1018D00020656E746572207375626469723A2000C7
:1018E000052E2E0044697361626C65205374657027
:1018F00070657273004175746F20486F6D650047A5
:101900003238005072656865617420242042656435
:101910000020520048617264636F6465642044650E
:101920006661756C742053657474696E6773204CBE
:101930006F616465640A0020440020490020204D46
:101940003330342050005049442073657474696EFC
:1019500067733A0020460020204D31343520530073
:101960004D6174657269616C206865617475702081
:10197000706172616D65746572733A0020204D323A
:101980003036205800486F6D65206F666673657449
:101990003A00204A0020204D323035204200416478
:1019A00076616E6365643A20423C6D696E5F736573
:1019B000676D656E745F74696D655F75733E205306
:1019C0003C6D696E5F66656564726174653E205446
:1019D0003C6D696E5F74726176656C5F66656564A7
:1019E000726174653E204A3C6A756E635F64657619
:1019F0003E0020540020204D3230342050004163FE
:101A000063656C65726174696F6E2028756E6974A8
:101A1000732F7332293A20503C7072696E745F6183
:101A20006363656C3E20523C726574726163745FDF
:101A3000616363656C3E20543C74726176656C5FD3
:101A4000616363656C3E0020204D323031205800C8
:101A50004D6178696D756D20416363656C65726178
:101A600074696F6E2028756E6974732F7332293A0A
:101A70000020450020204D3230332058004D617841
:101A8000696D756D20666565647261746573202883
:101A9000756E6974732F73293A00537465707320DF
:101AA00070657220756E69743A0020204D313439AA
:101AB0002043203B20556E69747320696E20436576
:101AC0006C736975730A0020286D6D29002020470A
:101AD0003231202020203B20556E69747320696EBE
:101AE000206D6D0000009643000096430000A0406A
:101AF0000000C8410000A0420000A04200007A455A
:101B00000000FA43B80B0000B80B000064000000AE
:101B10001027000024F4D43050C38E20C2A24017F6
:101B2000828B7011127A910D816CD90AA861E1083B
:101B3000C7586607615143061E4B5D05C145A704A2
:101B40001A411104093D9803713931034036DB0213
:101B500065339102D4305402802E1D02632CEE01B5
:101B6000752AC501B028A001102781018F256401C5
:101B70002B244B01E0223401AC211F018D200D01EB
:101B8000801FFC00841EED00971DDF00B81CD200F2
:101B9000E61BC600201BBC00641AB200B219A800E4
:101BA0000A19A0006A189900D117910040178B00FC
:101BB000B516840031167E00B31579003A1573000E
:101BC000C7146F0058146A00EE1366008813630090
:101BD00025135E00C7125B006C12570015125400EB
:101BE000C111510070114F0021114B00D610490056
:101BF0008D1047004610440002104200C00F400004
:101C0000800F3E00420F3C00060F3B00CB0E380019
:101C1000930E37005C0E3500270E3400F30D3200B2
:101C2000C10D3100900D3000600D2E00320D2D00E1
:101C3000050D2C00D90C2B00AE0C2900850C2900B9
:101C40005C0C2700350C27000E0C2600E80B240046
:101C5000C40B2400A00B23007D0B23005A0B210092
:101C6000390B2100180B2000F80A1F00D90A1E00AA
:101C7000BB0A1E009D0A1D00800A1D00630A1C008D
:101C8000470A1B002C0A1B00110A1A00F7091A0048
:101C9000DD091900C4091900AB09190092091700E0
:101CA0007B091800630917004C0916003609160055
:101CB000200916000A091500F5081500E0081400AF
:101CC000CC081400B8081400A408140090081300ED
:101CD0007D0812006B081300580812004608120015
:101CE0003408110023081100120811000108110026
:101CF000F0071000E0071000D0071000C007100028
:101D0000B0070F00A107100091070E0083070F0016
:101D100074070F0065070E0057070E0049070E00F5
:101D20003B070D002E070E0020070D0013070D00C6
:101D300006070D00F9060C00ED060D00E0060C008C
:101D4000D4060C00C8060C00BC060C00B0060C0043
:101D5000A4060B0099060C008D060B0082060B00F2
:101D600077060B006C060B0061060A0057060B0095
:101D70004C060A0042060A0038060A002E060A002F
:101D800024060A001A060A001006090007060A00BF
:101D9000FD050900F4050900EB050900E20509004D
:101DA000D9050900D0050900C7050900BE050900CD
:101DB000B5050800AD050800A50509009C0508004B
:101DC000940508008C050800840508007C050800BF
:101DD000740508006C050700650508005D0507002F
:101DE000560508004E050700470507004005080096
:101DF00038050700310507002A05070023050700FD
:101E00001C050600160507000F050700080506005B
:101E100002050700FB040600F5040700EE040600B7
:101E2000E8040600E2040700DB040600D50406000F
:101E3000CF040600C9040600C3040600BD04060062
:101E4000B7040600B1040500AC040600A6040600B1
:101E5000A00405009B0406009504050090040600FC
:101E60008A04050085040500800406007A04050044
:101E700075040500700405006B0405006604050088
:101E8000610405005C0405005704050052040500C8
:101E90004D04050048040500430405003E04040009
:101EA0003A04050035040500300404002C04050044
:101EB00027040400230405001E0404001A0404007F
:101EC00016040500110404000D04040009040500B3
:101ED0000404040000040400FC030400F8030400EC
:101EE000F4030400F0030400EC030400E80304001E
:101EF000E4030400E0030400DC030400D80304004E
:101F0000D4030400D0030400CC030400C80303007E
:101F1000C503030024F404D9201BC40C5C0E9804F0
:101F2000C4095F0265077101F405F900FB04B30001
:101F300048048700C10369005803550003034500A6
:101F4000BE023A008402310053022A002902250011
:101F500004022000E4011C00C8011900AF011700B1
:101F60009801140084011300710110006101100038
:101F700051010E0043010D0036010B002B010B0037
:101F800020010B00150109000C01090003010800E4
:101F9000FB000800F3000800EB000700E400060067
:101FA000DE000600D8000600D2000600CC000500C6
:101FB000C7000500C2000500BD000400B900040010
:101FC000B5000400B1000400AD000400A900040045
:101FD000A5000300A20003009F0004009B00030073
:101FE0009800030095000200930003009000030096
:101FF0008D0002008B0003008800020086000200B2
:1020000084000300810002007F0002007D000200C6
:102010007B000200790002007700010076000200D8
:102020007400020072000100710002006F000200E3
:102030006D0001006C0002006A00010069000200EE
:1020400067000100660001006500010064000200F5
:102050006200010061000100600001005F000200F9
:102060005D0001005C0001005B0001005A000100FE
:1020700059000100580001005700010056000100FE
:1020800055000100540001005300000053000100FE
:102090005200010051000100500001004F000100FA
:1020A0004E0000004E0001004D0001004C000100F8
:1020B0004B0000004B0001004A00010049000100F4
:1020C00048000000480001004700010046000000F1
:1020D00046000100450000004500010044000100E9
:1020E00043000000430001004200000042000100E4
:1020F0004100000041000100400001003F000000DD
:102100003F0001003E0000003E0001003D000000D5
:102110003D0001003C0000003C0000003C000100CC
:102120003B0000003B0001003A0000003A000100C3
:1021300039000000390001003800000038000000BC
:1021400038000100370000003700010036000000B1
:1021500036000000360001003500000035000000A8
:10216000350001003400000034000000340001009C
:102170003300000033000000330001003200000093
:102180003200000032000100310000003100000088
:10219000310001003000000030000000300001007C
:1021A0002F0000002F0000002F0000002F00010072
:1021B0002E0000002E0000002E0001002D00000067
:1021C0002D0000002D0000002D0001002C0000005B
:1021D0002C0000002C0000002C0001002B0000004F
:1021E0002B0000002B0000002B0001002A00000043
:1021F0002A0000002A0000002A0001002900000037
:102200002900000029000000290000002900010029
:10221000280000002800000028000000280000001E
:102220002800010027000000270000002700000010
:102230002700000027000100260000002600000003
:1022400026000000260000002600010025000000F6
:1022500025000000250000002500000025000000EA
:1022600025000100240000002400000024000000DC
:1022700024000000240001002300000023000000CF
:1022800023000000230000002300000023000000C2
:1022900023000100220000002200000022000000B4
:1022A00022000000220000002200010021000000A6
:1022B000210000002100000021000000210000009A
:1022C000210000002100010020000000200000008B
:1022D000200000002000000020000000200000007E
:1022E00020000000200001001F0000001F0000006F
:1022F0001F0000001F0000001F0000001F00000062
:102300001F0001001E0000001E0000001E00000053
:102310001E000000043700001E290000511B0000B1
:102320005810000010090000CC04000078020000E2
:1023300041010000416476616E63656420536574F9
:1023400074696E677300436F6E6669677572617456
:10235000696F6E00526573746F72652044656661C3
:10236000756C7473004C6F61642053657474696E8E
:1023700067730053746F72652053657474696E6778
:10238000730050726568656174202420436F6E6627
:10239000004261636B0053746F70004368616E6745
:1023A00065204D65646961004D3231005265737579
:1023B0006D65205072696E74004E6F204D656469C2
:1023C000610054756E650053746F70205072696EB1
:1023D00074005061757365205072696E7400496EA7
:1023E000666F2053637265656E00416D6178205A97
:1023F00000416D6178205900416D6178205800419D
:102400002D54726176656C00412D52657472616362
:102410007400416363656C005A2053746570732FB8
:102420006D6D00592053746570732F6D6D005820C9
:1024300053746570732F6D6D00496E6974004D346F
:102440003238004A756E6374696F6E204465760099
:10245000416363656C65726174696F6E0056656C8B
:102460006F636974790053657420486F6D65204F00
:10247000666673657473003F00496E697469616CC8
:10248000697A6520454550524F4D005072696E740F
:102490002041626F72746564004D32350050617581
:1024A00073696E672E2E2E00454550524F4D2056B3
:1024B000657273696F6E204572726F720045455088
:1024C000524F4D20496E646578204572726F7200DC
:1024D000454550524F4D20435243204572726F7212
:1024E0000049676E6F72650020436F756E742058E7
:1024F0003A00453100626564002C2073797374657D
:102500006D2073746F707065642120486561746517
:10251000725F49443A2000544845524D414C205284
:10252000554E4157415900546865726D616C205297
:10253000756E617761790048656174696E672046E0
:1025400061696C65640048656174696E67206661E5
:10255000696C6564004572723A204D415854454D8E
:1025600050004D415854454D50207472696767655D
:10257000726564004572723A204D494E54454D5083
:10258000004D494E54454D5020747269676765721D
:10259000656400202F002042403A0020403A00109D
:1025A00000AA03F0013A019002220130031001D089
:1025B0000302017004F7001005ED00B005E50050BE
:1025C00006DD00F006D7009007D1003008CC00D01F
:1025D00008C7007009C300100ABE00B00ABB005053
:1025E0000BB700F00BB300900CB000D00DAA001098
:1025F0000FA5005010A00090119B00D0129600B0C3
:1026000014900090168B0070188500501A800030CE
:102610001C7B00B01E750030216F00B023690030B4
:1026200026640010285F00902A5A00702C5500F094
:102630002E4F0070314800B0324500F03341007039
:10264000363900103737005038330090392D00D01C
:102650003A2700B03C1C00503D1700F03D1100909F
:102660003E0900D03FE5FF5072696E742066726FBC
:102670006D204D65646961004D6F76652025736D31
:102680006D004D6F766520302E316D6D004D6F768B
:102690006520316D6D004D6F76652031306D6D00B8
:1026A0004D6F766520417869730045787472756462
:1026B0006572004D6F7665205A004D6F7665205922
:1026C000004D6F7665205800220A00556E6B6E6FC4
:1026D000776E20636F6D6D616E643A20220000009A
:1026E0000A0B02090C0D0E0807030401000000008C
:1026F00000000000000000000000000000000000DA
:102700000000000000000000000012111000000096
:1027100000000000000000000000000000000000B9
:102720000000000000002200250028002B002E00E1
:102730003100340002010000050108010B01000016
:102740002100240027002A002D0030003300010161
:102750000000040107010A01050505050705080831
:102760000808020202020A0A08080404040401011B
:102770000101010101010303030303030303040730
:1027800007070C0C0C0C0C0C0C0C020202020606C7
:102790000606060606060B0B0B0B0B0B0B0B0102BA
:1027A0001020200808102040102040800201020163
:1027B000080402010102040810204080804020101B
:1027C0000804020180040201804020100804020174
:1027D00008040201010204081020408001020408DC
:1027E0001020408011BFD0BC11241FBECFEFD1E21A
:1027F000DEBFCDBF00E00CBF12E0A0E0B2E0E2EB34
:10280000FEE901E00BBF02C007900D92AC3CB1079E
:10281000D9F721E1ACECB2E001C01D92AE3DB207A8
:10282000E1F713E1C3EFD3E100E006C0219701090E
:10283000802FFE010E9497CBC23FD10780E008079E
:10284000A9F70E9435B60C9447CF0C9400002F9244
:102850003F924F925F926F927F928F929F92AF9230
:10286000BF92CF92DF92EF92FF920F931F93CF937D
:10287000DF93CDB7DEB7C555D1090FB6F894DEBFEB
:102880000FBECDBF66968FAF66972091DC0265962E
:102890002FAF659791E09093DC02809167098D34AA
:1028A00009F41CC2843511F40C94F420873411F01F
:1028B0000C94FF20209065093090660934E02316BF
:1028C000310409F40CC154F437FC04C28091910B1B
:1028D00052E0251631040CF076C02FC08AE5281688
:1028E000310409F44AC164F4A5E12A16310411F453
:1028F0000C940121BCE12B16310409F42EC1EAC16C
:10290000EBE52E16310409F43CC1FCE52F16310429
:1029100009F0E0C169E3262E62E0362E70EEE72E64
:1029200078E0F72EA8E8B3E0B9A3A8A3E8E9CE2E93
:10293000E3E0DE2E00E010E065C1813011F00C9480
:1029400001210E94412B8DEE98E00E944D492AE022
:1029500037ED43E25CE360910002709101028091E7
:102960000202909103020E940AC56B017C016091F2
:10297000270270912802072E000C880B990B0E94E9
:10298000ABC49B01AC01C701B6010E940AC56983B3
:102990007A838B839C838E010F5F1F4F29EF38E072
:1029A00045EF58E061EF78E08DEE98E00E94284214
:1029B00080E1EDEEF8E0A8E8B3E001900D928A9591
:1029C000E1F70C940121813011F00C9401210E9457
:1029D000412B82E50E94342B882309F44EC00E94CB
:1029E000AF2A6B017C0120E030E0A9010E94A4C461
:1029F000882311F40C94CE2120918803309189030F
:102A000040918A0350918B0328A339A34AA35BA367
:102A100080918C0390918D03A0918E03B0918F03D0
:102A20008CA39DA3AEA3BFA38090ED089090EE0869
:102A3000A090EF08B090F0084090F1085090F20894
:102A40006090F3087090F408A501940168A179A141
:102A50008AA19BA10E94A4C481110C940F21A301FF
:102A600092016CA17DA18EA19FA10E94A4C4882384
:102A700011F40C94CE210C940F2189E40E94342B84
:102A8000882329F00E94AF2A6B017C0103C0C12C6E
:102A9000D12C76018AE40E94342B882311F40C9403
:102AA000D5210E94AF2A68A779A78AA79BA720E013
:102AB00030E0A901C701B6010E94A4C481110C94A1
:102AC000E22120E030E0A90168A579A58AA59BA5AF
:102AD0000E94A4C481110C94E2210C94CE2180E5C3
:102AE0000E94342B882329F00E94772A6B017C01F5
:102AF00003C0C12CD12C760183E50E94342B88239E
:102B000061F00E94AF2A20E030E04AE754E40E94DE
:102B10000AC50E942DCD6B017C010E940544809165
:102B2000B20C811105C060E085ED94E00E94F3A332
:102B30000E94CC69C60ED71EE81EF91E0E94CC6901
:102B4000DC01CB018C199D09AE09BF09B7FD02C09C
:102B50000C9401210E94EB2FF1CF8091EC0887703B
:102B6000873011F00C94882560E08FE40E94F32BED
:102B700081110C9401210C9488251092DB020C9495
:102B800001218FE08093DB020C9401210E94AF2A87
:102B90002B013C01133049F0D6012D913D914D910F
:102BA0005C910E94B9CB2B013C01E8A1F9A12081E5
:102BB000318142815381C301B2010E94B9CB4B01E3
:102BC0005C012DEB37E346E855EB0E941ACE87FDFA
:102BD00021C02DEB37E346E855E3C501B4010E945F
:102BE000A4C41816BCF01F5FF4E0EF0EF11C28A17E
:102BF00039A12C5F3F4F39A328A334E0C30ED11C69
:102C0000143031F1F10181911F010E94342B88238E
:102C100051F3BCCF133051F440929403509295037A
:102C2000609296037092970301E0DDCFA5019401B5
:102C3000D7016D917D918D919C910E94BACBF70146
:102C40006083718382839383812F0E942D49CBCF30
:102C50000023E1F12091A4083091A5084091A60835
:102C60005091A70860919403709195038091960309
:102C7000909197030E940AC50E9427CE609342104C
:102C800070934310809344109093451090912010BE
:102C900080912110981719F00E94664617C00E9473
:102CA00005440E9453464091421050914310609158
:102CB00044107091451040932A0D50932B0D609352
:102CC0002C0D70932D0D81110E9460460E94114BB6
:102CD0000C9401210E944AAE0C94012100916509D7
:102CE000109166090137110509F4D1C40CF0A2C096
:102CF0000032110509F40DC30CF040C00731110575
:102D000009F406C2FCF40231110509F460C574F43B
:102D100017FF02C00C94F120023011050CF448C1D9
:102D20000131110509F4A1C10C94F12005311105FF
:102D300009F4E0C10CF0E2C10431110509F4A9C1A4
:102D40000C94F1200B31110509F42AC23CF409312D
:102D5000110509F4FEC10CF4F0C114C20D311105C6
:102D600009F477C20CF46EC20E31110509F477C272
:102D70000F31110509F40BC30C94F1200535110531
:102D800009F45BC524F50135110509F405C58CF47A
:102D90000C34110509F4A5C30D34110509F4B4C3AD
:102DA0000B34110511F00C94F1200E940E4C0C9480
:102DB00001210335110509F403C50CF008C5809104
:102DC000DB028F7D80618093DB020C9401210B3646
:102DD000110509F4F1C364F40936110509F497C328
:102DE0000CF0ABC30C35110509F44AC50C94F12065
:102DF0000E36110509F4EDC35CF40C36110511F023
:102E00000C94F1201092DC0C109226020C940121FB
:102E10000F36110509F4EEC30037110511F00C94BB
:102E2000F12041E060E070E082EB95E00E94632DCC
:102E30000C940121033D110509F482C70CF056C022
:102E40000C38110509F445C424F50637110509F4B9
:102E50003AC664F40337110509F4A3C50CF49AC506
:102E60000537110509F41FC60C94F1200837110528
:102E700009F466C60CF461C60937110511F00C940B
:102E8000F1201092FC091092FB090E94B44B0C94A3
:102E90000121093C110509F4B0C674F40B39110580
:102EA00009F454C40E3B110509F431C4013911056C
:102EB00011F00C94F1204CC60C3C110509F4DFC64E
:102EC00034F40B3C110509F4BBC60C94F1200D3C05
:102ED000110509F408C70E3C110511F00C94F120FE
:102EE0002FEFE22E29E0F22E10E018C7043F41E058
:102EF000140711F40C949D206CF5003381E0180741
:102F000011F40C94B71F94F40C32A1E01A0711F4D9
:102F10000C94981F0F32B1E01B0711F40C942A2077
:102F20000C3D110511F00C94F120DBC70A39E1E0EA
:102F30001E0709F4A9C30C3AF1E01F0711F40C9421
:102F40002D200039114011F00C94F1200E9405440D
:102F50000C940121083F31E0130711F40C94AC20CC
:102F60006CF4063F51E0150711F40C94A02014F006
:102F70000C94A3200E94F5900C940121003A93E058
:102F8000190709F4F7C13CF40C30124011F40C9409
:102F9000BC200C94F120073EE3E01E0711F40C94D2
:102FA000C920093E134011F40C94D7200C94F12051
:102FB00080E50E94342B882329F00E94772A6B0138
:102FC0007C0103C0C12CD12C760183E50E94342BF7
:102FD000882361F00E94AF2A20E030E04AE754E401
:102FE0000E940AC50E942DCD6B017C010E94054400
:102FF0008091630990916409009721F061E00E943B
:1030000085A405C060E08EED94E00E94F3A31091CA
:10301000DC0283E08093DC0281E08093DC0CC1144D
:10302000D104E104F10431F00E94CC69C60ED71E30
:10303000E81EF91E8091DC0C882311F40C94BA264A
:10304000C114D104E104F10411F40C94B6260E94D9
:10305000CC69DC01CB018C199D09AE09BF09B7FF12
:1030600002C00C94B6260C94BA2680915F0984FFA6
:1030700002C00C94C1268091610987FF02C00C94A4
:10308000C12680916209837011F00C94C1260C94C2
:10309000D9268091901183FF25C089E095E00E9498
:1030A000392D8091901183FF17C089EF9FE00E9416
:1030B0005C708BE1E9EFFFE0DE01119601900D926B
:1030C0008A95E1F760E070E0CE0101960E94D2801F
:1030D000CE0101960E9450728AEF94E00E94392D31
:1030E0000C9401210E945F2D8AE195E00E94392D08
:1030F0000C9401210E94B07F0C9401210E94937DC9
:1031000080919011877F8062809390110C940121AF
:10311000E0916309F09164098081882329F080326D
:1031200009F410823196F8CF60E0809163099091A4
:1031300064090E94EA7D0C9401210E94D22C88230C
:1031400021F00E94037F0E940E4C0E94FD420C94CD
:1031500001218091901182FF03C08B7F8093901199
:1031600080918703813089F782E0809387030E94F2
:10317000CC696093DC087093DD088093DE0890933F
:10318000DF08E3CF8091901183FD02C00C940121F0
:1031900083E50E94342B81110C94E6260C940121C6
:1031A00083E40E94E62A882319F18EE295E00E94CA
:1031B000392D8091A30F882391F0BE016F5F7F4F5F
:1031C00080EA9FE00E94236F8E010F5F1F4FD8019E
:1031D0008D918D01882339F00E94322DF8CF84E241
:1031E00095E00E94392D8AE00E94322D0C94012135
:1031F0008091901182FF21C08DE395E00E94392DCE
:1032000060918C1170918D1180918E1190918F1120
:103210004AE00E94262E8FE20E94322D6091881192
:103220007091891180918A1190918B114AE00E94CE
:10323000262E0E94C42F0C9401218FE495E00E9459
:10324000392DDFC780916309909164090E94A27DA6
:10325000D8C7809190118E7F80939011D2C78091B2
:10326000901183FFCEC70E9433AE8091901183FFEF
:10327000C8C74091630950916409BE01645E7F4FE5
:1032800080E00E942DB58C01009709F4BAC76C8DBF
:103290007D8D19821C8222E0AC01CE0101960E9434
:1032A0005672811102C0F12C14C0CE0101960E9409
:1032B0009BB48823C1F361E0CE0101960E94CB6EDE
:1032C000009789F325EEFC0120831C820E94536A3B
:1032D000F82ECE0101960E945072B801FF2081F0B5
:1032E00088E795E00E94482D8AE00E94322D1092D6
:1032F0008C1110928D1110928E1110928F1181C726
:1033000080E695E00E94482D81EE96E10E94392DDD
:1033100078C78091901182FD0E94054480919011A0
:1033200083FF6FC760E080E50E94F32B182F682FA2
:1033300080916309909164090E94EA7D83E50E946F
:10334000342B882381F00E94872AAB01BC01409373
:103350008C1150938D1160938E1170938F1180EAB0
:103360009FE00E94466C0E94037F11114AC70E9491
:103370000E4C47C7209163093091640990919011D8
:10338000926090939011C9010E94A27D3AC70E9459
:10339000BF4B7B018C0120E831E541E050E00E9409
:1033A000FACAC9016DE671E00E9450CB4B015C0185
:1033B000C801B70120E13EE040E050E00E94FACAB7
:1033C000CA01B90128E130E040E050E00E94FACAA9
:1033D000762E672EC62ED72E5CE3252E312C412C5F
:1033E000512CC801B701A20191010E94FACAF62E20
:1033F000E72ECA01B901A20191010E94FACACB01CC
:103400008E010F5F1F4F8114910499F0EF92FF928C
:103410007F936F936F927F92BF92AF929F928F92A2
:1034200086E895E09F938F931F930F930E943CC46F
:1034300013C0A114B104B1F0EF92FF927F936F9388
:103440006F927F92BF92AF928AE895E09F938F939D
:103450001F930F930E943CC40FB6F894DEBF0FBEBB
:10346000CDBF30C0CD2879F0EF92FF927F936F935C
:103470006F927F928EE895E09F938F931F930F93A7
:103480000E943CC4E9CF892B69F0EF92FF927F93B1
:103490006F9382E995E09F938F931F930F930E9400
:1034A0003CC4DACFEF92FF9286E995E09F938F9329
:1034B0001F930F930E943CC40F900F900F900F909A
:1034C0000F900F9060E0C8010E9485A40E945F2DBC
:1034D000B8018AE995E00E94482D8AE00E94322DC9
:1034E00090C680918703813009F08BC682E080937B
:1034F00087030E94CC696093DC087093DD08809399
:10350000DE089093DF087DC60E94324C7AC60E9486
:10351000DA2E182F87FD0AC087E49EE00E94392D1D
:10352000812F0E94A4A88AE00E94322D6596BFAD2B
:103530006597B093DC020C94442A80E50E94342BFA
:10354000811108C081E40E94E62A811108C00FEFB2
:1035500010E009C00E949B2A811153C6F3CF6091ED
:10356000C003062F10E089E40E94342B882391F0D9
:103570000E949B2A90E01816190614F481E090E04E
:10358000880F991F880F991FFC01E95AF34F028198
:10359000138108C083E50E94342B882319F00E9410
:1035A000872A8B01B8010F3F110519F010F06FEF5A
:1035B00070E06093C00325C680E50E94342B811122
:1035C00003C01092C0031DC60E949B2A811119C618
:1035D000F8CF8EE40E94342B882309F412C60E948F
:1035E000872A6093EC097093ED098093EE0990931C
:1035F000EF0907C683E50E94E62A882359F083E590
:103600000E94342B882319F00E949B2A01C080E07D
:10361000809383080E945F2D8BEA95E00E94392DEC
:1036200080918308882369F13CE1E32E39E0F32E91
:1036300000E010E020E08091830890E0A0E0B0E09E
:10364000002E04C0B695A795979587950A94D2F752
:1036500080FF0EC0DD24D394D20E222319F08CE219
:103660000E94322DF701859194910E94392D2D2DC4
:103670000F5F1F4FE2E0EE0EF11C05301105D9F689
:10368000B2CD87EA95E0ADCD0E94502CBAC583E556
:103690000E94342B882371F00E949B2A282F30E04F
:1036A0002D3331051CF480930402ABC58CE3809369
:1036B0000402A7C50E945F2D4091040250E060E023
:1036C00070E080EC95E00E94932E8AE00E94322DFB
:1036D00098C58091830883FD94C589E40E94342BAA
:1036E000882311F40C94F7260E949B2A90E0181668
:1036F000190614F481E090E0880F991F880F991F34
:10370000FC01E95AF34F608171810C94012780918B
:10371000830883FD76C589E40E94342B882311F445
:103720000C9417270E949B2A90E01816190614F48F
:1037300081E090E0880F991F880F991FFC01E95ADA
:10374000F34F6081718118A20C94272783E50E94B2
:10375000342B882309F455C50E949B2A182F90E02A
:10376000CD970CF01CE31093D0020E94CC696B0142
:103770007C01212F30E0A8EEB3E00E9427CBC60EDB
:10378000D71EE81EF91EC092CC02D092CD02E09264
:10379000CE02F092CF0235C50E9430A90E94324C71
:1037A0000E9415440E94F22C68EE73E080E090E0E5
:1037B0000E94142C60E089EE95E00E94F3A321C5DD
:1037C0008091DB028F7E80628093DB021AC583E5E5
:1037D0000E94342B8823E9F00E94CC696093D702C1
:1037E0007093D8028093D9029093DA020E94AF2A94
:1037F00020E030E04AE754E40E940AC50E942DCD43
:10380000609305027093060280930702909308026A
:10381000F8C480915F0984FF02C00C94D028809185
:10382000610987FF02C00C94D028809162098370DF
:1038300011F00C94D0280C94FA2883E50E94E62A13
:10384000882309F4DEC40E94CC696093D702709388
:10385000D8028093D9029093DA020E94AF2A20E026
:1038600030E04AE754E40E940AC50E942DCD6093DF
:10387000D1027093D2028093D3029093D402C1C438
:103880000E94DA2E87FDBDC490915F0994FD04C0AB
:103890009091610997FF0AC079E3C72E72E0D72E95
:1038A000E4E8EE2EE8E0FE2E10E009C090916209F7
:1038B000937091F7682F81E00E94892FA2C4D601EE
:1038C0008D916D010E94342B882309F459C0133067
:1038D00009F04FC00E94AF2A4B015C0120E030E0AC
:1038E00040EA51E40E94A4C487FF3AC0A5019401B4
:1038F0006091A4087091A5088091A6089091A708EE
:103900000E94B4CC2B013C019B01AC016091B40836
:103910007091B5088091B6089091B7080E940AC5C9
:103920006093B4087093B5088093B6089093B70875
:103930006091B4037091B5038091B6039091B70381
:103940000E94A9C4A30192010E940AC50E942DCD24
:103950006093B4037093B5038093B6039093B70359
:103960008092A4089092A508A092A608B092A708F9
:1039700007C00E94AF2AF701648B758B868B978BEB
:103980001F5FF4E0EF0EF11C143009F098CF0E9495
:103990009B4737C40E94824286E390E10E94CBADF0
:1039A00030C488E497E00E94392D60E088E397E016
:1039B0000E94FD6860E083E297E00E94FD6861E09C
:1039C00084E894E20E94FD6860E088E197E00E944C
:1039D000FD6861E088E097E00E94FD6860E08FEF9D
:1039E00096E00E94FD6861E085EF96E00E94FD6828
:1039F00060E08BEE96E00E94FD6860E084EE96E069
:103A00000E94FD6860E08CED96E00E94FD6860E039
:103A10008EEC96E00E94FD6860E080EC96E00E94EB
:103A2000FD6860E081EB96E00E94FD6860E083EA5B
:103A300096E00E94FD6860E08DE896E00E94FD68D7
:103A400060E08CE796E00E94FD6860E08DE696E01D
:103A50000E94FD6861E086E696E00E94FD6860E0F5
:103A600081E596E00E94FD6860E083E496E00E94B4
:103A7000FD6861E080E396E00E94FD6860E083E21B
:103A800096E00E94FD6861E08EE196E00E94FD688C
:103A900060E081E196E00E94FD6860E08DEF95E0D6
:103AA0000E94FD68AEC380916309909164090097FC
:103AB00009F44BCBDC012C91222309F446CB60E0C6
:103AC0000E9485A49EC3009163091091640994E04B
:103AD000F12C40E0915021F1F8018081282F2B7FBB
:103AE000213421F421812133D9F407C08035C1F478
:103AF000818180538A3048F013C0813421F08534AD
:103B000021F441E002C0FF24F39498012E5F3F4F5F
:103B100089012F5F3F4FF80180818032C9F3DACFEE
:103B200041110E945F2DFF2021F082E298E00E9467
:103B3000392DC8010E94CA2F64C30E94984B61C3EB
:103B400081E08093FC098093FB090E94B44B59C328
:103B500083E50E94342B882359F00E94972A8230F3
:103B600048F00E945B2D86E298E00E94392D49C3FF
:103B700080E090E08C01112782E40E94342B88239E
:103B8000D1F00E94972A059744F00E94972A8D3819
:103B9000910534F40E94972A05C085E090E002C0A8
:103BA0008CE890E0F801EE0FFF1FEE0FFF1FE95ABF
:103BB000F34F9183808386E40E94342B882309F499
:103BC00020C30E94972A97FD09C00E94972A8F3F21
:103BD000910509F034F40E94972A05C080E090E036
:103BE00002C08FEF90E0000F111F000F111FF801AE
:103BF000E95AF34F9383828304C30E94DA2E87FD30
:103C000000C349E3E42E42E0F42E04E818E0D701B3
:103C10008D917D010E94E62A882359F00E94AF2AE7
:103C20000E942DCDF80160837183828393830E946B
:103C3000BE430C5F1F4FF8E004391F0741F7E1C294
:103C40000E94DA2E87FDDDC239E3E32E32E0F32E47
:103C500004E818E0D7018D917D010E94E62A8823AF
:103C600039F00E94AF2AF80164A375A386A397A335
:103C70000C5F1F4FF8E004391F0761F7C2C2809143
:103C8000600987FF02C00C94FE28809161098E7044
:103C900011F00C94FE284091B8085091B908609139
:103CA000BA087091BB0888E498E00E94782F409190
:103CB000BC085091BD086091BE087091BF0881E1B9
:103CC00099E10E94782F4091C0085091C1086091FD
:103CD000C2087091C30882EF99E10E94782F8AE0B0
:103CE0000E94322D8EC280915F0981FF02C00C9428
:103CF00046298091600981FF02C00C944629809179
:103D000061098C7011F00C9446297BC21F5FB4E0EE
:103D1000EB0EF11C133011F40C94661688E5810F3C
:103D20000E94E62A882391F30E94AF2AD7016D935F
:103D30007D938D939C931397812F0E942D49E6CFFD
:103D4000409098035090990360909A0370909B0361
:103D500020910C0230910D0240910E0250910F0201
:103D6000C301B2010E94BACB68A379A38AA39BA323
:103D700080909C0390909D03A0909E03B0909F0321
:103D800020911002309111024091120250911302C1
:103D9000C501B4010E94BACB6CA37DA38EA39FA3DF
:103DA000C090A003D090A103E090A203F090A303E1
:103DB0002091140230911502409116025091170281
:103DC000C701B6010E94BACB68A779A78AA79BA7AB
:103DD000209118023091190240911A0250911B0251
:103DE000C301B2010E94BACB2B013C0120911C02FD
:103DF00030911D0240911E0250911F02C501B40175
:103E00000E94BACB4B015C0120912002309121022B
:103E10004091220250912302C701B6010E94BACB01
:103E20006B017C010E945F2D87E898E00E94392D8C
:103E300083E50E94E62A982F882371F02091D5020D
:103E40003091D602232B31F00E949B2A91E0811100
:103E500001C090E090930A0280910A02882319F031
:103E600084EA94E002C084E497E00E94392D8FE751
:103E700098E00E94392D48A159A16AA17BA18DE447
:103E80009AE10E94782F4CA15DA16EA17FA18EEBDB
:103E900096E20E94782F48A559A56AA57BA587EBD5
:103EA00096E20E94782F88E697E10E94392D87E7F5
:103EB00098E00E94392DB301A2018DE49AE10E949D
:103EC000782FB501A4018EEB96E20E94782FB701FE
:103ED000A60187EB96E20E94782F8AE00E94322D9D
:103EE00090C183E50E94342B882331F00E94972AE9
:103EF000909328028093270280915F099091600936
:103F0000A0916109B0916209892B8A2B8B2B09F052
:103F100078C1609127027091280287E998E00E9499
:103F2000CD2E85E20E94322D8AE00E94322D69C199
:103F300083E50E94342B882321F00E94872A8B017D
:103F400002C004E011E080E50E94342B882349F090
:103F50000E94872ACB016938734128F088E893E1F1
:103F600002C088EE93E0B8010E94BCA34AC180E57C
:103F70000E94E62A882351F00E94AF2A60933A0DEE
:103F800070933B0D80933C0D90933D0D89E40E940E
:103F9000E62A882381F00E94AF2A2CEA35EC47E21A
:103FA0005EE30E940AC560933E0D70933F0D8093BF
:103FB000400D9093410D84E40E94E62A882381F00D
:103FC0000E94AF2A2CEA35EC47E25EE30E94B4CCB3
:103FD0006093420D7093430D8093440D9093450D73
:103FE0000E945F2D40913A0D50913B0D60913C0D28
:103FF00070913D0D83EA98E00E94782F2CEA35EC11
:1040000047E25EE360913E0D70913F0D8091400D5F
:104010009091410D0E94B4CCAB01BC018FE998E0B6
:104020000E94782F2CEA35EC47E25EE36091420D66
:104030007091430D8091440D9091450D0E940AC5E9
:10404000AB01BC018BE998E00E94782F8AE00E94C6
:10405000322DD7C00E94B162D4C09091EC0890FD7F
:1040600002C087E001C086E091FD8D7F9E012F5F39
:104070003F4F190192FD02C00C94A2298B7F11F0D1
:104080000C94D02906E31DE048E853E059A348A367
:1040900095EDC92E9CE0D92E7901F80165917591B5
:1040A00085919491A8A1B9A18D909D90AD90BD905E
:1040B000B9A3A8A3A50194010E94B9CB2B013C018F
:1040C000F701608371838283938320E030E040EACC
:1040D00051EC0E941ACE87FD0AC020E030E040EA91
:1040E00051E4C301B2010E94A4C4181634F4F601CD
:1040F0008491181614F40C94D329D7018D909D90B7
:10410000AD90BD907D0120E030E040EA51ECC5016A
:10411000B4010E941ACE87FF02C00C94DF2920E070
:1041200030E040EA51E4C501B4010E94A4C418166D
:1041300014F00C94F4290C94DF290E947B5661C082
:104140000E941A905EC061E083E50E94F32B91E02B
:1041500089270E94039155C09093560C0E944B5B97
:104160001092560C882309F44CC00E945F2D85EFF5
:1041700098E00E94392D45C08091901182FF04C0C3
:104180008064809390113DC083FF3BC00E9433AE9A
:1041900038C081E08093910B1092DB0C60E083E5E6
:1041A0000E94F32B81112DC00E94EA662AC00E9452
:1041B000BF4B6D3371058105910520F088E199E0D1
:1041C0000E94176984E199E00E94176980E099E0F4
:1041D0000E94392D8EEA98E190930D0A80930C0A83
:1041E00010C00E944AAE0DC00E94CC696093D702F5
:1041F0007093D8028093D9029093DA0202C00E9491
:104200004AAE6696FFAD6697F11102C00E94DA666B
:1042100065962FAD65972093DC020C94442A11E03B
:1042200032E02316310409F010E020E030E0A9016B
:10423000C701B6010E94A4C4881F8827881F1813CD
:10424000A4C020E030E040E85FE328A739A74AA7F0
:104250005BA728A139A14AA15BA1C501B4010E94B5
:10426000B9CB20E030E040E05FE30E940AC568A3DC
:1042700079A38AA39BA32CA13DA14EA15FA1C30159
:10428000B2010E94B9CB20E030E040E05FE30E9441
:104290000AC56CA37DA38EA39FA328A139A14AA11F
:1042A0005BA1CA01B9010E940AC54B015C012CA1A6
:1042B0003DA14EA15FA1CA01B9010E940AC59B019F
:1042C000AC01C501B4010E94BACB0E9468CE4B017B
:1042D0005C019B01AC01C701B6010E94B9CB2B0167
:1042E0003C01A5019401C701B6010E94BACB9B0114
:1042F000AC01C301B2010E940AC56B017C0120E040
:1043000030E0A9010E941ACE87FD07C0C701B6019F
:104310000E9468CE2B013C0103C0412C512C32017C
:104320006CA17DA18EA19FA19058A50194010E942E
:10433000B4CC28A539A54AA55BA50E940AC5A3014E
:1043400092010E940AC528A139A14AA15BA10E943D
:10435000BACB6B017C01A501940168A179A18AA166
:104360009BA10E94B4CC28A539A54AA55BA50E94B3
:104370000AC5A30192010E940AC52CA13DA14EA12C
:104380005FA10E94BACB0C94531580E090E0A0E8A6
:10439000BFEB88A799A7AAA7BBA75BCF0E945B2DFD
:1043A0008FEB94E00E94392D2CCF20E030E0A90162
:1043B000C701B6010E94A4C4882381F318A619A6D8
:1043C0001AA61BA6A7019601505828A339A34AA3F1
:1043D0005BA388A599A5AAA5BBA5B0588CA39DA34E
:1043E000AEA3BFA3CA01B9010E940AC54B015C017B
:1043F0002CA13DA14EA15FA1CA01B9010E940AC52D
:104400009B01AC01C501B4010E94BACB0E9468CEE9
:104410006CAF7DAF8EAF9FAF209188033091890341
:1044200040918A0350918B032CA73DA74EA75FA70D
:10443000A70196016CA57DA58EA59FA50E94BACB6C
:1044400024966CAF7DAF8EAF9FAF249780918C0385
:1044500090918D03A0918E03B0918F0388AB99AB9F
:10446000AAABBBAB28A539A54AA55BA5BC01CD016C
:104470000E94BACB28966CAF7DAF8EAF9FAF2897C6
:104480002091ED083091EE084091EF085091F0082E
:104490002CAB3DAB4EAB5FAB24962CAD3DAD4EADE2
:1044A0005FAD24976CA97DA98EA99FA90E94B9CB65
:1044B0006B017C018091F1089091F208A091F308C2
:1044C000B091F40888AF99AFAAAFBBAF28962CADD6
:1044D0003DAD4EAD5FAD2897BC01CD010E94B9CB7B
:1044E0004B015C01A701960168A179A18AA19BA15A
:1044F0000E940AC52B013C01A50194016CA17DA17C
:104500008EA19FA10E940AC59B01AC01C301B2010B
:104510000E94BACB2B013C01A501940168A179A1AD
:104520008AA19BA10E940AC54B015C01A7019601CB
:104530006CA17DA18EA19FA10E940AC59B01AC0127
:10454000C501B4010E94B9CBA30192010E9439CCEC
:104550006B017C0120E030E0A9010E94A4C487FF28
:104560000AC02BED3FE049EC50E4C701B6010E94C0
:10457000BACB6B017C012BED3FE049EC50E4C70165
:10458000B6010E94B4CC20E030E040EC51E40E943F
:104590000AC50E9498CC0E942DCD8B01672B11F487
:1045A00001E010E032E02316310451F42BED3FE03E
:1045B00049EC50E4C701B6010E94B9CB6B017C0104
:1045C00020E030E0A901C701B6010E94A4C4811116
:1045D00022C02CA93DA94EA95FA96CA57DA58EA5D9
:1045E0009FA50E94A4C4811116C028AD39AD4AAD63
:1045F0005BAD68A979A98AA99BA90E94A4C481116D
:104600000AC008E110E0ABEDCA2EAFE0DA2EA9EC4B
:10461000EA2EA0E4FA2E8091900390919103A0914C
:104620009203B091930388AB99ABAAABBBAB9C014F
:10463000AD016091F5087091F6088091F7089091AE
:10464000F8080E94B9CB2B013C01A70196016CAD83
:104650007DAD8EAD9FAD0E940AC54B015C0120E08F
:1046600030E0A901C301B2010E94A4C48823C9F0AB
:10467000A5019401C501B4010E940AC54B015C016A
:10468000A3019201C301B2010E940AC59B01AC01C2
:10469000C501B4010E94BACB0E9468CE4B015C01F7
:1046A0000DC020E030E0A901C501B4010E941ACE7E
:1046B00087FF04C0B7FAB094B7F8B0942FE632E1A0
:1046C00043E85AE3C501B4010E94A4C487FD15C2A2
:1046D0002091F9083091FA084091FB085091FC08AC
:1046E00028AF39AF4AAF5BAF8091940390919503A7
:1046F000A0919603B09197038CAB9DABAEABBFABD3
:104700002AE037ED43E25CE3609100027091010220
:1047100080910202909103020E940AC56CA77DA7B6
:104720008EA79FA76091270270912802072E000C88
:10473000880B990B0E94ABC49B01AC016CA57DA5B5
:104740008EA59FA50E940AC56C8F7D8F8E8F9F8F2F
:10475000C501B4010E945CCD0E942DCD1B016017E4
:10476000710708F41801B10180E090E00E94A9C42B
:104770004B015C019B01AC01C701B6010E94B4CCA6
:104780006CA77DA78EA79FA7A5019401C301B201C5
:104790000E94B4CC60966CAF7DAF8EAF9FAF609738
:1047A0002CA93DA94EA95FA968AD79AD8AAD9BAD95
:1047B0000E94B9CBA50194010E94B4CC64966CAF61
:1047C0007DAF8EAF9FAF64972CA53DA54EA55FA58D
:1047D000CA01B9010E940AC56B017C019B01AC01B1
:1047E0006CA57DA58EA59FA50E940AC520E030E09E
:1047F00040EC50E40E94B4CC9B01AC016CA57DA5BB
:104800008EA59FA50E94B9CB68AF79AF8AAF9BAF49
:1048100020E030E040E05FE3C701B6010E940AC536
:104820009B01AC0160E070E080E89FE30E94B9CB9F
:104830006CAF7DAF8EAF9FAF28A939A94AA95BA9FC
:1048400029873A874B875C878CA99DA9AEA9BFA908
:104850008D879E87AF87B88B0E94CC699B01AC0186
:1048600028533F4F4F4F5F4F2C962CAF3DAF4EAF6D
:104870005FAF2C9748A059A06AA07BA041E050E010
:1048800059AB48AB59E15CAB88A999A9821593054E
:1048900008F00DC10E941CAB0E94CC69DC01CB0169
:1048A0002C962CAD3DAD4EAD5FAD2C97821B930B7E
:1048B000A40BB50BB7FD10C00E94CC699B01AC01E5
:1048C00028533F4F4F4F5F4F2C962CAF3DAF4EAF0D
:1048D0005FAF2C970E94EB2F3CA931503CAB3323A8
:1048E000E9F12CA13DA14EA15FA16CAD7DAD8EADD6
:1048F0009FAD0E940AC56B017C019201A30168ADC6
:1049000079AD8AAD9BAD0E940AC5A70196010E94B0
:10491000BACB7B018C019201A3016CAD7DAD8EAD54
:104920009FAD0E940AC54B015C012CA13DA14EA187
:104930005FA168AD79AD8AAD9BAD0E940AC59B01B0
:10494000AC01C501B4010E94B9CB2B013C01C701E8
:10495000D8018CA39DA3AEA3BFA34FC048A959A95A
:10496000BA0180E090E00E94A9C42CA53DA54EA507
:104970005FA50E940AC54B015C010E94AFCC6B0190
:104980007C01C501B4010E945ACE4B015C01A70114
:10499000960168A179A18AA19BA10E940AC52B0159
:1049A0003C0128A539A54AA55BA5C501B4010E9413
:1049B0000AC5A30192010E94BACB2B013C01A501BB
:1049C000940168A179A18AA19BA10E940AC54B010B
:1049D0005C0128A539A54AA55BA5C701B6010E94BF
:1049E0000AC59B01AC01C501B4010E94B9CB6CA3FF
:1049F0007DA38EA39FA359E15CAB9201A3012496F2
:104A00006CAD7DAD8EAD9FAD24970E94BACB69830E
:104A10007A838B839C832CA13DA14EA15FA1289614
:104A20006CAD7DAD8EAD9FAD28970E94BACB6D83E6
:104A30007E838F83988760962CAD3DAD4EAD5FAD84
:104A4000609769857A858B859C850E94BACB69873A
:104A50007A878B879C8764962CAD3DAD4EAD5FAD5C
:104A600064976D857E858F8598890E94BACB6D8706
:104A70007E878F87988BCE0101960E944D498E01CB
:104A8000045E1F4F9E01235F3F4FAE01475F5F4FA4
:104A9000BE016B5F7F4FCE0101960E9428428823A2
:104AA00031F088A999A9019699AB88ABEDCE80E148
:104AB000EDEEF8E0DE01119601900D928A95E1F796
:104AC000CE0101960E944D498E01045E1F4F9E014A
:104AD000235F3F4FAE01475F5F4FBE016B5F7F4F6C
:104AE000CE0101960E94284280E1FE013196A8E89D
:104AF000B3E001900D928A95E1F70E94CC69609332
:104B0000D7027093D8028093D9029093DA0279CBBE
:104B10000E94054410920B020E94CC696093D70258
:104B20007093D8028093D9029093DA0280910002A8
:104B300090910102A0910202B09103028093DF02E2
:104B40009093E002A093E102B093E20280912702E9
:104B5000909128029093DE028093DD0284E690E03B
:104B6000909328028093270281E08093FC090E94A1
:104B7000B44B8AE50E94E62A382E88E50E94E62A90
:104B8000882E89E50E94E62A8812EEC0381411F0BA
:104B9000D82C06C0DD24D394882483943324339402
:104BA00082E50E94342B882369F00E94AF2A2B01F2
:104BB0003C0120E030E0A9010E94A4C4882309F44C
:104BC000A0C006C0412C512CF0EA6F2EF0E47F2EDD
:104BD000811003C0DD2009F49EC020E030E0A9016F
:104BE000C301B2010E94BACB7B018C01909090036B
:104BF000C0909103B0909203A0909303292D3C2D77
:104C00004B2D5A2D0E94A4C44090880350908903D4
:104C100060908A0370908B0320918C0330918D03F8
:104C200040918E0350918F0328A339A34AA35BA31D
:104C300020E030E0A90187FD0EC4B701C8010E9441
:104C4000A4C487FD04C0E12CF12C00E010E080E05A
:104C500090E0A0E8B0E48C8F9D8FAE8FBF8F8983EA
:104C60009A83AB83BC839701A801692D7C2D8B2D82
:104C70009A2D0E94A4C487FF0EC0C701D80180935B
:104C8000900390939103A0939203B0939303CE016A
:104C90004C960E94EE49409288035092890360929C
:104CA0008A0370928B0388A199A1AAA1BBA18093CA
:104CB0008C0390938D03A0938E03B0938F03CE014A
:104CC00001960E94EE499701A801609190037091AE
:104CD000910380919203909193030E941ACE18162B
:104CE00074F4C701D8018093900390939103A0932B
:104CF0009203B0939303CE014C960E94EE490E941A
:104D00000544882019F080E00E94404ADD2019F017
:104D100081E00E94404A332019F082E00E94404A1C
:104D20000E94FE498091FB098093FC098091DF027B
:104D30009091E002A091E102B091E2028093000222
:104D400090930102A0930202B09303028091DD02CE
:104D50009091DE02909328028093270283E0809353
:104D600038020E94114B4DCAD82E1ACF0E94EB2F49
:104D70000C941A181092DC0C1093DC020E94FD4275
:104D800040CA88E50E94E62A81115F9889E50E9461
:104D9000E62A81118A988AE50E94E62A882329F06A
:104DA0008091080181708093060185E40E94E62AC3
:104DB00028CA60E081EF94E00E94F3A35F988A988C
:104DC000809108018170809306011BCA0E94872A86
:104DD000AB01BC0140938C1150938D1160938E11E7
:104DE00070938F1180EA9FE00E94466C0ACA83E5A7
:104DF0000E94342B882309F404CA0E94AF2A0E941F
:104E000026CD6C3871050CF48B011093380D00938E
:104E1000370D0E944DA78091370D9091380D069760
:104E20000CF0EFC90E94324C0E94FD42EAC983E5B2
:104E30000E94342B88A3811106C082E50E94342B86
:104E4000882309F4DEC90E94AF2A0E9426CD6C385F
:104E500071050CF0A2C1962F872F9093370D809388
:104E6000380D0E944DA78091370D9091380D06970F
:104E700014F00E940E4C6091370D7091380D072E82
:104E8000000C880B990B0E94ABC42091330D30911C
:104E9000340D4091350D5091360D0E941ACE1816E2
:104EA0001CF48AED95E002C08BEC95E060E00E9476
:104EB000F3A381E08093260218A619A61AA61BA6C2
:104EC00028961CAE1DAE1EAE1FAE28971CAEFCE38E
:104ED0002996FFAF29972CE12D962FAF2D9736E419
:104EE00061963FAF6197C12CD12CA0E8EA2EBFEBB1
:104EF000FB2E1CA241E048AF812C912C5401609103
:104F0000370D7091380D072E000C880B990B0E94FD
:104F1000ABC4162F072F782E692E9601A7010E9489
:104F2000A4C4882331F12091330D3091340D409188
:104F3000350D5091360D88A1612F702F811109C058
:104F4000872D962D0E94A4C4881F8827881F8CA3B4
:104F500016C0872D962D0E94A4C487FF0FC0809194
:104F60002602882309F44DC9109226020E94FD42B0
:104F700048C91C2D0D2D7E2C6F2C01C01CA20E9437
:104F8000CC696B017C01DC01CB0128962CAD3DADD9
:104F90004EAD5FAD2897821B930BA40BB50BB7FDED
:104FA00035C0D701C60188519C4FAF4FBF4F2896DF
:104FB0008CAF9DAFAEAFBFAF289780E00E94A4A892
:104FC00087EC95E00E94392D81149104A104B1046D
:104FD000B9F0D501C401805F984DAF4FBF4FBC0100
:104FE000CD016C197D098E099F0928EE33E040E060
:104FF00050E00E94FACACA01B9010E94B12E03C052
:105000008FE30E94322D8AE00E94322D0E94EB2F06
:105010000E94CC696093D7027093D8028093D90222
:105020009093DA029091330D9CA7A091340DA8AB18
:10503000B091350DBCABE091360D2196EFAF2197C5
:10504000292F3A2F4B2F5E2F612F702F872D962DF2
:105050000E94B9CB1B012C0120E030E0A9010E9485
:105060001ACE87FF04C057FA509457F85094811411
:105070009104A104B104E1F420E030E040E85FE3F2
:10508000C201B1010E94A4C487FF1EC0F8ADFF2376
:1050900039F0F5E08F2EFDE09F2EA12CB12C03C03E
:1050A000812C912C54018C0C9D1CAE1CBF1C0CC07F
:1050B00020E030E040E450E4C201B1010E941ACE89
:1050C000181614F4460157012CA1222309F448C0F4
:1050D00088A599A5AAA5BBA5892B8A2B8B2B61F046
:1050E000D701C60128A539A54AA55BA5821B930B4C
:1050F000A40BB50BB7FD34C02CA538A94CA921963B
:105100005FAD21976CAD29967FAD29972D968FAD18
:105110002D9761969FAD61970E94B9CB20E030E05A
:1051200040E85FE30E94A4C487FD19CFD701C60100
:10513000805A9541AF4FBF4F88A799A7AAA7BBA791
:105140009CA59CAFA8A92996AFAF2997BCA92D967D
:10515000BFAF2D972196EFAD21976196EFAF619785
:1051600080912602882309F4FACE81149104A104C7
:10517000B10431F418AEC12ED02EE72CF62CBFCEE0
:10518000F0E1CF1AF7E2DF0AE108F108C818D90800
:10519000EA08FB08F7FCEECFE2CE9CE880E05DCEAB
:1051A0000E94054488E50E94E62A882331F05F9A30
:1051B0008091FE098E7F8093FE0989E50E94E62A90
:1051C000882331F08A9A8091FE098D7F8093FE09B1
:1051D0008AE50E94E62A882309F4E7CD8091080138
:1051E00080958170809306018091FE098B7F80936A
:1051F000FE09DBCD0E9415440C94012183E50E9439
:10520000342B882391F00E94AF2A6093B8087093E2
:10521000B9088093BA089093BB086093C008709354
:10522000C1088093C2089093C30880E50E94342B84
:10523000882351F00E94AF2A6093B8087093B90890
:105240008093BA089093BB0882E50E94342B882390
:1052500051F00E94AF2A6093BC087093BD08809300
:10526000BE089093BF0884E50E94342B882311F474
:105270000C9401210E94AF2A6093C0087093C1086A
:105280008093C2089093C3080C94012182E40E9489
:10529000E62A882351F00E94772A6093940870933D
:1052A0009508809396089093970883E50E94E62AD4
:1052B000882351F00E94AF2A6093C4087093C508F8
:1052C0008093C6089093C70884E50E94E62A882345
:1052D00051F00E94AF2A6093C8087093C908809368
:1052E000CA089093CB088AE40E94E62A882311F426
:1052F0000C9401210E94AF2A6B017C012AE037ED5A
:1053000043E25CE30E941ACE87FD14C02AE939E922
:1053100049E95EE3C701B6010E94A4C4181654F01F
:10532000C092A403D092A503E092A603F092A70333
:105330000C9401210E945B2D88E598E00E94392D94
:105340000C9401212EE932E081FF03C040EA52E0D3
:1053500002C04AEC52E080FF03C082EA92E002C041
:105360008AEC92E03F932F935F934F939F938F9399
:1053700087EA98E09F938F933F922F920E943CC4BC
:105380000E945F2DC1010E94CA2F60E0C1010E94EE
:1053900085A40FB6F894DEBF0FBECDBF0C940121DB
:1053A0002AEC32E0D1CFB7FAB094B7F8B094D70175
:1053B0008D929D92AD92BC9213970C947D200E9489
:1053C0005B2D87ED98E00E94392D61E089EC98E033
:1053D0000E94F3A30E94E14F68E270E088EC90E045
:1053E0000E94BCA30C9401210C5F1F4FBFEFCB1A8E
:1053F000DB0AEDE002341E0711F00C944D208FEF14
:10540000E82E89E0F82E10E0F10181919191A191AF
:10541000B1911F01F70181939193A193B1937F0102
:10542000812F0E942D491F5F133071F70E94114B8D
:1054300060E089EB98E00E94F3A363E972E084E600
:1054400090E00E94BCA36AEB72E084E690E00E94C8
:10545000BCA30C940121692D7C2D8B2D9A2D0E94CB
:10546000A4C487FFF0CB80E090E0A0E8B0E48C8F8C
:105470009D8FAE8FBF8F89839A83AB83BC83E92CCA
:10548000FC2C0B2D1A2D07CCCB5ADF4F0FB6F894FE
:10549000DEBF0FBECDBFDF91CF911F910F91FF9067
:1054A000EF90DF90CF90BF90AF909F908F907F90C4
:1054B0006F905F904F903F902F900895282F80918C
:1054C000DB02233021F485FD0EC084FD0EC090E088
:1054D000A0E0B0E004C0B695A795979587952A956A
:1054E000D2F78170089581E0089580E00895809159
:1054F000D5029091D602009731F04AE050E060E08A
:1055000070E00C94B8C260E070E0CB010895809127
:10551000D5029091D602009731F04AE050E060E069
:1055200070E00C948AC160E070E0CB0108950E94A5
:10553000872ACB0108950E94872A97FD0CC00E94FC
:10554000872A6F3F71058105910509F034F40E94A7
:10555000872A862F089580E008958FEF08950F938E
:105560001F93CF938091D5029091D602009711F1AD
:10557000FC018F01C1912C2F2F7DA9F0C53411F0B2
:10558000C536B9F7F801108260E070E08091D5026D
:105590009091D6020E942EC0F801C083562F472F4B
:1055A000382F292F0BC060E070E0CF911F910F9131
:1055B0000C942EC050E040E030E020E0652F742FC6
:1055C000832F922FCF911F910F91089581548A318B
:1055D00008F047C0E82FF0E040915F095091600962
:1055E000609161097091620904C07695679557953D
:1055F00047958A95D2F7842F817040FF34C0EB5BCA
:10560000F64F9081992341F1E091930DF091940D23
:10561000E90FF11D908120ED290F2A3098F09E327C
:1056200011F491810CC09D3211F09B3271F4918183
:1056300020ED290F2A3030F09E3239F492819053B8
:105640009A3018F42E2F9F2F02C020E090E0209374
:10565000D5029093D60208951092D6021092D502E8
:10566000089580E0089508950E94E62A882341F075
:1056700081E02091D5023091D602232B09F480E0FD
:1056800008958F929F92AF92BF92CF92DF92EF9246
:10569000FF920F931F93CF938DEEE82E88E0F82EA4
:1056A00008E813E098E9C92E93E0D92EC0E088E518
:1056B0008C0F0E94342B882311F10E94AF2A4B01DA
:1056C0005C018C2F0E945E2A882351F0F801208112
:1056D000318142815381C501B4010E94BACB09C016
:1056E000F6012081318142815381C501B4010E94BC
:1056F000B9CBF70160837183828393830AC0F80179
:1057000080819181A281B381F70180839183A283FB
:10571000B383CF5FF4E0EF0EF11C0C5F1F4F84E00A
:10572000C80ED11CC33019F685E40E94342B88239F
:1057300001F10E94AF2A6B017C0183E00E945E2A86
:10574000882371F020919403309195034091960342
:1057500050919703C701B6010E94BACB6B017C013F
:10576000C092F908D092FA08E092FB08F092FC0887
:1057700010C08091940390919503A0919603B091ED
:1057800097038093F9089093FA08A093FB08B093CD
:10579000FC0886E40E94342B8823C9F00E94AF2ABB
:1057A00020E030E0A9010E941ACE181684F40E946D
:1057B000AF2A20E030E040E752E40E94B4CC60938E
:1057C0000002709301028093020290930302CF9132
:1057D0001F910F91FF90EF90DF90CF90BF90AF900F
:1057E0009F908F900895CF93DF93D82FC62F0E945C
:1057F000342B882379F08091D5029091D602892BA1
:1058000011F461E00DC00E949B2A61E0811108C083
:1058100060E006C08D2F0E94E62A8111F2CF6C2F26
:10582000862FDF91CF910895CF92DF92EF92FF9272
:105830006B017C0183E3C816D104E104F10470F02C
:1058400082E3C81AD108E108F10862E370E080E061
:1058500090E00E9449B00E941CABECCFC701B6019A
:105860000E9449B0FF90EF90DF90CF900C941CAB5A
:105870005F9A8091FE098E7F8093FE098A9A8091BB
:10588000FE098D7F8093FE098091080180958170CB
:10589000809306018091FE098B7F8093FE09089515
:1058A0004F925F926F927F928F929F92AF92BF9230
:1058B000CF92DF92EF92FF920E945346F82E809192
:1058C00021108093201080931F1080931E1084E677
:1058D00080931D100E94DD6080ED93E0909382081C
:1058E00080938108F1100E94604681E08093110D41
:1058F0000E94054481E00E9411484B015C0180E058
:105900000E9411482B013C016093E6027093E7026C
:105910008093E8029093E9028092EA029092EB026F
:10592000A092EC02B092ED0282E00E9411486B015D
:105930007C016093EE027093EF028093F0029093EB
:10594000F10283E00E94114840928803509289033B
:1059500060928A0370928B0380928C0390928D03E5
:10596000A0928E03B0928F03C0929003D0929103C5
:10597000E0929203F09293036093940370939503E3
:105980008093960390939703FF90EF90DF90CF90D2
:10599000BF90AF909F908F907F906F905F904F904F
:1059A0000C94FE499091901193FB882780F993FF06
:1059B00006C081E09091A30F911101C080E008958D
:1059C00080918703823061F00E94D22C882349F0B5
:1059D0008091901182FB882780F991E089270895B2
:1059E00081E008951092C00308958F929F92AF9224
:1059F000BF92CF92DF92EF92FF920F93CF93DF93FC
:105A00001F92CDB7DEB75C016B017A014901F50148
:105A1000808191810E94D4CA8983002311F0F6010C
:105A20008083BE016F5F7F4FC4010E9478B2F50191
:105A300080819181019691838083FFEFCF1ADF0AE5
:105A400081E0E81AF10819F780E00F90DF91CF911B
:105A50000F91FF90EF90DF90CF90BF90AF909F900D
:105A60008F9008959091C00095FFFCCF8093C60061
:105A70000895CF93DF93FC018491EF012196882351
:105A800021F00E94322DFE01F7CFDF91CF910895D2
:105A90000F931F93CF93DF938B010E94392DE80161
:105AA0008991882319F00E94322DFACFDF91CF918E
:105AB0001F910F91089580E79BE00C94392D8AE6A1
:105AC0009BE00C94392DFF920F931F93CF93DF939C
:105AD000EC018B01F42E0E9430A90E945B2D8AE418
